{
  "contractName": "TicTacToe",
  "abi": [
    {
      "anonymous": false,
      "inputs": [
        {
          "indexed": false,
          "internalType": "uint256",
          "name": "gameId",
          "type": "uint256"
        },
        {
          "indexed": false,
          "internalType": "address",
          "name": "creator",
          "type": "address"
        }
      ],
      "name": "GameCreated",
      "type": "event"
    },
    {
      "anonymous": false,
      "inputs": [
        {
          "indexed": false,
          "internalType": "uint256",
          "name": "gameId",
          "type": "uint256"
        },
        {
          "indexed": false,
          "internalType": "enum TicTacToe.Winners",
          "name": "winner",
          "type": "uint8"
        }
      ],
      "name": "GameOver",
      "type": "event"
    },
    {
      "anonymous": false,
      "inputs": [
        {
          "indexed": false,
          "internalType": "uint256",
          "name": "gameId",
          "type": "uint256"
        },
        {
          "components": [
            {
              "internalType": "address",
              "name": "addr",
              "type": "address"
            },
            {
              "internalType": "uint256",
              "name": "bet",
              "type": "uint256"
            }
          ],
          "indexed": false,
          "internalType": "struct TicTacToe.Player",
          "name": "player",
          "type": "tuple"
        },
        {
          "indexed": false,
          "internalType": "uint8",
          "name": "playerNumber",
          "type": "uint8"
        }
      ],
      "name": "PlayerJoinedGame",
      "type": "event"
    },
    {
      "anonymous": false,
      "inputs": [
        {
          "indexed": false,
          "internalType": "uint256",
          "name": "gameId",
          "type": "uint256"
        },
        {
          "components": [
            {
              "internalType": "address",
              "name": "addr",
              "type": "address"
            },
            {
              "internalType": "uint256",
              "name": "bet",
              "type": "uint256"
            }
          ],
          "indexed": false,
          "internalType": "struct TicTacToe.Player",
          "name": "player",
          "type": "tuple"
        },
        {
          "indexed": false,
          "internalType": "uint256",
          "name": "xCoordinate",
          "type": "uint256"
        },
        {
          "indexed": false,
          "internalType": "uint256",
          "name": "yCoordinate",
          "type": "uint256"
        }
      ],
      "name": "PlayerMadeMove",
      "type": "event"
    },
    {
      "inputs": [],
      "name": "numberOfGames",
      "outputs": [
        {
          "internalType": "uint256",
          "name": "",
          "type": "uint256"
        }
      ],
      "stateMutability": "view",
      "type": "function",
      "constant": true
    },
    {
      "inputs": [
        {
          "internalType": "uint256",
          "name": "_required_bet",
          "type": "uint256"
        }
      ],
      "name": "newGame",
      "outputs": [
        {
          "internalType": "uint256",
          "name": "gameId",
          "type": "uint256"
        }
      ],
      "stateMutability": "nonpayable",
      "type": "function"
    },
    {
      "inputs": [
        {
          "internalType": "uint256",
          "name": "_gameId",
          "type": "uint256"
        }
      ],
      "name": "getGameInfo",
      "outputs": [
        {
          "components": [
            {
              "internalType": "uint256",
              "name": "totalBet",
              "type": "uint256"
            },
            {
              "internalType": "uint256",
              "name": "required_bet",
              "type": "uint256"
            },
            {
              "components": [
                {
                  "internalType": "address",
                  "name": "addr",
                  "type": "address"
                },
                {
                  "internalType": "uint256",
                  "name": "bet",
                  "type": "uint256"
                }
              ],
              "internalType": "struct TicTacToe.Player",
              "name": "playerOne",
              "type": "tuple"
            },
            {
              "components": [
                {
                  "internalType": "address",
                  "name": "addr",
                  "type": "address"
                },
                {
                  "internalType": "uint256",
                  "name": "bet",
                  "type": "uint256"
                }
              ],
              "internalType": "struct TicTacToe.Player",
              "name": "playerTwo",
              "type": "tuple"
            },
            {
              "internalType": "enum TicTacToe.Winners",
              "name": "winner",
              "type": "uint8"
            },
            {
              "internalType": "enum TicTacToe.Status",
              "name": "status",
              "type": "uint8"
            },
            {
              "internalType": "enum TicTacToe.PlayerTypes",
              "name": "playerTurn",
              "type": "uint8"
            },
            {
              "internalType": "enum TicTacToe.PlayerTypes[3][3]",
              "name": "board",
              "type": "uint8[3][3]"
            }
          ],
          "internalType": "struct TicTacToe.Game",
          "name": "game",
          "type": "tuple"
        }
      ],
      "stateMutability": "view",
      "type": "function",
      "constant": true
    },
    {
      "inputs": [
        {
          "internalType": "uint256",
          "name": "_gameId",
          "type": "uint256"
        }
      ],
      "name": "joinGame",
      "outputs": [],
      "stateMutability": "payable",
      "type": "function",
      "payable": true
    },
    {
      "inputs": [
        {
          "internalType": "uint256",
          "name": "_gameId",
          "type": "uint256"
        },
        {
          "internalType": "uint256",
          "name": "_xCoordinate",
          "type": "uint256"
        },
        {
          "internalType": "uint256",
          "name": "_yCoordinate",
          "type": "uint256"
        }
      ],
      "name": "makeMove",
      "outputs": [],
      "stateMutability": "nonpayable",
      "type": "function"
    },
    {
      "inputs": [
        {
          "internalType": "uint256",
          "name": "_gameId",
          "type": "uint256"
        },
        {
          "internalType": "uint256",
          "name": "_xCoordinate",
          "type": "uint256"
        },
        {
          "internalType": "uint256",
          "name": "_yCoordinate",
          "type": "uint256"
        }
      ],
      "name": "_makeMove",
      "outputs": [
        {
          "internalType": "bool",
          "name": "success",
          "type": "bool"
        },
        {
          "internalType": "string",
          "name": "reason",
          "type": "string"
        }
      ],
      "stateMutability": "nonpayable",
      "type": "function"
    }
  ],
  "bytecode": "0x608060405234801561001057600080fd5b50612c57806100206000396000f3fe6080604052600436106100555760003560e01c80633f10d76b1461005a57806347e1d55014610098578063cde9ef78146100d5578063cfc2f5ff14610112578063efaa55a01461013b578063f692807014610157575b600080fd5b34801561006657600080fd5b50610081600480360381019061007c91906122b2565b610182565b60405161008f9291906123b0565b60405180910390f35b3480156100a457600080fd5b506100bf60048036038101906100ba91906123e0565b61098e565b6040516100cc919061276f565b60405180910390f35b3480156100e157600080fd5b506100fc60048036038101906100f791906123e0565b610c17565b604051610109919061279a565b60405180910390f35b34801561011e57600080fd5b50610139600480360381019061013491906122b2565b610ebd565b005b610155600480360381019061015091906123e0565b610f1f565b005b34801561016357600080fd5b5061016c610f7e565b604051610179919061279a565b60405180910390f35b600060606001548511156101d15760006040518060400160405280601481526020017f4e6f20737563682067616d65206578697374732e00000000000000000000000081525091509150610986565b60008060008781526020019081526020016000209050600160028111156101fb576101fa61248c565b5b8160060160019054906101000a900460ff16600281111561021f5761021e61248c565b5b146102665760006040518060400160405280601781526020017f47616d65206973206e6f7420696e2070726f67726573730000000000000000008152509250925050610986565b600061027182610f84565b9050600073ffffffffffffffffffffffffffffffffffffffff16816000015173ffffffffffffffffffffffffffffffffffffffff16036102ee5760006040518060400160405280601981526020017f43757272656e7420706c61796572206e6f7420666f756e642e00000000000000815250935093505050610986565b600060038111156103025761030161248c565b5b8260060160009054906101000a900460ff1660038111156103265761032561248c565b5b1461036e5760006040518060400160405280601b81526020017f5468652067616d652068617320616c726561647920656e6465642e0000000000815250935093505050610986565b806000015173ffffffffffffffffffffffffffffffffffffffff163373ffffffffffffffffffffffffffffffffffffffff16146103e85760006040518060400160405280601481526020017f4974206973206e6f7420796f7572207475726e2e000000000000000000000000815250935093505050610986565b600060028111156103fc576103fb61248c565b5b826007018760038110610412576104116127b5565b5b018660038110610425576104246127b5565b5b602091828204019190069054906101000a900460ff16600281111561044d5761044c61248c565b5b14610478576000604051806060016040528060318152602001612bd060319139935093505050610986565b8160060160029054906101000a900460ff168260070187600381106104a05761049f6127b5565b5b0186600381106104b3576104b26127b5565b5b602091828204019190066101000a81548160ff021916908360028111156104dd576104dc61248c565b5b02179055507f444b0deb3730bdca0248ebb6366b24e3b793732b3555a5bfaad868ecef34ffc1878288886040516105179493929190612813565b60405180910390a160006105d383600701600380602002604051908101604052809291906000905b828210156105ca578382016003806020026040519081016040528092919082600380156105b6576020028201916000905b82829054906101000a900460ff1660028111156105905761058f61248c565b5b815260200190600101906020826000010492830192600103820291508084116105705790505b50505050508152602001906001019061053f565b50505050611126565b9050600060038111156105e9576105e861248c565b5b8160038111156105fc576105fb61248c565b5b1461096357808360060160006101000a81548160ff021916908360038111156106285761062761248c565b5b021790555060028360060160016101000a81548160ff021916908360028111156106555761065461248c565b5b021790555060038081111561066d5761066c61248c565b5b8160038111156106805761067f61248c565b5b03610845576000808460020160000160009054906101000a900473ffffffffffffffffffffffffffffffffffffffff1673ffffffffffffffffffffffffffffffffffffffff1685600201600101546040516106da90612889565b60006040518083038185875af1925050503d8060008114610717576040519150601f19603f3d011682016040523d82523d6000602084013e61071c565b606091505b509150915081610761576040517f08c379a0000000000000000000000000000000000000000000000000000000008152600401610758906128ea565b60405180910390fd5b8460040160000160009054906101000a900473ffffffffffffffffffffffffffffffffffffffff1673ffffffffffffffffffffffffffffffffffffffff1685600401600101546040516107b390612889565b60006040518083038185875af1925050503d80600081146107f0576040519150601f19603f3d011682016040523d82523d6000602084013e6107f5565b606091505b5080925081935050508161083e576040517f08c379a0000000000000000000000000000000000000000000000000000000008152600401610835906128ea565b60405180910390fd5b505061090c565b600061085084610f84565b9050600080826000015173ffffffffffffffffffffffffffffffffffffffff16866000015460405161088190612889565b60006040518083038185875af1925050503d80600081146108be576040519150601f19603f3d011682016040523d82523d6000602084013e6108c3565b606091505b509150915081610908576040517f08c379a00000000000000000000000000000000000000000000000000000000081526004016108ff906128ea565b60405180910390fd5b5050505b7f132b564c6f96092065580fd28989d181dfbbfe4aa2fb7fb1eda8af68ba3073e0888260405161093d929190612919565b60405180910390a160016040518060200160405280600081525094509450505050610986565b61096c836112ae565b600160405180602001604052806000815250945094505050505b935093915050565b61099661202c565b600080838152602001908152602001600020604051806101000160405290816000820154815260200160018201548152602001600282016040518060400160405290816000820160009054906101000a900473ffffffffffffffffffffffffffffffffffffffff1673ffffffffffffffffffffffffffffffffffffffff1673ffffffffffffffffffffffffffffffffffffffff1681526020016001820154815250508152602001600482016040518060400160405290816000820160009054906101000a900473ffffffffffffffffffffffffffffffffffffffff1673ffffffffffffffffffffffffffffffffffffffff1673ffffffffffffffffffffffffffffffffffffffff16815260200160018201548152505081526020016006820160009054906101000a900460ff166003811115610ad557610ad461248c565b5b6003811115610ae757610ae661248c565b5b81526020016006820160019054906101000a900460ff166002811115610b1057610b0f61248c565b5b6002811115610b2257610b2161248c565b5b81526020016006820160029054906101000a900460ff166002811115610b4b57610b4a61248c565b5b6002811115610b5d57610b5c61248c565b5b815260200160078201600380602002604051908101604052809291906000905b82821015610c0857838201600380602002604051908101604052809291908260038015610bf4576020028201916000905b82829054906101000a900460ff166002811115610bce57610bcd61248c565b5b81526020019060010190602082600001049283019260010382029150808411610bae5790505b505050505081526020019060010190610b7d565b50505050815250509050919050565b6000633b9aca008211610c5f576040517f08c379a0000000000000000000000000000000000000000000000000000000008152600401610c569061298e565b60405180910390fd5b610c6761202c565b60018160c001906002811115610c8057610c7f61248c565b5b90816002811115610c9457610c9361248c565b5b8152505060008160a001906002811115610cb157610cb061248c565b5b90816002811115610cc557610cc461248c565b5b815250508281602001818152505060016000815480929190610ce6906129dd565b9190505550806000806001548152602001908152602001600020600082015181600001556020820151816001015560408201518160020160008201518160000160006101000a81548173ffffffffffffffffffffffffffffffffffffffff021916908373ffffffffffffffffffffffffffffffffffffffff16021790555060208201518160010155505060608201518160040160008201518160000160006101000a81548173ffffffffffffffffffffffffffffffffffffffff021916908373ffffffffffffffffffffffffffffffffffffffff16021790555060208201518160010155505060808201518160060160006101000a81548160ff02191690836003811115610df757610df661248c565b5b021790555060a08201518160060160016101000a81548160ff02191690836002811115610e2757610e2661248c565b5b021790555060c08201518160060160026101000a81548160ff02191690836002811115610e5757610e5661248c565b5b021790555060e082015181600701906003610e739291906120b9565b509050507fc3e0f84839dc888c892a013d10c8f9d6dc05a21a879d0ce468ca558013e9121c60015433604051610eaa929190612a34565b60405180910390a1600154915050919050565b60006060610ecc858585610182565b8092508193505050818190610f17576040517f08c379a0000000000000000000000000000000000000000000000000000000008152600401610f0e9190612a5d565b60405180910390fd5b505050505050565b60006060610f2d348461134e565b8092508193505050818190610f78576040517f08c379a0000000000000000000000000000000000000000000000000000000008152600401610f6f9190612a5d565b60405180910390fd5b50505050565b60015481565b610f8c612107565b60016002811115610fa057610f9f61248c565b5b8260060160029054906101000a900460ff166002811115610fc457610fc361248c565b5b0361103f57816002016040518060400160405290816000820160009054906101000a900473ffffffffffffffffffffffffffffffffffffffff1673ffffffffffffffffffffffffffffffffffffffff1673ffffffffffffffffffffffffffffffffffffffff1681526020016001820154815250509050611121565b6002808111156110525761105161248c565b5b8260060160029054906101000a900460ff1660028111156110765761107561248c565b5b036110f157816004016040518060400160405290816000820160009054906101000a900473ffffffffffffffffffffffffffffffffffffffff1673ffffffffffffffffffffffffffffffffffffffff1673ffffffffffffffffffffffffffffffffffffffff1681526020016001820154815250509050611121565b6040518060400160405280600073ffffffffffffffffffffffffffffffffffffffff168152602001600081525090505b919050565b60008061113283611812565b9050600160028111156111485761114761248c565b5b81600281111561115b5761115a61248c565b5b0361116a5760019150506112a9565b60028081111561117d5761117c61248c565b5b8160028111156111905761118f61248c565b5b0361119f5760029150506112a9565b6111a883611a05565b9050600160028111156111be576111bd61248c565b5b8160028111156111d1576111d061248c565b5b036111e05760019150506112a9565b6002808111156111f3576111f261248c565b5b8160028111156112065761120561248c565b5b036112155760029150506112a9565b61121e83611bf8565b9050600160028111156112345761123361248c565b5b8160028111156112475761124661248c565b5b036112565760019150506112a9565b6002808111156112695761126861248c565b5b81600281111561127c5761127b61248c565b5b0361128b5760029150506112a9565b61129483611f6c565b156112a35760039150506112a9565b60009150505b919050565b600160028111156112c2576112c161248c565b5b8160060160029054906101000a900460ff1660028111156112e6576112e561248c565b5b0361131d5760028160060160026101000a81548160ff021916908360028111156113135761131261248c565b5b021790555061134b565b60018160060160026101000a81548160ff021916908360028111156113455761134461248c565b5b02179055505b50565b60006060633b9aca008411611381576000604051806060016040528060218152602001612c01602191399150915061180b565b600084036113ca5760006040518060400160405280600f81526020017f4e6f2065746820737461636b65642e00000000000000000000000000000000008152509150915061180b565b6001548311156114155760006040518060400160405280601481526020017f4e6f20737563682067616d65206578697374732e0000000000000000000000008152509150915061180b565b600060405180604001604052803373ffffffffffffffffffffffffffffffffffffffff168152602001633b9aca008761144e9190612a7f565b815250905060008060008681526020019081526020016000209050806001015486146114af576040517f08c379a00000000000000000000000000000000000000000000000000000000081526004016114a690612aff565b60405180910390fd5b600073ffffffffffffffffffffffffffffffffffffffff168160020160000160009054906101000a900473ffffffffffffffffffffffffffffffffffffffff1673ffffffffffffffffffffffffffffffffffffffff16036115f857818160020160008201518160000160006101000a81548173ffffffffffffffffffffffffffffffffffffffff021916908373ffffffffffffffffffffffffffffffffffffffff16021790555060208201518160010155905050633b9aca00866115739190612a7f565b8160000160008282546115869190612b1f565b925050819055507fb7b142da4d5e7153b4b889be2bc2a3f6c16ed957358651736fd8d54cd3067e838583600160028111156115c4576115c361248c565b5b6040516115d393929190612b6f565b60405180910390a160016040518060200160405280600081525093509350505061180b565b600073ffffffffffffffffffffffffffffffffffffffff168160040160000160009054906101000a900473ffffffffffffffffffffffffffffffffffffffff1673ffffffffffffffffffffffffffffffffffffffff16036117cc573373ffffffffffffffffffffffffffffffffffffffff168160020160000160009054906101000a900473ffffffffffffffffffffffffffffffffffffffff1673ffffffffffffffffffffffffffffffffffffffff16036116b257600080fd5b818160040160008201518160000160006101000a81548173ffffffffffffffffffffffffffffffffffffffff021916908373ffffffffffffffffffffffffffffffffffffffff16021790555060208201518160010155905050633b9aca008661171b9190612a7f565b81600001600082825461172e9190612b1f565b925050819055507fb7b142da4d5e7153b4b889be2bc2a3f6c16ed957358651736fd8d54cd3067e83858360028081111561176b5761176a61248c565b5b60405161177a93929190612b6f565b60405180910390a160018160060160016101000a81548160ff021916908360028111156117aa576117a961248c565b5b021790555060016040518060200160405280600081525093509350505061180b565b60006040518060400160405280601081526020017f416c6c2073656174732074616b656e2e000000000000000000000000000000008152509350935050505b9250929050565b600080600090505b60038160ff1610156119fa57828160ff166003811061183c5761183b6127b5565b5b6020020151600160038110611854576118536127b5565b5b6020020151600281111561186b5761186a61248c565b5b838260ff1660038110611881576118806127b5565b5b6020020151600060038110611899576118986127b5565b5b602002015160028111156118b0576118af61248c565b5b1480156119445750828160ff16600381106118ce576118cd6127b5565b5b60200201516002600381106118e6576118e56127b5565b5b602002015160028111156118fd576118fc61248c565b5b838260ff1660038110611913576119126127b5565b5b602002015160016003811061192b5761192a6127b5565b5b602002015160028111156119425761194161248c565b5b145b80156119a757506000600281111561195f5761195e61248c565b5b838260ff1660038110611975576119746127b5565b5b602002015160006003811061198d5761198c6127b5565b5b602002015160028111156119a4576119a361248c565b5b14155b156119e757828160ff16600381106119c2576119c16127b5565b5b60200201516000600381106119da576119d96127b5565b5b6020020151915050611a00565b80806119f290612ba6565b91505061181a565b50600090505b919050565b600080600090505b60038160ff161015611bed5782600160038110611a2d57611a2c6127b5565b5b60200201518160ff1660038110611a4757611a466127b5565b5b60200201516002811115611a5e57611a5d61248c565b5b83600060038110611a7257611a716127b5565b5b60200201518260ff1660038110611a8c57611a8b6127b5565b5b60200201516002811115611aa357611aa261248c565b5b148015611b37575082600260038110611abf57611abe6127b5565b5b60200201518160ff1660038110611ad957611ad86127b5565b5b60200201516002811115611af057611aef61248c565b5b83600160038110611b0457611b036127b5565b5b60200201518260ff1660038110611b1e57611b1d6127b5565b5b60200201516002811115611b3557611b3461248c565b5b145b8015611b9a575060006002811115611b5257611b5161248c565b5b83600060038110611b6657611b656127b5565b5b60200201518260ff1660038110611b8057611b7f6127b5565b5b60200201516002811115611b9757611b9661248c565b5b14155b15611bda5782600060038110611bb357611bb26127b5565b5b60200201518160ff1660038110611bcd57611bcc6127b5565b5b6020020151915050611bf3565b8080611be590612ba6565b915050611a0d565b50600090505b919050565b600081600160038110611c0e57611c0d6127b5565b5b6020020151600160038110611c2657611c256127b5565b5b60200201516002811115611c3d57611c3c61248c565b5b82600060038110611c5157611c506127b5565b5b6020020151600060038110611c6957611c686127b5565b5b60200201516002811115611c8057611c7f61248c565b5b148015611d10575081600260038110611c9c57611c9b6127b5565b5b6020020151600260038110611cb457611cb36127b5565b5b60200201516002811115611ccb57611cca61248c565b5b82600160038110611cdf57611cde6127b5565b5b6020020151600160038110611cf757611cf66127b5565b5b60200201516002811115611d0e57611d0d61248c565b5b145b8015611d71575060006002811115611d2b57611d2a61248c565b5b82600060038110611d3f57611d3e6127b5565b5b6020020151600060038110611d5757611d566127b5565b5b60200201516002811115611d6e57611d6d61248c565b5b14155b15611dae5781600060038110611d8a57611d896127b5565b5b6020020151600060038110611da257611da16127b5565b5b60200201519050611f67565b81600160038110611dc257611dc16127b5565b5b6020020151600160038110611dda57611dd96127b5565b5b60200201516002811115611df157611df061248c565b5b82600060038110611e0557611e046127b5565b5b6020020151600260038110611e1d57611e1c6127b5565b5b60200201516002811115611e3457611e3361248c565b5b148015611ec4575081600260038110611e5057611e4f6127b5565b5b6020020151600060038110611e6857611e676127b5565b5b60200201516002811115611e7f57611e7e61248c565b5b82600160038110611e9357611e926127b5565b5b6020020151600160038110611eab57611eaa6127b5565b5b60200201516002811115611ec257611ec161248c565b5b145b8015611f25575060006002811115611edf57611ede61248c565b5b82600060038110611ef357611ef26127b5565b5b6020020151600260038110611f0b57611f0a6127b5565b5b60200201516002811115611f2257611f2161248c565b5b14155b15611f625781600060038110611f3e57611f3d6127b5565b5b6020020151600260038110611f5657611f556127b5565b5b60200201519050611f67565b600090505b919050565b600080600090505b60038160ff1610156120215760005b60038160ff16101561200d5760006002811115611fa357611fa261248c565b5b848360ff1660038110611fb957611fb86127b5565b5b60200201518260ff1660038110611fd357611fd26127b5565b5b60200201516002811115611fea57611fe961248c565b5b03611ffa57600092505050612027565b808061200590612ba6565b915050611f83565b50808061201990612ba6565b915050611f74565b50600190505b919050565b604051806101000160405280600081526020016000815260200161204e612107565b815260200161205b612107565b8152602001600060038111156120745761207361248c565b5b81526020016000600281111561208d5761208c61248c565b5b8152602001600060028111156120a6576120a561248c565b5b81526020016120b3612137565b81525090565b82600381019282156120f6579160200282015b828111156120f5578251829060036120e5929190612164565b50916020019190600101906120cc565b5b509050612103919061220d565b5090565b6040518060400160405280600073ffffffffffffffffffffffffffffffffffffffff168152602001600081525090565b60405180606001604052806003905b61214e612231565b8152602001906001900390816121465790505090565b826003601f016020900481019282156121fc5791602002820160005b838211156121cd57835183826101000a81548160ff021916908360028111156121ac576121ab61248c565b5b02179055509260200192600101602081600001049283019260010302612180565b80156121fa5782816101000a81549060ff02191690556001016020816000010492830192600103026121cd565b505b5090506122099190612253565b5090565b5b8082111561222d57600081816122249190612270565b5060010161220e565b5090565b6040518060600160405280600390602082028036833780820191505090505090565b5b8082111561226c576000816000905550600101612254565b5090565b5060009055565b600080fd5b6000819050919050565b61228f8161227c565b811461229a57600080fd5b50565b6000813590506122ac81612286565b92915050565b6000806000606084860312156122cb576122ca612277565b5b60006122d98682870161229d565b93505060206122ea8682870161229d565b92505060406122fb8682870161229d565b9150509250925092565b60008115159050919050565b61231a81612305565b82525050565b600081519050919050565b600082825260208201905092915050565b60005b8381101561235a57808201518184015260208101905061233f565b60008484015250505050565b6000601f19601f8301169050919050565b600061238282612320565b61238c818561232b565b935061239c81856020860161233c565b6123a581612366565b840191505092915050565b60006040820190506123c56000830185612311565b81810360208301526123d78184612377565b90509392505050565b6000602082840312156123f6576123f5612277565b5b60006124048482850161229d565b91505092915050565b6124168161227c565b82525050565b600073ffffffffffffffffffffffffffffffffffffffff82169050919050565b60006124478261241c565b9050919050565b6124578161243c565b82525050565b604082016000820151612473600085018261244e565b506020820151612486602085018261240d565b50505050565b7f4e487b7100000000000000000000000000000000000000000000000000000000600052602160045260246000fd5b600481106124cc576124cb61248c565b5b50565b60008190506124dd826124bb565b919050565b60006124ed826124cf565b9050919050565b6124fd816124e2565b82525050565b600381106125145761251361248c565b5b50565b600081905061252582612503565b919050565b600061253582612517565b9050919050565b6125458161252a565b82525050565b6003811061255c5761255b61248c565b5b50565b600081905061256d8261254b565b919050565b600061257d8261255f565b9050919050565b61258d81612572565b82525050565b600060039050919050565b600081905092915050565b6000819050919050565b600060039050919050565b600081905092915050565b6000819050919050565b60006125df8383612584565b60208301905092915050565b6000602082019050919050565b612601816125b3565b61260b81846125be565b9250612616826125c9565b8060005b8381101561264757815161262e87826125d3565b9650612639836125eb565b92505060018101905061261a565b505050505050565b600061265b83836125f8565b60608301905092915050565b6000602082019050919050565b61267d81612593565b612687818461259e565b9250612692826125a9565b8060005b838110156126c35781516126aa878261264f565b96506126b583612667565b925050600181019050612696565b505050505050565b610240820160008201516126e2600085018261240d565b5060208201516126f5602085018261240d565b506040820151612708604085018261245d565b50606082015161271b608085018261245d565b50608082015161272e60c08501826124f4565b5060a082015161274160e085018261253c565b5060c0820151612755610100850182612584565b5060e0820151612769610120850182612674565b50505050565b60006102408201905061278560008301846126cb565b92915050565b6127948161227c565b82525050565b60006020820190506127af600083018461278b565b92915050565b7f4e487b7100000000000000000000000000000000000000000000000000000000600052603260045260246000fd5b6040820160008201516127fa600085018261244e565b50602082015161280d602085018261240d565b50505050565b600060a082019050612828600083018761278b565b61283560208301866127e4565b612842606083018561278b565b61284f608083018461278b565b95945050505050565b600081905092915050565b50565b6000612873600083612858565b915061287e82612863565b600082019050919050565b600061289482612866565b9150819050919050565b7f4661696c656420746f2073656e64204574686572000000000000000000000000600082015250565b60006128d460148361232b565b91506128df8261289e565b602082019050919050565b60006020820190508181036000830152612903816128c7565b9050919050565b612913816124e2565b82525050565b600060408201905061292e600083018561278b565b61293b602083018461290a565b9392505050565b7f72657175697265645f62657420697320746f6f206c6f77000000000000000000600082015250565b600061297860178361232b565b915061298382612942565b602082019050919050565b600060208201905081810360008301526129a78161296b565b9050919050565b7f4e487b7100000000000000000000000000000000000000000000000000000000600052601160045260246000fd5b60006129e88261227c565b91507fffffffffffffffffffffffffffffffffffffffffffffffffffffffffffffffff8203612a1a57612a196129ae565b5b600182019050919050565b612a2e8161243c565b82525050565b6000604082019050612a49600083018561278b565b612a566020830184612a25565b9392505050565b60006020820190508181036000830152612a778184612377565b905092915050565b6000612a8a8261227c565b9150612a958361227c565b9250828203905081811115612aad57612aac6129ae565b5b92915050565b7f696e76616c69642062657420616d6f756e740000000000000000000000000000600082015250565b6000612ae960128361232b565b9150612af482612ab3565b602082019050919050565b60006020820190508181036000830152612b1881612adc565b9050919050565b6000612b2a8261227c565b9150612b358361227c565b9250828201905080821115612b4d57612b4c6129ae565b5b92915050565b600060ff82169050919050565b612b6981612b53565b82525050565b6000608082019050612b84600083018661278b565b612b9160208301856127e4565b612b9e6060830184612b60565b949350505050565b6000612bb182612b53565b915060ff8203612bc457612bc36129ae565b5b60018201905091905056fe546865726520697320616c72656164792061206d61726b2061742074686520676976656e20636f6f7264696e617465732e4265742073686f756c642062652067726561746572207468616e2061206665652ea2646970667358221220b2b48ed984dcfc39ee65f8df7c7b75eab53c7501df1751b47192736fdd16899a64736f6c63430008110033",
  "immutableReferences": {},
  "source": "// SPDX-License-Identifier: GPL-3.0\r\n\r\npragma solidity >=0.7.0 <0.9.0;\r\n\r\ncontract TicTacToe {\r\n\r\n    uint256 constant fee = 1 gwei;\r\n\r\n    // PlayerTypes enumerates all possible players\r\n    enum PlayerTypes { None, PlayerOne, PlayerTwo }\r\n    // Winners enumerates all possible winner\r\n    enum Winners { None, PlayerOne, PlayerTwo, Draw }\r\n    enum Status { NotStarted, InProgress, Finished }\r\n\r\n    struct Player {\r\n        address addr;\r\n        uint256 bet;\r\n    }\r\n\r\n    struct Game {\r\n        uint256 totalBet;\r\n        uint256 required_bet;\r\n        Player playerOne;\r\n        Player playerTwo;\r\n        Winners winner;\r\n        Status status;\r\n        PlayerTypes playerTurn;\r\n        PlayerTypes[3][3] board;\r\n    }\r\n\r\n    // games stores all the games.\r\n    // Games that are already over as well as games that are still running.\r\n    // It is possible to iterate over all games, as the keys of the mapping\r\n    // are known to be the integers from `1` to `numberOfGames`.\r\n    mapping(uint256 => Game) private games;\r\n    // numberOfGames stores the total number of games in this contract.\r\n    uint256 public numberOfGames;\r\n\r\n    // GameCreated signals that `creator` created a new game with this `gameId`.\r\n    event GameCreated(uint256 gameId, address creator);\r\n    // PlayerJoinedGame signals that `player` joined the game with the id `gameId`.\r\n    // That player has the player number `playerNumber` in that game.\r\n    event PlayerJoinedGame(uint256 gameId, Player player, uint8 playerNumber);\r\n    // PlayerMadeMove signals that `player` filled in the board of the game with\r\n    // the id `gameId`. She did so at the coordinates `xCoordinate`, `yCoordinate`.\r\n    event PlayerMadeMove(uint256 gameId, Player player, uint xCoordinate, uint yCoordinate);\r\n    // GameOver signals that the game with the id `gameId` is over.\r\n    // The winner is indicated by `winner`. No more moves are allowed in this game.\r\n    event GameOver(uint256 gameId, Winners winner);\r\n\r\n    // newGame creates a new game and returns the new game's `gameId`.\r\n    // The `gameId` is required in subsequent calls to identify the game.\r\n    function newGame(uint256 _required_bet) public returns (uint256 gameId) {\r\n        require(_required_bet > fee, \"required_bet is too low\");\r\n        Game memory game;\r\n        game.playerTurn = PlayerTypes.PlayerOne;\r\n        game.status = Status.NotStarted;\r\n        game.required_bet = _required_bet;\r\n\r\n        numberOfGames++;\r\n        games[numberOfGames] = game;\r\n\r\n        emit GameCreated(numberOfGames, msg.sender);\r\n\r\n        return numberOfGames;\r\n    }\r\n\r\n    function getGameInfo(uint256 _gameId) public view returns(Game memory game) {\r\n        game = games[_gameId];\r\n    }\r\n\r\n    // joinGame lets the sender of the message join the game with the id `gameId`.\r\n    // It returns `success = true` when joining the game was possible and\r\n    // `false` otherwise.\r\n    // `reason` indicates why a game was joined or not joined.\r\n    function joinGame(uint256 _gameId) public payable {\r\n        bool success;\r\n        string memory reason;\r\n\r\n        (success, reason) = _joinGame(msg.value, _gameId);\r\n        require(success, reason);\r\n    }\r\n\r\n    function _joinGame(uint256 _value, uint256 _gameId) private returns (bool success, string memory reason) {\r\n        if (_value <= fee) {\r\n            return (false, \"Bet should be greater than a fee.\");\r\n        }\r\n\r\n        if (_value == 0) {\r\n            return (false, \"No eth stacked.\");\r\n        }\r\n\r\n        if (_gameId > numberOfGames) {\r\n            return (false, \"No such game exists.\");\r\n        }\r\n\r\n        Player memory player = Player(msg.sender, _value - fee);\r\n        Game storage game = games[_gameId];\r\n        require(_value == game.required_bet, \"invalid bet amount\");\r\n\r\n        // Assign the new player to slot 1 if it is still available.\r\n        if (game.playerOne.addr == address(0)) {\r\n            game.playerOne = player;\r\n            game.totalBet += _value - fee;\r\n            emit PlayerJoinedGame(_gameId, player, uint8(PlayerTypes.PlayerOne));\r\n\r\n            return (true, \"\");\r\n        }\r\n\r\n        // If slot 1 is taken, assign the new player to slot 2 if it is still available.\r\n        if (game.playerTwo.addr == address(0)) {\r\n            require(game.playerOne.addr != msg.sender);\r\n            game.playerTwo = player;\r\n            game.totalBet += _value - fee;\r\n            emit PlayerJoinedGame(_gameId, player, uint8(PlayerTypes.PlayerTwo));\r\n            game.status = Status.InProgress;\r\n            return (true, \"\");\r\n        }\r\n\r\n        return (false, \"All seats taken.\");\r\n    }\r\n\r\n    // makeMove inserts a player on the game board.\r\n    // The player is identified as the sender of the message.\r\n    function makeMove(uint256 _gameId, uint _xCoordinate, uint _yCoordinate) public  {\r\n        bool success;\r\n        string memory reason;\r\n        (success, reason) = _makeMove(_gameId, _xCoordinate, _yCoordinate);\r\n        require(success, reason);\r\n    }\r\n    \r\n    function _makeMove(uint256 _gameId, uint _xCoordinate, uint _yCoordinate) public returns (bool success, string memory reason) {\r\n        if (_gameId > numberOfGames) {\r\n            return (false, \"No such game exists.\");\r\n        }\r\n\r\n        Game storage game = games[_gameId];\r\n        if (game.status != Status.InProgress) {\r\n            return (false, \"Game is not in progress\");\r\n        }\r\n\r\n        Player memory player = getCurrentPlayer(game);\r\n        if (player.addr == address(0)) {\r\n            return(false, \"Current player not found.\");\r\n        }\r\n        // Any winner other than `None` means that no more moves are allowed.\r\n        if (game.winner != Winners.None) {\r\n            return (false, \"The game has already ended.\");\r\n        }\r\n\r\n        // Only the player whose turn it is may make a move.\r\n        if (msg.sender != player.addr) {\r\n            return (false, \"It is not your turn.\");\r\n        }\r\n\r\n        // PlayerTypes can only make moves in cells on the board that have not been played before.\r\n        if (game.board[_xCoordinate][_yCoordinate] != PlayerTypes.None) {\r\n            return (false, \"There is already a mark at the given coordinates.\");\r\n        }\r\n\r\n        // Now the move is recorded and the according event emitted.\r\n        game.board[_xCoordinate][_yCoordinate] = game.playerTurn;\r\n        emit PlayerMadeMove(_gameId, player, _xCoordinate, _yCoordinate);\r\n\r\n        // Check if there is a winner now that we have a new move.\r\n        Winners winner = calculateWinner(game.board);\r\n        if (winner != Winners.None) {\r\n            // If there is a winner (can be a `Draw`) it must be recorded in the game and\r\n            // the corresponding event must be emitted.\r\n            game.winner = winner;\r\n            game.status = Status.Finished;\r\n\r\n            if (winner == Winners.Draw) {\r\n                (bool sent, bytes memory data) = payable(game.playerOne.addr).call{value: game.playerOne.bet}(\"\");\r\n                require(sent, \"Failed to send Ether\");\r\n\r\n                (sent, data) = payable(game.playerTwo.addr).call{value: game.playerTwo.bet}(\"\");\r\n                require(sent, \"Failed to send Ether\");\r\n    \r\n            } else {\r\n                Player memory playerWon = getCurrentPlayer(game);\r\n                (bool sent, bytes memory data) = payable(playerWon.addr).call{value: game.totalBet}(\"\");\r\n                require(sent, \"Failed to send Ether\");\r\n            }\r\n\r\n            emit GameOver(_gameId, winner);\r\n\r\n            return (true, \"\");\r\n        }\r\n\r\n        // A move was made and there is no winner yet.\r\n        // The next player should make her move.\r\n        nextPlayer(game);\r\n\r\n        return (true, \"\");\r\n    }\r\n\r\n    // getCurrentPlayer returns the address of the player that should make the next move.\r\n    // Returns the `0x0` address if it is no player's turn.\r\n    function getCurrentPlayer(Game storage _game) private view returns (Player memory player) {\r\n        if (_game.playerTurn == PlayerTypes.PlayerOne) {\r\n            return _game.playerOne;\r\n        }\r\n\r\n        if (_game.playerTurn == PlayerTypes.PlayerTwo) {\r\n            return _game.playerTwo;\r\n        }\r\n\r\n        \r\n        return Player(address(0), 0);\r\n    }\r\n\r\n    // calculateWinner returns the winner on the given board.\r\n    // The returned winner can be `None` in which case there is no winner and no draw.\r\n    function calculateWinner(PlayerTypes[3][3] memory _board) private pure returns (Winners winner) {\r\n        // First we check if there is a victory in a row.\r\n        // If so, convert `PlayerTypes` to `Winners`\r\n        // Subsequently we do the same for columns and diagonals.\r\n        PlayerTypes player = winnerInRow(_board);\r\n        if (player == PlayerTypes.PlayerOne) {\r\n            return Winners.PlayerOne;\r\n        }\r\n        if (player == PlayerTypes.PlayerTwo) {\r\n            return Winners.PlayerTwo;\r\n        }\r\n\r\n        player = winnerInColumn(_board);\r\n        if (player == PlayerTypes.PlayerOne) {\r\n            return Winners.PlayerOne;\r\n        }\r\n        if (player == PlayerTypes.PlayerTwo) {\r\n            return Winners.PlayerTwo;\r\n        }\r\n\r\n        player = winnerInDiagonal(_board);\r\n        if (player == PlayerTypes.PlayerOne) {\r\n            return Winners.PlayerOne;\r\n        }\r\n        if (player == PlayerTypes.PlayerTwo) {\r\n            return Winners.PlayerTwo;\r\n        }\r\n\r\n        // If there is no winner and no more space on the board,\r\n        // then it is a draw.\r\n        if (isBoardFull(_board)) {\r\n            return Winners.Draw;\r\n        }\r\n\r\n        return Winners.None;\r\n    }\r\n\r\n    // winnerInRow returns the player that wins in any row.\r\n    // To win in a row, all cells in the row must belong to the same player\r\n    // and that player must not be the `None` player.\r\n    function winnerInRow(PlayerTypes[3][3] memory _board) private pure returns (PlayerTypes winner) {\r\n        for (uint8 x = 0; x < 3; x++) {\r\n            if (\r\n                _board[x][0] == _board[x][1]\r\n                && _board[x][1]  == _board[x][2]\r\n                && _board[x][0] != PlayerTypes.None\r\n            ) {\r\n                return _board[x][0];\r\n            }\r\n        }\r\n\r\n        return PlayerTypes.None;\r\n    }\r\n\r\n    // winnerInColumn returns the player that wins in any column.\r\n    // To win in a column, all cells in the column must belong to the same player\r\n    // and that player must not be the `None` player.\r\n    function winnerInColumn(PlayerTypes[3][3] memory _board) private pure returns (PlayerTypes winner) {\r\n        for (uint8 y = 0; y < 3; y++) {\r\n            if (\r\n                _board[0][y] == _board[1][y]\r\n                && _board[1][y] == _board[2][y]\r\n                && _board[0][y] != PlayerTypes.None\r\n            ) {\r\n                return _board[0][y];\r\n            }\r\n        }\r\n\r\n        return PlayerTypes.None;\r\n    }\r\n\r\n    // winnerInDiagoral returns the player that wins in any diagonal.\r\n    // To win in a diagonal, all cells in the diaggonal must belong to the same player\r\n    // and that player must not be the `None` player.\r\n    function winnerInDiagonal(PlayerTypes[3][3] memory _board) private pure returns (PlayerTypes winner) {\r\n        if (\r\n            _board[0][0] == _board[1][1]\r\n            && _board[1][1] == _board[2][2]\r\n            && _board[0][0] != PlayerTypes.None\r\n        ) {\r\n            return _board[0][0];\r\n        }\r\n\r\n        if (\r\n            _board[0][2] == _board[1][1]\r\n            && _board[1][1] == _board[2][0]\r\n            && _board[0][2] != PlayerTypes.None\r\n        ) {\r\n            return _board[0][2];\r\n        }\r\n\r\n        return PlayerTypes.None;\r\n    }\r\n\r\n    // isBoardFull returns true if all cells of the board belong to a player other\r\n    // than `None`.\r\n    function isBoardFull(PlayerTypes[3][3] memory _board) private pure returns (bool isFull) {\r\n        for (uint8 x = 0; x < 3; x++) {\r\n            for (uint8 y = 0; y < 3; y++) {\r\n                if (_board[x][y] == PlayerTypes.None) {\r\n                    return false;\r\n                }\r\n            }\r\n        }\r\n\r\n        return true;\r\n    }\r\n\r\n    // nextPlayer changes whose turn it is for the given `_game`.\r\n    function nextPlayer(Game storage _game) private {\r\n        if (_game.playerTurn == PlayerTypes.PlayerOne) {\r\n            _game.playerTurn = PlayerTypes.PlayerTwo;\r\n        } else {\r\n            _game.playerTurn = PlayerTypes.PlayerOne;\r\n        }\r\n    }\r\n}\r\n",
  "sourcePath": "/Users/levlymarenko/innopolis/blockchain/tictactoe/solidity/contracts/TicTacToe.sol",
  "compiler": {
    "name": "solc",
    "version": "0.8.17+commit.8df45f5f.Emscripten.clang"
  },
  "schemaVersion": "3.4.10",
  "updatedAt": "2022-12-11T13:29:45.590Z",
  "networkType": "ethereum",
  "devdoc": {
    "kind": "dev",
    "methods": {},
    "version": 1
  },
  "userdoc": {
    "kind": "user",
    "methods": {},
    "version": 1
  }
}