{
	"solidity/contracts/TicTacToe.sol": {
		"TicTacToe": {
			"abi": [
				{
					"anonymous": false,
					"inputs": [
						{
							"indexed": false,
							"internalType": "uint256",
							"name": "gameId",
							"type": "uint256"
						},
						{
							"indexed": false,
							"internalType": "address",
							"name": "creator",
							"type": "address"
						}
					],
					"name": "GameCreated",
					"type": "event"
				},
				{
					"anonymous": false,
					"inputs": [
						{
							"indexed": false,
							"internalType": "uint256",
							"name": "gameId",
							"type": "uint256"
						},
						{
							"indexed": false,
							"internalType": "enum TicTacToe.Winners",
							"name": "winner",
							"type": "uint8"
						}
					],
					"name": "GameOver",
					"type": "event"
				},
				{
					"anonymous": false,
					"inputs": [
						{
							"indexed": false,
							"internalType": "uint256",
							"name": "gameId",
							"type": "uint256"
						},
						{
							"components": [
								{
									"internalType": "address",
									"name": "addr",
									"type": "address"
								},
								{
									"internalType": "uint256",
									"name": "bet",
									"type": "uint256"
								}
							],
							"indexed": false,
							"internalType": "struct TicTacToe.Player",
							"name": "player",
							"type": "tuple"
						},
						{
							"indexed": false,
							"internalType": "uint8",
							"name": "playerNumber",
							"type": "uint8"
						}
					],
					"name": "PlayerJoinedGame",
					"type": "event"
				},
				{
					"anonymous": false,
					"inputs": [
						{
							"indexed": false,
							"internalType": "uint256",
							"name": "gameId",
							"type": "uint256"
						},
						{
							"components": [
								{
									"internalType": "address",
									"name": "addr",
									"type": "address"
								},
								{
									"internalType": "uint256",
									"name": "bet",
									"type": "uint256"
								}
							],
							"indexed": false,
							"internalType": "struct TicTacToe.Player",
							"name": "player",
							"type": "tuple"
						},
						{
							"indexed": false,
							"internalType": "uint256",
							"name": "xCoordinate",
							"type": "uint256"
						},
						{
							"indexed": false,
							"internalType": "uint256",
							"name": "yCoordinate",
							"type": "uint256"
						}
					],
					"name": "PlayerMadeMove",
					"type": "event"
				},
				{
					"inputs": [
						{
							"internalType": "uint256",
							"name": "_gameId",
							"type": "uint256"
						},
						{
							"internalType": "uint256",
							"name": "_xCoordinate",
							"type": "uint256"
						},
						{
							"internalType": "uint256",
							"name": "_yCoordinate",
							"type": "uint256"
						}
					],
					"name": "_makeMove",
					"outputs": [
						{
							"internalType": "bool",
							"name": "success",
							"type": "bool"
						},
						{
							"internalType": "string",
							"name": "reason",
							"type": "string"
						}
					],
					"stateMutability": "nonpayable",
					"type": "function"
				},
				{
					"inputs": [
						{
							"internalType": "uint256",
							"name": "_gameId",
							"type": "uint256"
						}
					],
					"name": "getGameInfo",
					"outputs": [
						{
							"components": [
								{
									"internalType": "uint256",
									"name": "totalBet",
									"type": "uint256"
								},
								{
									"internalType": "uint256",
									"name": "required_bet",
									"type": "uint256"
								},
								{
									"components": [
										{
											"internalType": "address",
											"name": "addr",
											"type": "address"
										},
										{
											"internalType": "uint256",
											"name": "bet",
											"type": "uint256"
										}
									],
									"internalType": "struct TicTacToe.Player",
									"name": "playerOne",
									"type": "tuple"
								},
								{
									"components": [
										{
											"internalType": "address",
											"name": "addr",
											"type": "address"
										},
										{
											"internalType": "uint256",
											"name": "bet",
											"type": "uint256"
										}
									],
									"internalType": "struct TicTacToe.Player",
									"name": "playerTwo",
									"type": "tuple"
								},
								{
									"internalType": "enum TicTacToe.Winners",
									"name": "winner",
									"type": "uint8"
								},
								{
									"internalType": "enum TicTacToe.Status",
									"name": "status",
									"type": "uint8"
								},
								{
									"internalType": "enum TicTacToe.PlayerTypes",
									"name": "playerTurn",
									"type": "uint8"
								},
								{
									"internalType": "enum TicTacToe.PlayerTypes[3][3]",
									"name": "board",
									"type": "uint8[3][3]"
								}
							],
							"internalType": "struct TicTacToe.Game",
							"name": "game",
							"type": "tuple"
						}
					],
					"stateMutability": "view",
					"type": "function"
				},
				{
					"inputs": [
						{
							"internalType": "uint256",
							"name": "_gameId",
							"type": "uint256"
						}
					],
					"name": "joinGame",
					"outputs": [],
					"stateMutability": "payable",
					"type": "function"
				},
				{
					"inputs": [
						{
							"internalType": "uint256",
							"name": "_gameId",
							"type": "uint256"
						},
						{
							"internalType": "uint256",
							"name": "_xCoordinate",
							"type": "uint256"
						},
						{
							"internalType": "uint256",
							"name": "_yCoordinate",
							"type": "uint256"
						}
					],
					"name": "makeMove",
					"outputs": [],
					"stateMutability": "nonpayable",
					"type": "function"
				},
				{
					"inputs": [
						{
							"internalType": "uint256",
							"name": "_required_bet",
							"type": "uint256"
						}
					],
					"name": "newGame",
					"outputs": [
						{
							"internalType": "uint256",
							"name": "gameId",
							"type": "uint256"
						}
					],
					"stateMutability": "nonpayable",
					"type": "function"
				},
				{
					"inputs": [],
					"name": "numberOfGames",
					"outputs": [
						{
							"internalType": "uint256",
							"name": "",
							"type": "uint256"
						}
					],
					"stateMutability": "view",
					"type": "function"
				}
			],
			"devdoc": {
				"kind": "dev",
				"methods": {},
				"version": 1
			},
			"evm": {
				"assembly": "    /* \"solidity/contracts/TicTacToe.sol\":74:12484  contract TicTacToe {\r... */\n  mstore(0x40, 0x80)\n  callvalue\n  dup1\n  iszero\n  tag_1\n  jumpi\n  0x00\n  dup1\n  revert\ntag_1:\n  pop\n  dataSize(sub_0)\n  dup1\n  dataOffset(sub_0)\n  0x00\n  codecopy\n  0x00\n  return\nstop\n\nsub_0: assembly {\n        /* \"solidity/contracts/TicTacToe.sol\":74:12484  contract TicTacToe {\r... */\n      mstore(0x40, 0x80)\n      jumpi(tag_1, lt(calldatasize, 0x04))\n      shr(0xe0, calldataload(0x00))\n      dup1\n      0x3f10d76b\n      eq\n      tag_2\n      jumpi\n      dup1\n      0x47e1d550\n      eq\n      tag_3\n      jumpi\n      dup1\n      0xcde9ef78\n      eq\n      tag_4\n      jumpi\n      dup1\n      0xcfc2f5ff\n      eq\n      tag_5\n      jumpi\n      dup1\n      0xefaa55a0\n      eq\n      tag_6\n      jumpi\n      dup1\n      0xf6928070\n      eq\n      tag_7\n      jumpi\n    tag_1:\n      0x00\n      dup1\n      revert\n        /* \"solidity/contracts/TicTacToe.sol\":5020:7730  function _makeMove(uint256 _gameId, uint _xCoordinate, uint _yCoordinate) public returns (bool success, string memory reason) {\r... */\n    tag_2:\n      callvalue\n      dup1\n      iszero\n      tag_8\n      jumpi\n      0x00\n      dup1\n      revert\n    tag_8:\n      pop\n      tag_9\n      0x04\n      dup1\n      calldatasize\n      sub\n      dup2\n      add\n      swap1\n      tag_10\n      swap2\n      swap1\n      tag_11\n      jump\t// in\n    tag_10:\n      tag_12\n      jump\t// in\n    tag_9:\n      mload(0x40)\n      tag_13\n      swap3\n      swap2\n      swap1\n      tag_14\n      jump\t// in\n    tag_13:\n      mload(0x40)\n      dup1\n      swap2\n      sub\n      swap1\n      return\n        /* \"solidity/contracts/TicTacToe.sol\":2609:2725  function getGameInfo(uint256 _gameId) public view returns(Game memory game) {\r... */\n    tag_3:\n      callvalue\n      dup1\n      iszero\n      tag_15\n      jumpi\n      0x00\n      dup1\n      revert\n    tag_15:\n      pop\n      tag_16\n      0x04\n      dup1\n      calldatasize\n      sub\n      dup2\n      add\n      swap1\n      tag_17\n      swap2\n      swap1\n      tag_18\n      jump\t// in\n    tag_17:\n      tag_19\n      jump\t// in\n    tag_16:\n      mload(0x40)\n      tag_20\n      swap2\n      swap1\n      tag_21\n      jump\t// in\n    tag_20:\n      mload(0x40)\n      dup1\n      swap2\n      sub\n      swap1\n      return\n        /* \"solidity/contracts/TicTacToe.sol\":2137:2601  function newGame(uint256 _required_bet) public returns (uint256 gameId) {\r... */\n    tag_4:\n      callvalue\n      dup1\n      iszero\n      tag_22\n      jumpi\n      0x00\n      dup1\n      revert\n    tag_22:\n      pop\n      tag_23\n      0x04\n      dup1\n      calldatasize\n      sub\n      dup2\n      add\n      swap1\n      tag_24\n      swap2\n      swap1\n      tag_18\n      jump\t// in\n    tag_24:\n      tag_25\n      jump\t// in\n    tag_23:\n      mload(0x40)\n      tag_26\n      swap2\n      swap1\n      tag_27\n      jump\t// in\n    tag_26:\n      mload(0x40)\n      dup1\n      swap2\n      sub\n      swap1\n      return\n        /* \"solidity/contracts/TicTacToe.sol\":4753:5008  function makeMove(uint256 _gameId, uint _xCoordinate, uint _yCoordinate) public  {\r... */\n    tag_5:\n      callvalue\n      dup1\n      iszero\n      tag_28\n      jumpi\n      0x00\n      dup1\n      revert\n    tag_28:\n      pop\n      tag_29\n      0x04\n      dup1\n      calldatasize\n      sub\n      dup2\n      add\n      swap1\n      tag_30\n      swap2\n      swap1\n      tag_11\n      jump\t// in\n    tag_30:\n      tag_31\n      jump\t// in\n    tag_29:\n      stop\n        /* \"solidity/contracts/TicTacToe.sol\":2983:3192  function joinGame(uint256 _gameId) public payable {\r... */\n    tag_6:\n      tag_32\n      0x04\n      dup1\n      calldatasize\n      sub\n      dup2\n      add\n      swap1\n      tag_33\n      swap2\n      swap1\n      tag_18\n      jump\t// in\n    tag_33:\n      tag_34\n      jump\t// in\n    tag_32:\n      stop\n        /* \"solidity/contracts/TicTacToe.sol\":1108:1136  uint256 public numberOfGames */\n    tag_7:\n      callvalue\n      dup1\n      iszero\n      tag_35\n      jumpi\n      0x00\n      dup1\n      revert\n    tag_35:\n      pop\n      tag_36\n      tag_37\n      jump\t// in\n    tag_36:\n      mload(0x40)\n      tag_38\n      swap2\n      swap1\n      tag_27\n      jump\t// in\n    tag_38:\n      mload(0x40)\n      dup1\n      swap2\n      sub\n      swap1\n      return\n        /* \"solidity/contracts/TicTacToe.sol\":5020:7730  function _makeMove(uint256 _gameId, uint _xCoordinate, uint _yCoordinate) public returns (bool success, string memory reason) {\r... */\n    tag_12:\n        /* \"solidity/contracts/TicTacToe.sol\":5110:5122  bool success */\n      0x00\n        /* \"solidity/contracts/TicTacToe.sol\":5124:5144  string memory reason */\n      0x60\n        /* \"solidity/contracts/TicTacToe.sol\":5171:5184  numberOfGames */\n      sload(0x01)\n        /* \"solidity/contracts/TicTacToe.sol\":5161:5168  _gameId */\n      dup6\n        /* \"solidity/contracts/TicTacToe.sol\":5161:5184  _gameId > numberOfGames */\n      gt\n        /* \"solidity/contracts/TicTacToe.sol\":5157:5251  if (_gameId > numberOfGames) {\r... */\n      iszero\n      tag_40\n      jumpi\n        /* \"solidity/contracts/TicTacToe.sol\":5209:5214  false */\n      0x00\n        /* \"solidity/contracts/TicTacToe.sol\":5201:5239  return (false, \"No such game exists.\") */\n      mload(0x40)\n      dup1\n      0x40\n      add\n      0x40\n      mstore\n      dup1\n      0x14\n      dup2\n      mstore\n      0x20\n      add\n      0x4e6f20737563682067616d65206578697374732e000000000000000000000000\n      dup2\n      mstore\n      pop\n      swap2\n      pop\n      swap2\n      pop\n      jump(tag_39)\n        /* \"solidity/contracts/TicTacToe.sol\":5157:5251  if (_gameId > numberOfGames) {\r... */\n    tag_40:\n        /* \"solidity/contracts/TicTacToe.sol\":5263:5280  Game storage game */\n      0x00\n        /* \"solidity/contracts/TicTacToe.sol\":5283:5288  games */\n      dup1\n        /* \"solidity/contracts/TicTacToe.sol\":5283:5297  games[_gameId] */\n      0x00\n        /* \"solidity/contracts/TicTacToe.sol\":5289:5296  _gameId */\n      dup8\n        /* \"solidity/contracts/TicTacToe.sol\":5283:5297  games[_gameId] */\n      dup2\n      mstore\n      0x20\n      add\n      swap1\n      dup2\n      mstore\n      0x20\n      add\n      0x00\n      keccak256\n        /* \"solidity/contracts/TicTacToe.sol\":5263:5297  Game storage game = games[_gameId] */\n      swap1\n      pop\n        /* \"solidity/contracts/TicTacToe.sol\":5327:5344  Status.InProgress */\n      0x01\n        /* \"solidity/contracts/TicTacToe.sol\":5312:5344  game.status != Status.InProgress */\n      0x02\n      dup2\n      gt\n      iszero\n      tag_41\n      jumpi\n      tag_42\n      tag_43\n      jump\t// in\n    tag_42:\n    tag_41:\n        /* \"solidity/contracts/TicTacToe.sol\":5312:5316  game */\n      dup2\n        /* \"solidity/contracts/TicTacToe.sol\":5312:5323  game.status */\n      0x06\n      add\n      0x01\n      swap1\n      sload\n      swap1\n      0x0100\n      exp\n      swap1\n      div\n      0xff\n      and\n        /* \"solidity/contracts/TicTacToe.sol\":5312:5344  game.status != Status.InProgress */\n      0x02\n      dup2\n      gt\n      iszero\n      tag_44\n      jumpi\n      tag_45\n      tag_43\n      jump\t// in\n    tag_45:\n    tag_44:\n      eq\n        /* \"solidity/contracts/TicTacToe.sol\":5308:5414  if (game.status != Status.InProgress) {\r... */\n      tag_46\n      jumpi\n        /* \"solidity/contracts/TicTacToe.sol\":5369:5374  false */\n      0x00\n        /* \"solidity/contracts/TicTacToe.sol\":5361:5402  return (false, \"Game is not in progress\") */\n      mload(0x40)\n      dup1\n      0x40\n      add\n      0x40\n      mstore\n      dup1\n      0x17\n      dup2\n      mstore\n      0x20\n      add\n      0x47616d65206973206e6f7420696e2070726f6772657373000000000000000000\n      dup2\n      mstore\n      pop\n      swap3\n      pop\n      swap3\n      pop\n      pop\n      jump(tag_39)\n        /* \"solidity/contracts/TicTacToe.sol\":5308:5414  if (game.status != Status.InProgress) {\r... */\n    tag_46:\n        /* \"solidity/contracts/TicTacToe.sol\":5426:5446  Player memory player */\n      0x00\n        /* \"solidity/contracts/TicTacToe.sol\":5449:5471  getCurrentPlayer(game) */\n      tag_47\n        /* \"solidity/contracts/TicTacToe.sol\":5466:5470  game */\n      dup3\n        /* \"solidity/contracts/TicTacToe.sol\":5449:5465  getCurrentPlayer */\n      tag_48\n        /* \"solidity/contracts/TicTacToe.sol\":5449:5471  getCurrentPlayer(game) */\n      jump\t// in\n    tag_47:\n        /* \"solidity/contracts/TicTacToe.sol\":5426:5471  Player memory player = getCurrentPlayer(game) */\n      swap1\n      pop\n        /* \"solidity/contracts/TicTacToe.sol\":5509:5510  0 */\n      0x00\n        /* \"solidity/contracts/TicTacToe.sol\":5486:5511  player.addr == address(0) */\n      0xffffffffffffffffffffffffffffffffffffffff\n      and\n        /* \"solidity/contracts/TicTacToe.sol\":5486:5492  player */\n      dup2\n        /* \"solidity/contracts/TicTacToe.sol\":5486:5497  player.addr */\n      0x00\n      add\n      mload\n        /* \"solidity/contracts/TicTacToe.sol\":5486:5511  player.addr == address(0) */\n      0xffffffffffffffffffffffffffffffffffffffff\n      and\n      eq\n        /* \"solidity/contracts/TicTacToe.sol\":5482:5582  if (player.addr == address(0)) {\r... */\n      iszero\n      tag_49\n      jumpi\n        /* \"solidity/contracts/TicTacToe.sol\":5535:5540  false */\n      0x00\n        /* \"solidity/contracts/TicTacToe.sol\":5528:5570  return(false, \"Current player not found.\") */\n      mload(0x40)\n      dup1\n      0x40\n      add\n      0x40\n      mstore\n      dup1\n      0x19\n      dup2\n      mstore\n      0x20\n      add\n      0x43757272656e7420706c61796572206e6f7420666f756e642e00000000000000\n      dup2\n      mstore\n      pop\n      swap4\n      pop\n      swap4\n      pop\n      pop\n      pop\n      jump(tag_39)\n        /* \"solidity/contracts/TicTacToe.sol\":5482:5582  if (player.addr == address(0)) {\r... */\n    tag_49:\n        /* \"solidity/contracts/TicTacToe.sol\":5690:5702  Winners.None */\n      0x00\n        /* \"solidity/contracts/TicTacToe.sol\":5675:5702  game.winner != Winners.None */\n      0x03\n      dup2\n      gt\n      iszero\n      tag_50\n      jumpi\n      tag_51\n      tag_43\n      jump\t// in\n    tag_51:\n    tag_50:\n        /* \"solidity/contracts/TicTacToe.sol\":5675:5679  game */\n      dup3\n        /* \"solidity/contracts/TicTacToe.sol\":5675:5686  game.winner */\n      0x06\n      add\n      0x00\n      swap1\n      sload\n      swap1\n      0x0100\n      exp\n      swap1\n      div\n      0xff\n      and\n        /* \"solidity/contracts/TicTacToe.sol\":5675:5702  game.winner != Winners.None */\n      0x03\n      dup2\n      gt\n      iszero\n      tag_52\n      jumpi\n      tag_53\n      tag_43\n      jump\t// in\n    tag_53:\n    tag_52:\n      eq\n        /* \"solidity/contracts/TicTacToe.sol\":5671:5776  if (game.winner != Winners.None) {\r... */\n      tag_54\n      jumpi\n        /* \"solidity/contracts/TicTacToe.sol\":5727:5732  false */\n      0x00\n        /* \"solidity/contracts/TicTacToe.sol\":5719:5764  return (false, \"The game has already ended.\") */\n      mload(0x40)\n      dup1\n      0x40\n      add\n      0x40\n      mstore\n      dup1\n      0x1b\n      dup2\n      mstore\n      0x20\n      add\n      0x5468652067616d652068617320616c726561647920656e6465642e0000000000\n      dup2\n      mstore\n      pop\n      swap4\n      pop\n      swap4\n      pop\n      pop\n      pop\n      jump(tag_39)\n        /* \"solidity/contracts/TicTacToe.sol\":5671:5776  if (game.winner != Winners.None) {\r... */\n    tag_54:\n        /* \"solidity/contracts/TicTacToe.sol\":5868:5874  player */\n      dup1\n        /* \"solidity/contracts/TicTacToe.sol\":5868:5879  player.addr */\n      0x00\n      add\n      mload\n        /* \"solidity/contracts/TicTacToe.sol\":5854:5879  msg.sender != player.addr */\n      0xffffffffffffffffffffffffffffffffffffffff\n      and\n        /* \"solidity/contracts/TicTacToe.sol\":5854:5864  msg.sender */\n      caller\n        /* \"solidity/contracts/TicTacToe.sol\":5854:5879  msg.sender != player.addr */\n      0xffffffffffffffffffffffffffffffffffffffff\n      and\n      eq\n        /* \"solidity/contracts/TicTacToe.sol\":5850:5946  if (msg.sender != player.addr) {\r... */\n      tag_55\n      jumpi\n        /* \"solidity/contracts/TicTacToe.sol\":5904:5909  false */\n      0x00\n        /* \"solidity/contracts/TicTacToe.sol\":5896:5934  return (false, \"It is not your turn.\") */\n      mload(0x40)\n      dup1\n      0x40\n      add\n      0x40\n      mstore\n      dup1\n      0x14\n      dup2\n      mstore\n      0x20\n      add\n      0x4974206973206e6f7420796f7572207475726e2e000000000000000000000000\n      dup2\n      mstore\n      pop\n      swap4\n      pop\n      swap4\n      pop\n      pop\n      pop\n      jump(tag_39)\n        /* \"solidity/contracts/TicTacToe.sol\":5850:5946  if (msg.sender != player.addr) {\r... */\n    tag_55:\n        /* \"solidity/contracts/TicTacToe.sol\":6104:6120  PlayerTypes.None */\n      0x00\n        /* \"solidity/contracts/TicTacToe.sol\":6062:6120  game.board[_xCoordinate][_yCoordinate] != PlayerTypes.None */\n      0x02\n      dup2\n      gt\n      iszero\n      tag_56\n      jumpi\n      tag_57\n      tag_43\n      jump\t// in\n    tag_57:\n    tag_56:\n        /* \"solidity/contracts/TicTacToe.sol\":6062:6066  game */\n      dup3\n        /* \"solidity/contracts/TicTacToe.sol\":6062:6072  game.board */\n      0x07\n      add\n        /* \"solidity/contracts/TicTacToe.sol\":6073:6085  _xCoordinate */\n      dup8\n        /* \"solidity/contracts/TicTacToe.sol\":6062:6086  game.board[_xCoordinate] */\n      0x03\n      dup2\n      lt\n      tag_58\n      jumpi\n      tag_59\n      tag_60\n      jump\t// in\n    tag_59:\n    tag_58:\n      add\n        /* \"solidity/contracts/TicTacToe.sol\":6087:6099  _yCoordinate */\n      dup7\n        /* \"solidity/contracts/TicTacToe.sol\":6062:6100  game.board[_xCoordinate][_yCoordinate] */\n      0x03\n      dup2\n      lt\n      tag_62\n      jumpi\n      tag_63\n      tag_60\n      jump\t// in\n    tag_63:\n    tag_62:\n      0x20\n      swap2\n      dup3\n      dup3\n      div\n      add\n      swap2\n      swap1\n      mod\n      swap1\n      sload\n      swap1\n      0x0100\n      exp\n      swap1\n      div\n      0xff\n      and\n        /* \"solidity/contracts/TicTacToe.sol\":6062:6120  game.board[_xCoordinate][_yCoordinate] != PlayerTypes.None */\n      0x02\n      dup2\n      gt\n      iszero\n      tag_65\n      jumpi\n      tag_66\n      tag_43\n      jump\t// in\n    tag_66:\n    tag_65:\n      eq\n        /* \"solidity/contracts/TicTacToe.sol\":6058:6216  if (game.board[_xCoordinate][_yCoordinate] != PlayerTypes.None) {\r... */\n      tag_67\n      jumpi\n        /* \"solidity/contracts/TicTacToe.sol\":6145:6150  false */\n      0x00\n        /* \"solidity/contracts/TicTacToe.sol\":6137:6204  return (false, \"There is already a mark at the given coordinates.\") */\n      mload(0x40)\n      dup1\n      0x60\n      add\n      0x40\n      mstore\n      dup1\n      0x31\n      dup2\n      mstore\n      0x20\n      add\n      data_024d23689c7c0d36b0295c402b03cbbb30a16b10831d85b0a50598b30664ffd5\n      0x31\n      swap2\n      codecopy\n      swap4\n      pop\n      swap4\n      pop\n      pop\n      pop\n      jump(tag_39)\n        /* \"solidity/contracts/TicTacToe.sol\":6058:6216  if (game.board[_xCoordinate][_yCoordinate] != PlayerTypes.None) {\r... */\n    tag_67:\n        /* \"solidity/contracts/TicTacToe.sol\":6339:6343  game */\n      dup2\n        /* \"solidity/contracts/TicTacToe.sol\":6339:6354  game.playerTurn */\n      0x06\n      add\n      0x02\n      swap1\n      sload\n      swap1\n      0x0100\n      exp\n      swap1\n      div\n      0xff\n      and\n        /* \"solidity/contracts/TicTacToe.sol\":6298:6302  game */\n      dup3\n        /* \"solidity/contracts/TicTacToe.sol\":6298:6308  game.board */\n      0x07\n      add\n        /* \"solidity/contracts/TicTacToe.sol\":6309:6321  _xCoordinate */\n      dup8\n        /* \"solidity/contracts/TicTacToe.sol\":6298:6322  game.board[_xCoordinate] */\n      0x03\n      dup2\n      lt\n      tag_68\n      jumpi\n      tag_69\n      tag_60\n      jump\t// in\n    tag_69:\n    tag_68:\n      add\n        /* \"solidity/contracts/TicTacToe.sol\":6323:6335  _yCoordinate */\n      dup7\n        /* \"solidity/contracts/TicTacToe.sol\":6298:6336  game.board[_xCoordinate][_yCoordinate] */\n      0x03\n      dup2\n      lt\n      tag_71\n      jumpi\n      tag_72\n      tag_60\n      jump\t// in\n    tag_72:\n    tag_71:\n      0x20\n      swap2\n      dup3\n      dup3\n      div\n      add\n      swap2\n      swap1\n      mod\n        /* \"solidity/contracts/TicTacToe.sol\":6298:6354  game.board[_xCoordinate][_yCoordinate] = game.playerTurn */\n      0x0100\n      exp\n      dup2\n      sload\n      dup2\n      0xff\n      mul\n      not\n      and\n      swap1\n      dup4\n      0x02\n      dup2\n      gt\n      iszero\n      tag_74\n      jumpi\n      tag_75\n      tag_43\n      jump\t// in\n    tag_75:\n    tag_74:\n      mul\n      or\n      swap1\n      sstore\n      pop\n        /* \"solidity/contracts/TicTacToe.sol\":6370:6429  PlayerMadeMove(_gameId, player, _xCoordinate, _yCoordinate) */\n      0x444b0deb3730bdca0248ebb6366b24e3b793732b3555a5bfaad868ecef34ffc1\n        /* \"solidity/contracts/TicTacToe.sol\":6385:6392  _gameId */\n      dup8\n        /* \"solidity/contracts/TicTacToe.sol\":6394:6400  player */\n      dup3\n        /* \"solidity/contracts/TicTacToe.sol\":6402:6414  _xCoordinate */\n      dup9\n        /* \"solidity/contracts/TicTacToe.sol\":6416:6428  _yCoordinate */\n      dup9\n        /* \"solidity/contracts/TicTacToe.sol\":6370:6429  PlayerMadeMove(_gameId, player, _xCoordinate, _yCoordinate) */\n      mload(0x40)\n      tag_76\n      swap5\n      swap4\n      swap3\n      swap2\n      swap1\n      tag_77\n      jump\t// in\n    tag_76:\n      mload(0x40)\n      dup1\n      swap2\n      sub\n      swap1\n      log1\n        /* \"solidity/contracts/TicTacToe.sol\":6510:6524  Winners winner */\n      0x00\n        /* \"solidity/contracts/TicTacToe.sol\":6527:6554  calculateWinner(game.board) */\n      tag_78\n        /* \"solidity/contracts/TicTacToe.sol\":6543:6547  game */\n      dup4\n        /* \"solidity/contracts/TicTacToe.sol\":6543:6553  game.board */\n      0x07\n      add\n        /* \"solidity/contracts/TicTacToe.sol\":6527:6554  calculateWinner(game.board) */\n      0x03\n      dup1\n      0x20\n      mul\n      mload(0x40)\n      swap1\n      dup2\n      add\n      0x40\n      mstore\n      dup1\n      swap3\n      swap2\n      swap1\n      0x00\n      swap1\n    tag_79:\n      dup3\n      dup3\n      lt\n      iszero\n      tag_80\n      jumpi\n      dup4\n      dup3\n      add\n      0x03\n      dup1\n      0x20\n      mul\n      mload(0x40)\n      swap1\n      dup2\n      add\n      0x40\n      mstore\n      dup1\n      swap3\n      swap2\n      swap1\n      dup3\n      0x03\n      dup1\n      iszero\n      tag_82\n      jumpi\n      0x20\n      mul\n      dup3\n      add\n      swap2\n      0x00\n      swap1\n    tag_83:\n      dup3\n      dup3\n      swap1\n      sload\n      swap1\n      0x0100\n      exp\n      swap1\n      div\n      0xff\n      and\n      0x02\n      dup2\n      gt\n      iszero\n      tag_84\n      jumpi\n      tag_85\n      tag_43\n      jump\t// in\n    tag_85:\n    tag_84:\n      dup2\n      mstore\n      0x20\n      add\n      swap1\n      0x01\n      add\n      swap1\n      0x20\n      dup3\n      0x00\n      add\n      div\n      swap3\n      dup4\n      add\n      swap3\n      0x01\n      sub\n      dup3\n      mul\n      swap2\n      pop\n      dup1\n      dup5\n      gt\n      tag_83\n      jumpi\n      swap1\n      pop\n    tag_82:\n      pop\n      pop\n      pop\n      pop\n      pop\n      dup2\n      mstore\n      0x20\n      add\n      swap1\n      0x01\n      add\n      swap1\n      jump(tag_79)\n    tag_80:\n      pop\n      pop\n      pop\n      pop\n        /* \"solidity/contracts/TicTacToe.sol\":6527:6542  calculateWinner */\n      tag_86\n        /* \"solidity/contracts/TicTacToe.sol\":6527:6554  calculateWinner(game.board) */\n      jump\t// in\n    tag_78:\n        /* \"solidity/contracts/TicTacToe.sol\":6510:6554  Winners winner = calculateWinner(game.board) */\n      swap1\n      pop\n        /* \"solidity/contracts/TicTacToe.sol\":6579:6591  Winners.None */\n      0x00\n        /* \"solidity/contracts/TicTacToe.sol\":6569:6591  winner != Winners.None */\n      0x03\n      dup2\n      gt\n      iszero\n      tag_87\n      jumpi\n      tag_88\n      tag_43\n      jump\t// in\n    tag_88:\n    tag_87:\n        /* \"solidity/contracts/TicTacToe.sol\":6569:6575  winner */\n      dup2\n        /* \"solidity/contracts/TicTacToe.sol\":6569:6591  winner != Winners.None */\n      0x03\n      dup2\n      gt\n      iszero\n      tag_89\n      jumpi\n      tag_90\n      tag_43\n      jump\t// in\n    tag_90:\n    tag_89:\n      eq\n        /* \"solidity/contracts/TicTacToe.sol\":6565:7558  if (winner != Winners.None) {\r... */\n      tag_91\n      jumpi\n        /* \"solidity/contracts/TicTacToe.sol\":6770:6776  winner */\n      dup1\n        /* \"solidity/contracts/TicTacToe.sol\":6756:6760  game */\n      dup4\n        /* \"solidity/contracts/TicTacToe.sol\":6756:6767  game.winner */\n      0x06\n      add\n      0x00\n        /* \"solidity/contracts/TicTacToe.sol\":6756:6776  game.winner = winner */\n      0x0100\n      exp\n      dup2\n      sload\n      dup2\n      0xff\n      mul\n      not\n      and\n      swap1\n      dup4\n      0x03\n      dup2\n      gt\n      iszero\n      tag_92\n      jumpi\n      tag_93\n      tag_43\n      jump\t// in\n    tag_93:\n    tag_92:\n      mul\n      or\n      swap1\n      sstore\n      pop\n        /* \"solidity/contracts/TicTacToe.sol\":6805:6820  Status.Finished */\n      0x02\n        /* \"solidity/contracts/TicTacToe.sol\":6791:6795  game */\n      dup4\n        /* \"solidity/contracts/TicTacToe.sol\":6791:6802  game.status */\n      0x06\n      add\n      0x01\n        /* \"solidity/contracts/TicTacToe.sol\":6791:6820  game.status = Status.Finished */\n      0x0100\n      exp\n      dup2\n      sload\n      dup2\n      0xff\n      mul\n      not\n      and\n      swap1\n      dup4\n      0x02\n      dup2\n      gt\n      iszero\n      tag_94\n      jumpi\n      tag_95\n      tag_43\n      jump\t// in\n    tag_95:\n    tag_94:\n      mul\n      or\n      swap1\n      sstore\n      pop\n        /* \"solidity/contracts/TicTacToe.sol\":6851:6863  Winners.Draw */\n      0x03\n        /* \"solidity/contracts/TicTacToe.sol\":6841:6863  winner == Winners.Draw */\n      dup1\n      dup2\n      gt\n      iszero\n      tag_96\n      jumpi\n      tag_97\n      tag_43\n      jump\t// in\n    tag_97:\n    tag_96:\n        /* \"solidity/contracts/TicTacToe.sol\":6841:6847  winner */\n      dup2\n        /* \"solidity/contracts/TicTacToe.sol\":6841:6863  winner == Winners.Draw */\n      0x03\n      dup2\n      gt\n      iszero\n      tag_98\n      jumpi\n      tag_99\n      tag_43\n      jump\t// in\n    tag_99:\n    tag_98:\n      eq\n        /* \"solidity/contracts/TicTacToe.sol\":6837:7466  if (winner == Winners.Draw) {\r... */\n      iszero\n      tag_100\n      jumpi\n        /* \"solidity/contracts/TicTacToe.sol\":6885:6894  bool sent */\n      0x00\n        /* \"solidity/contracts/TicTacToe.sol\":6896:6913  bytes memory data */\n      dup1\n        /* \"solidity/contracts/TicTacToe.sol\":6925:6929  game */\n      dup5\n        /* \"solidity/contracts/TicTacToe.sol\":6925:6939  game.playerOne */\n      0x02\n      add\n        /* \"solidity/contracts/TicTacToe.sol\":6925:6944  game.playerOne.addr */\n      0x00\n      add\n      0x00\n      swap1\n      sload\n      swap1\n      0x0100\n      exp\n      swap1\n      div\n      0xffffffffffffffffffffffffffffffffffffffff\n      and\n        /* \"solidity/contracts/TicTacToe.sol\":6917:6950  payable(game.playerOne.addr).call */\n      0xffffffffffffffffffffffffffffffffffffffff\n      and\n        /* \"solidity/contracts/TicTacToe.sol\":6958:6962  game */\n      dup6\n        /* \"solidity/contracts/TicTacToe.sol\":6958:6972  game.playerOne */\n      0x02\n      add\n        /* \"solidity/contracts/TicTacToe.sol\":6958:6976  game.playerOne.bet */\n      0x01\n      add\n      sload\n        /* \"solidity/contracts/TicTacToe.sol\":6917:6981  payable(game.playerOne.addr).call{value: game.playerOne.bet}(\"\") */\n      mload(0x40)\n      tag_101\n      swap1\n      tag_102\n      jump\t// in\n    tag_101:\n      0x00\n      mload(0x40)\n      dup1\n      dup4\n      sub\n      dup2\n      dup6\n      dup8\n      gas\n      call\n      swap3\n      pop\n      pop\n      pop\n      returndatasize\n      dup1\n      0x00\n      dup2\n      eq\n      tag_105\n      jumpi\n      mload(0x40)\n      swap2\n      pop\n      and(add(returndatasize, 0x3f), not(0x1f))\n      dup3\n      add\n      0x40\n      mstore\n      returndatasize\n      dup3\n      mstore\n      returndatasize\n      0x00\n      0x20\n      dup5\n      add\n      returndatacopy\n      jump(tag_104)\n    tag_105:\n      0x60\n      swap2\n      pop\n    tag_104:\n      pop\n        /* \"solidity/contracts/TicTacToe.sol\":6884:6981  (bool sent, bytes memory data) = payable(game.playerOne.addr).call{value: game.playerOne.bet}(\"\") */\n      swap2\n      pop\n      swap2\n      pop\n        /* \"solidity/contracts/TicTacToe.sol\":7008:7012  sent */\n      dup2\n        /* \"solidity/contracts/TicTacToe.sol\":7000:7037  require(sent, \"Failed to send Ether\") */\n      tag_106\n      jumpi\n      mload(0x40)\n      0x08c379a000000000000000000000000000000000000000000000000000000000\n      dup2\n      mstore\n      0x04\n      add\n      tag_107\n      swap1\n      tag_108\n      jump\t// in\n    tag_107:\n      mload(0x40)\n      dup1\n      swap2\n      sub\n      swap1\n      revert\n    tag_106:\n        /* \"solidity/contracts/TicTacToe.sol\":7081:7085  game */\n      dup5\n        /* \"solidity/contracts/TicTacToe.sol\":7081:7095  game.playerTwo */\n      0x04\n      add\n        /* \"solidity/contracts/TicTacToe.sol\":7081:7100  game.playerTwo.addr */\n      0x00\n      add\n      0x00\n      swap1\n      sload\n      swap1\n      0x0100\n      exp\n      swap1\n      div\n      0xffffffffffffffffffffffffffffffffffffffff\n      and\n        /* \"solidity/contracts/TicTacToe.sol\":7073:7106  payable(game.playerTwo.addr).call */\n      0xffffffffffffffffffffffffffffffffffffffff\n      and\n        /* \"solidity/contracts/TicTacToe.sol\":7114:7118  game */\n      dup6\n        /* \"solidity/contracts/TicTacToe.sol\":7114:7128  game.playerTwo */\n      0x04\n      add\n        /* \"solidity/contracts/TicTacToe.sol\":7114:7132  game.playerTwo.bet */\n      0x01\n      add\n      sload\n        /* \"solidity/contracts/TicTacToe.sol\":7073:7137  payable(game.playerTwo.addr).call{value: game.playerTwo.bet}(\"\") */\n      mload(0x40)\n      tag_109\n      swap1\n      tag_102\n      jump\t// in\n    tag_109:\n      0x00\n      mload(0x40)\n      dup1\n      dup4\n      sub\n      dup2\n      dup6\n      dup8\n      gas\n      call\n      swap3\n      pop\n      pop\n      pop\n      returndatasize\n      dup1\n      0x00\n      dup2\n      eq\n      tag_112\n      jumpi\n      mload(0x40)\n      swap2\n      pop\n      and(add(returndatasize, 0x3f), not(0x1f))\n      dup3\n      add\n      0x40\n      mstore\n      returndatasize\n      dup3\n      mstore\n      returndatasize\n      0x00\n      0x20\n      dup5\n      add\n      returndatacopy\n      jump(tag_111)\n    tag_112:\n      0x60\n      swap2\n      pop\n    tag_111:\n      pop\n        /* \"solidity/contracts/TicTacToe.sol\":7058:7137  (sent, data) = payable(game.playerTwo.addr).call{value: game.playerTwo.bet}(\"\") */\n      dup1\n      swap3\n      pop\n      dup2\n      swap4\n      pop\n      pop\n      pop\n        /* \"solidity/contracts/TicTacToe.sol\":7164:7168  sent */\n      dup2\n        /* \"solidity/contracts/TicTacToe.sol\":7156:7193  require(sent, \"Failed to send Ether\") */\n      tag_113\n      jumpi\n      mload(0x40)\n      0x08c379a000000000000000000000000000000000000000000000000000000000\n      dup2\n      mstore\n      0x04\n      add\n      tag_114\n      swap1\n      tag_108\n      jump\t// in\n    tag_114:\n      mload(0x40)\n      dup1\n      swap2\n      sub\n      swap1\n      revert\n    tag_113:\n        /* \"solidity/contracts/TicTacToe.sol\":6865:7215  {\r... */\n      pop\n      pop\n        /* \"solidity/contracts/TicTacToe.sol\":6837:7466  if (winner == Winners.Draw) {\r... */\n      jump(tag_115)\n    tag_100:\n        /* \"solidity/contracts/TicTacToe.sol\":7240:7263  Player memory playerWon */\n      0x00\n        /* \"solidity/contracts/TicTacToe.sol\":7266:7288  getCurrentPlayer(game) */\n      tag_116\n        /* \"solidity/contracts/TicTacToe.sol\":7283:7287  game */\n      dup5\n        /* \"solidity/contracts/TicTacToe.sol\":7266:7282  getCurrentPlayer */\n      tag_48\n        /* \"solidity/contracts/TicTacToe.sol\":7266:7288  getCurrentPlayer(game) */\n      jump\t// in\n    tag_116:\n        /* \"solidity/contracts/TicTacToe.sol\":7240:7288  Player memory playerWon = getCurrentPlayer(game) */\n      swap1\n      pop\n        /* \"solidity/contracts/TicTacToe.sol\":7308:7317  bool sent */\n      0x00\n        /* \"solidity/contracts/TicTacToe.sol\":7319:7336  bytes memory data */\n      dup1\n        /* \"solidity/contracts/TicTacToe.sol\":7348:7357  playerWon */\n      dup3\n        /* \"solidity/contracts/TicTacToe.sol\":7348:7362  playerWon.addr */\n      0x00\n      add\n      mload\n        /* \"solidity/contracts/TicTacToe.sol\":7340:7368  payable(playerWon.addr).call */\n      0xffffffffffffffffffffffffffffffffffffffff\n      and\n        /* \"solidity/contracts/TicTacToe.sol\":7376:7380  game */\n      dup7\n        /* \"solidity/contracts/TicTacToe.sol\":7376:7389  game.totalBet */\n      0x00\n      add\n      sload\n        /* \"solidity/contracts/TicTacToe.sol\":7340:7394  payable(playerWon.addr).call{value: game.totalBet}(\"\") */\n      mload(0x40)\n      tag_117\n      swap1\n      tag_102\n      jump\t// in\n    tag_117:\n      0x00\n      mload(0x40)\n      dup1\n      dup4\n      sub\n      dup2\n      dup6\n      dup8\n      gas\n      call\n      swap3\n      pop\n      pop\n      pop\n      returndatasize\n      dup1\n      0x00\n      dup2\n      eq\n      tag_120\n      jumpi\n      mload(0x40)\n      swap2\n      pop\n      and(add(returndatasize, 0x3f), not(0x1f))\n      dup3\n      add\n      0x40\n      mstore\n      returndatasize\n      dup3\n      mstore\n      returndatasize\n      0x00\n      0x20\n      dup5\n      add\n      returndatacopy\n      jump(tag_119)\n    tag_120:\n      0x60\n      swap2\n      pop\n    tag_119:\n      pop\n        /* \"solidity/contracts/TicTacToe.sol\":7307:7394  (bool sent, bytes memory data) = payable(playerWon.addr).call{value: game.totalBet}(\"\") */\n      swap2\n      pop\n      swap2\n      pop\n        /* \"solidity/contracts/TicTacToe.sol\":7421:7425  sent */\n      dup2\n        /* \"solidity/contracts/TicTacToe.sol\":7413:7450  require(sent, \"Failed to send Ether\") */\n      tag_121\n      jumpi\n      mload(0x40)\n      0x08c379a000000000000000000000000000000000000000000000000000000000\n      dup2\n      mstore\n      0x04\n      add\n      tag_122\n      swap1\n      tag_108\n      jump\t// in\n    tag_122:\n      mload(0x40)\n      dup1\n      swap2\n      sub\n      swap1\n      revert\n    tag_121:\n        /* \"solidity/contracts/TicTacToe.sol\":7221:7466  {\r... */\n      pop\n      pop\n      pop\n        /* \"solidity/contracts/TicTacToe.sol\":6837:7466  if (winner == Winners.Draw) {\r... */\n    tag_115:\n        /* \"solidity/contracts/TicTacToe.sol\":7487:7512  GameOver(_gameId, winner) */\n      0x132b564c6f96092065580fd28989d181dfbbfe4aa2fb7fb1eda8af68ba3073e0\n        /* \"solidity/contracts/TicTacToe.sol\":7496:7503  _gameId */\n      dup9\n        /* \"solidity/contracts/TicTacToe.sol\":7505:7511  winner */\n      dup3\n        /* \"solidity/contracts/TicTacToe.sol\":7487:7512  GameOver(_gameId, winner) */\n      mload(0x40)\n      tag_123\n      swap3\n      swap2\n      swap1\n      tag_124\n      jump\t// in\n    tag_123:\n      mload(0x40)\n      dup1\n      swap2\n      sub\n      swap1\n      log1\n        /* \"solidity/contracts/TicTacToe.sol\":7537:7541  true */\n      0x01\n        /* \"solidity/contracts/TicTacToe.sol\":7529:7546  return (true, \"\") */\n      mload(0x40)\n      dup1\n      0x20\n      add\n      0x40\n      mstore\n      dup1\n      0x00\n      dup2\n      mstore\n      pop\n      swap5\n      pop\n      swap5\n      pop\n      pop\n      pop\n      pop\n      jump(tag_39)\n        /* \"solidity/contracts/TicTacToe.sol\":6565:7558  if (winner != Winners.None) {\r... */\n    tag_91:\n        /* \"solidity/contracts/TicTacToe.sol\":7676:7692  nextPlayer(game) */\n      tag_125\n        /* \"solidity/contracts/TicTacToe.sol\":7687:7691  game */\n      dup4\n        /* \"solidity/contracts/TicTacToe.sol\":7676:7686  nextPlayer */\n      tag_126\n        /* \"solidity/contracts/TicTacToe.sol\":7676:7692  nextPlayer(game) */\n      jump\t// in\n    tag_125:\n        /* \"solidity/contracts/TicTacToe.sol\":7713:7717  true */\n      0x01\n        /* \"solidity/contracts/TicTacToe.sol\":7705:7722  return (true, \"\") */\n      mload(0x40)\n      dup1\n      0x20\n      add\n      0x40\n      mstore\n      dup1\n      0x00\n      dup2\n      mstore\n      pop\n      swap5\n      pop\n      swap5\n      pop\n      pop\n      pop\n      pop\n        /* \"solidity/contracts/TicTacToe.sol\":5020:7730  function _makeMove(uint256 _gameId, uint _xCoordinate, uint _yCoordinate) public returns (bool success, string memory reason) {\r... */\n    tag_39:\n      swap4\n      pop\n      swap4\n      swap2\n      pop\n      pop\n      jump\t// out\n        /* \"solidity/contracts/TicTacToe.sol\":2609:2725  function getGameInfo(uint256 _gameId) public view returns(Game memory game) {\r... */\n    tag_19:\n        /* \"solidity/contracts/TicTacToe.sol\":2667:2683  Game memory game */\n      tag_127\n      tag_128\n      jump\t// in\n    tag_127:\n        /* \"solidity/contracts/TicTacToe.sol\":2703:2708  games */\n      0x00\n        /* \"solidity/contracts/TicTacToe.sol\":2703:2717  games[_gameId] */\n      dup1\n        /* \"solidity/contracts/TicTacToe.sol\":2709:2716  _gameId */\n      dup4\n        /* \"solidity/contracts/TicTacToe.sol\":2703:2717  games[_gameId] */\n      dup2\n      mstore\n      0x20\n      add\n      swap1\n      dup2\n      mstore\n      0x20\n      add\n      0x00\n      keccak256\n        /* \"solidity/contracts/TicTacToe.sol\":2696:2717  game = games[_gameId] */\n      mload(0x40)\n      dup1\n      0x0100\n      add\n      0x40\n      mstore\n      swap1\n      dup2\n      0x00\n      dup3\n      add\n      sload\n      dup2\n      mstore\n      0x20\n      add\n      0x01\n      dup3\n      add\n      sload\n      dup2\n      mstore\n      0x20\n      add\n      0x02\n      dup3\n      add\n      mload(0x40)\n      dup1\n      0x40\n      add\n      0x40\n      mstore\n      swap1\n      dup2\n      0x00\n      dup3\n      add\n      0x00\n      swap1\n      sload\n      swap1\n      0x0100\n      exp\n      swap1\n      div\n      0xffffffffffffffffffffffffffffffffffffffff\n      and\n      0xffffffffffffffffffffffffffffffffffffffff\n      and\n      0xffffffffffffffffffffffffffffffffffffffff\n      and\n      dup2\n      mstore\n      0x20\n      add\n      0x01\n      dup3\n      add\n      sload\n      dup2\n      mstore\n      pop\n      pop\n      dup2\n      mstore\n      0x20\n      add\n      0x04\n      dup3\n      add\n      mload(0x40)\n      dup1\n      0x40\n      add\n      0x40\n      mstore\n      swap1\n      dup2\n      0x00\n      dup3\n      add\n      0x00\n      swap1\n      sload\n      swap1\n      0x0100\n      exp\n      swap1\n      div\n      0xffffffffffffffffffffffffffffffffffffffff\n      and\n      0xffffffffffffffffffffffffffffffffffffffff\n      and\n      0xffffffffffffffffffffffffffffffffffffffff\n      and\n      dup2\n      mstore\n      0x20\n      add\n      0x01\n      dup3\n      add\n      sload\n      dup2\n      mstore\n      pop\n      pop\n      dup2\n      mstore\n      0x20\n      add\n      0x06\n      dup3\n      add\n      0x00\n      swap1\n      sload\n      swap1\n      0x0100\n      exp\n      swap1\n      div\n      0xff\n      and\n      0x03\n      dup2\n      gt\n      iszero\n      tag_130\n      jumpi\n      tag_131\n      tag_43\n      jump\t// in\n    tag_131:\n    tag_130:\n      0x03\n      dup2\n      gt\n      iszero\n      tag_132\n      jumpi\n      tag_133\n      tag_43\n      jump\t// in\n    tag_133:\n    tag_132:\n      dup2\n      mstore\n      0x20\n      add\n      0x06\n      dup3\n      add\n      0x01\n      swap1\n      sload\n      swap1\n      0x0100\n      exp\n      swap1\n      div\n      0xff\n      and\n      0x02\n      dup2\n      gt\n      iszero\n      tag_134\n      jumpi\n      tag_135\n      tag_43\n      jump\t// in\n    tag_135:\n    tag_134:\n      0x02\n      dup2\n      gt\n      iszero\n      tag_136\n      jumpi\n      tag_137\n      tag_43\n      jump\t// in\n    tag_137:\n    tag_136:\n      dup2\n      mstore\n      0x20\n      add\n      0x06\n      dup3\n      add\n      0x02\n      swap1\n      sload\n      swap1\n      0x0100\n      exp\n      swap1\n      div\n      0xff\n      and\n      0x02\n      dup2\n      gt\n      iszero\n      tag_138\n      jumpi\n      tag_139\n      tag_43\n      jump\t// in\n    tag_139:\n    tag_138:\n      0x02\n      dup2\n      gt\n      iszero\n      tag_140\n      jumpi\n      tag_141\n      tag_43\n      jump\t// in\n    tag_141:\n    tag_140:\n      dup2\n      mstore\n      0x20\n      add\n      0x07\n      dup3\n      add\n      0x03\n      dup1\n      0x20\n      mul\n      mload(0x40)\n      swap1\n      dup2\n      add\n      0x40\n      mstore\n      dup1\n      swap3\n      swap2\n      swap1\n      0x00\n      swap1\n    tag_142:\n      dup3\n      dup3\n      lt\n      iszero\n      tag_143\n      jumpi\n      dup4\n      dup3\n      add\n      0x03\n      dup1\n      0x20\n      mul\n      mload(0x40)\n      swap1\n      dup2\n      add\n      0x40\n      mstore\n      dup1\n      swap3\n      swap2\n      swap1\n      dup3\n      0x03\n      dup1\n      iszero\n      tag_145\n      jumpi\n      0x20\n      mul\n      dup3\n      add\n      swap2\n      0x00\n      swap1\n    tag_146:\n      dup3\n      dup3\n      swap1\n      sload\n      swap1\n      0x0100\n      exp\n      swap1\n      div\n      0xff\n      and\n      0x02\n      dup2\n      gt\n      iszero\n      tag_147\n      jumpi\n      tag_148\n      tag_43\n      jump\t// in\n    tag_148:\n    tag_147:\n      dup2\n      mstore\n      0x20\n      add\n      swap1\n      0x01\n      add\n      swap1\n      0x20\n      dup3\n      0x00\n      add\n      div\n      swap3\n      dup4\n      add\n      swap3\n      0x01\n      sub\n      dup3\n      mul\n      swap2\n      pop\n      dup1\n      dup5\n      gt\n      tag_146\n      jumpi\n      swap1\n      pop\n    tag_145:\n      pop\n      pop\n      pop\n      pop\n      pop\n      dup2\n      mstore\n      0x20\n      add\n      swap1\n      0x01\n      add\n      swap1\n      jump(tag_142)\n    tag_143:\n      pop\n      pop\n      pop\n      pop\n      dup2\n      mstore\n      pop\n      pop\n      swap1\n      pop\n        /* \"solidity/contracts/TicTacToe.sol\":2609:2725  function getGameInfo(uint256 _gameId) public view returns(Game memory game) {\r... */\n      swap2\n      swap1\n      pop\n      jump\t// out\n        /* \"solidity/contracts/TicTacToe.sol\":2137:2601  function newGame(uint256 _required_bet) public returns (uint256 gameId) {\r... */\n    tag_25:\n        /* \"solidity/contracts/TicTacToe.sol\":2193:2207  uint256 gameId */\n      0x00\n        /* \"solidity/contracts/TicTacToe.sol\":125:131  1 gwei */\n      0x3b9aca00\n        /* \"solidity/contracts/TicTacToe.sol\":2228:2241  _required_bet */\n      dup3\n        /* \"solidity/contracts/TicTacToe.sol\":2228:2247  _required_bet > fee */\n      gt\n        /* \"solidity/contracts/TicTacToe.sol\":2220:2275  require(_required_bet > fee, \"required_bet is too low\") */\n      tag_150\n      jumpi\n      mload(0x40)\n      0x08c379a000000000000000000000000000000000000000000000000000000000\n      dup2\n      mstore\n      0x04\n      add\n      tag_151\n      swap1\n      tag_152\n      jump\t// in\n    tag_151:\n      mload(0x40)\n      dup1\n      swap2\n      sub\n      swap1\n      revert\n    tag_150:\n        /* \"solidity/contracts/TicTacToe.sol\":2286:2302  Game memory game */\n      tag_153\n      tag_128\n      jump\t// in\n    tag_153:\n        /* \"solidity/contracts/TicTacToe.sol\":2331:2352  PlayerTypes.PlayerOne */\n      0x01\n        /* \"solidity/contracts/TicTacToe.sol\":2313:2317  game */\n      dup2\n        /* \"solidity/contracts/TicTacToe.sol\":2313:2328  game.playerTurn */\n      0xc0\n      add\n        /* \"solidity/contracts/TicTacToe.sol\":2313:2352  game.playerTurn = PlayerTypes.PlayerOne */\n      swap1\n      0x02\n      dup2\n      gt\n      iszero\n      tag_154\n      jumpi\n      tag_155\n      tag_43\n      jump\t// in\n    tag_155:\n    tag_154:\n      swap1\n      dup2\n      0x02\n      dup2\n      gt\n      iszero\n      tag_156\n      jumpi\n      tag_157\n      tag_43\n      jump\t// in\n    tag_157:\n    tag_156:\n      dup2\n      mstore\n      pop\n      pop\n        /* \"solidity/contracts/TicTacToe.sol\":2377:2394  Status.NotStarted */\n      0x00\n        /* \"solidity/contracts/TicTacToe.sol\":2363:2367  game */\n      dup2\n        /* \"solidity/contracts/TicTacToe.sol\":2363:2374  game.status */\n      0xa0\n      add\n        /* \"solidity/contracts/TicTacToe.sol\":2363:2394  game.status = Status.NotStarted */\n      swap1\n      0x02\n      dup2\n      gt\n      iszero\n      tag_158\n      jumpi\n      tag_159\n      tag_43\n      jump\t// in\n    tag_159:\n    tag_158:\n      swap1\n      dup2\n      0x02\n      dup2\n      gt\n      iszero\n      tag_160\n      jumpi\n      tag_161\n      tag_43\n      jump\t// in\n    tag_161:\n    tag_160:\n      dup2\n      mstore\n      pop\n      pop\n        /* \"solidity/contracts/TicTacToe.sol\":2425:2438  _required_bet */\n      dup3\n        /* \"solidity/contracts/TicTacToe.sol\":2405:2409  game */\n      dup2\n        /* \"solidity/contracts/TicTacToe.sol\":2405:2422  game.required_bet */\n      0x20\n      add\n        /* \"solidity/contracts/TicTacToe.sol\":2405:2438  game.required_bet = _required_bet */\n      dup2\n      dup2\n      mstore\n      pop\n      pop\n        /* \"solidity/contracts/TicTacToe.sol\":2451:2464  numberOfGames */\n      0x01\n      0x00\n        /* \"solidity/contracts/TicTacToe.sol\":2451:2466  numberOfGames++ */\n      dup2\n      sload\n      dup1\n      swap3\n      swap2\n      swap1\n      tag_162\n      swap1\n      tag_163\n      jump\t// in\n    tag_162:\n      swap2\n      swap1\n      pop\n      sstore\n      pop\n        /* \"solidity/contracts/TicTacToe.sol\":2500:2504  game */\n      dup1\n        /* \"solidity/contracts/TicTacToe.sol\":2477:2482  games */\n      0x00\n        /* \"solidity/contracts/TicTacToe.sol\":2477:2497  games[numberOfGames] */\n      dup1\n        /* \"solidity/contracts/TicTacToe.sol\":2483:2496  numberOfGames */\n      sload(0x01)\n        /* \"solidity/contracts/TicTacToe.sol\":2477:2497  games[numberOfGames] */\n      dup2\n      mstore\n      0x20\n      add\n      swap1\n      dup2\n      mstore\n      0x20\n      add\n      0x00\n      keccak256\n        /* \"solidity/contracts/TicTacToe.sol\":2477:2504  games[numberOfGames] = game */\n      0x00\n      dup3\n      add\n      mload\n      dup2\n      0x00\n      add\n      sstore\n      0x20\n      dup3\n      add\n      mload\n      dup2\n      0x01\n      add\n      sstore\n      0x40\n      dup3\n      add\n      mload\n      dup2\n      0x02\n      add\n      0x00\n      dup3\n      add\n      mload\n      dup2\n      0x00\n      add\n      exp(0x0100, 0x00)\n      dup2\n      sload\n      dup2\n      0xffffffffffffffffffffffffffffffffffffffff\n      mul\n      not\n      and\n      swap1\n      dup4\n      0xffffffffffffffffffffffffffffffffffffffff\n      and\n      mul\n      or\n      swap1\n      sstore\n      pop\n      0x20\n      dup3\n      add\n      mload\n      dup2\n      0x01\n      add\n      sstore\n      pop\n      pop\n      0x60\n      dup3\n      add\n      mload\n      dup2\n      0x04\n      add\n      0x00\n      dup3\n      add\n      mload\n      dup2\n      0x00\n      add\n      exp(0x0100, 0x00)\n      dup2\n      sload\n      dup2\n      0xffffffffffffffffffffffffffffffffffffffff\n      mul\n      not\n      and\n      swap1\n      dup4\n      0xffffffffffffffffffffffffffffffffffffffff\n      and\n      mul\n      or\n      swap1\n      sstore\n      pop\n      0x20\n      dup3\n      add\n      mload\n      dup2\n      0x01\n      add\n      sstore\n      pop\n      pop\n      0x80\n      dup3\n      add\n      mload\n      dup2\n      0x06\n      add\n      exp(0x0100, 0x00)\n      dup2\n      sload\n      dup2\n      0xff\n      mul\n      not\n      and\n      swap1\n      dup4\n      0x03\n      dup2\n      gt\n      iszero\n      tag_164\n      jumpi\n      tag_165\n      tag_43\n      jump\t// in\n    tag_165:\n    tag_164:\n      mul\n      or\n      swap1\n      sstore\n      pop\n      0xa0\n      dup3\n      add\n      mload\n      dup2\n      0x06\n      add\n      exp(0x0100, 0x01)\n      dup2\n      sload\n      dup2\n      0xff\n      mul\n      not\n      and\n      swap1\n      dup4\n      0x02\n      dup2\n      gt\n      iszero\n      tag_166\n      jumpi\n      tag_167\n      tag_43\n      jump\t// in\n    tag_167:\n    tag_166:\n      mul\n      or\n      swap1\n      sstore\n      pop\n      0xc0\n      dup3\n      add\n      mload\n      dup2\n      0x06\n      add\n      exp(0x0100, 0x02)\n      dup2\n      sload\n      dup2\n      0xff\n      mul\n      not\n      and\n      swap1\n      dup4\n      0x02\n      dup2\n      gt\n      iszero\n      tag_168\n      jumpi\n      tag_169\n      tag_43\n      jump\t// in\n    tag_169:\n    tag_168:\n      mul\n      or\n      swap1\n      sstore\n      pop\n      0xe0\n      dup3\n      add\n      mload\n      dup2\n      0x07\n      add\n      swap1\n      0x03\n      tag_170\n      swap3\n      swap2\n      swap1\n      tag_171\n      jump\t// in\n    tag_170:\n      pop\n      swap1\n      pop\n      pop\n        /* \"solidity/contracts/TicTacToe.sol\":2522:2560  GameCreated(numberOfGames, msg.sender) */\n      0xc3e0f84839dc888c892a013d10c8f9d6dc05a21a879d0ce468ca558013e9121c\n        /* \"solidity/contracts/TicTacToe.sol\":2534:2547  numberOfGames */\n      sload(0x01)\n        /* \"solidity/contracts/TicTacToe.sol\":2549:2559  msg.sender */\n      caller\n        /* \"solidity/contracts/TicTacToe.sol\":2522:2560  GameCreated(numberOfGames, msg.sender) */\n      mload(0x40)\n      tag_172\n      swap3\n      swap2\n      swap1\n      tag_173\n      jump\t// in\n    tag_172:\n      mload(0x40)\n      dup1\n      swap2\n      sub\n      swap1\n      log1\n        /* \"solidity/contracts/TicTacToe.sol\":2580:2593  numberOfGames */\n      sload(0x01)\n        /* \"solidity/contracts/TicTacToe.sol\":2573:2593  return numberOfGames */\n      swap2\n      pop\n      pop\n        /* \"solidity/contracts/TicTacToe.sol\":2137:2601  function newGame(uint256 _required_bet) public returns (uint256 gameId) {\r... */\n      swap2\n      swap1\n      pop\n      jump\t// out\n        /* \"solidity/contracts/TicTacToe.sol\":4753:5008  function makeMove(uint256 _gameId, uint _xCoordinate, uint _yCoordinate) public  {\r... */\n    tag_31:\n        /* \"solidity/contracts/TicTacToe.sol\":4845:4857  bool success */\n      0x00\n        /* \"solidity/contracts/TicTacToe.sol\":4868:4888  string memory reason */\n      0x60\n        /* \"solidity/contracts/TicTacToe.sol\":4919:4965  _makeMove(_gameId, _xCoordinate, _yCoordinate) */\n      tag_175\n        /* \"solidity/contracts/TicTacToe.sol\":4929:4936  _gameId */\n      dup6\n        /* \"solidity/contracts/TicTacToe.sol\":4938:4950  _xCoordinate */\n      dup6\n        /* \"solidity/contracts/TicTacToe.sol\":4952:4964  _yCoordinate */\n      dup6\n        /* \"solidity/contracts/TicTacToe.sol\":4919:4928  _makeMove */\n      tag_12\n        /* \"solidity/contracts/TicTacToe.sol\":4919:4965  _makeMove(_gameId, _xCoordinate, _yCoordinate) */\n      jump\t// in\n    tag_175:\n        /* \"solidity/contracts/TicTacToe.sol\":4899:4965  (success, reason) = _makeMove(_gameId, _xCoordinate, _yCoordinate) */\n      dup1\n      swap3\n      pop\n      dup2\n      swap4\n      pop\n      pop\n      pop\n        /* \"solidity/contracts/TicTacToe.sol\":4984:4991  success */\n      dup2\n        /* \"solidity/contracts/TicTacToe.sol\":4993:4999  reason */\n      dup2\n        /* \"solidity/contracts/TicTacToe.sol\":4976:5000  require(success, reason) */\n      swap1\n      tag_176\n      jumpi\n      mload(0x40)\n      0x08c379a000000000000000000000000000000000000000000000000000000000\n      dup2\n      mstore\n      0x04\n      add\n      tag_177\n      swap2\n      swap1\n      tag_178\n      jump\t// in\n    tag_177:\n      mload(0x40)\n      dup1\n      swap2\n      sub\n      swap1\n      revert\n    tag_176:\n      pop\n        /* \"solidity/contracts/TicTacToe.sol\":4834:5008  {\r... */\n      pop\n      pop\n        /* \"solidity/contracts/TicTacToe.sol\":4753:5008  function makeMove(uint256 _gameId, uint _xCoordinate, uint _yCoordinate) public  {\r... */\n      pop\n      pop\n      pop\n      jump\t// out\n        /* \"solidity/contracts/TicTacToe.sol\":2983:3192  function joinGame(uint256 _gameId) public payable {\r... */\n    tag_34:\n        /* \"solidity/contracts/TicTacToe.sol\":3044:3056  bool success */\n      0x00\n        /* \"solidity/contracts/TicTacToe.sol\":3067:3087  string memory reason */\n      0x60\n        /* \"solidity/contracts/TicTacToe.sol\":3120:3149  _joinGame(msg.value, _gameId) */\n      tag_180\n        /* \"solidity/contracts/TicTacToe.sol\":3130:3139  msg.value */\n      callvalue\n        /* \"solidity/contracts/TicTacToe.sol\":3141:3148  _gameId */\n      dup5\n        /* \"solidity/contracts/TicTacToe.sol\":3120:3129  _joinGame */\n      tag_181\n        /* \"solidity/contracts/TicTacToe.sol\":3120:3149  _joinGame(msg.value, _gameId) */\n      jump\t// in\n    tag_180:\n        /* \"solidity/contracts/TicTacToe.sol\":3100:3149  (success, reason) = _joinGame(msg.value, _gameId) */\n      dup1\n      swap3\n      pop\n      dup2\n      swap4\n      pop\n      pop\n      pop\n        /* \"solidity/contracts/TicTacToe.sol\":3168:3175  success */\n      dup2\n        /* \"solidity/contracts/TicTacToe.sol\":3177:3183  reason */\n      dup2\n        /* \"solidity/contracts/TicTacToe.sol\":3160:3184  require(success, reason) */\n      swap1\n      tag_182\n      jumpi\n      mload(0x40)\n      0x08c379a000000000000000000000000000000000000000000000000000000000\n      dup2\n      mstore\n      0x04\n      add\n      tag_183\n      swap2\n      swap1\n      tag_178\n      jump\t// in\n    tag_183:\n      mload(0x40)\n      dup1\n      swap2\n      sub\n      swap1\n      revert\n    tag_182:\n      pop\n        /* \"solidity/contracts/TicTacToe.sol\":3033:3192  {\r... */\n      pop\n      pop\n        /* \"solidity/contracts/TicTacToe.sol\":2983:3192  function joinGame(uint256 _gameId) public payable {\r... */\n      pop\n      jump\t// out\n        /* \"solidity/contracts/TicTacToe.sol\":1108:1136  uint256 public numberOfGames */\n    tag_37:\n      sload(0x01)\n      dup2\n      jump\t// out\n        /* \"solidity/contracts/TicTacToe.sol\":7890:8253  function getCurrentPlayer(Game storage _game) private view returns (Player memory player) {\r... */\n    tag_48:\n        /* \"solidity/contracts/TicTacToe.sol\":7958:7978  Player memory player */\n      tag_184\n      tag_185\n      jump\t// in\n    tag_184:\n        /* \"solidity/contracts/TicTacToe.sol\":8015:8036  PlayerTypes.PlayerOne */\n      0x01\n        /* \"solidity/contracts/TicTacToe.sol\":7995:8036  _game.playerTurn == PlayerTypes.PlayerOne */\n      0x02\n      dup2\n      gt\n      iszero\n      tag_187\n      jumpi\n      tag_188\n      tag_43\n      jump\t// in\n    tag_188:\n    tag_187:\n        /* \"solidity/contracts/TicTacToe.sol\":7995:8000  _game */\n      dup3\n        /* \"solidity/contracts/TicTacToe.sol\":7995:8011  _game.playerTurn */\n      0x06\n      add\n      0x02\n      swap1\n      sload\n      swap1\n      0x0100\n      exp\n      swap1\n      div\n      0xff\n      and\n        /* \"solidity/contracts/TicTacToe.sol\":7995:8036  _game.playerTurn == PlayerTypes.PlayerOne */\n      0x02\n      dup2\n      gt\n      iszero\n      tag_189\n      jumpi\n      tag_190\n      tag_43\n      jump\t// in\n    tag_190:\n    tag_189:\n      eq\n        /* \"solidity/contracts/TicTacToe.sol\":7991:8087  if (_game.playerTurn == PlayerTypes.PlayerOne) {\r... */\n      iszero\n      tag_191\n      jumpi\n        /* \"solidity/contracts/TicTacToe.sol\":8060:8065  _game */\n      dup2\n        /* \"solidity/contracts/TicTacToe.sol\":8060:8075  _game.playerOne */\n      0x02\n      add\n        /* \"solidity/contracts/TicTacToe.sol\":8053:8075  return _game.playerOne */\n      mload(0x40)\n      dup1\n      0x40\n      add\n      0x40\n      mstore\n      swap1\n      dup2\n      0x00\n      dup3\n      add\n      0x00\n      swap1\n      sload\n      swap1\n      0x0100\n      exp\n      swap1\n      div\n      0xffffffffffffffffffffffffffffffffffffffff\n      and\n      0xffffffffffffffffffffffffffffffffffffffff\n      and\n      0xffffffffffffffffffffffffffffffffffffffff\n      and\n      dup2\n      mstore\n      0x20\n      add\n      0x01\n      dup3\n      add\n      sload\n      dup2\n      mstore\n      pop\n      pop\n      swap1\n      pop\n      jump(tag_186)\n        /* \"solidity/contracts/TicTacToe.sol\":7991:8087  if (_game.playerTurn == PlayerTypes.PlayerOne) {\r... */\n    tag_191:\n        /* \"solidity/contracts/TicTacToe.sol\":8123:8144  PlayerTypes.PlayerTwo */\n      0x02\n        /* \"solidity/contracts/TicTacToe.sol\":8103:8144  _game.playerTurn == PlayerTypes.PlayerTwo */\n      dup1\n      dup2\n      gt\n      iszero\n      tag_192\n      jumpi\n      tag_193\n      tag_43\n      jump\t// in\n    tag_193:\n    tag_192:\n        /* \"solidity/contracts/TicTacToe.sol\":8103:8108  _game */\n      dup3\n        /* \"solidity/contracts/TicTacToe.sol\":8103:8119  _game.playerTurn */\n      0x06\n      add\n      0x02\n      swap1\n      sload\n      swap1\n      0x0100\n      exp\n      swap1\n      div\n      0xff\n      and\n        /* \"solidity/contracts/TicTacToe.sol\":8103:8144  _game.playerTurn == PlayerTypes.PlayerTwo */\n      0x02\n      dup2\n      gt\n      iszero\n      tag_194\n      jumpi\n      tag_195\n      tag_43\n      jump\t// in\n    tag_195:\n    tag_194:\n      eq\n        /* \"solidity/contracts/TicTacToe.sol\":8099:8195  if (_game.playerTurn == PlayerTypes.PlayerTwo) {\r... */\n      iszero\n      tag_196\n      jumpi\n        /* \"solidity/contracts/TicTacToe.sol\":8168:8173  _game */\n      dup2\n        /* \"solidity/contracts/TicTacToe.sol\":8168:8183  _game.playerTwo */\n      0x04\n      add\n        /* \"solidity/contracts/TicTacToe.sol\":8161:8183  return _game.playerTwo */\n      mload(0x40)\n      dup1\n      0x40\n      add\n      0x40\n      mstore\n      swap1\n      dup2\n      0x00\n      dup3\n      add\n      0x00\n      swap1\n      sload\n      swap1\n      0x0100\n      exp\n      swap1\n      div\n      0xffffffffffffffffffffffffffffffffffffffff\n      and\n      0xffffffffffffffffffffffffffffffffffffffff\n      and\n      0xffffffffffffffffffffffffffffffffffffffff\n      and\n      dup2\n      mstore\n      0x20\n      add\n      0x01\n      dup3\n      add\n      sload\n      dup2\n      mstore\n      pop\n      pop\n      swap1\n      pop\n      jump(tag_186)\n        /* \"solidity/contracts/TicTacToe.sol\":8099:8195  if (_game.playerTurn == PlayerTypes.PlayerTwo) {\r... */\n    tag_196:\n        /* \"solidity/contracts/TicTacToe.sol\":8224:8245  Player(address(0), 0) */\n      mload(0x40)\n      dup1\n      0x40\n      add\n      0x40\n      mstore\n      dup1\n        /* \"solidity/contracts/TicTacToe.sol\":8239:8240  0 */\n      0x00\n        /* \"solidity/contracts/TicTacToe.sol\":8224:8245  Player(address(0), 0) */\n      0xffffffffffffffffffffffffffffffffffffffff\n      and\n      dup2\n      mstore\n      0x20\n      add\n        /* \"solidity/contracts/TicTacToe.sol\":8243:8244  0 */\n      0x00\n        /* \"solidity/contracts/TicTacToe.sol\":8224:8245  Player(address(0), 0) */\n      dup2\n      mstore\n      pop\n        /* \"solidity/contracts/TicTacToe.sol\":8217:8245  return Player(address(0), 0) */\n      swap1\n      pop\n        /* \"solidity/contracts/TicTacToe.sol\":7890:8253  function getCurrentPlayer(Game storage _game) private view returns (Player memory player) {\r... */\n    tag_186:\n      swap2\n      swap1\n      pop\n      jump\t// out\n        /* \"solidity/contracts/TicTacToe.sol\":8412:9637  function calculateWinner(PlayerTypes[3][3] memory _board) private pure returns (Winners winner) {\r... */\n    tag_86:\n        /* \"solidity/contracts/TicTacToe.sol\":8492:8506  Winners winner */\n      0x00\n        /* \"solidity/contracts/TicTacToe.sol\":8699:8717  PlayerTypes player */\n      dup1\n        /* \"solidity/contracts/TicTacToe.sol\":8720:8739  winnerInRow(_board) */\n      tag_198\n        /* \"solidity/contracts/TicTacToe.sol\":8732:8738  _board */\n      dup4\n        /* \"solidity/contracts/TicTacToe.sol\":8720:8731  winnerInRow */\n      tag_199\n        /* \"solidity/contracts/TicTacToe.sol\":8720:8739  winnerInRow(_board) */\n      jump\t// in\n    tag_198:\n        /* \"solidity/contracts/TicTacToe.sol\":8699:8739  PlayerTypes player = winnerInRow(_board) */\n      swap1\n      pop\n        /* \"solidity/contracts/TicTacToe.sol\":8764:8785  PlayerTypes.PlayerOne */\n      0x01\n        /* \"solidity/contracts/TicTacToe.sol\":8754:8785  player == PlayerTypes.PlayerOne */\n      0x02\n      dup2\n      gt\n      iszero\n      tag_200\n      jumpi\n      tag_201\n      tag_43\n      jump\t// in\n    tag_201:\n    tag_200:\n        /* \"solidity/contracts/TicTacToe.sol\":8754:8760  player */\n      dup2\n        /* \"solidity/contracts/TicTacToe.sol\":8754:8785  player == PlayerTypes.PlayerOne */\n      0x02\n      dup2\n      gt\n      iszero\n      tag_202\n      jumpi\n      tag_203\n      tag_43\n      jump\t// in\n    tag_203:\n    tag_202:\n      eq\n        /* \"solidity/contracts/TicTacToe.sol\":8750:8838  if (player == PlayerTypes.PlayerOne) {\r... */\n      iszero\n      tag_204\n      jumpi\n        /* \"solidity/contracts/TicTacToe.sol\":8809:8826  Winners.PlayerOne */\n      0x01\n        /* \"solidity/contracts/TicTacToe.sol\":8802:8826  return Winners.PlayerOne */\n      swap2\n      pop\n      pop\n      jump(tag_197)\n        /* \"solidity/contracts/TicTacToe.sol\":8750:8838  if (player == PlayerTypes.PlayerOne) {\r... */\n    tag_204:\n        /* \"solidity/contracts/TicTacToe.sol\":8862:8883  PlayerTypes.PlayerTwo */\n      0x02\n        /* \"solidity/contracts/TicTacToe.sol\":8852:8883  player == PlayerTypes.PlayerTwo */\n      dup1\n      dup2\n      gt\n      iszero\n      tag_205\n      jumpi\n      tag_206\n      tag_43\n      jump\t// in\n    tag_206:\n    tag_205:\n        /* \"solidity/contracts/TicTacToe.sol\":8852:8858  player */\n      dup2\n        /* \"solidity/contracts/TicTacToe.sol\":8852:8883  player == PlayerTypes.PlayerTwo */\n      0x02\n      dup2\n      gt\n      iszero\n      tag_207\n      jumpi\n      tag_208\n      tag_43\n      jump\t// in\n    tag_208:\n    tag_207:\n      eq\n        /* \"solidity/contracts/TicTacToe.sol\":8848:8936  if (player == PlayerTypes.PlayerTwo) {\r... */\n      iszero\n      tag_209\n      jumpi\n        /* \"solidity/contracts/TicTacToe.sol\":8907:8924  Winners.PlayerTwo */\n      0x02\n        /* \"solidity/contracts/TicTacToe.sol\":8900:8924  return Winners.PlayerTwo */\n      swap2\n      pop\n      pop\n      jump(tag_197)\n        /* \"solidity/contracts/TicTacToe.sol\":8848:8936  if (player == PlayerTypes.PlayerTwo) {\r... */\n    tag_209:\n        /* \"solidity/contracts/TicTacToe.sol\":8957:8979  winnerInColumn(_board) */\n      tag_210\n        /* \"solidity/contracts/TicTacToe.sol\":8972:8978  _board */\n      dup4\n        /* \"solidity/contracts/TicTacToe.sol\":8957:8971  winnerInColumn */\n      tag_211\n        /* \"solidity/contracts/TicTacToe.sol\":8957:8979  winnerInColumn(_board) */\n      jump\t// in\n    tag_210:\n        /* \"solidity/contracts/TicTacToe.sol\":8948:8979  player = winnerInColumn(_board) */\n      swap1\n      pop\n        /* \"solidity/contracts/TicTacToe.sol\":9004:9025  PlayerTypes.PlayerOne */\n      0x01\n        /* \"solidity/contracts/TicTacToe.sol\":8994:9025  player == PlayerTypes.PlayerOne */\n      0x02\n      dup2\n      gt\n      iszero\n      tag_212\n      jumpi\n      tag_213\n      tag_43\n      jump\t// in\n    tag_213:\n    tag_212:\n        /* \"solidity/contracts/TicTacToe.sol\":8994:9000  player */\n      dup2\n        /* \"solidity/contracts/TicTacToe.sol\":8994:9025  player == PlayerTypes.PlayerOne */\n      0x02\n      dup2\n      gt\n      iszero\n      tag_214\n      jumpi\n      tag_215\n      tag_43\n      jump\t// in\n    tag_215:\n    tag_214:\n      eq\n        /* \"solidity/contracts/TicTacToe.sol\":8990:9078  if (player == PlayerTypes.PlayerOne) {\r... */\n      iszero\n      tag_216\n      jumpi\n        /* \"solidity/contracts/TicTacToe.sol\":9049:9066  Winners.PlayerOne */\n      0x01\n        /* \"solidity/contracts/TicTacToe.sol\":9042:9066  return Winners.PlayerOne */\n      swap2\n      pop\n      pop\n      jump(tag_197)\n        /* \"solidity/contracts/TicTacToe.sol\":8990:9078  if (player == PlayerTypes.PlayerOne) {\r... */\n    tag_216:\n        /* \"solidity/contracts/TicTacToe.sol\":9102:9123  PlayerTypes.PlayerTwo */\n      0x02\n        /* \"solidity/contracts/TicTacToe.sol\":9092:9123  player == PlayerTypes.PlayerTwo */\n      dup1\n      dup2\n      gt\n      iszero\n      tag_217\n      jumpi\n      tag_218\n      tag_43\n      jump\t// in\n    tag_218:\n    tag_217:\n        /* \"solidity/contracts/TicTacToe.sol\":9092:9098  player */\n      dup2\n        /* \"solidity/contracts/TicTacToe.sol\":9092:9123  player == PlayerTypes.PlayerTwo */\n      0x02\n      dup2\n      gt\n      iszero\n      tag_219\n      jumpi\n      tag_220\n      tag_43\n      jump\t// in\n    tag_220:\n    tag_219:\n      eq\n        /* \"solidity/contracts/TicTacToe.sol\":9088:9176  if (player == PlayerTypes.PlayerTwo) {\r... */\n      iszero\n      tag_221\n      jumpi\n        /* \"solidity/contracts/TicTacToe.sol\":9147:9164  Winners.PlayerTwo */\n      0x02\n        /* \"solidity/contracts/TicTacToe.sol\":9140:9164  return Winners.PlayerTwo */\n      swap2\n      pop\n      pop\n      jump(tag_197)\n        /* \"solidity/contracts/TicTacToe.sol\":9088:9176  if (player == PlayerTypes.PlayerTwo) {\r... */\n    tag_221:\n        /* \"solidity/contracts/TicTacToe.sol\":9197:9221  winnerInDiagonal(_board) */\n      tag_222\n        /* \"solidity/contracts/TicTacToe.sol\":9214:9220  _board */\n      dup4\n        /* \"solidity/contracts/TicTacToe.sol\":9197:9213  winnerInDiagonal */\n      tag_223\n        /* \"solidity/contracts/TicTacToe.sol\":9197:9221  winnerInDiagonal(_board) */\n      jump\t// in\n    tag_222:\n        /* \"solidity/contracts/TicTacToe.sol\":9188:9221  player = winnerInDiagonal(_board) */\n      swap1\n      pop\n        /* \"solidity/contracts/TicTacToe.sol\":9246:9267  PlayerTypes.PlayerOne */\n      0x01\n        /* \"solidity/contracts/TicTacToe.sol\":9236:9267  player == PlayerTypes.PlayerOne */\n      0x02\n      dup2\n      gt\n      iszero\n      tag_224\n      jumpi\n      tag_225\n      tag_43\n      jump\t// in\n    tag_225:\n    tag_224:\n        /* \"solidity/contracts/TicTacToe.sol\":9236:9242  player */\n      dup2\n        /* \"solidity/contracts/TicTacToe.sol\":9236:9267  player == PlayerTypes.PlayerOne */\n      0x02\n      dup2\n      gt\n      iszero\n      tag_226\n      jumpi\n      tag_227\n      tag_43\n      jump\t// in\n    tag_227:\n    tag_226:\n      eq\n        /* \"solidity/contracts/TicTacToe.sol\":9232:9320  if (player == PlayerTypes.PlayerOne) {\r... */\n      iszero\n      tag_228\n      jumpi\n        /* \"solidity/contracts/TicTacToe.sol\":9291:9308  Winners.PlayerOne */\n      0x01\n        /* \"solidity/contracts/TicTacToe.sol\":9284:9308  return Winners.PlayerOne */\n      swap2\n      pop\n      pop\n      jump(tag_197)\n        /* \"solidity/contracts/TicTacToe.sol\":9232:9320  if (player == PlayerTypes.PlayerOne) {\r... */\n    tag_228:\n        /* \"solidity/contracts/TicTacToe.sol\":9344:9365  PlayerTypes.PlayerTwo */\n      0x02\n        /* \"solidity/contracts/TicTacToe.sol\":9334:9365  player == PlayerTypes.PlayerTwo */\n      dup1\n      dup2\n      gt\n      iszero\n      tag_229\n      jumpi\n      tag_230\n      tag_43\n      jump\t// in\n    tag_230:\n    tag_229:\n        /* \"solidity/contracts/TicTacToe.sol\":9334:9340  player */\n      dup2\n        /* \"solidity/contracts/TicTacToe.sol\":9334:9365  player == PlayerTypes.PlayerTwo */\n      0x02\n      dup2\n      gt\n      iszero\n      tag_231\n      jumpi\n      tag_232\n      tag_43\n      jump\t// in\n    tag_232:\n    tag_231:\n      eq\n        /* \"solidity/contracts/TicTacToe.sol\":9330:9418  if (player == PlayerTypes.PlayerTwo) {\r... */\n      iszero\n      tag_233\n      jumpi\n        /* \"solidity/contracts/TicTacToe.sol\":9389:9406  Winners.PlayerTwo */\n      0x02\n        /* \"solidity/contracts/TicTacToe.sol\":9382:9406  return Winners.PlayerTwo */\n      swap2\n      pop\n      pop\n      jump(tag_197)\n        /* \"solidity/contracts/TicTacToe.sol\":9330:9418  if (player == PlayerTypes.PlayerTwo) {\r... */\n    tag_233:\n        /* \"solidity/contracts/TicTacToe.sol\":9531:9550  isBoardFull(_board) */\n      tag_234\n        /* \"solidity/contracts/TicTacToe.sol\":9543:9549  _board */\n      dup4\n        /* \"solidity/contracts/TicTacToe.sol\":9531:9542  isBoardFull */\n      tag_235\n        /* \"solidity/contracts/TicTacToe.sol\":9531:9550  isBoardFull(_board) */\n      jump\t// in\n    tag_234:\n        /* \"solidity/contracts/TicTacToe.sol\":9527:9598  if (isBoardFull(_board)) {\r... */\n      iszero\n      tag_236\n      jumpi\n        /* \"solidity/contracts/TicTacToe.sol\":9574:9586  Winners.Draw */\n      0x03\n        /* \"solidity/contracts/TicTacToe.sol\":9567:9586  return Winners.Draw */\n      swap2\n      pop\n      pop\n      jump(tag_197)\n        /* \"solidity/contracts/TicTacToe.sol\":9527:9598  if (isBoardFull(_board)) {\r... */\n    tag_236:\n        /* \"solidity/contracts/TicTacToe.sol\":9617:9629  Winners.None */\n      0x00\n        /* \"solidity/contracts/TicTacToe.sol\":9610:9629  return Winners.None */\n      swap2\n      pop\n      pop\n        /* \"solidity/contracts/TicTacToe.sol\":8412:9637  function calculateWinner(PlayerTypes[3][3] memory _board) private pure returns (Winners winner) {\r... */\n    tag_197:\n      swap2\n      swap1\n      pop\n      jump\t// out\n        /* \"solidity/contracts/TicTacToe.sol\":12228:12481  function nextPlayer(Game storage _game) private {\r... */\n    tag_126:\n        /* \"solidity/contracts/TicTacToe.sol\":12311:12332  PlayerTypes.PlayerOne */\n      0x01\n        /* \"solidity/contracts/TicTacToe.sol\":12291:12332  _game.playerTurn == PlayerTypes.PlayerOne */\n      0x02\n      dup2\n      gt\n      iszero\n      tag_238\n      jumpi\n      tag_239\n      tag_43\n      jump\t// in\n    tag_239:\n    tag_238:\n        /* \"solidity/contracts/TicTacToe.sol\":12291:12296  _game */\n      dup2\n        /* \"solidity/contracts/TicTacToe.sol\":12291:12307  _game.playerTurn */\n      0x06\n      add\n      0x02\n      swap1\n      sload\n      swap1\n      0x0100\n      exp\n      swap1\n      div\n      0xff\n      and\n        /* \"solidity/contracts/TicTacToe.sol\":12291:12332  _game.playerTurn == PlayerTypes.PlayerOne */\n      0x02\n      dup2\n      gt\n      iszero\n      tag_240\n      jumpi\n      tag_241\n      tag_43\n      jump\t// in\n    tag_241:\n    tag_240:\n      eq\n        /* \"solidity/contracts/TicTacToe.sol\":12287:12474  if (_game.playerTurn == PlayerTypes.PlayerOne) {\r... */\n      iszero\n      tag_242\n      jumpi\n        /* \"solidity/contracts/TicTacToe.sol\":12368:12389  PlayerTypes.PlayerTwo */\n      0x02\n        /* \"solidity/contracts/TicTacToe.sol\":12349:12354  _game */\n      dup2\n        /* \"solidity/contracts/TicTacToe.sol\":12349:12365  _game.playerTurn */\n      0x06\n      add\n      0x02\n        /* \"solidity/contracts/TicTacToe.sol\":12349:12389  _game.playerTurn = PlayerTypes.PlayerTwo */\n      0x0100\n      exp\n      dup2\n      sload\n      dup2\n      0xff\n      mul\n      not\n      and\n      swap1\n      dup4\n      0x02\n      dup2\n      gt\n      iszero\n      tag_243\n      jumpi\n      tag_244\n      tag_43\n      jump\t// in\n    tag_244:\n    tag_243:\n      mul\n      or\n      swap1\n      sstore\n      pop\n        /* \"solidity/contracts/TicTacToe.sol\":12287:12474  if (_game.playerTurn == PlayerTypes.PlayerOne) {\r... */\n      jump(tag_245)\n    tag_242:\n        /* \"solidity/contracts/TicTacToe.sol\":12441:12462  PlayerTypes.PlayerOne */\n      0x01\n        /* \"solidity/contracts/TicTacToe.sol\":12422:12427  _game */\n      dup2\n        /* \"solidity/contracts/TicTacToe.sol\":12422:12438  _game.playerTurn */\n      0x06\n      add\n      0x02\n        /* \"solidity/contracts/TicTacToe.sol\":12422:12462  _game.playerTurn = PlayerTypes.PlayerOne */\n      0x0100\n      exp\n      dup2\n      sload\n      dup2\n      0xff\n      mul\n      not\n      and\n      swap1\n      dup4\n      0x02\n      dup2\n      gt\n      iszero\n      tag_246\n      jumpi\n      tag_247\n      tag_43\n      jump\t// in\n    tag_247:\n    tag_246:\n      mul\n      or\n      swap1\n      sstore\n      pop\n        /* \"solidity/contracts/TicTacToe.sol\":12287:12474  if (_game.playerTurn == PlayerTypes.PlayerOne) {\r... */\n    tag_245:\n        /* \"solidity/contracts/TicTacToe.sol\":12228:12481  function nextPlayer(Game storage _game) private {\r... */\n      pop\n      jump\t// out\n        /* \"solidity/contracts/TicTacToe.sol\":3200:4629  function _joinGame(uint256 _value, uint256 _gameId) private returns (bool success, string memory reason) {\r... */\n    tag_181:\n        /* \"solidity/contracts/TicTacToe.sol\":3269:3281  bool success */\n      0x00\n        /* \"solidity/contracts/TicTacToe.sol\":3283:3303  string memory reason */\n      0x60\n        /* \"solidity/contracts/TicTacToe.sol\":125:131  1 gwei */\n      0x3b9aca00\n        /* \"solidity/contracts/TicTacToe.sol\":3320:3326  _value */\n      dup5\n        /* \"solidity/contracts/TicTacToe.sol\":3320:3333  _value <= fee */\n      gt\n        /* \"solidity/contracts/TicTacToe.sol\":3316:3413  if (_value <= fee) {\r... */\n      tag_249\n      jumpi\n        /* \"solidity/contracts/TicTacToe.sol\":3358:3363  false */\n      0x00\n        /* \"solidity/contracts/TicTacToe.sol\":3350:3401  return (false, \"Bet should be greater than a fee.\") */\n      mload(0x40)\n      dup1\n      0x60\n      add\n      0x40\n      mstore\n      dup1\n      0x21\n      dup2\n      mstore\n      0x20\n      add\n      data_eac49ff80c6743e832d532d9de9103c6c60c67cff7ae923e20d995eb446b0298\n      0x21\n      swap2\n      codecopy\n      swap2\n      pop\n      swap2\n      pop\n      jump(tag_248)\n        /* \"solidity/contracts/TicTacToe.sol\":3316:3413  if (_value <= fee) {\r... */\n    tag_249:\n        /* \"solidity/contracts/TicTacToe.sol\":3439:3440  0 */\n      0x00\n        /* \"solidity/contracts/TicTacToe.sol\":3429:3435  _value */\n      dup5\n        /* \"solidity/contracts/TicTacToe.sol\":3429:3440  _value == 0 */\n      eq\n        /* \"solidity/contracts/TicTacToe.sol\":3425:3502  if (_value == 0) {\r... */\n      iszero\n      tag_250\n      jumpi\n        /* \"solidity/contracts/TicTacToe.sol\":3465:3470  false */\n      0x00\n        /* \"solidity/contracts/TicTacToe.sol\":3457:3490  return (false, \"No eth stacked.\") */\n      mload(0x40)\n      dup1\n      0x40\n      add\n      0x40\n      mstore\n      dup1\n      0x0f\n      dup2\n      mstore\n      0x20\n      add\n      0x4e6f2065746820737461636b65642e0000000000000000000000000000000000\n      dup2\n      mstore\n      pop\n      swap2\n      pop\n      swap2\n      pop\n      jump(tag_248)\n        /* \"solidity/contracts/TicTacToe.sol\":3425:3502  if (_value == 0) {\r... */\n    tag_250:\n        /* \"solidity/contracts/TicTacToe.sol\":3528:3541  numberOfGames */\n      sload(0x01)\n        /* \"solidity/contracts/TicTacToe.sol\":3518:3525  _gameId */\n      dup4\n        /* \"solidity/contracts/TicTacToe.sol\":3518:3541  _gameId > numberOfGames */\n      gt\n        /* \"solidity/contracts/TicTacToe.sol\":3514:3608  if (_gameId > numberOfGames) {\r... */\n      iszero\n      tag_251\n      jumpi\n        /* \"solidity/contracts/TicTacToe.sol\":3566:3571  false */\n      0x00\n        /* \"solidity/contracts/TicTacToe.sol\":3558:3596  return (false, \"No such game exists.\") */\n      mload(0x40)\n      dup1\n      0x40\n      add\n      0x40\n      mstore\n      dup1\n      0x14\n      dup2\n      mstore\n      0x20\n      add\n      0x4e6f20737563682067616d65206578697374732e000000000000000000000000\n      dup2\n      mstore\n      pop\n      swap2\n      pop\n      swap2\n      pop\n      jump(tag_248)\n        /* \"solidity/contracts/TicTacToe.sol\":3514:3608  if (_gameId > numberOfGames) {\r... */\n    tag_251:\n        /* \"solidity/contracts/TicTacToe.sol\":3620:3640  Player memory player */\n      0x00\n        /* \"solidity/contracts/TicTacToe.sol\":3643:3675  Player(msg.sender, _value - fee) */\n      mload(0x40)\n      dup1\n      0x40\n      add\n      0x40\n      mstore\n      dup1\n        /* \"solidity/contracts/TicTacToe.sol\":3650:3660  msg.sender */\n      caller\n        /* \"solidity/contracts/TicTacToe.sol\":3643:3675  Player(msg.sender, _value - fee) */\n      0xffffffffffffffffffffffffffffffffffffffff\n      and\n      dup2\n      mstore\n      0x20\n      add\n        /* \"solidity/contracts/TicTacToe.sol\":125:131  1 gwei */\n      0x3b9aca00\n        /* \"solidity/contracts/TicTacToe.sol\":3662:3668  _value */\n      dup8\n        /* \"solidity/contracts/TicTacToe.sol\":3662:3674  _value - fee */\n      tag_252\n      swap2\n      swap1\n      tag_253\n      jump\t// in\n    tag_252:\n        /* \"solidity/contracts/TicTacToe.sol\":3643:3675  Player(msg.sender, _value - fee) */\n      dup2\n      mstore\n      pop\n        /* \"solidity/contracts/TicTacToe.sol\":3620:3675  Player memory player = Player(msg.sender, _value - fee) */\n      swap1\n      pop\n        /* \"solidity/contracts/TicTacToe.sol\":3686:3703  Game storage game */\n      0x00\n        /* \"solidity/contracts/TicTacToe.sol\":3706:3711  games */\n      dup1\n        /* \"solidity/contracts/TicTacToe.sol\":3706:3720  games[_gameId] */\n      0x00\n        /* \"solidity/contracts/TicTacToe.sol\":3712:3719  _gameId */\n      dup7\n        /* \"solidity/contracts/TicTacToe.sol\":3706:3720  games[_gameId] */\n      dup2\n      mstore\n      0x20\n      add\n      swap1\n      dup2\n      mstore\n      0x20\n      add\n      0x00\n      keccak256\n        /* \"solidity/contracts/TicTacToe.sol\":3686:3720  Game storage game = games[_gameId] */\n      swap1\n      pop\n        /* \"solidity/contracts/TicTacToe.sol\":3749:3753  game */\n      dup1\n        /* \"solidity/contracts/TicTacToe.sol\":3749:3766  game.required_bet */\n      0x01\n      add\n      sload\n        /* \"solidity/contracts/TicTacToe.sol\":3739:3745  _value */\n      dup7\n        /* \"solidity/contracts/TicTacToe.sol\":3739:3766  _value == game.required_bet */\n      eq\n        /* \"solidity/contracts/TicTacToe.sol\":3731:3789  require(_value == game.required_bet, \"invalid bet amount\") */\n      tag_254\n      jumpi\n      mload(0x40)\n      0x08c379a000000000000000000000000000000000000000000000000000000000\n      dup2\n      mstore\n      0x04\n      add\n      tag_255\n      swap1\n      tag_256\n      jump\t// in\n    tag_255:\n      mload(0x40)\n      dup1\n      swap2\n      sub\n      swap1\n      revert\n    tag_254:\n        /* \"solidity/contracts/TicTacToe.sol\":3907:3908  0 */\n      0x00\n        /* \"solidity/contracts/TicTacToe.sol\":3876:3909  game.playerOne.addr == address(0) */\n      0xffffffffffffffffffffffffffffffffffffffff\n      and\n        /* \"solidity/contracts/TicTacToe.sol\":3876:3880  game */\n      dup2\n        /* \"solidity/contracts/TicTacToe.sol\":3876:3890  game.playerOne */\n      0x02\n      add\n        /* \"solidity/contracts/TicTacToe.sol\":3876:3895  game.playerOne.addr */\n      0x00\n      add\n      0x00\n      swap1\n      sload\n      swap1\n      0x0100\n      exp\n      swap1\n      div\n      0xffffffffffffffffffffffffffffffffffffffff\n      and\n        /* \"solidity/contracts/TicTacToe.sol\":3876:3909  game.playerOne.addr == address(0) */\n      0xffffffffffffffffffffffffffffffffffffffff\n      and\n      eq\n        /* \"solidity/contracts/TicTacToe.sol\":3872:4122  if (game.playerOne.addr == address(0)) {\r... */\n      iszero\n      tag_257\n      jumpi\n        /* \"solidity/contracts/TicTacToe.sol\":3943:3949  player */\n      dup2\n        /* \"solidity/contracts/TicTacToe.sol\":3926:3930  game */\n      dup2\n        /* \"solidity/contracts/TicTacToe.sol\":3926:3940  game.playerOne */\n      0x02\n      add\n        /* \"solidity/contracts/TicTacToe.sol\":3926:3949  game.playerOne = player */\n      0x00\n      dup3\n      add\n      mload\n      dup2\n      0x00\n      add\n      exp(0x0100, 0x00)\n      dup2\n      sload\n      dup2\n      0xffffffffffffffffffffffffffffffffffffffff\n      mul\n      not\n      and\n      swap1\n      dup4\n      0xffffffffffffffffffffffffffffffffffffffff\n      and\n      mul\n      or\n      swap1\n      sstore\n      pop\n      0x20\n      dup3\n      add\n      mload\n      dup2\n      0x01\n      add\n      sstore\n      swap1\n      pop\n      pop\n        /* \"solidity/contracts/TicTacToe.sol\":125:131  1 gwei */\n      0x3b9aca00\n        /* \"solidity/contracts/TicTacToe.sol\":3981:3987  _value */\n      dup7\n        /* \"solidity/contracts/TicTacToe.sol\":3981:3993  _value - fee */\n      tag_258\n      swap2\n      swap1\n      tag_253\n      jump\t// in\n    tag_258:\n        /* \"solidity/contracts/TicTacToe.sol\":3964:3968  game */\n      dup2\n        /* \"solidity/contracts/TicTacToe.sol\":3964:3977  game.totalBet */\n      0x00\n      add\n      0x00\n        /* \"solidity/contracts/TicTacToe.sol\":3964:3993  game.totalBet += _value - fee */\n      dup3\n      dup3\n      sload\n      tag_259\n      swap2\n      swap1\n      tag_260\n      jump\t// in\n    tag_259:\n      swap3\n      pop\n      pop\n      dup2\n      swap1\n      sstore\n      pop\n        /* \"solidity/contracts/TicTacToe.sol\":4013:4076  PlayerJoinedGame(_gameId, player, uint8(PlayerTypes.PlayerOne)) */\n      0xb7b142da4d5e7153b4b889be2bc2a3f6c16ed957358651736fd8d54cd3067e83\n        /* \"solidity/contracts/TicTacToe.sol\":4030:4037  _gameId */\n      dup6\n        /* \"solidity/contracts/TicTacToe.sol\":4039:4045  player */\n      dup4\n        /* \"solidity/contracts/TicTacToe.sol\":4053:4074  PlayerTypes.PlayerOne */\n      0x01\n        /* \"solidity/contracts/TicTacToe.sol\":4047:4075  uint8(PlayerTypes.PlayerOne) */\n      0x02\n      dup2\n      gt\n      iszero\n      tag_261\n      jumpi\n      tag_262\n      tag_43\n      jump\t// in\n    tag_262:\n    tag_261:\n        /* \"solidity/contracts/TicTacToe.sol\":4013:4076  PlayerJoinedGame(_gameId, player, uint8(PlayerTypes.PlayerOne)) */\n      mload(0x40)\n      tag_263\n      swap4\n      swap3\n      swap2\n      swap1\n      tag_264\n      jump\t// in\n    tag_263:\n      mload(0x40)\n      dup1\n      swap2\n      sub\n      swap1\n      log1\n        /* \"solidity/contracts/TicTacToe.sol\":4101:4105  true */\n      0x01\n        /* \"solidity/contracts/TicTacToe.sol\":4093:4110  return (true, \"\") */\n      mload(0x40)\n      dup1\n      0x20\n      add\n      0x40\n      mstore\n      dup1\n      0x00\n      dup2\n      mstore\n      pop\n      swap4\n      pop\n      swap4\n      pop\n      pop\n      pop\n      jump(tag_248)\n        /* \"solidity/contracts/TicTacToe.sol\":3872:4122  if (game.playerOne.addr == address(0)) {\r... */\n    tag_257:\n        /* \"solidity/contracts/TicTacToe.sol\":4259:4260  0 */\n      0x00\n        /* \"solidity/contracts/TicTacToe.sol\":4228:4261  game.playerTwo.addr == address(0) */\n      0xffffffffffffffffffffffffffffffffffffffff\n      and\n        /* \"solidity/contracts/TicTacToe.sol\":4228:4232  game */\n      dup2\n        /* \"solidity/contracts/TicTacToe.sol\":4228:4242  game.playerTwo */\n      0x04\n      add\n        /* \"solidity/contracts/TicTacToe.sol\":4228:4247  game.playerTwo.addr */\n      0x00\n      add\n      0x00\n      swap1\n      sload\n      swap1\n      0x0100\n      exp\n      swap1\n      div\n      0xffffffffffffffffffffffffffffffffffffffff\n      and\n        /* \"solidity/contracts/TicTacToe.sol\":4228:4261  game.playerTwo.addr == address(0) */\n      0xffffffffffffffffffffffffffffffffffffffff\n      and\n      eq\n        /* \"solidity/contracts/TicTacToe.sol\":4224:4575  if (game.playerTwo.addr == address(0)) {\r... */\n      iszero\n      tag_265\n      jumpi\n        /* \"solidity/contracts/TicTacToe.sol\":4309:4319  msg.sender */\n      caller\n        /* \"solidity/contracts/TicTacToe.sol\":4286:4319  game.playerOne.addr != msg.sender */\n      0xffffffffffffffffffffffffffffffffffffffff\n      and\n        /* \"solidity/contracts/TicTacToe.sol\":4286:4290  game */\n      dup2\n        /* \"solidity/contracts/TicTacToe.sol\":4286:4300  game.playerOne */\n      0x02\n      add\n        /* \"solidity/contracts/TicTacToe.sol\":4286:4305  game.playerOne.addr */\n      0x00\n      add\n      0x00\n      swap1\n      sload\n      swap1\n      0x0100\n      exp\n      swap1\n      div\n      0xffffffffffffffffffffffffffffffffffffffff\n      and\n        /* \"solidity/contracts/TicTacToe.sol\":4286:4319  game.playerOne.addr != msg.sender */\n      0xffffffffffffffffffffffffffffffffffffffff\n      and\n      eq\n      iszero\n        /* \"solidity/contracts/TicTacToe.sol\":4278:4320  require(game.playerOne.addr != msg.sender) */\n      tag_266\n      jumpi\n      0x00\n      dup1\n      revert\n    tag_266:\n        /* \"solidity/contracts/TicTacToe.sol\":4352:4358  player */\n      dup2\n        /* \"solidity/contracts/TicTacToe.sol\":4335:4339  game */\n      dup2\n        /* \"solidity/contracts/TicTacToe.sol\":4335:4349  game.playerTwo */\n      0x04\n      add\n        /* \"solidity/contracts/TicTacToe.sol\":4335:4358  game.playerTwo = player */\n      0x00\n      dup3\n      add\n      mload\n      dup2\n      0x00\n      add\n      exp(0x0100, 0x00)\n      dup2\n      sload\n      dup2\n      0xffffffffffffffffffffffffffffffffffffffff\n      mul\n      not\n      and\n      swap1\n      dup4\n      0xffffffffffffffffffffffffffffffffffffffff\n      and\n      mul\n      or\n      swap1\n      sstore\n      pop\n      0x20\n      dup3\n      add\n      mload\n      dup2\n      0x01\n      add\n      sstore\n      swap1\n      pop\n      pop\n        /* \"solidity/contracts/TicTacToe.sol\":125:131  1 gwei */\n      0x3b9aca00\n        /* \"solidity/contracts/TicTacToe.sol\":4390:4396  _value */\n      dup7\n        /* \"solidity/contracts/TicTacToe.sol\":4390:4402  _value - fee */\n      tag_267\n      swap2\n      swap1\n      tag_253\n      jump\t// in\n    tag_267:\n        /* \"solidity/contracts/TicTacToe.sol\":4373:4377  game */\n      dup2\n        /* \"solidity/contracts/TicTacToe.sol\":4373:4386  game.totalBet */\n      0x00\n      add\n      0x00\n        /* \"solidity/contracts/TicTacToe.sol\":4373:4402  game.totalBet += _value - fee */\n      dup3\n      dup3\n      sload\n      tag_268\n      swap2\n      swap1\n      tag_260\n      jump\t// in\n    tag_268:\n      swap3\n      pop\n      pop\n      dup2\n      swap1\n      sstore\n      pop\n        /* \"solidity/contracts/TicTacToe.sol\":4422:4485  PlayerJoinedGame(_gameId, player, uint8(PlayerTypes.PlayerTwo)) */\n      0xb7b142da4d5e7153b4b889be2bc2a3f6c16ed957358651736fd8d54cd3067e83\n        /* \"solidity/contracts/TicTacToe.sol\":4439:4446  _gameId */\n      dup6\n        /* \"solidity/contracts/TicTacToe.sol\":4448:4454  player */\n      dup4\n        /* \"solidity/contracts/TicTacToe.sol\":4462:4483  PlayerTypes.PlayerTwo */\n      0x02\n        /* \"solidity/contracts/TicTacToe.sol\":4456:4484  uint8(PlayerTypes.PlayerTwo) */\n      dup1\n      dup2\n      gt\n      iszero\n      tag_269\n      jumpi\n      tag_270\n      tag_43\n      jump\t// in\n    tag_270:\n    tag_269:\n        /* \"solidity/contracts/TicTacToe.sol\":4422:4485  PlayerJoinedGame(_gameId, player, uint8(PlayerTypes.PlayerTwo)) */\n      mload(0x40)\n      tag_271\n      swap4\n      swap3\n      swap2\n      swap1\n      tag_264\n      jump\t// in\n    tag_271:\n      mload(0x40)\n      dup1\n      swap2\n      sub\n      swap1\n      log1\n        /* \"solidity/contracts/TicTacToe.sol\":4514:4531  Status.InProgress */\n      0x01\n        /* \"solidity/contracts/TicTacToe.sol\":4500:4504  game */\n      dup2\n        /* \"solidity/contracts/TicTacToe.sol\":4500:4511  game.status */\n      0x06\n      add\n      0x01\n        /* \"solidity/contracts/TicTacToe.sol\":4500:4531  game.status = Status.InProgress */\n      0x0100\n      exp\n      dup2\n      sload\n      dup2\n      0xff\n      mul\n      not\n      and\n      swap1\n      dup4\n      0x02\n      dup2\n      gt\n      iszero\n      tag_272\n      jumpi\n      tag_273\n      tag_43\n      jump\t// in\n    tag_273:\n    tag_272:\n      mul\n      or\n      swap1\n      sstore\n      pop\n        /* \"solidity/contracts/TicTacToe.sol\":4554:4558  true */\n      0x01\n        /* \"solidity/contracts/TicTacToe.sol\":4546:4563  return (true, \"\") */\n      mload(0x40)\n      dup1\n      0x20\n      add\n      0x40\n      mstore\n      dup1\n      0x00\n      dup2\n      mstore\n      pop\n      swap4\n      pop\n      swap4\n      pop\n      pop\n      pop\n      jump(tag_248)\n        /* \"solidity/contracts/TicTacToe.sol\":4224:4575  if (game.playerTwo.addr == address(0)) {\r... */\n    tag_265:\n        /* \"solidity/contracts/TicTacToe.sol\":4595:4600  false */\n      0x00\n        /* \"solidity/contracts/TicTacToe.sol\":4587:4621  return (false, \"All seats taken.\") */\n      mload(0x40)\n      dup1\n      0x40\n      add\n      0x40\n      mstore\n      dup1\n      0x10\n      dup2\n      mstore\n      0x20\n      add\n      0x416c6c2073656174732074616b656e2e00000000000000000000000000000000\n      dup2\n      mstore\n      pop\n      swap4\n      pop\n      swap4\n      pop\n      pop\n      pop\n        /* \"solidity/contracts/TicTacToe.sol\":3200:4629  function _joinGame(uint256 _value, uint256 _gameId) private returns (bool success, string memory reason) {\r... */\n    tag_248:\n      swap3\n      pop\n      swap3\n      swap1\n      pop\n      jump\t// out\n        /* \"solidity/contracts/TicTacToe.sol\":9838:10267  function winnerInRow(PlayerTypes[3][3] memory _board) private pure returns (PlayerTypes winner) {\r... */\n    tag_199:\n        /* \"solidity/contracts/TicTacToe.sol\":9914:9932  PlayerTypes winner */\n      0x00\n        /* \"solidity/contracts/TicTacToe.sol\":9950:9957  uint8 x */\n      dup1\n        /* \"solidity/contracts/TicTacToe.sol\":9960:9961  0 */\n      0x00\n        /* \"solidity/contracts/TicTacToe.sol\":9950:9961  uint8 x = 0 */\n      swap1\n      pop\n        /* \"solidity/contracts/TicTacToe.sol\":9945:10224  for (uint8 x = 0; x < 3; x++) {\r... */\n    tag_275:\n        /* \"solidity/contracts/TicTacToe.sol\":9967:9968  3 */\n      0x03\n        /* \"solidity/contracts/TicTacToe.sol\":9963:9964  x */\n      dup2\n        /* \"solidity/contracts/TicTacToe.sol\":9963:9968  x < 3 */\n      0xff\n      and\n      lt\n        /* \"solidity/contracts/TicTacToe.sol\":9945:10224  for (uint8 x = 0; x < 3; x++) {\r... */\n      iszero\n      tag_276\n      jumpi\n        /* \"solidity/contracts/TicTacToe.sol\":10028:10034  _board */\n      dup3\n        /* \"solidity/contracts/TicTacToe.sol\":10035:10036  x */\n      dup2\n        /* \"solidity/contracts/TicTacToe.sol\":10028:10037  _board[x] */\n      0xff\n      and\n      0x03\n      dup2\n      lt\n      tag_278\n      jumpi\n      tag_279\n      tag_60\n      jump\t// in\n    tag_279:\n    tag_278:\n      0x20\n      mul\n      add\n      mload\n        /* \"solidity/contracts/TicTacToe.sol\":10038:10039  1 */\n      0x01\n        /* \"solidity/contracts/TicTacToe.sol\":10028:10040  _board[x][1] */\n      0x03\n      dup2\n      lt\n      tag_280\n      jumpi\n      tag_281\n      tag_60\n      jump\t// in\n    tag_281:\n    tag_280:\n      0x20\n      mul\n      add\n      mload\n        /* \"solidity/contracts/TicTacToe.sol\":10012:10040  _board[x][0] == _board[x][1] */\n      0x02\n      dup2\n      gt\n      iszero\n      tag_282\n      jumpi\n      tag_283\n      tag_43\n      jump\t// in\n    tag_283:\n    tag_282:\n        /* \"solidity/contracts/TicTacToe.sol\":10012:10018  _board */\n      dup4\n        /* \"solidity/contracts/TicTacToe.sol\":10019:10020  x */\n      dup3\n        /* \"solidity/contracts/TicTacToe.sol\":10012:10021  _board[x] */\n      0xff\n      and\n      0x03\n      dup2\n      lt\n      tag_284\n      jumpi\n      tag_285\n      tag_60\n      jump\t// in\n    tag_285:\n    tag_284:\n      0x20\n      mul\n      add\n      mload\n        /* \"solidity/contracts/TicTacToe.sol\":10022:10023  0 */\n      0x00\n        /* \"solidity/contracts/TicTacToe.sol\":10012:10024  _board[x][0] */\n      0x03\n      dup2\n      lt\n      tag_286\n      jumpi\n      tag_287\n      tag_60\n      jump\t// in\n    tag_287:\n    tag_286:\n      0x20\n      mul\n      add\n      mload\n        /* \"solidity/contracts/TicTacToe.sol\":10012:10040  _board[x][0] == _board[x][1] */\n      0x02\n      dup2\n      gt\n      iszero\n      tag_288\n      jumpi\n      tag_289\n      tag_43\n      jump\t// in\n    tag_289:\n    tag_288:\n      eq\n        /* \"solidity/contracts/TicTacToe.sol\":10012:10090  _board[x][0] == _board[x][1]\r... */\n      dup1\n      iszero\n      tag_290\n      jumpi\n      pop\n        /* \"solidity/contracts/TicTacToe.sol\":10078:10084  _board */\n      dup3\n        /* \"solidity/contracts/TicTacToe.sol\":10085:10086  x */\n      dup2\n        /* \"solidity/contracts/TicTacToe.sol\":10078:10087  _board[x] */\n      0xff\n      and\n      0x03\n      dup2\n      lt\n      tag_291\n      jumpi\n      tag_292\n      tag_60\n      jump\t// in\n    tag_292:\n    tag_291:\n      0x20\n      mul\n      add\n      mload\n        /* \"solidity/contracts/TicTacToe.sol\":10088:10089  2 */\n      0x02\n        /* \"solidity/contracts/TicTacToe.sol\":10078:10090  _board[x][2] */\n      0x03\n      dup2\n      lt\n      tag_293\n      jumpi\n      tag_294\n      tag_60\n      jump\t// in\n    tag_294:\n    tag_293:\n      0x20\n      mul\n      add\n      mload\n        /* \"solidity/contracts/TicTacToe.sol\":10061:10090  _board[x][1]  == _board[x][2] */\n      0x02\n      dup2\n      gt\n      iszero\n      tag_295\n      jumpi\n      tag_296\n      tag_43\n      jump\t// in\n    tag_296:\n    tag_295:\n        /* \"solidity/contracts/TicTacToe.sol\":10061:10067  _board */\n      dup4\n        /* \"solidity/contracts/TicTacToe.sol\":10068:10069  x */\n      dup3\n        /* \"solidity/contracts/TicTacToe.sol\":10061:10070  _board[x] */\n      0xff\n      and\n      0x03\n      dup2\n      lt\n      tag_297\n      jumpi\n      tag_298\n      tag_60\n      jump\t// in\n    tag_298:\n    tag_297:\n      0x20\n      mul\n      add\n      mload\n        /* \"solidity/contracts/TicTacToe.sol\":10071:10072  1 */\n      0x01\n        /* \"solidity/contracts/TicTacToe.sol\":10061:10073  _board[x][1] */\n      0x03\n      dup2\n      lt\n      tag_299\n      jumpi\n      tag_300\n      tag_60\n      jump\t// in\n    tag_300:\n    tag_299:\n      0x20\n      mul\n      add\n      mload\n        /* \"solidity/contracts/TicTacToe.sol\":10061:10090  _board[x][1]  == _board[x][2] */\n      0x02\n      dup2\n      gt\n      iszero\n      tag_301\n      jumpi\n      tag_302\n      tag_43\n      jump\t// in\n    tag_302:\n    tag_301:\n      eq\n        /* \"solidity/contracts/TicTacToe.sol\":10012:10090  _board[x][0] == _board[x][1]\r... */\n    tag_290:\n        /* \"solidity/contracts/TicTacToe.sol\":10012:10143  _board[x][0] == _board[x][1]\r... */\n      dup1\n      iszero\n      tag_303\n      jumpi\n      pop\n        /* \"solidity/contracts/TicTacToe.sol\":10127:10143  PlayerTypes.None */\n      0x00\n        /* \"solidity/contracts/TicTacToe.sol\":10111:10143  _board[x][0] != PlayerTypes.None */\n      0x02\n      dup2\n      gt\n      iszero\n      tag_304\n      jumpi\n      tag_305\n      tag_43\n      jump\t// in\n    tag_305:\n    tag_304:\n        /* \"solidity/contracts/TicTacToe.sol\":10111:10117  _board */\n      dup4\n        /* \"solidity/contracts/TicTacToe.sol\":10118:10119  x */\n      dup3\n        /* \"solidity/contracts/TicTacToe.sol\":10111:10120  _board[x] */\n      0xff\n      and\n      0x03\n      dup2\n      lt\n      tag_306\n      jumpi\n      tag_307\n      tag_60\n      jump\t// in\n    tag_307:\n    tag_306:\n      0x20\n      mul\n      add\n      mload\n        /* \"solidity/contracts/TicTacToe.sol\":10121:10122  0 */\n      0x00\n        /* \"solidity/contracts/TicTacToe.sol\":10111:10123  _board[x][0] */\n      0x03\n      dup2\n      lt\n      tag_308\n      jumpi\n      tag_309\n      tag_60\n      jump\t// in\n    tag_309:\n    tag_308:\n      0x20\n      mul\n      add\n      mload\n        /* \"solidity/contracts/TicTacToe.sol\":10111:10143  _board[x][0] != PlayerTypes.None */\n      0x02\n      dup2\n      gt\n      iszero\n      tag_310\n      jumpi\n      tag_311\n      tag_43\n      jump\t// in\n    tag_311:\n    tag_310:\n      eq\n      iszero\n        /* \"solidity/contracts/TicTacToe.sol\":10012:10143  _board[x][0] == _board[x][1]\r... */\n    tag_303:\n        /* \"solidity/contracts/TicTacToe.sol\":9990:10213  if (\r... */\n      iszero\n      tag_312\n      jumpi\n        /* \"solidity/contracts/TicTacToe.sol\":10185:10191  _board */\n      dup3\n        /* \"solidity/contracts/TicTacToe.sol\":10192:10193  x */\n      dup2\n        /* \"solidity/contracts/TicTacToe.sol\":10185:10194  _board[x] */\n      0xff\n      and\n      0x03\n      dup2\n      lt\n      tag_313\n      jumpi\n      tag_314\n      tag_60\n      jump\t// in\n    tag_314:\n    tag_313:\n      0x20\n      mul\n      add\n      mload\n        /* \"solidity/contracts/TicTacToe.sol\":10195:10196  0 */\n      0x00\n        /* \"solidity/contracts/TicTacToe.sol\":10185:10197  _board[x][0] */\n      0x03\n      dup2\n      lt\n      tag_315\n      jumpi\n      tag_316\n      tag_60\n      jump\t// in\n    tag_316:\n    tag_315:\n      0x20\n      mul\n      add\n      mload\n        /* \"solidity/contracts/TicTacToe.sol\":10178:10197  return _board[x][0] */\n      swap2\n      pop\n      pop\n      jump(tag_274)\n        /* \"solidity/contracts/TicTacToe.sol\":9990:10213  if (\r... */\n    tag_312:\n        /* \"solidity/contracts/TicTacToe.sol\":9970:9973  x++ */\n      dup1\n      dup1\n      tag_317\n      swap1\n      tag_318\n      jump\t// in\n    tag_317:\n      swap2\n      pop\n      pop\n        /* \"solidity/contracts/TicTacToe.sol\":9945:10224  for (uint8 x = 0; x < 3; x++) {\r... */\n      jump(tag_275)\n    tag_276:\n      pop\n        /* \"solidity/contracts/TicTacToe.sol\":10243:10259  PlayerTypes.None */\n      0x00\n        /* \"solidity/contracts/TicTacToe.sol\":10236:10259  return PlayerTypes.None */\n      swap1\n      pop\n        /* \"solidity/contracts/TicTacToe.sol\":9838:10267  function winnerInRow(PlayerTypes[3][3] memory _board) private pure returns (PlayerTypes winner) {\r... */\n    tag_274:\n      swap2\n      swap1\n      pop\n      jump\t// out\n        /* \"solidity/contracts/TicTacToe.sol\":10480:10911  function winnerInColumn(PlayerTypes[3][3] memory _board) private pure returns (PlayerTypes winner) {\r... */\n    tag_211:\n        /* \"solidity/contracts/TicTacToe.sol\":10559:10577  PlayerTypes winner */\n      0x00\n        /* \"solidity/contracts/TicTacToe.sol\":10595:10602  uint8 y */\n      dup1\n        /* \"solidity/contracts/TicTacToe.sol\":10605:10606  0 */\n      0x00\n        /* \"solidity/contracts/TicTacToe.sol\":10595:10606  uint8 y = 0 */\n      swap1\n      pop\n        /* \"solidity/contracts/TicTacToe.sol\":10590:10868  for (uint8 y = 0; y < 3; y++) {\r... */\n    tag_320:\n        /* \"solidity/contracts/TicTacToe.sol\":10612:10613  3 */\n      0x03\n        /* \"solidity/contracts/TicTacToe.sol\":10608:10609  y */\n      dup2\n        /* \"solidity/contracts/TicTacToe.sol\":10608:10613  y < 3 */\n      0xff\n      and\n      lt\n        /* \"solidity/contracts/TicTacToe.sol\":10590:10868  for (uint8 y = 0; y < 3; y++) {\r... */\n      iszero\n      tag_321\n      jumpi\n        /* \"solidity/contracts/TicTacToe.sol\":10673:10679  _board */\n      dup3\n        /* \"solidity/contracts/TicTacToe.sol\":10680:10681  1 */\n      0x01\n        /* \"solidity/contracts/TicTacToe.sol\":10673:10682  _board[1] */\n      0x03\n      dup2\n      lt\n      tag_323\n      jumpi\n      tag_324\n      tag_60\n      jump\t// in\n    tag_324:\n    tag_323:\n      0x20\n      mul\n      add\n      mload\n        /* \"solidity/contracts/TicTacToe.sol\":10683:10684  y */\n      dup2\n        /* \"solidity/contracts/TicTacToe.sol\":10673:10685  _board[1][y] */\n      0xff\n      and\n      0x03\n      dup2\n      lt\n      tag_325\n      jumpi\n      tag_326\n      tag_60\n      jump\t// in\n    tag_326:\n    tag_325:\n      0x20\n      mul\n      add\n      mload\n        /* \"solidity/contracts/TicTacToe.sol\":10657:10685  _board[0][y] == _board[1][y] */\n      0x02\n      dup2\n      gt\n      iszero\n      tag_327\n      jumpi\n      tag_328\n      tag_43\n      jump\t// in\n    tag_328:\n    tag_327:\n        /* \"solidity/contracts/TicTacToe.sol\":10657:10663  _board */\n      dup4\n        /* \"solidity/contracts/TicTacToe.sol\":10664:10665  0 */\n      0x00\n        /* \"solidity/contracts/TicTacToe.sol\":10657:10666  _board[0] */\n      0x03\n      dup2\n      lt\n      tag_329\n      jumpi\n      tag_330\n      tag_60\n      jump\t// in\n    tag_330:\n    tag_329:\n      0x20\n      mul\n      add\n      mload\n        /* \"solidity/contracts/TicTacToe.sol\":10667:10668  y */\n      dup3\n        /* \"solidity/contracts/TicTacToe.sol\":10657:10669  _board[0][y] */\n      0xff\n      and\n      0x03\n      dup2\n      lt\n      tag_331\n      jumpi\n      tag_332\n      tag_60\n      jump\t// in\n    tag_332:\n    tag_331:\n      0x20\n      mul\n      add\n      mload\n        /* \"solidity/contracts/TicTacToe.sol\":10657:10685  _board[0][y] == _board[1][y] */\n      0x02\n      dup2\n      gt\n      iszero\n      tag_333\n      jumpi\n      tag_334\n      tag_43\n      jump\t// in\n    tag_334:\n    tag_333:\n      eq\n        /* \"solidity/contracts/TicTacToe.sol\":10657:10734  _board[0][y] == _board[1][y]\r... */\n      dup1\n      iszero\n      tag_335\n      jumpi\n      pop\n        /* \"solidity/contracts/TicTacToe.sol\":10722:10728  _board */\n      dup3\n        /* \"solidity/contracts/TicTacToe.sol\":10729:10730  2 */\n      0x02\n        /* \"solidity/contracts/TicTacToe.sol\":10722:10731  _board[2] */\n      0x03\n      dup2\n      lt\n      tag_336\n      jumpi\n      tag_337\n      tag_60\n      jump\t// in\n    tag_337:\n    tag_336:\n      0x20\n      mul\n      add\n      mload\n        /* \"solidity/contracts/TicTacToe.sol\":10732:10733  y */\n      dup2\n        /* \"solidity/contracts/TicTacToe.sol\":10722:10734  _board[2][y] */\n      0xff\n      and\n      0x03\n      dup2\n      lt\n      tag_338\n      jumpi\n      tag_339\n      tag_60\n      jump\t// in\n    tag_339:\n    tag_338:\n      0x20\n      mul\n      add\n      mload\n        /* \"solidity/contracts/TicTacToe.sol\":10706:10734  _board[1][y] == _board[2][y] */\n      0x02\n      dup2\n      gt\n      iszero\n      tag_340\n      jumpi\n      tag_341\n      tag_43\n      jump\t// in\n    tag_341:\n    tag_340:\n        /* \"solidity/contracts/TicTacToe.sol\":10706:10712  _board */\n      dup4\n        /* \"solidity/contracts/TicTacToe.sol\":10713:10714  1 */\n      0x01\n        /* \"solidity/contracts/TicTacToe.sol\":10706:10715  _board[1] */\n      0x03\n      dup2\n      lt\n      tag_342\n      jumpi\n      tag_343\n      tag_60\n      jump\t// in\n    tag_343:\n    tag_342:\n      0x20\n      mul\n      add\n      mload\n        /* \"solidity/contracts/TicTacToe.sol\":10716:10717  y */\n      dup3\n        /* \"solidity/contracts/TicTacToe.sol\":10706:10718  _board[1][y] */\n      0xff\n      and\n      0x03\n      dup2\n      lt\n      tag_344\n      jumpi\n      tag_345\n      tag_60\n      jump\t// in\n    tag_345:\n    tag_344:\n      0x20\n      mul\n      add\n      mload\n        /* \"solidity/contracts/TicTacToe.sol\":10706:10734  _board[1][y] == _board[2][y] */\n      0x02\n      dup2\n      gt\n      iszero\n      tag_346\n      jumpi\n      tag_347\n      tag_43\n      jump\t// in\n    tag_347:\n    tag_346:\n      eq\n        /* \"solidity/contracts/TicTacToe.sol\":10657:10734  _board[0][y] == _board[1][y]\r... */\n    tag_335:\n        /* \"solidity/contracts/TicTacToe.sol\":10657:10787  _board[0][y] == _board[1][y]\r... */\n      dup1\n      iszero\n      tag_348\n      jumpi\n      pop\n        /* \"solidity/contracts/TicTacToe.sol\":10771:10787  PlayerTypes.None */\n      0x00\n        /* \"solidity/contracts/TicTacToe.sol\":10755:10787  _board[0][y] != PlayerTypes.None */\n      0x02\n      dup2\n      gt\n      iszero\n      tag_349\n      jumpi\n      tag_350\n      tag_43\n      jump\t// in\n    tag_350:\n    tag_349:\n        /* \"solidity/contracts/TicTacToe.sol\":10755:10761  _board */\n      dup4\n        /* \"solidity/contracts/TicTacToe.sol\":10762:10763  0 */\n      0x00\n        /* \"solidity/contracts/TicTacToe.sol\":10755:10764  _board[0] */\n      0x03\n      dup2\n      lt\n      tag_351\n      jumpi\n      tag_352\n      tag_60\n      jump\t// in\n    tag_352:\n    tag_351:\n      0x20\n      mul\n      add\n      mload\n        /* \"solidity/contracts/TicTacToe.sol\":10765:10766  y */\n      dup3\n        /* \"solidity/contracts/TicTacToe.sol\":10755:10767  _board[0][y] */\n      0xff\n      and\n      0x03\n      dup2\n      lt\n      tag_353\n      jumpi\n      tag_354\n      tag_60\n      jump\t// in\n    tag_354:\n    tag_353:\n      0x20\n      mul\n      add\n      mload\n        /* \"solidity/contracts/TicTacToe.sol\":10755:10787  _board[0][y] != PlayerTypes.None */\n      0x02\n      dup2\n      gt\n      iszero\n      tag_355\n      jumpi\n      tag_356\n      tag_43\n      jump\t// in\n    tag_356:\n    tag_355:\n      eq\n      iszero\n        /* \"solidity/contracts/TicTacToe.sol\":10657:10787  _board[0][y] == _board[1][y]\r... */\n    tag_348:\n        /* \"solidity/contracts/TicTacToe.sol\":10635:10857  if (\r... */\n      iszero\n      tag_357\n      jumpi\n        /* \"solidity/contracts/TicTacToe.sol\":10829:10835  _board */\n      dup3\n        /* \"solidity/contracts/TicTacToe.sol\":10836:10837  0 */\n      0x00\n        /* \"solidity/contracts/TicTacToe.sol\":10829:10838  _board[0] */\n      0x03\n      dup2\n      lt\n      tag_358\n      jumpi\n      tag_359\n      tag_60\n      jump\t// in\n    tag_359:\n    tag_358:\n      0x20\n      mul\n      add\n      mload\n        /* \"solidity/contracts/TicTacToe.sol\":10839:10840  y */\n      dup2\n        /* \"solidity/contracts/TicTacToe.sol\":10829:10841  _board[0][y] */\n      0xff\n      and\n      0x03\n      dup2\n      lt\n      tag_360\n      jumpi\n      tag_361\n      tag_60\n      jump\t// in\n    tag_361:\n    tag_360:\n      0x20\n      mul\n      add\n      mload\n        /* \"solidity/contracts/TicTacToe.sol\":10822:10841  return _board[0][y] */\n      swap2\n      pop\n      pop\n      jump(tag_319)\n        /* \"solidity/contracts/TicTacToe.sol\":10635:10857  if (\r... */\n    tag_357:\n        /* \"solidity/contracts/TicTacToe.sol\":10615:10618  y++ */\n      dup1\n      dup1\n      tag_362\n      swap1\n      tag_318\n      jump\t// in\n    tag_362:\n      swap2\n      pop\n      pop\n        /* \"solidity/contracts/TicTacToe.sol\":10590:10868  for (uint8 y = 0; y < 3; y++) {\r... */\n      jump(tag_320)\n    tag_321:\n      pop\n        /* \"solidity/contracts/TicTacToe.sol\":10887:10903  PlayerTypes.None */\n      0x00\n        /* \"solidity/contracts/TicTacToe.sol\":10880:10903  return PlayerTypes.None */\n      swap1\n      pop\n        /* \"solidity/contracts/TicTacToe.sol\":10480:10911  function winnerInColumn(PlayerTypes[3][3] memory _board) private pure returns (PlayerTypes winner) {\r... */\n    tag_319:\n      swap2\n      swap1\n      pop\n      jump\t// out\n        /* \"solidity/contracts/TicTacToe.sol\":11133:11696  function winnerInDiagonal(PlayerTypes[3][3] memory _board) private pure returns (PlayerTypes winner) {\r... */\n    tag_223:\n        /* \"solidity/contracts/TicTacToe.sol\":11214:11232  PlayerTypes winner */\n      0x00\n        /* \"solidity/contracts/TicTacToe.sol\":11279:11285  _board */\n      dup2\n        /* \"solidity/contracts/TicTacToe.sol\":11286:11287  1 */\n      0x01\n        /* \"solidity/contracts/TicTacToe.sol\":11279:11288  _board[1] */\n      0x03\n      dup2\n      lt\n      tag_364\n      jumpi\n      tag_365\n      tag_60\n      jump\t// in\n    tag_365:\n    tag_364:\n      0x20\n      mul\n      add\n      mload\n        /* \"solidity/contracts/TicTacToe.sol\":11289:11290  1 */\n      0x01\n        /* \"solidity/contracts/TicTacToe.sol\":11279:11291  _board[1][1] */\n      0x03\n      dup2\n      lt\n      tag_366\n      jumpi\n      tag_367\n      tag_60\n      jump\t// in\n    tag_367:\n    tag_366:\n      0x20\n      mul\n      add\n      mload\n        /* \"solidity/contracts/TicTacToe.sol\":11263:11291  _board[0][0] == _board[1][1] */\n      0x02\n      dup2\n      gt\n      iszero\n      tag_368\n      jumpi\n      tag_369\n      tag_43\n      jump\t// in\n    tag_369:\n    tag_368:\n        /* \"solidity/contracts/TicTacToe.sol\":11263:11269  _board */\n      dup3\n        /* \"solidity/contracts/TicTacToe.sol\":11270:11271  0 */\n      0x00\n        /* \"solidity/contracts/TicTacToe.sol\":11263:11272  _board[0] */\n      0x03\n      dup2\n      lt\n      tag_370\n      jumpi\n      tag_371\n      tag_60\n      jump\t// in\n    tag_371:\n    tag_370:\n      0x20\n      mul\n      add\n      mload\n        /* \"solidity/contracts/TicTacToe.sol\":11273:11274  0 */\n      0x00\n        /* \"solidity/contracts/TicTacToe.sol\":11263:11275  _board[0][0] */\n      0x03\n      dup2\n      lt\n      tag_372\n      jumpi\n      tag_373\n      tag_60\n      jump\t// in\n    tag_373:\n    tag_372:\n      0x20\n      mul\n      add\n      mload\n        /* \"solidity/contracts/TicTacToe.sol\":11263:11291  _board[0][0] == _board[1][1] */\n      0x02\n      dup2\n      gt\n      iszero\n      tag_374\n      jumpi\n      tag_375\n      tag_43\n      jump\t// in\n    tag_375:\n    tag_374:\n      eq\n        /* \"solidity/contracts/TicTacToe.sol\":11263:11336  _board[0][0] == _board[1][1]\r... */\n      dup1\n      iszero\n      tag_376\n      jumpi\n      pop\n        /* \"solidity/contracts/TicTacToe.sol\":11324:11330  _board */\n      dup2\n        /* \"solidity/contracts/TicTacToe.sol\":11331:11332  2 */\n      0x02\n        /* \"solidity/contracts/TicTacToe.sol\":11324:11333  _board[2] */\n      0x03\n      dup2\n      lt\n      tag_377\n      jumpi\n      tag_378\n      tag_60\n      jump\t// in\n    tag_378:\n    tag_377:\n      0x20\n      mul\n      add\n      mload\n        /* \"solidity/contracts/TicTacToe.sol\":11334:11335  2 */\n      0x02\n        /* \"solidity/contracts/TicTacToe.sol\":11324:11336  _board[2][2] */\n      0x03\n      dup2\n      lt\n      tag_379\n      jumpi\n      tag_380\n      tag_60\n      jump\t// in\n    tag_380:\n    tag_379:\n      0x20\n      mul\n      add\n      mload\n        /* \"solidity/contracts/TicTacToe.sol\":11308:11336  _board[1][1] == _board[2][2] */\n      0x02\n      dup2\n      gt\n      iszero\n      tag_381\n      jumpi\n      tag_382\n      tag_43\n      jump\t// in\n    tag_382:\n    tag_381:\n        /* \"solidity/contracts/TicTacToe.sol\":11308:11314  _board */\n      dup3\n        /* \"solidity/contracts/TicTacToe.sol\":11315:11316  1 */\n      0x01\n        /* \"solidity/contracts/TicTacToe.sol\":11308:11317  _board[1] */\n      0x03\n      dup2\n      lt\n      tag_383\n      jumpi\n      tag_384\n      tag_60\n      jump\t// in\n    tag_384:\n    tag_383:\n      0x20\n      mul\n      add\n      mload\n        /* \"solidity/contracts/TicTacToe.sol\":11318:11319  1 */\n      0x01\n        /* \"solidity/contracts/TicTacToe.sol\":11308:11320  _board[1][1] */\n      0x03\n      dup2\n      lt\n      tag_385\n      jumpi\n      tag_386\n      tag_60\n      jump\t// in\n    tag_386:\n    tag_385:\n      0x20\n      mul\n      add\n      mload\n        /* \"solidity/contracts/TicTacToe.sol\":11308:11336  _board[1][1] == _board[2][2] */\n      0x02\n      dup2\n      gt\n      iszero\n      tag_387\n      jumpi\n      tag_388\n      tag_43\n      jump\t// in\n    tag_388:\n    tag_387:\n      eq\n        /* \"solidity/contracts/TicTacToe.sol\":11263:11336  _board[0][0] == _board[1][1]\r... */\n    tag_376:\n        /* \"solidity/contracts/TicTacToe.sol\":11263:11385  _board[0][0] == _board[1][1]\r... */\n      dup1\n      iszero\n      tag_389\n      jumpi\n      pop\n        /* \"solidity/contracts/TicTacToe.sol\":11369:11385  PlayerTypes.None */\n      0x00\n        /* \"solidity/contracts/TicTacToe.sol\":11353:11385  _board[0][0] != PlayerTypes.None */\n      0x02\n      dup2\n      gt\n      iszero\n      tag_390\n      jumpi\n      tag_391\n      tag_43\n      jump\t// in\n    tag_391:\n    tag_390:\n        /* \"solidity/contracts/TicTacToe.sol\":11353:11359  _board */\n      dup3\n        /* \"solidity/contracts/TicTacToe.sol\":11360:11361  0 */\n      0x00\n        /* \"solidity/contracts/TicTacToe.sol\":11353:11362  _board[0] */\n      0x03\n      dup2\n      lt\n      tag_392\n      jumpi\n      tag_393\n      tag_60\n      jump\t// in\n    tag_393:\n    tag_392:\n      0x20\n      mul\n      add\n      mload\n        /* \"solidity/contracts/TicTacToe.sol\":11363:11364  0 */\n      0x00\n        /* \"solidity/contracts/TicTacToe.sol\":11353:11365  _board[0][0] */\n      0x03\n      dup2\n      lt\n      tag_394\n      jumpi\n      tag_395\n      tag_60\n      jump\t// in\n    tag_395:\n    tag_394:\n      0x20\n      mul\n      add\n      mload\n        /* \"solidity/contracts/TicTacToe.sol\":11353:11385  _board[0][0] != PlayerTypes.None */\n      0x02\n      dup2\n      gt\n      iszero\n      tag_396\n      jumpi\n      tag_397\n      tag_43\n      jump\t// in\n    tag_397:\n    tag_396:\n      eq\n      iszero\n        /* \"solidity/contracts/TicTacToe.sol\":11263:11385  _board[0][0] == _board[1][1]\r... */\n    tag_389:\n        /* \"solidity/contracts/TicTacToe.sol\":11245:11443  if (\r... */\n      iszero\n      tag_398\n      jumpi\n        /* \"solidity/contracts/TicTacToe.sol\":11419:11425  _board */\n      dup2\n        /* \"solidity/contracts/TicTacToe.sol\":11426:11427  0 */\n      0x00\n        /* \"solidity/contracts/TicTacToe.sol\":11419:11428  _board[0] */\n      0x03\n      dup2\n      lt\n      tag_399\n      jumpi\n      tag_400\n      tag_60\n      jump\t// in\n    tag_400:\n    tag_399:\n      0x20\n      mul\n      add\n      mload\n        /* \"solidity/contracts/TicTacToe.sol\":11429:11430  0 */\n      0x00\n        /* \"solidity/contracts/TicTacToe.sol\":11419:11431  _board[0][0] */\n      0x03\n      dup2\n      lt\n      tag_401\n      jumpi\n      tag_402\n      tag_60\n      jump\t// in\n    tag_402:\n    tag_401:\n      0x20\n      mul\n      add\n      mload\n        /* \"solidity/contracts/TicTacToe.sol\":11412:11431  return _board[0][0] */\n      swap1\n      pop\n      jump(tag_363)\n        /* \"solidity/contracts/TicTacToe.sol\":11245:11443  if (\r... */\n    tag_398:\n        /* \"solidity/contracts/TicTacToe.sol\":11489:11495  _board */\n      dup2\n        /* \"solidity/contracts/TicTacToe.sol\":11496:11497  1 */\n      0x01\n        /* \"solidity/contracts/TicTacToe.sol\":11489:11498  _board[1] */\n      0x03\n      dup2\n      lt\n      tag_403\n      jumpi\n      tag_404\n      tag_60\n      jump\t// in\n    tag_404:\n    tag_403:\n      0x20\n      mul\n      add\n      mload\n        /* \"solidity/contracts/TicTacToe.sol\":11499:11500  1 */\n      0x01\n        /* \"solidity/contracts/TicTacToe.sol\":11489:11501  _board[1][1] */\n      0x03\n      dup2\n      lt\n      tag_405\n      jumpi\n      tag_406\n      tag_60\n      jump\t// in\n    tag_406:\n    tag_405:\n      0x20\n      mul\n      add\n      mload\n        /* \"solidity/contracts/TicTacToe.sol\":11473:11501  _board[0][2] == _board[1][1] */\n      0x02\n      dup2\n      gt\n      iszero\n      tag_407\n      jumpi\n      tag_408\n      tag_43\n      jump\t// in\n    tag_408:\n    tag_407:\n        /* \"solidity/contracts/TicTacToe.sol\":11473:11479  _board */\n      dup3\n        /* \"solidity/contracts/TicTacToe.sol\":11480:11481  0 */\n      0x00\n        /* \"solidity/contracts/TicTacToe.sol\":11473:11482  _board[0] */\n      0x03\n      dup2\n      lt\n      tag_409\n      jumpi\n      tag_410\n      tag_60\n      jump\t// in\n    tag_410:\n    tag_409:\n      0x20\n      mul\n      add\n      mload\n        /* \"solidity/contracts/TicTacToe.sol\":11483:11484  2 */\n      0x02\n        /* \"solidity/contracts/TicTacToe.sol\":11473:11485  _board[0][2] */\n      0x03\n      dup2\n      lt\n      tag_411\n      jumpi\n      tag_412\n      tag_60\n      jump\t// in\n    tag_412:\n    tag_411:\n      0x20\n      mul\n      add\n      mload\n        /* \"solidity/contracts/TicTacToe.sol\":11473:11501  _board[0][2] == _board[1][1] */\n      0x02\n      dup2\n      gt\n      iszero\n      tag_413\n      jumpi\n      tag_414\n      tag_43\n      jump\t// in\n    tag_414:\n    tag_413:\n      eq\n        /* \"solidity/contracts/TicTacToe.sol\":11473:11546  _board[0][2] == _board[1][1]\r... */\n      dup1\n      iszero\n      tag_415\n      jumpi\n      pop\n        /* \"solidity/contracts/TicTacToe.sol\":11534:11540  _board */\n      dup2\n        /* \"solidity/contracts/TicTacToe.sol\":11541:11542  2 */\n      0x02\n        /* \"solidity/contracts/TicTacToe.sol\":11534:11543  _board[2] */\n      0x03\n      dup2\n      lt\n      tag_416\n      jumpi\n      tag_417\n      tag_60\n      jump\t// in\n    tag_417:\n    tag_416:\n      0x20\n      mul\n      add\n      mload\n        /* \"solidity/contracts/TicTacToe.sol\":11544:11545  0 */\n      0x00\n        /* \"solidity/contracts/TicTacToe.sol\":11534:11546  _board[2][0] */\n      0x03\n      dup2\n      lt\n      tag_418\n      jumpi\n      tag_419\n      tag_60\n      jump\t// in\n    tag_419:\n    tag_418:\n      0x20\n      mul\n      add\n      mload\n        /* \"solidity/contracts/TicTacToe.sol\":11518:11546  _board[1][1] == _board[2][0] */\n      0x02\n      dup2\n      gt\n      iszero\n      tag_420\n      jumpi\n      tag_421\n      tag_43\n      jump\t// in\n    tag_421:\n    tag_420:\n        /* \"solidity/contracts/TicTacToe.sol\":11518:11524  _board */\n      dup3\n        /* \"solidity/contracts/TicTacToe.sol\":11525:11526  1 */\n      0x01\n        /* \"solidity/contracts/TicTacToe.sol\":11518:11527  _board[1] */\n      0x03\n      dup2\n      lt\n      tag_422\n      jumpi\n      tag_423\n      tag_60\n      jump\t// in\n    tag_423:\n    tag_422:\n      0x20\n      mul\n      add\n      mload\n        /* \"solidity/contracts/TicTacToe.sol\":11528:11529  1 */\n      0x01\n        /* \"solidity/contracts/TicTacToe.sol\":11518:11530  _board[1][1] */\n      0x03\n      dup2\n      lt\n      tag_424\n      jumpi\n      tag_425\n      tag_60\n      jump\t// in\n    tag_425:\n    tag_424:\n      0x20\n      mul\n      add\n      mload\n        /* \"solidity/contracts/TicTacToe.sol\":11518:11546  _board[1][1] == _board[2][0] */\n      0x02\n      dup2\n      gt\n      iszero\n      tag_426\n      jumpi\n      tag_427\n      tag_43\n      jump\t// in\n    tag_427:\n    tag_426:\n      eq\n        /* \"solidity/contracts/TicTacToe.sol\":11473:11546  _board[0][2] == _board[1][1]\r... */\n    tag_415:\n        /* \"solidity/contracts/TicTacToe.sol\":11473:11595  _board[0][2] == _board[1][1]\r... */\n      dup1\n      iszero\n      tag_428\n      jumpi\n      pop\n        /* \"solidity/contracts/TicTacToe.sol\":11579:11595  PlayerTypes.None */\n      0x00\n        /* \"solidity/contracts/TicTacToe.sol\":11563:11595  _board[0][2] != PlayerTypes.None */\n      0x02\n      dup2\n      gt\n      iszero\n      tag_429\n      jumpi\n      tag_430\n      tag_43\n      jump\t// in\n    tag_430:\n    tag_429:\n        /* \"solidity/contracts/TicTacToe.sol\":11563:11569  _board */\n      dup3\n        /* \"solidity/contracts/TicTacToe.sol\":11570:11571  0 */\n      0x00\n        /* \"solidity/contracts/TicTacToe.sol\":11563:11572  _board[0] */\n      0x03\n      dup2\n      lt\n      tag_431\n      jumpi\n      tag_432\n      tag_60\n      jump\t// in\n    tag_432:\n    tag_431:\n      0x20\n      mul\n      add\n      mload\n        /* \"solidity/contracts/TicTacToe.sol\":11573:11574  2 */\n      0x02\n        /* \"solidity/contracts/TicTacToe.sol\":11563:11575  _board[0][2] */\n      0x03\n      dup2\n      lt\n      tag_433\n      jumpi\n      tag_434\n      tag_60\n      jump\t// in\n    tag_434:\n    tag_433:\n      0x20\n      mul\n      add\n      mload\n        /* \"solidity/contracts/TicTacToe.sol\":11563:11595  _board[0][2] != PlayerTypes.None */\n      0x02\n      dup2\n      gt\n      iszero\n      tag_435\n      jumpi\n      tag_436\n      tag_43\n      jump\t// in\n    tag_436:\n    tag_435:\n      eq\n      iszero\n        /* \"solidity/contracts/TicTacToe.sol\":11473:11595  _board[0][2] == _board[1][1]\r... */\n    tag_428:\n        /* \"solidity/contracts/TicTacToe.sol\":11455:11653  if (\r... */\n      iszero\n      tag_437\n      jumpi\n        /* \"solidity/contracts/TicTacToe.sol\":11629:11635  _board */\n      dup2\n        /* \"solidity/contracts/TicTacToe.sol\":11636:11637  0 */\n      0x00\n        /* \"solidity/contracts/TicTacToe.sol\":11629:11638  _board[0] */\n      0x03\n      dup2\n      lt\n      tag_438\n      jumpi\n      tag_439\n      tag_60\n      jump\t// in\n    tag_439:\n    tag_438:\n      0x20\n      mul\n      add\n      mload\n        /* \"solidity/contracts/TicTacToe.sol\":11639:11640  2 */\n      0x02\n        /* \"solidity/contracts/TicTacToe.sol\":11629:11641  _board[0][2] */\n      0x03\n      dup2\n      lt\n      tag_440\n      jumpi\n      tag_441\n      tag_60\n      jump\t// in\n    tag_441:\n    tag_440:\n      0x20\n      mul\n      add\n      mload\n        /* \"solidity/contracts/TicTacToe.sol\":11622:11641  return _board[0][2] */\n      swap1\n      pop\n      jump(tag_363)\n        /* \"solidity/contracts/TicTacToe.sol\":11455:11653  if (\r... */\n    tag_437:\n        /* \"solidity/contracts/TicTacToe.sol\":11672:11688  PlayerTypes.None */\n      0x00\n        /* \"solidity/contracts/TicTacToe.sol\":11665:11688  return PlayerTypes.None */\n      swap1\n      pop\n        /* \"solidity/contracts/TicTacToe.sol\":11133:11696  function winnerInDiagonal(PlayerTypes[3][3] memory _board) private pure returns (PlayerTypes winner) {\r... */\n    tag_363:\n      swap2\n      swap1\n      pop\n      jump\t// out\n        /* \"solidity/contracts/TicTacToe.sol\":11809:12153  function isBoardFull(PlayerTypes[3][3] memory _board) private pure returns (bool isFull) {\r... */\n    tag_235:\n        /* \"solidity/contracts/TicTacToe.sol\":11885:11896  bool isFull */\n      0x00\n        /* \"solidity/contracts/TicTacToe.sol\":11914:11921  uint8 x */\n      dup1\n        /* \"solidity/contracts/TicTacToe.sol\":11924:11925  0 */\n      0x00\n        /* \"solidity/contracts/TicTacToe.sol\":11914:11925  uint8 x = 0 */\n      swap1\n      pop\n        /* \"solidity/contracts/TicTacToe.sol\":11909:12122  for (uint8 x = 0; x < 3; x++) {\r... */\n    tag_443:\n        /* \"solidity/contracts/TicTacToe.sol\":11931:11932  3 */\n      0x03\n        /* \"solidity/contracts/TicTacToe.sol\":11927:11928  x */\n      dup2\n        /* \"solidity/contracts/TicTacToe.sol\":11927:11932  x < 3 */\n      0xff\n      and\n      lt\n        /* \"solidity/contracts/TicTacToe.sol\":11909:12122  for (uint8 x = 0; x < 3; x++) {\r... */\n      iszero\n      tag_444\n      jumpi\n        /* \"solidity/contracts/TicTacToe.sol\":11959:11966  uint8 y */\n      0x00\n        /* \"solidity/contracts/TicTacToe.sol\":11954:12111  for (uint8 y = 0; y < 3; y++) {\r... */\n    tag_446:\n        /* \"solidity/contracts/TicTacToe.sol\":11976:11977  3 */\n      0x03\n        /* \"solidity/contracts/TicTacToe.sol\":11972:11973  y */\n      dup2\n        /* \"solidity/contracts/TicTacToe.sol\":11972:11977  y < 3 */\n      0xff\n      and\n      lt\n        /* \"solidity/contracts/TicTacToe.sol\":11954:12111  for (uint8 y = 0; y < 3; y++) {\r... */\n      iszero\n      tag_447\n      jumpi\n        /* \"solidity/contracts/TicTacToe.sol\":12023:12039  PlayerTypes.None */\n      0x00\n        /* \"solidity/contracts/TicTacToe.sol\":12007:12039  _board[x][y] == PlayerTypes.None */\n      0x02\n      dup2\n      gt\n      iszero\n      tag_449\n      jumpi\n      tag_450\n      tag_43\n      jump\t// in\n    tag_450:\n    tag_449:\n        /* \"solidity/contracts/TicTacToe.sol\":12007:12013  _board */\n      dup5\n        /* \"solidity/contracts/TicTacToe.sol\":12014:12015  x */\n      dup4\n        /* \"solidity/contracts/TicTacToe.sol\":12007:12016  _board[x] */\n      0xff\n      and\n      0x03\n      dup2\n      lt\n      tag_451\n      jumpi\n      tag_452\n      tag_60\n      jump\t// in\n    tag_452:\n    tag_451:\n      0x20\n      mul\n      add\n      mload\n        /* \"solidity/contracts/TicTacToe.sol\":12017:12018  y */\n      dup3\n        /* \"solidity/contracts/TicTacToe.sol\":12007:12019  _board[x][y] */\n      0xff\n      and\n      0x03\n      dup2\n      lt\n      tag_453\n      jumpi\n      tag_454\n      tag_60\n      jump\t// in\n    tag_454:\n    tag_453:\n      0x20\n      mul\n      add\n      mload\n        /* \"solidity/contracts/TicTacToe.sol\":12007:12039  _board[x][y] == PlayerTypes.None */\n      0x02\n      dup2\n      gt\n      iszero\n      tag_455\n      jumpi\n      tag_456\n      tag_43\n      jump\t// in\n    tag_456:\n    tag_455:\n      eq\n        /* \"solidity/contracts/TicTacToe.sol\":12003:12096  if (_board[x][y] == PlayerTypes.None) {\r... */\n      iszero\n      tag_457\n      jumpi\n        /* \"solidity/contracts/TicTacToe.sol\":12071:12076  false */\n      0x00\n        /* \"solidity/contracts/TicTacToe.sol\":12064:12076  return false */\n      swap3\n      pop\n      pop\n      pop\n      jump(tag_442)\n        /* \"solidity/contracts/TicTacToe.sol\":12003:12096  if (_board[x][y] == PlayerTypes.None) {\r... */\n    tag_457:\n        /* \"solidity/contracts/TicTacToe.sol\":11979:11982  y++ */\n      dup1\n      dup1\n      tag_458\n      swap1\n      tag_318\n      jump\t// in\n    tag_458:\n      swap2\n      pop\n      pop\n        /* \"solidity/contracts/TicTacToe.sol\":11954:12111  for (uint8 y = 0; y < 3; y++) {\r... */\n      jump(tag_446)\n    tag_447:\n      pop\n        /* \"solidity/contracts/TicTacToe.sol\":11934:11937  x++ */\n      dup1\n      dup1\n      tag_459\n      swap1\n      tag_318\n      jump\t// in\n    tag_459:\n      swap2\n      pop\n      pop\n        /* \"solidity/contracts/TicTacToe.sol\":11909:12122  for (uint8 x = 0; x < 3; x++) {\r... */\n      jump(tag_443)\n    tag_444:\n      pop\n        /* \"solidity/contracts/TicTacToe.sol\":12141:12145  true */\n      0x01\n        /* \"solidity/contracts/TicTacToe.sol\":12134:12145  return true */\n      swap1\n      pop\n        /* \"solidity/contracts/TicTacToe.sol\":11809:12153  function isBoardFull(PlayerTypes[3][3] memory _board) private pure returns (bool isFull) {\r... */\n    tag_442:\n      swap2\n      swap1\n      pop\n      jump\t// out\n    tag_128:\n      mload(0x40)\n      dup1\n      0x0100\n      add\n      0x40\n      mstore\n      dup1\n      0x00\n      dup2\n      mstore\n      0x20\n      add\n      0x00\n      dup2\n      mstore\n      0x20\n      add\n      tag_460\n      tag_185\n      jump\t// in\n    tag_460:\n      dup2\n      mstore\n      0x20\n      add\n      tag_461\n      tag_185\n      jump\t// in\n    tag_461:\n      dup2\n      mstore\n      0x20\n      add\n      0x00\n      0x03\n      dup2\n      gt\n      iszero\n      tag_462\n      jumpi\n      tag_463\n      tag_43\n      jump\t// in\n    tag_463:\n    tag_462:\n      dup2\n      mstore\n      0x20\n      add\n      0x00\n      0x02\n      dup2\n      gt\n      iszero\n      tag_464\n      jumpi\n      tag_465\n      tag_43\n      jump\t// in\n    tag_465:\n    tag_464:\n      dup2\n      mstore\n      0x20\n      add\n      0x00\n      0x02\n      dup2\n      gt\n      iszero\n      tag_466\n      jumpi\n      tag_467\n      tag_43\n      jump\t// in\n    tag_467:\n    tag_466:\n      dup2\n      mstore\n      0x20\n      add\n      tag_468\n      tag_469\n      jump\t// in\n    tag_468:\n      dup2\n      mstore\n      pop\n      swap1\n      jump\t// out\n    tag_171:\n      dup3\n      0x03\n      dup2\n      add\n      swap3\n      dup3\n      iszero\n      tag_470\n      jumpi\n      swap2\n      0x20\n      mul\n      dup3\n      add\n    tag_471:\n      dup3\n      dup2\n      gt\n      iszero\n      tag_472\n      jumpi\n      dup3\n      mload\n      dup3\n      swap1\n      0x03\n      tag_473\n      swap3\n      swap2\n      swap1\n      tag_474\n      jump\t// in\n    tag_473:\n      pop\n      swap2\n      0x20\n      add\n      swap2\n      swap1\n      0x01\n      add\n      swap1\n      jump(tag_471)\n    tag_472:\n    tag_470:\n      pop\n      swap1\n      pop\n      tag_475\n      swap2\n      swap1\n      tag_476\n      jump\t// in\n    tag_475:\n      pop\n      swap1\n      jump\t// out\n    tag_185:\n      mload(0x40)\n      dup1\n      0x40\n      add\n      0x40\n      mstore\n      dup1\n      and(0xffffffffffffffffffffffffffffffffffffffff, 0x00)\n      dup2\n      mstore\n      0x20\n      add\n      0x00\n      dup2\n      mstore\n      pop\n      swap1\n      jump\t// out\n    tag_469:\n      mload(0x40)\n      dup1\n      0x60\n      add\n      0x40\n      mstore\n      dup1\n      0x03\n      swap1\n    tag_477:\n      tag_478\n      tag_479\n      jump\t// in\n    tag_478:\n      dup2\n      mstore\n      0x20\n      add\n      swap1\n      0x01\n      swap1\n      sub\n      swap1\n      dup2\n      tag_477\n      jumpi\n      swap1\n      pop\n      pop\n      swap1\n      jump\t// out\n    tag_474:\n      dup3\n      add(0x1f, 0x03)\n      0x20\n      swap1\n      div\n      dup2\n      add\n      swap3\n      dup3\n      iszero\n      tag_480\n      jumpi\n      swap2\n      0x20\n      mul\n      dup3\n      add\n      0x00\n    tag_481:\n      dup4\n      dup3\n      gt\n      iszero\n      tag_482\n      jumpi\n      dup4\n      mload\n      dup4\n      dup3\n      0x0100\n      exp\n      dup2\n      sload\n      dup2\n      0xff\n      mul\n      not\n      and\n      swap1\n      dup4\n      0x02\n      dup2\n      gt\n      iszero\n      tag_483\n      jumpi\n      tag_484\n      tag_43\n      jump\t// in\n    tag_484:\n    tag_483:\n      mul\n      or\n      swap1\n      sstore\n      pop\n      swap3\n      0x20\n      add\n      swap3\n      0x01\n      add\n      0x20\n      dup2\n      0x00\n      add\n      div\n      swap3\n      dup4\n      add\n      swap3\n      0x01\n      sub\n      mul\n      jump(tag_481)\n    tag_482:\n      dup1\n      iszero\n      tag_485\n      jumpi\n      dup3\n      dup2\n      0x0100\n      exp\n      dup2\n      sload\n      swap1\n      0xff\n      mul\n      not\n      and\n      swap1\n      sstore\n      0x01\n      add\n      0x20\n      dup2\n      0x00\n      add\n      div\n      swap3\n      dup4\n      add\n      swap3\n      0x01\n      sub\n      mul\n      jump(tag_482)\n    tag_485:\n      pop\n    tag_480:\n      pop\n      swap1\n      pop\n      tag_486\n      swap2\n      swap1\n      tag_487\n      jump\t// in\n    tag_486:\n      pop\n      swap1\n      jump\t// out\n    tag_476:\n    tag_488:\n      dup1\n      dup3\n      gt\n      iszero\n      tag_489\n      jumpi\n      0x00\n      dup2\n      dup2\n      tag_490\n      swap2\n      swap1\n      tag_491\n      jump\t// in\n    tag_490:\n      pop\n      0x01\n      add\n      jump(tag_488)\n    tag_489:\n      pop\n      swap1\n      jump\t// out\n    tag_479:\n      mload(0x40)\n      dup1\n      0x60\n      add\n      0x40\n      mstore\n      dup1\n      0x03\n      swap1\n      0x20\n      dup3\n      mul\n      dup1\n      calldatasize\n      dup4\n      calldatacopy\n      dup1\n      dup3\n      add\n      swap2\n      pop\n      pop\n      swap1\n      pop\n      pop\n      swap1\n      jump\t// out\n    tag_487:\n    tag_492:\n      dup1\n      dup3\n      gt\n      iszero\n      tag_493\n      jumpi\n      0x00\n      dup2\n      0x00\n      swap1\n      sstore\n      pop\n      0x01\n      add\n      jump(tag_492)\n    tag_493:\n      pop\n      swap1\n      jump\t// out\n    tag_491:\n      pop\n      0x00\n      swap1\n      sstore\n      jump\t// out\n        /* \"#utility.yul\":7:146   */\n    tag_495:\n        /* \"#utility.yul\":53:58   */\n      0x00\n        /* \"#utility.yul\":91:97   */\n      dup2\n        /* \"#utility.yul\":78:98   */\n      calldataload\n        /* \"#utility.yul\":69:98   */\n      swap1\n      pop\n        /* \"#utility.yul\":107:140   */\n      tag_497\n        /* \"#utility.yul\":134:139   */\n      dup2\n        /* \"#utility.yul\":107:140   */\n      tag_498\n      jump\t// in\n    tag_497:\n        /* \"#utility.yul\":7:146   */\n      swap3\n      swap2\n      pop\n      pop\n      jump\t// out\n        /* \"#utility.yul\":152:481   */\n    tag_18:\n        /* \"#utility.yul\":211:217   */\n      0x00\n        /* \"#utility.yul\":260:262   */\n      0x20\n        /* \"#utility.yul\":248:257   */\n      dup3\n        /* \"#utility.yul\":239:246   */\n      dup5\n        /* \"#utility.yul\":235:258   */\n      sub\n        /* \"#utility.yul\":231:263   */\n      slt\n        /* \"#utility.yul\":228:347   */\n      iszero\n      tag_500\n      jumpi\n        /* \"#utility.yul\":266:345   */\n      tag_501\n      tag_502\n      jump\t// in\n    tag_501:\n        /* \"#utility.yul\":228:347   */\n    tag_500:\n        /* \"#utility.yul\":386:387   */\n      0x00\n        /* \"#utility.yul\":411:464   */\n      tag_503\n        /* \"#utility.yul\":456:463   */\n      dup5\n        /* \"#utility.yul\":447:453   */\n      dup3\n        /* \"#utility.yul\":436:445   */\n      dup6\n        /* \"#utility.yul\":432:454   */\n      add\n        /* \"#utility.yul\":411:464   */\n      tag_495\n      jump\t// in\n    tag_503:\n        /* \"#utility.yul\":401:464   */\n      swap2\n      pop\n        /* \"#utility.yul\":357:474   */\n      pop\n        /* \"#utility.yul\":152:481   */\n      swap3\n      swap2\n      pop\n      pop\n      jump\t// out\n        /* \"#utility.yul\":487:1106   */\n    tag_11:\n        /* \"#utility.yul\":564:570   */\n      0x00\n        /* \"#utility.yul\":572:578   */\n      dup1\n        /* \"#utility.yul\":580:586   */\n      0x00\n        /* \"#utility.yul\":629:631   */\n      0x60\n        /* \"#utility.yul\":617:626   */\n      dup5\n        /* \"#utility.yul\":608:615   */\n      dup7\n        /* \"#utility.yul\":604:627   */\n      sub\n        /* \"#utility.yul\":600:632   */\n      slt\n        /* \"#utility.yul\":597:716   */\n      iszero\n      tag_505\n      jumpi\n        /* \"#utility.yul\":635:714   */\n      tag_506\n      tag_502\n      jump\t// in\n    tag_506:\n        /* \"#utility.yul\":597:716   */\n    tag_505:\n        /* \"#utility.yul\":755:756   */\n      0x00\n        /* \"#utility.yul\":780:833   */\n      tag_507\n        /* \"#utility.yul\":825:832   */\n      dup7\n        /* \"#utility.yul\":816:822   */\n      dup3\n        /* \"#utility.yul\":805:814   */\n      dup8\n        /* \"#utility.yul\":801:823   */\n      add\n        /* \"#utility.yul\":780:833   */\n      tag_495\n      jump\t// in\n    tag_507:\n        /* \"#utility.yul\":770:833   */\n      swap4\n      pop\n        /* \"#utility.yul\":726:843   */\n      pop\n        /* \"#utility.yul\":882:884   */\n      0x20\n        /* \"#utility.yul\":908:961   */\n      tag_508\n        /* \"#utility.yul\":953:960   */\n      dup7\n        /* \"#utility.yul\":944:950   */\n      dup3\n        /* \"#utility.yul\":933:942   */\n      dup8\n        /* \"#utility.yul\":929:951   */\n      add\n        /* \"#utility.yul\":908:961   */\n      tag_495\n      jump\t// in\n    tag_508:\n        /* \"#utility.yul\":898:961   */\n      swap3\n      pop\n        /* \"#utility.yul\":853:971   */\n      pop\n        /* \"#utility.yul\":1010:1012   */\n      0x40\n        /* \"#utility.yul\":1036:1089   */\n      tag_509\n        /* \"#utility.yul\":1081:1088   */\n      dup7\n        /* \"#utility.yul\":1072:1078   */\n      dup3\n        /* \"#utility.yul\":1061:1070   */\n      dup8\n        /* \"#utility.yul\":1057:1079   */\n      add\n        /* \"#utility.yul\":1036:1089   */\n      tag_495\n      jump\t// in\n    tag_509:\n        /* \"#utility.yul\":1026:1089   */\n      swap2\n      pop\n        /* \"#utility.yul\":981:1099   */\n      pop\n        /* \"#utility.yul\":487:1106   */\n      swap3\n      pop\n      swap3\n      pop\n      swap3\n      jump\t// out\n        /* \"#utility.yul\":1112:1405   */\n    tag_510:\n        /* \"#utility.yul\":1238:1248   */\n      0x00\n        /* \"#utility.yul\":1259:1362   */\n      tag_512\n        /* \"#utility.yul\":1358:1361   */\n      dup4\n        /* \"#utility.yul\":1350:1356   */\n      dup4\n        /* \"#utility.yul\":1259:1362   */\n      tag_513\n      jump\t// in\n    tag_512:\n        /* \"#utility.yul\":1394:1398   */\n      0x60\n        /* \"#utility.yul\":1389:1392   */\n      dup4\n        /* \"#utility.yul\":1385:1399   */\n      add\n        /* \"#utility.yul\":1371:1399   */\n      swap1\n      pop\n        /* \"#utility.yul\":1112:1405   */\n      swap3\n      swap2\n      pop\n      pop\n      jump\t// out\n        /* \"#utility.yul\":1411:1612   */\n    tag_514:\n        /* \"#utility.yul\":1491:1501   */\n      0x00\n        /* \"#utility.yul\":1512:1569   */\n      tag_516\n        /* \"#utility.yul\":1565:1568   */\n      dup4\n        /* \"#utility.yul\":1557:1563   */\n      dup4\n        /* \"#utility.yul\":1512:1569   */\n      tag_517\n      jump\t// in\n    tag_516:\n        /* \"#utility.yul\":1601:1605   */\n      0x20\n        /* \"#utility.yul\":1596:1599   */\n      dup4\n        /* \"#utility.yul\":1592:1606   */\n      add\n        /* \"#utility.yul\":1578:1606   */\n      swap1\n      pop\n        /* \"#utility.yul\":1411:1612   */\n      swap3\n      swap2\n      pop\n      pop\n      jump\t// out\n        /* \"#utility.yul\":1618:1726   */\n    tag_518:\n        /* \"#utility.yul\":1695:1719   */\n      tag_520\n        /* \"#utility.yul\":1713:1718   */\n      dup2\n        /* \"#utility.yul\":1695:1719   */\n      tag_521\n      jump\t// in\n    tag_520:\n        /* \"#utility.yul\":1690:1693   */\n      dup3\n        /* \"#utility.yul\":1683:1720   */\n      mstore\n        /* \"#utility.yul\":1618:1726   */\n      pop\n      pop\n      jump\t// out\n        /* \"#utility.yul\":1732:1850   */\n    tag_522:\n        /* \"#utility.yul\":1819:1843   */\n      tag_524\n        /* \"#utility.yul\":1837:1842   */\n      dup2\n        /* \"#utility.yul\":1819:1843   */\n      tag_521\n      jump\t// in\n    tag_524:\n        /* \"#utility.yul\":1814:1817   */\n      dup3\n        /* \"#utility.yul\":1807:1844   */\n      mstore\n        /* \"#utility.yul\":1732:1850   */\n      pop\n      pop\n      jump\t// out\n        /* \"#utility.yul\":1911:2828   */\n    tag_525:\n        /* \"#utility.yul\":2094:2182   */\n      tag_527\n        /* \"#utility.yul\":2176:2181   */\n      dup2\n        /* \"#utility.yul\":2094:2182   */\n      tag_528\n      jump\t// in\n    tag_527:\n        /* \"#utility.yul\":2198:2293   */\n      tag_529\n        /* \"#utility.yul\":2286:2292   */\n      dup2\n        /* \"#utility.yul\":2281:2284   */\n      dup5\n        /* \"#utility.yul\":2198:2293   */\n      tag_530\n      jump\t// in\n    tag_529:\n        /* \"#utility.yul\":2191:2293   */\n      swap3\n      pop\n        /* \"#utility.yul\":2317:2407   */\n      tag_531\n        /* \"#utility.yul\":2401:2406   */\n      dup3\n        /* \"#utility.yul\":2317:2407   */\n      tag_532\n      jump\t// in\n    tag_531:\n        /* \"#utility.yul\":2430:2437   */\n      dup1\n        /* \"#utility.yul\":2461:2462   */\n      0x00\n        /* \"#utility.yul\":2446:2821   */\n    tag_533:\n        /* \"#utility.yul\":2471:2477   */\n      dup4\n        /* \"#utility.yul\":2468:2469   */\n      dup2\n        /* \"#utility.yul\":2465:2478   */\n      lt\n        /* \"#utility.yul\":2446:2821   */\n      iszero\n      tag_535\n      jumpi\n        /* \"#utility.yul\":2547:2553   */\n      dup2\n        /* \"#utility.yul\":2541:2554   */\n      mload\n        /* \"#utility.yul\":2574:2694   */\n      tag_536\n        /* \"#utility.yul\":2690:2693   */\n      dup8\n        /* \"#utility.yul\":2675:2688   */\n      dup3\n        /* \"#utility.yul\":2574:2694   */\n      tag_510\n      jump\t// in\n    tag_536:\n        /* \"#utility.yul\":2567:2694   */\n      swap7\n      pop\n        /* \"#utility.yul\":2717:2811   */\n      tag_537\n        /* \"#utility.yul\":2804:2810   */\n      dup4\n        /* \"#utility.yul\":2717:2811   */\n      tag_538\n      jump\t// in\n    tag_537:\n        /* \"#utility.yul\":2707:2811   */\n      swap3\n      pop\n        /* \"#utility.yul\":2506:2821   */\n      pop\n        /* \"#utility.yul\":2493:2494   */\n      0x01\n        /* \"#utility.yul\":2490:2491   */\n      dup2\n        /* \"#utility.yul\":2486:2495   */\n      add\n        /* \"#utility.yul\":2481:2495   */\n      swap1\n      pop\n        /* \"#utility.yul\":2446:2821   */\n      jump(tag_533)\n    tag_535:\n        /* \"#utility.yul\":2450:2464   */\n      pop\n        /* \"#utility.yul\":2070:2828   */\n      pop\n      pop\n      pop\n        /* \"#utility.yul\":1911:2828   */\n      pop\n      pop\n      jump\t// out\n        /* \"#utility.yul\":2883:3616   */\n    tag_513:\n        /* \"#utility.yul\":3020:3085   */\n      tag_540\n        /* \"#utility.yul\":3079:3084   */\n      dup2\n        /* \"#utility.yul\":3020:3085   */\n      tag_541\n      jump\t// in\n    tag_540:\n        /* \"#utility.yul\":3101:3173   */\n      tag_542\n        /* \"#utility.yul\":3166:3172   */\n      dup2\n        /* \"#utility.yul\":3161:3164   */\n      dup5\n        /* \"#utility.yul\":3101:3173   */\n      tag_543\n      jump\t// in\n    tag_542:\n        /* \"#utility.yul\":3094:3173   */\n      swap3\n      pop\n        /* \"#utility.yul\":3197:3264   */\n      tag_544\n        /* \"#utility.yul\":3258:3263   */\n      dup3\n        /* \"#utility.yul\":3197:3264   */\n      tag_545\n      jump\t// in\n    tag_544:\n        /* \"#utility.yul\":3287:3294   */\n      dup1\n        /* \"#utility.yul\":3318:3319   */\n      0x00\n        /* \"#utility.yul\":3303:3609   */\n    tag_546:\n        /* \"#utility.yul\":3328:3334   */\n      dup4\n        /* \"#utility.yul\":3325:3326   */\n      dup2\n        /* \"#utility.yul\":3322:3335   */\n      lt\n        /* \"#utility.yul\":3303:3609   */\n      iszero\n      tag_548\n      jumpi\n        /* \"#utility.yul\":3404:3410   */\n      dup2\n        /* \"#utility.yul\":3398:3411   */\n      mload\n        /* \"#utility.yul\":3431:3505   */\n      tag_549\n        /* \"#utility.yul\":3501:3504   */\n      dup8\n        /* \"#utility.yul\":3486:3499   */\n      dup3\n        /* \"#utility.yul\":3431:3505   */\n      tag_514\n      jump\t// in\n    tag_549:\n        /* \"#utility.yul\":3424:3505   */\n      swap7\n      pop\n        /* \"#utility.yul\":3528:3599   */\n      tag_550\n        /* \"#utility.yul\":3592:3598   */\n      dup4\n        /* \"#utility.yul\":3528:3599   */\n      tag_551\n      jump\t// in\n    tag_550:\n        /* \"#utility.yul\":3518:3599   */\n      swap3\n      pop\n        /* \"#utility.yul\":3363:3609   */\n      pop\n        /* \"#utility.yul\":3350:3351   */\n      0x01\n        /* \"#utility.yul\":3347:3348   */\n      dup2\n        /* \"#utility.yul\":3343:3352   */\n      add\n        /* \"#utility.yul\":3338:3352   */\n      swap1\n      pop\n        /* \"#utility.yul\":3303:3609   */\n      jump(tag_546)\n    tag_548:\n        /* \"#utility.yul\":3307:3321   */\n      pop\n        /* \"#utility.yul\":2996:3616   */\n      pop\n      pop\n      pop\n        /* \"#utility.yul\":2883:3616   */\n      pop\n      pop\n      jump\t// out\n        /* \"#utility.yul\":3622:3731   */\n    tag_552:\n        /* \"#utility.yul\":3703:3724   */\n      tag_554\n        /* \"#utility.yul\":3718:3723   */\n      dup2\n        /* \"#utility.yul\":3703:3724   */\n      tag_555\n      jump\t// in\n    tag_554:\n        /* \"#utility.yul\":3698:3701   */\n      dup3\n        /* \"#utility.yul\":3691:3725   */\n      mstore\n        /* \"#utility.yul\":3622:3731   */\n      pop\n      pop\n      jump\t// out\n        /* \"#utility.yul\":3737:3880   */\n    tag_517:\n        /* \"#utility.yul\":3825:3873   */\n      tag_557\n        /* \"#utility.yul\":3867:3872   */\n      dup2\n        /* \"#utility.yul\":3825:3873   */\n      tag_558\n      jump\t// in\n    tag_557:\n        /* \"#utility.yul\":3820:3823   */\n      dup3\n        /* \"#utility.yul\":3813:3874   */\n      mstore\n        /* \"#utility.yul\":3737:3880   */\n      pop\n      pop\n      jump\t// out\n        /* \"#utility.yul\":3886:4021   */\n    tag_559:\n        /* \"#utility.yul\":3970:4014   */\n      tag_561\n        /* \"#utility.yul\":4008:4013   */\n      dup2\n        /* \"#utility.yul\":3970:4014   */\n      tag_562\n      jump\t// in\n    tag_561:\n        /* \"#utility.yul\":3965:3968   */\n      dup3\n        /* \"#utility.yul\":3958:4015   */\n      mstore\n        /* \"#utility.yul\":3886:4021   */\n      pop\n      pop\n      jump\t// out\n        /* \"#utility.yul\":4027:4164   */\n    tag_563:\n        /* \"#utility.yul\":4112:4157   */\n      tag_565\n        /* \"#utility.yul\":4151:4156   */\n      dup2\n        /* \"#utility.yul\":4112:4157   */\n      tag_566\n      jump\t// in\n    tag_565:\n        /* \"#utility.yul\":4107:4110   */\n      dup3\n        /* \"#utility.yul\":4100:4158   */\n      mstore\n        /* \"#utility.yul\":4027:4164   */\n      pop\n      pop\n      jump\t// out\n        /* \"#utility.yul\":4170:4317   */\n    tag_567:\n        /* \"#utility.yul\":4265:4310   */\n      tag_569\n        /* \"#utility.yul\":4304:4309   */\n      dup2\n        /* \"#utility.yul\":4265:4310   */\n      tag_566\n      jump\t// in\n    tag_569:\n        /* \"#utility.yul\":4260:4263   */\n      dup3\n        /* \"#utility.yul\":4253:4311   */\n      mstore\n        /* \"#utility.yul\":4170:4317   */\n      pop\n      pop\n      jump\t// out\n        /* \"#utility.yul\":4323:4687   */\n    tag_570:\n        /* \"#utility.yul\":4411:4414   */\n      0x00\n        /* \"#utility.yul\":4439:4478   */\n      tag_572\n        /* \"#utility.yul\":4472:4477   */\n      dup3\n        /* \"#utility.yul\":4439:4478   */\n      tag_573\n      jump\t// in\n    tag_572:\n        /* \"#utility.yul\":4494:4565   */\n      tag_574\n        /* \"#utility.yul\":4558:4564   */\n      dup2\n        /* \"#utility.yul\":4553:4556   */\n      dup6\n        /* \"#utility.yul\":4494:4565   */\n      tag_575\n      jump\t// in\n    tag_574:\n        /* \"#utility.yul\":4487:4565   */\n      swap4\n      pop\n        /* \"#utility.yul\":4574:4626   */\n      tag_576\n        /* \"#utility.yul\":4619:4625   */\n      dup2\n        /* \"#utility.yul\":4614:4617   */\n      dup6\n        /* \"#utility.yul\":4607:4611   */\n      0x20\n        /* \"#utility.yul\":4600:4605   */\n      dup7\n        /* \"#utility.yul\":4596:4612   */\n      add\n        /* \"#utility.yul\":4574:4626   */\n      tag_577\n      jump\t// in\n    tag_576:\n        /* \"#utility.yul\":4651:4680   */\n      tag_578\n        /* \"#utility.yul\":4673:4679   */\n      dup2\n        /* \"#utility.yul\":4651:4680   */\n      tag_579\n      jump\t// in\n    tag_578:\n        /* \"#utility.yul\":4646:4649   */\n      dup5\n        /* \"#utility.yul\":4642:4681   */\n      add\n        /* \"#utility.yul\":4635:4681   */\n      swap2\n      pop\n        /* \"#utility.yul\":4415:4687   */\n      pop\n        /* \"#utility.yul\":4323:4687   */\n      swap3\n      swap2\n      pop\n      pop\n      jump\t// out\n        /* \"#utility.yul\":4693:5059   */\n    tag_580:\n        /* \"#utility.yul\":4835:4838   */\n      0x00\n        /* \"#utility.yul\":4856:4923   */\n      tag_582\n        /* \"#utility.yul\":4920:4922   */\n      0x12\n        /* \"#utility.yul\":4915:4918   */\n      dup4\n        /* \"#utility.yul\":4856:4923   */\n      tag_575\n      jump\t// in\n    tag_582:\n        /* \"#utility.yul\":4849:4923   */\n      swap2\n      pop\n        /* \"#utility.yul\":4932:5025   */\n      tag_583\n        /* \"#utility.yul\":5021:5024   */\n      dup3\n        /* \"#utility.yul\":4932:5025   */\n      tag_584\n      jump\t// in\n    tag_583:\n        /* \"#utility.yul\":5050:5052   */\n      0x20\n        /* \"#utility.yul\":5045:5048   */\n      dup3\n        /* \"#utility.yul\":5041:5053   */\n      add\n        /* \"#utility.yul\":5034:5053   */\n      swap1\n      pop\n        /* \"#utility.yul\":4693:5059   */\n      swap2\n      swap1\n      pop\n      jump\t// out\n        /* \"#utility.yul\":5065:5431   */\n    tag_585:\n        /* \"#utility.yul\":5207:5210   */\n      0x00\n        /* \"#utility.yul\":5228:5295   */\n      tag_587\n        /* \"#utility.yul\":5292:5294   */\n      0x14\n        /* \"#utility.yul\":5287:5290   */\n      dup4\n        /* \"#utility.yul\":5228:5295   */\n      tag_575\n      jump\t// in\n    tag_587:\n        /* \"#utility.yul\":5221:5295   */\n      swap2\n      pop\n        /* \"#utility.yul\":5304:5397   */\n      tag_588\n        /* \"#utility.yul\":5393:5396   */\n      dup3\n        /* \"#utility.yul\":5304:5397   */\n      tag_589\n      jump\t// in\n    tag_588:\n        /* \"#utility.yul\":5422:5424   */\n      0x20\n        /* \"#utility.yul\":5417:5420   */\n      dup3\n        /* \"#utility.yul\":5413:5425   */\n      add\n        /* \"#utility.yul\":5406:5425   */\n      swap1\n      pop\n        /* \"#utility.yul\":5065:5431   */\n      swap2\n      swap1\n      pop\n      jump\t// out\n        /* \"#utility.yul\":5437:5835   */\n    tag_590:\n        /* \"#utility.yul\":5596:5599   */\n      0x00\n        /* \"#utility.yul\":5617:5700   */\n      tag_592\n        /* \"#utility.yul\":5698:5699   */\n      0x00\n        /* \"#utility.yul\":5693:5696   */\n      dup4\n        /* \"#utility.yul\":5617:5700   */\n      tag_593\n      jump\t// in\n    tag_592:\n        /* \"#utility.yul\":5610:5700   */\n      swap2\n      pop\n        /* \"#utility.yul\":5709:5802   */\n      tag_594\n        /* \"#utility.yul\":5798:5801   */\n      dup3\n        /* \"#utility.yul\":5709:5802   */\n      tag_595\n      jump\t// in\n    tag_594:\n        /* \"#utility.yul\":5827:5828   */\n      0x00\n        /* \"#utility.yul\":5822:5825   */\n      dup3\n        /* \"#utility.yul\":5818:5829   */\n      add\n        /* \"#utility.yul\":5811:5829   */\n      swap1\n      pop\n        /* \"#utility.yul\":5437:5835   */\n      swap2\n      swap1\n      pop\n      jump\t// out\n        /* \"#utility.yul\":5841:6207   */\n    tag_596:\n        /* \"#utility.yul\":5983:5986   */\n      0x00\n        /* \"#utility.yul\":6004:6071   */\n      tag_598\n        /* \"#utility.yul\":6068:6070   */\n      0x17\n        /* \"#utility.yul\":6063:6066   */\n      dup4\n        /* \"#utility.yul\":6004:6071   */\n      tag_575\n      jump\t// in\n    tag_598:\n        /* \"#utility.yul\":5997:6071   */\n      swap2\n      pop\n        /* \"#utility.yul\":6080:6173   */\n      tag_599\n        /* \"#utility.yul\":6169:6172   */\n      dup3\n        /* \"#utility.yul\":6080:6173   */\n      tag_600\n      jump\t// in\n    tag_599:\n        /* \"#utility.yul\":6198:6200   */\n      0x20\n        /* \"#utility.yul\":6193:6196   */\n      dup3\n        /* \"#utility.yul\":6189:6201   */\n      add\n        /* \"#utility.yul\":6182:6201   */\n      swap1\n      pop\n        /* \"#utility.yul\":5841:6207   */\n      swap2\n      swap1\n      pop\n      jump\t// out\n        /* \"#utility.yul\":6267:8064   */\n    tag_601:\n        /* \"#utility.yul\":6404:6410   */\n      0x0240\n        /* \"#utility.yul\":6399:6402   */\n      dup3\n        /* \"#utility.yul\":6395:6411   */\n      add\n        /* \"#utility.yul\":6497:6501   */\n      0x00\n        /* \"#utility.yul\":6490:6495   */\n      dup3\n        /* \"#utility.yul\":6486:6502   */\n      add\n        /* \"#utility.yul\":6480:6503   */\n      mload\n        /* \"#utility.yul\":6516:6579   */\n      tag_603\n        /* \"#utility.yul\":6573:6577   */\n      0x00\n        /* \"#utility.yul\":6568:6571   */\n      dup6\n        /* \"#utility.yul\":6564:6578   */\n      add\n        /* \"#utility.yul\":6550:6562   */\n      dup3\n        /* \"#utility.yul\":6516:6579   */\n      tag_604\n      jump\t// in\n    tag_603:\n        /* \"#utility.yul\":6421:6589   */\n      pop\n        /* \"#utility.yul\":6679:6683   */\n      0x20\n        /* \"#utility.yul\":6672:6677   */\n      dup3\n        /* \"#utility.yul\":6668:6684   */\n      add\n        /* \"#utility.yul\":6662:6685   */\n      mload\n        /* \"#utility.yul\":6698:6761   */\n      tag_605\n        /* \"#utility.yul\":6755:6759   */\n      0x20\n        /* \"#utility.yul\":6750:6753   */\n      dup6\n        /* \"#utility.yul\":6746:6760   */\n      add\n        /* \"#utility.yul\":6732:6744   */\n      dup3\n        /* \"#utility.yul\":6698:6761   */\n      tag_604\n      jump\t// in\n    tag_605:\n        /* \"#utility.yul\":6599:6771   */\n      pop\n        /* \"#utility.yul\":6858:6862   */\n      0x40\n        /* \"#utility.yul\":6851:6856   */\n      dup3\n        /* \"#utility.yul\":6847:6863   */\n      add\n        /* \"#utility.yul\":6841:6864   */\n      mload\n        /* \"#utility.yul\":6877:6984   */\n      tag_606\n        /* \"#utility.yul\":6978:6982   */\n      0x40\n        /* \"#utility.yul\":6973:6976   */\n      dup6\n        /* \"#utility.yul\":6969:6983   */\n      add\n        /* \"#utility.yul\":6955:6967   */\n      dup3\n        /* \"#utility.yul\":6877:6984   */\n      tag_607\n      jump\t// in\n    tag_606:\n        /* \"#utility.yul\":6781:6994   */\n      pop\n        /* \"#utility.yul\":7081:7085   */\n      0x60\n        /* \"#utility.yul\":7074:7079   */\n      dup3\n        /* \"#utility.yul\":7070:7086   */\n      add\n        /* \"#utility.yul\":7064:7087   */\n      mload\n        /* \"#utility.yul\":7100:7207   */\n      tag_608\n        /* \"#utility.yul\":7201:7205   */\n      0x80\n        /* \"#utility.yul\":7196:7199   */\n      dup6\n        /* \"#utility.yul\":7192:7206   */\n      add\n        /* \"#utility.yul\":7178:7190   */\n      dup3\n        /* \"#utility.yul\":7100:7207   */\n      tag_607\n      jump\t// in\n    tag_608:\n        /* \"#utility.yul\":7004:7217   */\n      pop\n        /* \"#utility.yul\":7301:7305   */\n      0x80\n        /* \"#utility.yul\":7294:7299   */\n      dup3\n        /* \"#utility.yul\":7290:7306   */\n      add\n        /* \"#utility.yul\":7284:7307   */\n      mload\n        /* \"#utility.yul\":7320:7391   */\n      tag_609\n        /* \"#utility.yul\":7385:7389   */\n      0xc0\n        /* \"#utility.yul\":7380:7383   */\n      dup6\n        /* \"#utility.yul\":7376:7390   */\n      add\n        /* \"#utility.yul\":7362:7374   */\n      dup3\n        /* \"#utility.yul\":7320:7391   */\n      tag_563\n      jump\t// in\n    tag_609:\n        /* \"#utility.yul\":7227:7401   */\n      pop\n        /* \"#utility.yul\":7485:7489   */\n      0xa0\n        /* \"#utility.yul\":7478:7483   */\n      dup3\n        /* \"#utility.yul\":7474:7490   */\n      add\n        /* \"#utility.yul\":7468:7491   */\n      mload\n        /* \"#utility.yul\":7504:7574   */\n      tag_610\n        /* \"#utility.yul\":7568:7572   */\n      0xe0\n        /* \"#utility.yul\":7563:7566   */\n      dup6\n        /* \"#utility.yul\":7559:7573   */\n      add\n        /* \"#utility.yul\":7545:7557   */\n      dup3\n        /* \"#utility.yul\":7504:7574   */\n      tag_559\n      jump\t// in\n    tag_610:\n        /* \"#utility.yul\":7411:7584   */\n      pop\n        /* \"#utility.yul\":7672:7676   */\n      0xc0\n        /* \"#utility.yul\":7665:7670   */\n      dup3\n        /* \"#utility.yul\":7661:7677   */\n      add\n        /* \"#utility.yul\":7655:7678   */\n      mload\n        /* \"#utility.yul\":7691:7767   */\n      tag_611\n        /* \"#utility.yul\":7759:7765   */\n      0x0100\n        /* \"#utility.yul\":7754:7757   */\n      dup6\n        /* \"#utility.yul\":7750:7766   */\n      add\n        /* \"#utility.yul\":7736:7748   */\n      dup3\n        /* \"#utility.yul\":7691:7767   */\n      tag_517\n      jump\t// in\n    tag_611:\n        /* \"#utility.yul\":7594:7777   */\n      pop\n        /* \"#utility.yul\":7860:7864   */\n      0xe0\n        /* \"#utility.yul\":7853:7858   */\n      dup3\n        /* \"#utility.yul\":7849:7865   */\n      add\n        /* \"#utility.yul\":7843:7866   */\n      mload\n        /* \"#utility.yul\":7879:8047   */\n      tag_612\n        /* \"#utility.yul\":8039:8045   */\n      0x0120\n        /* \"#utility.yul\":8034:8037   */\n      dup6\n        /* \"#utility.yul\":8030:8046   */\n      add\n        /* \"#utility.yul\":8016:8028   */\n      dup3\n        /* \"#utility.yul\":7879:8047   */\n      tag_525\n      jump\t// in\n    tag_612:\n        /* \"#utility.yul\":7787:8057   */\n      pop\n        /* \"#utility.yul\":6373:8064   */\n      pop\n        /* \"#utility.yul\":6267:8064   */\n      pop\n      pop\n      jump\t// out\n        /* \"#utility.yul\":8128:8618   */\n    tag_607:\n        /* \"#utility.yul\":8259:8263   */\n      0x40\n        /* \"#utility.yul\":8254:8257   */\n      dup3\n        /* \"#utility.yul\":8250:8264   */\n      add\n        /* \"#utility.yul\":8346:8350   */\n      0x00\n        /* \"#utility.yul\":8339:8344   */\n      dup3\n        /* \"#utility.yul\":8335:8351   */\n      add\n        /* \"#utility.yul\":8329:8352   */\n      mload\n        /* \"#utility.yul\":8365:8428   */\n      tag_614\n        /* \"#utility.yul\":8422:8426   */\n      0x00\n        /* \"#utility.yul\":8417:8420   */\n      dup6\n        /* \"#utility.yul\":8413:8427   */\n      add\n        /* \"#utility.yul\":8399:8411   */\n      dup3\n        /* \"#utility.yul\":8365:8428   */\n      tag_518\n      jump\t// in\n    tag_614:\n        /* \"#utility.yul\":8274:8438   */\n      pop\n        /* \"#utility.yul\":8519:8523   */\n      0x20\n        /* \"#utility.yul\":8512:8517   */\n      dup3\n        /* \"#utility.yul\":8508:8524   */\n      add\n        /* \"#utility.yul\":8502:8525   */\n      mload\n        /* \"#utility.yul\":8538:8601   */\n      tag_615\n        /* \"#utility.yul\":8595:8599   */\n      0x20\n        /* \"#utility.yul\":8590:8593   */\n      dup6\n        /* \"#utility.yul\":8586:8600   */\n      add\n        /* \"#utility.yul\":8572:8584   */\n      dup3\n        /* \"#utility.yul\":8538:8601   */\n      tag_604\n      jump\t// in\n    tag_615:\n        /* \"#utility.yul\":8448:8611   */\n      pop\n        /* \"#utility.yul\":8228:8618   */\n      pop\n        /* \"#utility.yul\":8128:8618   */\n      pop\n      pop\n      jump\t// out\n        /* \"#utility.yul\":8682:9182   */\n    tag_616:\n        /* \"#utility.yul\":8823:8827   */\n      0x40\n        /* \"#utility.yul\":8818:8821   */\n      dup3\n        /* \"#utility.yul\":8814:8828   */\n      add\n        /* \"#utility.yul\":8910:8914   */\n      0x00\n        /* \"#utility.yul\":8903:8908   */\n      dup3\n        /* \"#utility.yul\":8899:8915   */\n      add\n        /* \"#utility.yul\":8893:8916   */\n      mload\n        /* \"#utility.yul\":8929:8992   */\n      tag_618\n        /* \"#utility.yul\":8986:8990   */\n      0x00\n        /* \"#utility.yul\":8981:8984   */\n      dup6\n        /* \"#utility.yul\":8977:8991   */\n      add\n        /* \"#utility.yul\":8963:8975   */\n      dup3\n        /* \"#utility.yul\":8929:8992   */\n      tag_518\n      jump\t// in\n    tag_618:\n        /* \"#utility.yul\":8838:9002   */\n      pop\n        /* \"#utility.yul\":9083:9087   */\n      0x20\n        /* \"#utility.yul\":9076:9081   */\n      dup3\n        /* \"#utility.yul\":9072:9088   */\n      add\n        /* \"#utility.yul\":9066:9089   */\n      mload\n        /* \"#utility.yul\":9102:9165   */\n      tag_619\n        /* \"#utility.yul\":9159:9163   */\n      0x20\n        /* \"#utility.yul\":9154:9157   */\n      dup6\n        /* \"#utility.yul\":9150:9164   */\n      add\n        /* \"#utility.yul\":9136:9148   */\n      dup3\n        /* \"#utility.yul\":9102:9165   */\n      tag_604\n      jump\t// in\n    tag_619:\n        /* \"#utility.yul\":9012:9175   */\n      pop\n        /* \"#utility.yul\":8792:9182   */\n      pop\n        /* \"#utility.yul\":8682:9182   */\n      pop\n      pop\n      jump\t// out\n        /* \"#utility.yul\":9188:9296   */\n    tag_604:\n        /* \"#utility.yul\":9265:9289   */\n      tag_621\n        /* \"#utility.yul\":9283:9288   */\n      dup2\n        /* \"#utility.yul\":9265:9289   */\n      tag_622\n      jump\t// in\n    tag_621:\n        /* \"#utility.yul\":9260:9263   */\n      dup3\n        /* \"#utility.yul\":9253:9290   */\n      mstore\n        /* \"#utility.yul\":9188:9296   */\n      pop\n      pop\n      jump\t// out\n        /* \"#utility.yul\":9302:9420   */\n    tag_623:\n        /* \"#utility.yul\":9389:9413   */\n      tag_625\n        /* \"#utility.yul\":9407:9412   */\n      dup2\n        /* \"#utility.yul\":9389:9413   */\n      tag_622\n      jump\t// in\n    tag_625:\n        /* \"#utility.yul\":9384:9387   */\n      dup3\n        /* \"#utility.yul\":9377:9414   */\n      mstore\n        /* \"#utility.yul\":9302:9420   */\n      pop\n      pop\n      jump\t// out\n        /* \"#utility.yul\":9426:9538   */\n    tag_626:\n        /* \"#utility.yul\":9509:9531   */\n      tag_628\n        /* \"#utility.yul\":9525:9530   */\n      dup2\n        /* \"#utility.yul\":9509:9531   */\n      tag_629\n      jump\t// in\n    tag_628:\n        /* \"#utility.yul\":9504:9507   */\n      dup3\n        /* \"#utility.yul\":9497:9532   */\n      mstore\n        /* \"#utility.yul\":9426:9538   */\n      pop\n      pop\n      jump\t// out\n        /* \"#utility.yul\":9544:9923   */\n    tag_102:\n        /* \"#utility.yul\":9728:9731   */\n      0x00\n        /* \"#utility.yul\":9750:9897   */\n      tag_631\n        /* \"#utility.yul\":9893:9896   */\n      dup3\n        /* \"#utility.yul\":9750:9897   */\n      tag_590\n      jump\t// in\n    tag_631:\n        /* \"#utility.yul\":9743:9897   */\n      swap2\n      pop\n        /* \"#utility.yul\":9914:9917   */\n      dup2\n        /* \"#utility.yul\":9907:9917   */\n      swap1\n      pop\n        /* \"#utility.yul\":9544:9923   */\n      swap2\n      swap1\n      pop\n      jump\t// out\n        /* \"#utility.yul\":9929:10340   */\n    tag_14:\n        /* \"#utility.yul\":10064:10068   */\n      0x00\n        /* \"#utility.yul\":10102:10104   */\n      0x40\n        /* \"#utility.yul\":10091:10100   */\n      dup3\n        /* \"#utility.yul\":10087:10105   */\n      add\n        /* \"#utility.yul\":10079:10105   */\n      swap1\n      pop\n        /* \"#utility.yul\":10115:10180   */\n      tag_633\n        /* \"#utility.yul\":10177:10178   */\n      0x00\n        /* \"#utility.yul\":10166:10175   */\n      dup4\n        /* \"#utility.yul\":10162:10179   */\n      add\n        /* \"#utility.yul\":10153:10159   */\n      dup6\n        /* \"#utility.yul\":10115:10180   */\n      tag_552\n      jump\t// in\n    tag_633:\n        /* \"#utility.yul\":10227:10236   */\n      dup2\n        /* \"#utility.yul\":10221:10225   */\n      dup2\n        /* \"#utility.yul\":10217:10237   */\n      sub\n        /* \"#utility.yul\":10212:10214   */\n      0x20\n        /* \"#utility.yul\":10201:10210   */\n      dup4\n        /* \"#utility.yul\":10197:10215   */\n      add\n        /* \"#utility.yul\":10190:10238   */\n      mstore\n        /* \"#utility.yul\":10255:10333   */\n      tag_634\n        /* \"#utility.yul\":10328:10332   */\n      dup2\n        /* \"#utility.yul\":10319:10325   */\n      dup5\n        /* \"#utility.yul\":10255:10333   */\n      tag_570\n      jump\t// in\n    tag_634:\n        /* \"#utility.yul\":10247:10333   */\n      swap1\n      pop\n        /* \"#utility.yul\":9929:10340   */\n      swap4\n      swap3\n      pop\n      pop\n      pop\n      jump\t// out\n        /* \"#utility.yul\":10346:10659   */\n    tag_178:\n        /* \"#utility.yul\":10459:10463   */\n      0x00\n        /* \"#utility.yul\":10497:10499   */\n      0x20\n        /* \"#utility.yul\":10486:10495   */\n      dup3\n        /* \"#utility.yul\":10482:10500   */\n      add\n        /* \"#utility.yul\":10474:10500   */\n      swap1\n      pop\n        /* \"#utility.yul\":10546:10555   */\n      dup2\n        /* \"#utility.yul\":10540:10544   */\n      dup2\n        /* \"#utility.yul\":10536:10556   */\n      sub\n        /* \"#utility.yul\":10532:10533   */\n      0x00\n        /* \"#utility.yul\":10521:10530   */\n      dup4\n        /* \"#utility.yul\":10517:10534   */\n      add\n        /* \"#utility.yul\":10510:10557   */\n      mstore\n        /* \"#utility.yul\":10574:10652   */\n      tag_636\n        /* \"#utility.yul\":10647:10651   */\n      dup2\n        /* \"#utility.yul\":10638:10644   */\n      dup5\n        /* \"#utility.yul\":10574:10652   */\n      tag_570\n      jump\t// in\n    tag_636:\n        /* \"#utility.yul\":10566:10652   */\n      swap1\n      pop\n        /* \"#utility.yul\":10346:10659   */\n      swap3\n      swap2\n      pop\n      pop\n      jump\t// out\n        /* \"#utility.yul\":10665:11084   */\n    tag_256:\n        /* \"#utility.yul\":10831:10835   */\n      0x00\n        /* \"#utility.yul\":10869:10871   */\n      0x20\n        /* \"#utility.yul\":10858:10867   */\n      dup3\n        /* \"#utility.yul\":10854:10872   */\n      add\n        /* \"#utility.yul\":10846:10872   */\n      swap1\n      pop\n        /* \"#utility.yul\":10918:10927   */\n      dup2\n        /* \"#utility.yul\":10912:10916   */\n      dup2\n        /* \"#utility.yul\":10908:10928   */\n      sub\n        /* \"#utility.yul\":10904:10905   */\n      0x00\n        /* \"#utility.yul\":10893:10902   */\n      dup4\n        /* \"#utility.yul\":10889:10906   */\n      add\n        /* \"#utility.yul\":10882:10929   */\n      mstore\n        /* \"#utility.yul\":10946:11077   */\n      tag_638\n        /* \"#utility.yul\":11072:11076   */\n      dup2\n        /* \"#utility.yul\":10946:11077   */\n      tag_580\n      jump\t// in\n    tag_638:\n        /* \"#utility.yul\":10938:11077   */\n      swap1\n      pop\n        /* \"#utility.yul\":10665:11084   */\n      swap2\n      swap1\n      pop\n      jump\t// out\n        /* \"#utility.yul\":11090:11509   */\n    tag_108:\n        /* \"#utility.yul\":11256:11260   */\n      0x00\n        /* \"#utility.yul\":11294:11296   */\n      0x20\n        /* \"#utility.yul\":11283:11292   */\n      dup3\n        /* \"#utility.yul\":11279:11297   */\n      add\n        /* \"#utility.yul\":11271:11297   */\n      swap1\n      pop\n        /* \"#utility.yul\":11343:11352   */\n      dup2\n        /* \"#utility.yul\":11337:11341   */\n      dup2\n        /* \"#utility.yul\":11333:11353   */\n      sub\n        /* \"#utility.yul\":11329:11330   */\n      0x00\n        /* \"#utility.yul\":11318:11327   */\n      dup4\n        /* \"#utility.yul\":11314:11331   */\n      add\n        /* \"#utility.yul\":11307:11354   */\n      mstore\n        /* \"#utility.yul\":11371:11502   */\n      tag_640\n        /* \"#utility.yul\":11497:11501   */\n      dup2\n        /* \"#utility.yul\":11371:11502   */\n      tag_585\n      jump\t// in\n    tag_640:\n        /* \"#utility.yul\":11363:11502   */\n      swap1\n      pop\n        /* \"#utility.yul\":11090:11509   */\n      swap2\n      swap1\n      pop\n      jump\t// out\n        /* \"#utility.yul\":11515:11934   */\n    tag_152:\n        /* \"#utility.yul\":11681:11685   */\n      0x00\n        /* \"#utility.yul\":11719:11721   */\n      0x20\n        /* \"#utility.yul\":11708:11717   */\n      dup3\n        /* \"#utility.yul\":11704:11722   */\n      add\n        /* \"#utility.yul\":11696:11722   */\n      swap1\n      pop\n        /* \"#utility.yul\":11768:11777   */\n      dup2\n        /* \"#utility.yul\":11762:11766   */\n      dup2\n        /* \"#utility.yul\":11758:11778   */\n      sub\n        /* \"#utility.yul\":11754:11755   */\n      0x00\n        /* \"#utility.yul\":11743:11752   */\n      dup4\n        /* \"#utility.yul\":11739:11756   */\n      add\n        /* \"#utility.yul\":11732:11779   */\n      mstore\n        /* \"#utility.yul\":11796:11927   */\n      tag_642\n        /* \"#utility.yul\":11922:11926   */\n      dup2\n        /* \"#utility.yul\":11796:11927   */\n      tag_596\n      jump\t// in\n    tag_642:\n        /* \"#utility.yul\":11788:11927   */\n      swap1\n      pop\n        /* \"#utility.yul\":11515:11934   */\n      swap2\n      swap1\n      pop\n      jump\t// out\n        /* \"#utility.yul\":11940:12243   */\n    tag_21:\n        /* \"#utility.yul\":12073:12077   */\n      0x00\n        /* \"#utility.yul\":12111:12114   */\n      0x0240\n        /* \"#utility.yul\":12100:12109   */\n      dup3\n        /* \"#utility.yul\":12096:12115   */\n      add\n        /* \"#utility.yul\":12088:12115   */\n      swap1\n      pop\n        /* \"#utility.yul\":12125:12236   */\n      tag_644\n        /* \"#utility.yul\":12233:12234   */\n      0x00\n        /* \"#utility.yul\":12222:12231   */\n      dup4\n        /* \"#utility.yul\":12218:12235   */\n      add\n        /* \"#utility.yul\":12209:12215   */\n      dup5\n        /* \"#utility.yul\":12125:12236   */\n      tag_601\n      jump\t// in\n    tag_644:\n        /* \"#utility.yul\":11940:12243   */\n      swap3\n      swap2\n      pop\n      pop\n      jump\t// out\n        /* \"#utility.yul\":12249:12471   */\n    tag_27:\n        /* \"#utility.yul\":12342:12346   */\n      0x00\n        /* \"#utility.yul\":12380:12382   */\n      0x20\n        /* \"#utility.yul\":12369:12378   */\n      dup3\n        /* \"#utility.yul\":12365:12383   */\n      add\n        /* \"#utility.yul\":12357:12383   */\n      swap1\n      pop\n        /* \"#utility.yul\":12393:12464   */\n      tag_646\n        /* \"#utility.yul\":12461:12462   */\n      0x00\n        /* \"#utility.yul\":12450:12459   */\n      dup4\n        /* \"#utility.yul\":12446:12463   */\n      add\n        /* \"#utility.yul\":12437:12443   */\n      dup5\n        /* \"#utility.yul\":12393:12464   */\n      tag_623\n      jump\t// in\n    tag_646:\n        /* \"#utility.yul\":12249:12471   */\n      swap3\n      swap2\n      pop\n      pop\n      jump\t// out\n        /* \"#utility.yul\":12477:12809   */\n    tag_173:\n        /* \"#utility.yul\":12598:12602   */\n      0x00\n        /* \"#utility.yul\":12636:12638   */\n      0x40\n        /* \"#utility.yul\":12625:12634   */\n      dup3\n        /* \"#utility.yul\":12621:12639   */\n      add\n        /* \"#utility.yul\":12613:12639   */\n      swap1\n      pop\n        /* \"#utility.yul\":12649:12720   */\n      tag_648\n        /* \"#utility.yul\":12717:12718   */\n      0x00\n        /* \"#utility.yul\":12706:12715   */\n      dup4\n        /* \"#utility.yul\":12702:12719   */\n      add\n        /* \"#utility.yul\":12693:12699   */\n      dup6\n        /* \"#utility.yul\":12649:12720   */\n      tag_623\n      jump\t// in\n    tag_648:\n        /* \"#utility.yul\":12730:12802   */\n      tag_649\n        /* \"#utility.yul\":12798:12800   */\n      0x20\n        /* \"#utility.yul\":12787:12796   */\n      dup4\n        /* \"#utility.yul\":12783:12801   */\n      add\n        /* \"#utility.yul\":12774:12780   */\n      dup5\n        /* \"#utility.yul\":12730:12802   */\n      tag_522\n      jump\t// in\n    tag_649:\n        /* \"#utility.yul\":12477:12809   */\n      swap4\n      swap3\n      pop\n      pop\n      pop\n      jump\t// out\n        /* \"#utility.yul\":12815:13163   */\n    tag_124:\n        /* \"#utility.yul\":12944:12948   */\n      0x00\n        /* \"#utility.yul\":12982:12984   */\n      0x40\n        /* \"#utility.yul\":12971:12980   */\n      dup3\n        /* \"#utility.yul\":12967:12985   */\n      add\n        /* \"#utility.yul\":12959:12985   */\n      swap1\n      pop\n        /* \"#utility.yul\":12995:13066   */\n      tag_651\n        /* \"#utility.yul\":13063:13064   */\n      0x00\n        /* \"#utility.yul\":13052:13061   */\n      dup4\n        /* \"#utility.yul\":13048:13065   */\n      add\n        /* \"#utility.yul\":13039:13045   */\n      dup6\n        /* \"#utility.yul\":12995:13066   */\n      tag_623\n      jump\t// in\n    tag_651:\n        /* \"#utility.yul\":13076:13156   */\n      tag_652\n        /* \"#utility.yul\":13152:13154   */\n      0x20\n        /* \"#utility.yul\":13141:13150   */\n      dup4\n        /* \"#utility.yul\":13137:13155   */\n      add\n        /* \"#utility.yul\":13128:13134   */\n      dup5\n        /* \"#utility.yul\":13076:13156   */\n      tag_567\n      jump\t// in\n    tag_652:\n        /* \"#utility.yul\":12815:13163   */\n      swap4\n      swap3\n      pop\n      pop\n      pop\n      jump\t// out\n        /* \"#utility.yul\":13169:13811   */\n    tag_77:\n        /* \"#utility.yul\":13390:13394   */\n      0x00\n        /* \"#utility.yul\":13428:13431   */\n      0xa0\n        /* \"#utility.yul\":13417:13426   */\n      dup3\n        /* \"#utility.yul\":13413:13432   */\n      add\n        /* \"#utility.yul\":13405:13432   */\n      swap1\n      pop\n        /* \"#utility.yul\":13442:13513   */\n      tag_654\n        /* \"#utility.yul\":13510:13511   */\n      0x00\n        /* \"#utility.yul\":13499:13508   */\n      dup4\n        /* \"#utility.yul\":13495:13512   */\n      add\n        /* \"#utility.yul\":13486:13492   */\n      dup8\n        /* \"#utility.yul\":13442:13513   */\n      tag_623\n      jump\t// in\n    tag_654:\n        /* \"#utility.yul\":13523:13639   */\n      tag_655\n        /* \"#utility.yul\":13635:13637   */\n      0x20\n        /* \"#utility.yul\":13624:13633   */\n      dup4\n        /* \"#utility.yul\":13620:13638   */\n      add\n        /* \"#utility.yul\":13611:13617   */\n      dup7\n        /* \"#utility.yul\":13523:13639   */\n      tag_616\n      jump\t// in\n    tag_655:\n        /* \"#utility.yul\":13649:13721   */\n      tag_656\n        /* \"#utility.yul\":13717:13719   */\n      0x60\n        /* \"#utility.yul\":13706:13715   */\n      dup4\n        /* \"#utility.yul\":13702:13720   */\n      add\n        /* \"#utility.yul\":13693:13699   */\n      dup6\n        /* \"#utility.yul\":13649:13721   */\n      tag_623\n      jump\t// in\n    tag_656:\n        /* \"#utility.yul\":13731:13804   */\n      tag_657\n        /* \"#utility.yul\":13799:13802   */\n      0x80\n        /* \"#utility.yul\":13788:13797   */\n      dup4\n        /* \"#utility.yul\":13784:13803   */\n      add\n        /* \"#utility.yul\":13775:13781   */\n      dup5\n        /* \"#utility.yul\":13731:13804   */\n      tag_623\n      jump\t// in\n    tag_657:\n        /* \"#utility.yul\":13169:13811   */\n      swap6\n      swap5\n      pop\n      pop\n      pop\n      pop\n      pop\n      jump\t// out\n        /* \"#utility.yul\":13817:14340   */\n    tag_264:\n        /* \"#utility.yul\":14006:14010   */\n      0x00\n        /* \"#utility.yul\":14044:14047   */\n      0x80\n        /* \"#utility.yul\":14033:14042   */\n      dup3\n        /* \"#utility.yul\":14029:14048   */\n      add\n        /* \"#utility.yul\":14021:14048   */\n      swap1\n      pop\n        /* \"#utility.yul\":14058:14129   */\n      tag_659\n        /* \"#utility.yul\":14126:14127   */\n      0x00\n        /* \"#utility.yul\":14115:14124   */\n      dup4\n        /* \"#utility.yul\":14111:14128   */\n      add\n        /* \"#utility.yul\":14102:14108   */\n      dup7\n        /* \"#utility.yul\":14058:14129   */\n      tag_623\n      jump\t// in\n    tag_659:\n        /* \"#utility.yul\":14139:14255   */\n      tag_660\n        /* \"#utility.yul\":14251:14253   */\n      0x20\n        /* \"#utility.yul\":14240:14249   */\n      dup4\n        /* \"#utility.yul\":14236:14254   */\n      add\n        /* \"#utility.yul\":14227:14233   */\n      dup6\n        /* \"#utility.yul\":14139:14255   */\n      tag_616\n      jump\t// in\n    tag_660:\n        /* \"#utility.yul\":14265:14333   */\n      tag_661\n        /* \"#utility.yul\":14329:14331   */\n      0x60\n        /* \"#utility.yul\":14318:14327   */\n      dup4\n        /* \"#utility.yul\":14314:14332   */\n      add\n        /* \"#utility.yul\":14305:14311   */\n      dup5\n        /* \"#utility.yul\":14265:14333   */\n      tag_626\n      jump\t// in\n    tag_661:\n        /* \"#utility.yul\":13817:14340   */\n      swap5\n      swap4\n      pop\n      pop\n      pop\n      pop\n      jump\t// out\n        /* \"#utility.yul\":14427:14561   */\n    tag_532:\n        /* \"#utility.yul\":14528:14532   */\n      0x00\n        /* \"#utility.yul\":14551:14554   */\n      dup2\n        /* \"#utility.yul\":14543:14554   */\n      swap1\n      pop\n        /* \"#utility.yul\":14427:14561   */\n      swap2\n      swap1\n      pop\n      jump\t// out\n        /* \"#utility.yul\":14567:14678   */\n    tag_545:\n        /* \"#utility.yul\":14645:14649   */\n      0x00\n        /* \"#utility.yul\":14668:14671   */\n      dup2\n        /* \"#utility.yul\":14660:14671   */\n      swap1\n      pop\n        /* \"#utility.yul\":14567:14678   */\n      swap2\n      swap1\n      pop\n      jump\t// out\n        /* \"#utility.yul\":14684:14824   */\n    tag_528:\n        /* \"#utility.yul\":14785:14791   */\n      0x00\n        /* \"#utility.yul\":14813:14817   */\n      0x03\n        /* \"#utility.yul\":14803:14817   */\n      swap1\n      pop\n        /* \"#utility.yul\":14684:14824   */\n      swap2\n      swap1\n      pop\n      jump\t// out\n        /* \"#utility.yul\":14830:14947   */\n    tag_541:\n        /* \"#utility.yul\":14908:14914   */\n      0x00\n        /* \"#utility.yul\":14936:14940   */\n      0x03\n        /* \"#utility.yul\":14926:14940   */\n      swap1\n      pop\n        /* \"#utility.yul\":14830:14947   */\n      swap2\n      swap1\n      pop\n      jump\t// out\n        /* \"#utility.yul\":14953:15052   */\n    tag_573:\n        /* \"#utility.yul\":15005:15011   */\n      0x00\n        /* \"#utility.yul\":15039:15044   */\n      dup2\n        /* \"#utility.yul\":15033:15045   */\n      mload\n        /* \"#utility.yul\":15023:15045   */\n      swap1\n      pop\n        /* \"#utility.yul\":14953:15052   */\n      swap2\n      swap1\n      pop\n      jump\t// out\n        /* \"#utility.yul\":15058:15205   */\n    tag_538:\n        /* \"#utility.yul\":15162:15166   */\n      0x00\n        /* \"#utility.yul\":15194:15198   */\n      0x20\n        /* \"#utility.yul\":15189:15192   */\n      dup3\n        /* \"#utility.yul\":15185:15199   */\n      add\n        /* \"#utility.yul\":15177:15199   */\n      swap1\n      pop\n        /* \"#utility.yul\":15058:15205   */\n      swap2\n      swap1\n      pop\n      jump\t// out\n        /* \"#utility.yul\":15211:15335   */\n    tag_551:\n        /* \"#utility.yul\":15292:15296   */\n      0x00\n        /* \"#utility.yul\":15324:15328   */\n      0x20\n        /* \"#utility.yul\":15319:15322   */\n      dup3\n        /* \"#utility.yul\":15315:15329   */\n      add\n        /* \"#utility.yul\":15307:15329   */\n      swap1\n      pop\n        /* \"#utility.yul\":15211:15335   */\n      swap2\n      swap1\n      pop\n      jump\t// out\n        /* \"#utility.yul\":15341:15495   */\n    tag_530:\n        /* \"#utility.yul\":15449:15460   */\n      0x00\n        /* \"#utility.yul\":15486:15489   */\n      dup2\n        /* \"#utility.yul\":15471:15489   */\n      swap1\n      pop\n        /* \"#utility.yul\":15341:15495   */\n      swap3\n      swap2\n      pop\n      pop\n      jump\t// out\n        /* \"#utility.yul\":15501:15632   */\n    tag_543:\n        /* \"#utility.yul\":15586:15597   */\n      0x00\n        /* \"#utility.yul\":15623:15626   */\n      dup2\n        /* \"#utility.yul\":15608:15626   */\n      swap1\n      pop\n        /* \"#utility.yul\":15501:15632   */\n      swap3\n      swap2\n      pop\n      pop\n      jump\t// out\n        /* \"#utility.yul\":15638:15785   */\n    tag_593:\n        /* \"#utility.yul\":15739:15750   */\n      0x00\n        /* \"#utility.yul\":15776:15779   */\n      dup2\n        /* \"#utility.yul\":15761:15779   */\n      swap1\n      pop\n        /* \"#utility.yul\":15638:15785   */\n      swap3\n      swap2\n      pop\n      pop\n      jump\t// out\n        /* \"#utility.yul\":15791:15960   */\n    tag_575:\n        /* \"#utility.yul\":15875:15886   */\n      0x00\n        /* \"#utility.yul\":15909:15915   */\n      dup3\n        /* \"#utility.yul\":15904:15907   */\n      dup3\n        /* \"#utility.yul\":15897:15916   */\n      mstore\n        /* \"#utility.yul\":15949:15953   */\n      0x20\n        /* \"#utility.yul\":15944:15947   */\n      dup3\n        /* \"#utility.yul\":15940:15954   */\n      add\n        /* \"#utility.yul\":15925:15954   */\n      swap1\n      pop\n        /* \"#utility.yul\":15791:15960   */\n      swap3\n      swap2\n      pop\n      pop\n      jump\t// out\n        /* \"#utility.yul\":15966:16271   */\n    tag_260:\n        /* \"#utility.yul\":16006:16009   */\n      0x00\n        /* \"#utility.yul\":16025:16045   */\n      tag_676\n        /* \"#utility.yul\":16043:16044   */\n      dup3\n        /* \"#utility.yul\":16025:16045   */\n      tag_622\n      jump\t// in\n    tag_676:\n        /* \"#utility.yul\":16020:16045   */\n      swap2\n      pop\n        /* \"#utility.yul\":16059:16079   */\n      tag_677\n        /* \"#utility.yul\":16077:16078   */\n      dup4\n        /* \"#utility.yul\":16059:16079   */\n      tag_622\n      jump\t// in\n    tag_677:\n        /* \"#utility.yul\":16054:16079   */\n      swap3\n      pop\n        /* \"#utility.yul\":16213:16214   */\n      dup3\n        /* \"#utility.yul\":16145:16211   */\n      0xffffffffffffffffffffffffffffffffffffffffffffffffffffffffffffffff\n        /* \"#utility.yul\":16141:16215   */\n      sub\n        /* \"#utility.yul\":16138:16139   */\n      dup3\n        /* \"#utility.yul\":16135:16216   */\n      gt\n        /* \"#utility.yul\":16132:16239   */\n      iszero\n      tag_678\n      jumpi\n        /* \"#utility.yul\":16219:16237   */\n      tag_679\n      tag_680\n      jump\t// in\n    tag_679:\n        /* \"#utility.yul\":16132:16239   */\n    tag_678:\n        /* \"#utility.yul\":16263:16264   */\n      dup3\n        /* \"#utility.yul\":16260:16261   */\n      dup3\n        /* \"#utility.yul\":16256:16265   */\n      add\n        /* \"#utility.yul\":16249:16265   */\n      swap1\n      pop\n        /* \"#utility.yul\":15966:16271   */\n      swap3\n      swap2\n      pop\n      pop\n      jump\t// out\n        /* \"#utility.yul\":16277:16468   */\n    tag_253:\n        /* \"#utility.yul\":16317:16321   */\n      0x00\n        /* \"#utility.yul\":16337:16357   */\n      tag_682\n        /* \"#utility.yul\":16355:16356   */\n      dup3\n        /* \"#utility.yul\":16337:16357   */\n      tag_622\n      jump\t// in\n    tag_682:\n        /* \"#utility.yul\":16332:16357   */\n      swap2\n      pop\n        /* \"#utility.yul\":16371:16391   */\n      tag_683\n        /* \"#utility.yul\":16389:16390   */\n      dup4\n        /* \"#utility.yul\":16371:16391   */\n      tag_622\n      jump\t// in\n    tag_683:\n        /* \"#utility.yul\":16366:16391   */\n      swap3\n      pop\n        /* \"#utility.yul\":16410:16411   */\n      dup3\n        /* \"#utility.yul\":16407:16408   */\n      dup3\n        /* \"#utility.yul\":16404:16412   */\n      lt\n        /* \"#utility.yul\":16401:16435   */\n      iszero\n      tag_684\n      jumpi\n        /* \"#utility.yul\":16415:16433   */\n      tag_685\n      tag_680\n      jump\t// in\n    tag_685:\n        /* \"#utility.yul\":16401:16435   */\n    tag_684:\n        /* \"#utility.yul\":16460:16461   */\n      dup3\n        /* \"#utility.yul\":16457:16458   */\n      dup3\n        /* \"#utility.yul\":16453:16462   */\n      sub\n        /* \"#utility.yul\":16445:16462   */\n      swap1\n      pop\n        /* \"#utility.yul\":16277:16468   */\n      swap3\n      swap2\n      pop\n      pop\n      jump\t// out\n        /* \"#utility.yul\":16474:16570   */\n    tag_521:\n        /* \"#utility.yul\":16511:16518   */\n      0x00\n        /* \"#utility.yul\":16540:16564   */\n      tag_687\n        /* \"#utility.yul\":16558:16563   */\n      dup3\n        /* \"#utility.yul\":16540:16564   */\n      tag_688\n      jump\t// in\n    tag_687:\n        /* \"#utility.yul\":16529:16564   */\n      swap1\n      pop\n        /* \"#utility.yul\":16474:16570   */\n      swap2\n      swap1\n      pop\n      jump\t// out\n        /* \"#utility.yul\":16576:16666   */\n    tag_555:\n        /* \"#utility.yul\":16610:16617   */\n      0x00\n        /* \"#utility.yul\":16653:16658   */\n      dup2\n        /* \"#utility.yul\":16646:16659   */\n      iszero\n        /* \"#utility.yul\":16639:16660   */\n      iszero\n        /* \"#utility.yul\":16628:16660   */\n      swap1\n      pop\n        /* \"#utility.yul\":16576:16666   */\n      swap2\n      swap1\n      pop\n      jump\t// out\n        /* \"#utility.yul\":16672:16809   */\n    tag_690:\n        /* \"#utility.yul\":16722:16729   */\n      0x00\n        /* \"#utility.yul\":16751:16756   */\n      dup2\n        /* \"#utility.yul\":16740:16756   */\n      swap1\n      pop\n        /* \"#utility.yul\":16757:16803   */\n      tag_692\n        /* \"#utility.yul\":16797:16802   */\n      dup3\n        /* \"#utility.yul\":16757:16803   */\n      tag_693\n      jump\t// in\n    tag_692:\n        /* \"#utility.yul\":16672:16809   */\n      swap2\n      swap1\n      pop\n      jump\t// out\n        /* \"#utility.yul\":16815:16944   */\n    tag_694:\n        /* \"#utility.yul\":16861:16868   */\n      0x00\n        /* \"#utility.yul\":16890:16895   */\n      dup2\n        /* \"#utility.yul\":16879:16895   */\n      swap1\n      pop\n        /* \"#utility.yul\":16896:16938   */\n      tag_696\n        /* \"#utility.yul\":16932:16937   */\n      dup3\n        /* \"#utility.yul\":16896:16938   */\n      tag_697\n      jump\t// in\n    tag_696:\n        /* \"#utility.yul\":16815:16944   */\n      swap2\n      swap1\n      pop\n      jump\t// out\n        /* \"#utility.yul\":16950:17081   */\n    tag_698:\n        /* \"#utility.yul\":16997:17004   */\n      0x00\n        /* \"#utility.yul\":17026:17031   */\n      dup2\n        /* \"#utility.yul\":17015:17031   */\n      swap1\n      pop\n        /* \"#utility.yul\":17032:17075   */\n      tag_700\n        /* \"#utility.yul\":17069:17074   */\n      dup3\n        /* \"#utility.yul\":17032:17075   */\n      tag_701\n      jump\t// in\n    tag_700:\n        /* \"#utility.yul\":16950:17081   */\n      swap2\n      swap1\n      pop\n      jump\t// out\n        /* \"#utility.yul\":17087:17213   */\n    tag_688:\n        /* \"#utility.yul\":17124:17131   */\n      0x00\n        /* \"#utility.yul\":17164:17206   */\n      0xffffffffffffffffffffffffffffffffffffffff\n        /* \"#utility.yul\":17157:17162   */\n      dup3\n        /* \"#utility.yul\":17153:17207   */\n      and\n        /* \"#utility.yul\":17142:17207   */\n      swap1\n      pop\n        /* \"#utility.yul\":17087:17213   */\n      swap2\n      swap1\n      pop\n      jump\t// out\n        /* \"#utility.yul\":17219:17296   */\n    tag_622:\n        /* \"#utility.yul\":17256:17263   */\n      0x00\n        /* \"#utility.yul\":17285:17290   */\n      dup2\n        /* \"#utility.yul\":17274:17290   */\n      swap1\n      pop\n        /* \"#utility.yul\":17219:17296   */\n      swap2\n      swap1\n      pop\n      jump\t// out\n        /* \"#utility.yul\":17302:17388   */\n    tag_629:\n        /* \"#utility.yul\":17337:17344   */\n      0x00\n        /* \"#utility.yul\":17377:17381   */\n      0xff\n        /* \"#utility.yul\":17370:17375   */\n      dup3\n        /* \"#utility.yul\":17366:17382   */\n      and\n        /* \"#utility.yul\":17355:17382   */\n      swap1\n      pop\n        /* \"#utility.yul\":17302:17388   */\n      swap2\n      swap1\n      pop\n      jump\t// out\n        /* \"#utility.yul\":17394:17531   */\n    tag_558:\n        /* \"#utility.yul\":17455:17464   */\n      0x00\n        /* \"#utility.yul\":17488:17525   */\n      tag_706\n        /* \"#utility.yul\":17519:17524   */\n      dup3\n        /* \"#utility.yul\":17488:17525   */\n      tag_690\n      jump\t// in\n    tag_706:\n        /* \"#utility.yul\":17475:17525   */\n      swap1\n      pop\n        /* \"#utility.yul\":17394:17531   */\n      swap2\n      swap1\n      pop\n      jump\t// out\n        /* \"#utility.yul\":17537:17666   */\n    tag_562:\n        /* \"#utility.yul\":17594:17603   */\n      0x00\n        /* \"#utility.yul\":17627:17660   */\n      tag_708\n        /* \"#utility.yul\":17654:17659   */\n      dup3\n        /* \"#utility.yul\":17627:17660   */\n      tag_694\n      jump\t// in\n    tag_708:\n        /* \"#utility.yul\":17614:17660   */\n      swap1\n      pop\n        /* \"#utility.yul\":17537:17666   */\n      swap2\n      swap1\n      pop\n      jump\t// out\n        /* \"#utility.yul\":17672:17803   */\n    tag_566:\n        /* \"#utility.yul\":17730:17739   */\n      0x00\n        /* \"#utility.yul\":17763:17797   */\n      tag_710\n        /* \"#utility.yul\":17791:17796   */\n      dup3\n        /* \"#utility.yul\":17763:17797   */\n      tag_698\n      jump\t// in\n    tag_710:\n        /* \"#utility.yul\":17750:17797   */\n      swap1\n      pop\n        /* \"#utility.yul\":17672:17803   */\n      swap2\n      swap1\n      pop\n      jump\t// out\n        /* \"#utility.yul\":17809:18116   */\n    tag_577:\n        /* \"#utility.yul\":17877:17878   */\n      0x00\n        /* \"#utility.yul\":17887:18000   */\n    tag_712:\n        /* \"#utility.yul\":17901:17907   */\n      dup4\n        /* \"#utility.yul\":17898:17899   */\n      dup2\n        /* \"#utility.yul\":17895:17908   */\n      lt\n        /* \"#utility.yul\":17887:18000   */\n      iszero\n      tag_714\n      jumpi\n        /* \"#utility.yul\":17986:17987   */\n      dup1\n        /* \"#utility.yul\":17981:17984   */\n      dup3\n        /* \"#utility.yul\":17977:17988   */\n      add\n        /* \"#utility.yul\":17971:17989   */\n      mload\n        /* \"#utility.yul\":17967:17968   */\n      dup2\n        /* \"#utility.yul\":17962:17965   */\n      dup5\n        /* \"#utility.yul\":17958:17969   */\n      add\n        /* \"#utility.yul\":17951:17990   */\n      mstore\n        /* \"#utility.yul\":17923:17925   */\n      0x20\n        /* \"#utility.yul\":17920:17921   */\n      dup2\n        /* \"#utility.yul\":17916:17926   */\n      add\n        /* \"#utility.yul\":17911:17926   */\n      swap1\n      pop\n        /* \"#utility.yul\":17887:18000   */\n      jump(tag_712)\n    tag_714:\n        /* \"#utility.yul\":18018:18024   */\n      dup4\n        /* \"#utility.yul\":18015:18016   */\n      dup2\n        /* \"#utility.yul\":18012:18025   */\n      gt\n        /* \"#utility.yul\":18009:18110   */\n      iszero\n      tag_715\n      jumpi\n        /* \"#utility.yul\":18098:18099   */\n      0x00\n        /* \"#utility.yul\":18089:18095   */\n      dup5\n        /* \"#utility.yul\":18084:18087   */\n      dup5\n        /* \"#utility.yul\":18080:18096   */\n      add\n        /* \"#utility.yul\":18073:18100   */\n      mstore\n        /* \"#utility.yul\":18009:18110   */\n    tag_715:\n        /* \"#utility.yul\":17858:18116   */\n      pop\n        /* \"#utility.yul\":17809:18116   */\n      pop\n      pop\n      pop\n      jump\t// out\n        /* \"#utility.yul\":18122:18355   */\n    tag_163:\n        /* \"#utility.yul\":18161:18164   */\n      0x00\n        /* \"#utility.yul\":18184:18208   */\n      tag_717\n        /* \"#utility.yul\":18202:18207   */\n      dup3\n        /* \"#utility.yul\":18184:18208   */\n      tag_622\n      jump\t// in\n    tag_717:\n        /* \"#utility.yul\":18175:18208   */\n      swap2\n      pop\n        /* \"#utility.yul\":18230:18296   */\n      0xffffffffffffffffffffffffffffffffffffffffffffffffffffffffffffffff\n        /* \"#utility.yul\":18223:18228   */\n      dup3\n        /* \"#utility.yul\":18220:18297   */\n      eq\n        /* \"#utility.yul\":18217:18320   */\n      iszero\n      tag_718\n      jumpi\n        /* \"#utility.yul\":18300:18318   */\n      tag_719\n      tag_680\n      jump\t// in\n    tag_719:\n        /* \"#utility.yul\":18217:18320   */\n    tag_718:\n        /* \"#utility.yul\":18347:18348   */\n      0x01\n        /* \"#utility.yul\":18340:18345   */\n      dup3\n        /* \"#utility.yul\":18336:18349   */\n      add\n        /* \"#utility.yul\":18329:18349   */\n      swap1\n      pop\n        /* \"#utility.yul\":18122:18355   */\n      swap2\n      swap1\n      pop\n      jump\t// out\n        /* \"#utility.yul\":18361:18528   */\n    tag_318:\n        /* \"#utility.yul\":18398:18401   */\n      0x00\n        /* \"#utility.yul\":18421:18443   */\n      tag_721\n        /* \"#utility.yul\":18437:18442   */\n      dup3\n        /* \"#utility.yul\":18421:18443   */\n      tag_629\n      jump\t// in\n    tag_721:\n        /* \"#utility.yul\":18412:18443   */\n      swap2\n      pop\n        /* \"#utility.yul\":18465:18469   */\n      0xff\n        /* \"#utility.yul\":18458:18463   */\n      dup3\n        /* \"#utility.yul\":18455:18470   */\n      eq\n        /* \"#utility.yul\":18452:18493   */\n      iszero\n      tag_722\n      jumpi\n        /* \"#utility.yul\":18473:18491   */\n      tag_723\n      tag_680\n      jump\t// in\n    tag_723:\n        /* \"#utility.yul\":18452:18493   */\n    tag_722:\n        /* \"#utility.yul\":18520:18521   */\n      0x01\n        /* \"#utility.yul\":18513:18518   */\n      dup3\n        /* \"#utility.yul\":18509:18522   */\n      add\n        /* \"#utility.yul\":18502:18522   */\n      swap1\n      pop\n        /* \"#utility.yul\":18361:18528   */\n      swap2\n      swap1\n      pop\n      jump\t// out\n        /* \"#utility.yul\":18534:18714   */\n    tag_680:\n        /* \"#utility.yul\":18582:18659   */\n      0x4e487b7100000000000000000000000000000000000000000000000000000000\n        /* \"#utility.yul\":18579:18580   */\n      0x00\n        /* \"#utility.yul\":18572:18660   */\n      mstore\n        /* \"#utility.yul\":18679:18683   */\n      0x11\n        /* \"#utility.yul\":18676:18677   */\n      0x04\n        /* \"#utility.yul\":18669:18684   */\n      mstore\n        /* \"#utility.yul\":18703:18707   */\n      0x24\n        /* \"#utility.yul\":18700:18701   */\n      0x00\n        /* \"#utility.yul\":18693:18708   */\n      revert\n        /* \"#utility.yul\":18720:18900   */\n    tag_43:\n        /* \"#utility.yul\":18768:18845   */\n      0x4e487b7100000000000000000000000000000000000000000000000000000000\n        /* \"#utility.yul\":18765:18766   */\n      0x00\n        /* \"#utility.yul\":18758:18846   */\n      mstore\n        /* \"#utility.yul\":18865:18869   */\n      0x21\n        /* \"#utility.yul\":18862:18863   */\n      0x04\n        /* \"#utility.yul\":18855:18870   */\n      mstore\n        /* \"#utility.yul\":18889:18893   */\n      0x24\n        /* \"#utility.yul\":18886:18887   */\n      0x00\n        /* \"#utility.yul\":18879:18894   */\n      revert\n        /* \"#utility.yul\":18906:19086   */\n    tag_60:\n        /* \"#utility.yul\":18954:19031   */\n      0x4e487b7100000000000000000000000000000000000000000000000000000000\n        /* \"#utility.yul\":18951:18952   */\n      0x00\n        /* \"#utility.yul\":18944:19032   */\n      mstore\n        /* \"#utility.yul\":19051:19055   */\n      0x32\n        /* \"#utility.yul\":19048:19049   */\n      0x04\n        /* \"#utility.yul\":19041:19056   */\n      mstore\n        /* \"#utility.yul\":19075:19079   */\n      0x24\n        /* \"#utility.yul\":19072:19073   */\n      0x00\n        /* \"#utility.yul\":19065:19080   */\n      revert\n        /* \"#utility.yul\":19215:19332   */\n    tag_502:\n        /* \"#utility.yul\":19324:19325   */\n      0x00\n        /* \"#utility.yul\":19321:19322   */\n      dup1\n        /* \"#utility.yul\":19314:19326   */\n      revert\n        /* \"#utility.yul\":19338:19440   */\n    tag_579:\n        /* \"#utility.yul\":19379:19385   */\n      0x00\n        /* \"#utility.yul\":19430:19432   */\n      0x1f\n        /* \"#utility.yul\":19426:19433   */\n      not\n        /* \"#utility.yul\":19421:19423   */\n      0x1f\n        /* \"#utility.yul\":19414:19419   */\n      dup4\n        /* \"#utility.yul\":19410:19424   */\n      add\n        /* \"#utility.yul\":19406:19434   */\n      and\n        /* \"#utility.yul\":19396:19434   */\n      swap1\n      pop\n        /* \"#utility.yul\":19338:19440   */\n      swap2\n      swap1\n      pop\n      jump\t// out\n        /* \"#utility.yul\":19446:19614   */\n    tag_584:\n        /* \"#utility.yul\":19586:19606   */\n      0x696e76616c69642062657420616d6f756e740000000000000000000000000000\n        /* \"#utility.yul\":19582:19583   */\n      0x00\n        /* \"#utility.yul\":19574:19580   */\n      dup3\n        /* \"#utility.yul\":19570:19584   */\n      add\n        /* \"#utility.yul\":19563:19607   */\n      mstore\n        /* \"#utility.yul\":19446:19614   */\n      pop\n      jump\t// out\n        /* \"#utility.yul\":19620:19790   */\n    tag_589:\n        /* \"#utility.yul\":19760:19782   */\n      0x4661696c656420746f2073656e64204574686572000000000000000000000000\n        /* \"#utility.yul\":19756:19757   */\n      0x00\n        /* \"#utility.yul\":19748:19754   */\n      dup3\n        /* \"#utility.yul\":19744:19758   */\n      add\n        /* \"#utility.yul\":19737:19783   */\n      mstore\n        /* \"#utility.yul\":19620:19790   */\n      pop\n      jump\t// out\n        /* \"#utility.yul\":19796:19910   */\n    tag_595:\n      pop\n      jump\t// out\n        /* \"#utility.yul\":19916:20089   */\n    tag_600:\n        /* \"#utility.yul\":20056:20081   */\n      0x72657175697265645f62657420697320746f6f206c6f77000000000000000000\n        /* \"#utility.yul\":20052:20053   */\n      0x00\n        /* \"#utility.yul\":20044:20050   */\n      dup3\n        /* \"#utility.yul\":20040:20054   */\n      add\n        /* \"#utility.yul\":20033:20082   */\n      mstore\n        /* \"#utility.yul\":19916:20089   */\n      pop\n      jump\t// out\n        /* \"#utility.yul\":20095:20213   */\n    tag_693:\n        /* \"#utility.yul\":20181:20182   */\n      0x03\n        /* \"#utility.yul\":20174:20179   */\n      dup2\n        /* \"#utility.yul\":20171:20183   */\n      lt\n        /* \"#utility.yul\":20161:20207   */\n      tag_736\n      jumpi\n        /* \"#utility.yul\":20187:20205   */\n      tag_737\n      tag_43\n      jump\t// in\n    tag_737:\n        /* \"#utility.yul\":20161:20207   */\n    tag_736:\n        /* \"#utility.yul\":20095:20213   */\n      pop\n      jump\t// out\n        /* \"#utility.yul\":20219:20333   */\n    tag_697:\n        /* \"#utility.yul\":20301:20302   */\n      0x03\n        /* \"#utility.yul\":20294:20299   */\n      dup2\n        /* \"#utility.yul\":20291:20303   */\n      lt\n        /* \"#utility.yul\":20281:20327   */\n      tag_739\n      jumpi\n        /* \"#utility.yul\":20307:20325   */\n      tag_740\n      tag_43\n      jump\t// in\n    tag_740:\n        /* \"#utility.yul\":20281:20327   */\n    tag_739:\n        /* \"#utility.yul\":20219:20333   */\n      pop\n      jump\t// out\n        /* \"#utility.yul\":20339:20454   */\n    tag_701:\n        /* \"#utility.yul\":20422:20423   */\n      0x04\n        /* \"#utility.yul\":20415:20420   */\n      dup2\n        /* \"#utility.yul\":20412:20424   */\n      lt\n        /* \"#utility.yul\":20402:20448   */\n      tag_742\n      jumpi\n        /* \"#utility.yul\":20428:20446   */\n      tag_743\n      tag_43\n      jump\t// in\n    tag_743:\n        /* \"#utility.yul\":20402:20448   */\n    tag_742:\n        /* \"#utility.yul\":20339:20454   */\n      pop\n      jump\t// out\n        /* \"#utility.yul\":20460:20582   */\n    tag_498:\n        /* \"#utility.yul\":20533:20557   */\n      tag_745\n        /* \"#utility.yul\":20551:20556   */\n      dup2\n        /* \"#utility.yul\":20533:20557   */\n      tag_622\n      jump\t// in\n    tag_745:\n        /* \"#utility.yul\":20526:20531   */\n      dup2\n        /* \"#utility.yul\":20523:20558   */\n      eq\n        /* \"#utility.yul\":20513:20576   */\n      tag_746\n      jumpi\n        /* \"#utility.yul\":20572:20573   */\n      0x00\n        /* \"#utility.yul\":20569:20570   */\n      dup1\n        /* \"#utility.yul\":20562:20574   */\n      revert\n        /* \"#utility.yul\":20513:20576   */\n    tag_746:\n        /* \"#utility.yul\":20460:20582   */\n      pop\n      jump\t// out\n    stop\n    data_024d23689c7c0d36b0295c402b03cbbb30a16b10831d85b0a50598b30664ffd5 546865726520697320616c72656164792061206d61726b2061742074686520676976656e20636f6f7264696e617465732e\n    data_eac49ff80c6743e832d532d9de9103c6c60c67cff7ae923e20d995eb446b0298 4265742073686f756c642062652067726561746572207468616e2061206665652e\n\n    auxdata: 0xa26469706673582212202bd2e4ce26a384ce19b9af5dfe53685d0034d8cd6e41efe674b59b0245a947e064736f6c63430008070033\n}\n",
				"bytecode": {
					"linkReferences": {},
					"object": "608060405234801561001057600080fd5b50612c94806100206000396000f3fe6080604052600436106100555760003560e01c80633f10d76b1461005a57806347e1d55014610098578063cde9ef78146100d5578063cfc2f5ff14610112578063efaa55a01461013b578063f692807014610157575b600080fd5b34801561006657600080fd5b50610081600480360381019061007c91906122c9565b610182565b60405161008f92919061266c565b60405180910390f35b3480156100a457600080fd5b506100bf60048036038101906100ba919061229c565b610990565b6040516100cc919061271e565b60405180910390f35b3480156100e157600080fd5b506100fc60048036038101906100f7919061229c565b610c19565b604051610109919061273a565b60405180910390f35b34801561011e57600080fd5b50610139600480360381019061013491906122c9565b610ebf565b005b6101556004803603810190610150919061229c565b610f21565b005b34801561016357600080fd5b5061016c610f80565b604051610179919061273a565b60405180910390f35b600060606001548511156101d15760006040518060400160405280601481526020017f4e6f20737563682067616d65206578697374732e00000000000000000000000081525091509150610988565b60008060008781526020019081526020016000209050600160028111156101fb576101fa612ac7565b5b8160060160019054906101000a900460ff16600281111561021f5761021e612ac7565b5b146102665760006040518060400160405280601781526020017f47616d65206973206e6f7420696e2070726f67726573730000000000000000008152509250925050610988565b600061027182610f86565b9050600073ffffffffffffffffffffffffffffffffffffffff16816000015173ffffffffffffffffffffffffffffffffffffffff1614156102ef5760006040518060400160405280601981526020017f43757272656e7420706c61796572206e6f7420666f756e642e00000000000000815250935093505050610988565b6000600381111561030357610302612ac7565b5b8260060160009054906101000a900460ff16600381111561032757610326612ac7565b5b1461036f5760006040518060400160405280601b81526020017f5468652067616d652068617320616c726561647920656e6465642e0000000000815250935093505050610988565b806000015173ffffffffffffffffffffffffffffffffffffffff163373ffffffffffffffffffffffffffffffffffffffff16146103e95760006040518060400160405280601481526020017f4974206973206e6f7420796f7572207475726e2e000000000000000000000000815250935093505050610988565b600060028111156103fd576103fc612ac7565b5b82600701876003811061041357610412612af6565b5b01866003811061042657610425612af6565b5b602091828204019190069054906101000a900460ff16600281111561044e5761044d612ac7565b5b14610479576000604051806060016040528060318152602001612c0d60319139935093505050610988565b8160060160029054906101000a900460ff168260070187600381106104a1576104a0612af6565b5b0186600381106104b4576104b3612af6565b5b602091828204019190066101000a81548160ff021916908360028111156104de576104dd612ac7565b5b02179055507f444b0deb3730bdca0248ebb6366b24e3b793732b3555a5bfaad868ecef34ffc18782888860405161051894939291906127a7565b60405180910390a160006105d483600701600380602002604051908101604052809291906000905b828210156105cb578382016003806020026040519081016040528092919082600380156105b7576020028201916000905b82829054906101000a900460ff16600281111561059157610590612ac7565b5b815260200190600101906020826000010492830192600103820291508084116105715790505b505050505081526020019060010190610540565b5050505061112a565b9050600060038111156105ea576105e9612ac7565b5b8160038111156105fd576105fc612ac7565b5b1461096557808360060160006101000a81548160ff0219169083600381111561062957610628612ac7565b5b021790555060028360060160016101000a81548160ff0219169083600281111561065657610655612ac7565b5b021790555060038081111561066e5761066d612ac7565b5b81600381111561068157610680612ac7565b5b1415610847576000808460020160000160009054906101000a900473ffffffffffffffffffffffffffffffffffffffff1673ffffffffffffffffffffffffffffffffffffffff1685600201600101546040516106dc90612657565b60006040518083038185875af1925050503d8060008114610719576040519150601f19603f3d011682016040523d82523d6000602084013e61071e565b606091505b509150915081610763576040517f08c379a000000000000000000000000000000000000000000000000000000000815260040161075a906126de565b60405180910390fd5b8460040160000160009054906101000a900473ffffffffffffffffffffffffffffffffffffffff1673ffffffffffffffffffffffffffffffffffffffff1685600401600101546040516107b590612657565b60006040518083038185875af1925050503d80600081146107f2576040519150601f19603f3d011682016040523d82523d6000602084013e6107f7565b606091505b50809250819350505081610840576040517f08c379a0000000000000000000000000000000000000000000000000000000008152600401610837906126de565b60405180910390fd5b505061090e565b600061085284610f86565b9050600080826000015173ffffffffffffffffffffffffffffffffffffffff16866000015460405161088390612657565b60006040518083038185875af1925050503d80600081146108c0576040519150601f19603f3d011682016040523d82523d6000602084013e6108c5565b606091505b50915091508161090a576040517f08c379a0000000000000000000000000000000000000000000000000000000008152600401610901906126de565b60405180910390fd5b5050505b7f132b564c6f96092065580fd28989d181dfbbfe4aa2fb7fb1eda8af68ba3073e0888260405161093f92919061277e565b60405180910390a160016040518060200160405280600081525094509450505050610988565b61096e836112b8565b600160405180602001604052806000815250945094505050505b935093915050565b61099861203c565b600080838152602001908152602001600020604051806101000160405290816000820154815260200160018201548152602001600282016040518060400160405290816000820160009054906101000a900473ffffffffffffffffffffffffffffffffffffffff1673ffffffffffffffffffffffffffffffffffffffff1673ffffffffffffffffffffffffffffffffffffffff1681526020016001820154815250508152602001600482016040518060400160405290816000820160009054906101000a900473ffffffffffffffffffffffffffffffffffffffff1673ffffffffffffffffffffffffffffffffffffffff1673ffffffffffffffffffffffffffffffffffffffff16815260200160018201548152505081526020016006820160009054906101000a900460ff166003811115610ad757610ad6612ac7565b5b6003811115610ae957610ae8612ac7565b5b81526020016006820160019054906101000a900460ff166002811115610b1257610b11612ac7565b5b6002811115610b2457610b23612ac7565b5b81526020016006820160029054906101000a900460ff166002811115610b4d57610b4c612ac7565b5b6002811115610b5f57610b5e612ac7565b5b815260200160078201600380602002604051908101604052809291906000905b82821015610c0a57838201600380602002604051908101604052809291908260038015610bf6576020028201916000905b82829054906101000a900460ff166002811115610bd057610bcf612ac7565b5b81526020019060010190602082600001049283019260010382029150808411610bb05790505b505050505081526020019060010190610b7f565b50505050815250509050919050565b6000633b9aca008211610c61576040517f08c379a0000000000000000000000000000000000000000000000000000000008152600401610c58906126fe565b60405180910390fd5b610c6961203c565b60018160c001906002811115610c8257610c81612ac7565b5b90816002811115610c9657610c95612ac7565b5b8152505060008160a001906002811115610cb357610cb2612ac7565b5b90816002811115610cc757610cc6612ac7565b5b815250508281602001818152505060016000815480929190610ce890612a25565b9190505550806000806001548152602001908152602001600020600082015181600001556020820151816001015560408201518160020160008201518160000160006101000a81548173ffffffffffffffffffffffffffffffffffffffff021916908373ffffffffffffffffffffffffffffffffffffffff16021790555060208201518160010155505060608201518160040160008201518160000160006101000a81548173ffffffffffffffffffffffffffffffffffffffff021916908373ffffffffffffffffffffffffffffffffffffffff16021790555060208201518160010155505060808201518160060160006101000a81548160ff02191690836003811115610df957610df8612ac7565b5b021790555060a08201518160060160016101000a81548160ff02191690836002811115610e2957610e28612ac7565b5b021790555060c08201518160060160026101000a81548160ff02191690836002811115610e5957610e58612ac7565b5b021790555060e082015181600701906003610e759291906120c9565b509050507fc3e0f84839dc888c892a013d10c8f9d6dc05a21a879d0ce468ca558013e9121c60015433604051610eac929190612755565b60405180910390a1600154915050919050565b60006060610ece858585610182565b8092508193505050818190610f19576040517f08c379a0000000000000000000000000000000000000000000000000000000008152600401610f10919061269c565b60405180910390fd5b505050505050565b60006060610f2f3484611359565b8092508193505050818190610f7a576040517f08c379a0000000000000000000000000000000000000000000000000000000008152600401610f71919061269c565b60405180910390fd5b50505050565b60015481565b610f8e612117565b60016002811115610fa257610fa1612ac7565b5b8260060160029054906101000a900460ff166002811115610fc657610fc5612ac7565b5b141561104257816002016040518060400160405290816000820160009054906101000a900473ffffffffffffffffffffffffffffffffffffffff1673ffffffffffffffffffffffffffffffffffffffff1673ffffffffffffffffffffffffffffffffffffffff1681526020016001820154815250509050611125565b60028081111561105557611054612ac7565b5b8260060160029054906101000a900460ff16600281111561107957611078612ac7565b5b14156110f557816004016040518060400160405290816000820160009054906101000a900473ffffffffffffffffffffffffffffffffffffffff1673ffffffffffffffffffffffffffffffffffffffff1673ffffffffffffffffffffffffffffffffffffffff1681526020016001820154815250509050611125565b6040518060400160405280600073ffffffffffffffffffffffffffffffffffffffff168152602001600081525090505b919050565b60008061113683611821565b90506001600281111561114c5761114b612ac7565b5b81600281111561115f5761115e612ac7565b5b141561116f5760019150506112b3565b60028081111561118257611181612ac7565b5b81600281111561119557611194612ac7565b5b14156111a55760029150506112b3565b6111ae83611a14565b9050600160028111156111c4576111c3612ac7565b5b8160028111156111d7576111d6612ac7565b5b14156111e75760019150506112b3565b6002808111156111fa576111f9612ac7565b5b81600281111561120d5761120c612ac7565b5b141561121d5760029150506112b3565b61122683611c07565b90506001600281111561123c5761123b612ac7565b5b81600281111561124f5761124e612ac7565b5b141561125f5760019150506112b3565b60028081111561127257611271612ac7565b5b81600281111561128557611284612ac7565b5b14156112955760029150506112b3565b61129e83611f7b565b156112ad5760039150506112b3565b60009150505b919050565b600160028111156112cc576112cb612ac7565b5b8160060160029054906101000a900460ff1660028111156112f0576112ef612ac7565b5b14156113285760028160060160026101000a81548160ff0219169083600281111561131e5761131d612ac7565b5b0217905550611356565b60018160060160026101000a81548160ff021916908360028111156113505761134f612ac7565b5b02179055505b50565b60006060633b9aca00841161138c576000604051806060016040528060218152602001612c3e602191399150915061181a565b60008414156113d65760006040518060400160405280600f81526020017f4e6f2065746820737461636b65642e00000000000000000000000000000000008152509150915061181a565b6001548311156114215760006040518060400160405280601481526020017f4e6f20737563682067616d65206578697374732e0000000000000000000000008152509150915061181a565b600060405180604001604052803373ffffffffffffffffffffffffffffffffffffffff168152602001633b9aca008761145a91906128fa565b815250905060008060008681526020019081526020016000209050806001015486146114bb576040517f08c379a00000000000000000000000000000000000000000000000000000000081526004016114b2906126be565b60405180910390fd5b600073ffffffffffffffffffffffffffffffffffffffff168160020160000160009054906101000a900473ffffffffffffffffffffffffffffffffffffffff1673ffffffffffffffffffffffffffffffffffffffff16141561160557818160020160008201518160000160006101000a81548173ffffffffffffffffffffffffffffffffffffffff021916908373ffffffffffffffffffffffffffffffffffffffff16021790555060208201518160010155905050633b9aca008661158091906128fa565b81600001600082825461159391906128a4565b925050819055507fb7b142da4d5e7153b4b889be2bc2a3f6c16ed957358651736fd8d54cd3067e838583600160028111156115d1576115d0612ac7565b5b6040516115e0939291906127ec565b60405180910390a160016040518060200160405280600081525093509350505061181a565b600073ffffffffffffffffffffffffffffffffffffffff168160040160000160009054906101000a900473ffffffffffffffffffffffffffffffffffffffff1673ffffffffffffffffffffffffffffffffffffffff1614156117db573373ffffffffffffffffffffffffffffffffffffffff168160020160000160009054906101000a900473ffffffffffffffffffffffffffffffffffffffff1673ffffffffffffffffffffffffffffffffffffffff1614156116c157600080fd5b818160040160008201518160000160006101000a81548173ffffffffffffffffffffffffffffffffffffffff021916908373ffffffffffffffffffffffffffffffffffffffff16021790555060208201518160010155905050633b9aca008661172a91906128fa565b81600001600082825461173d91906128a4565b925050819055507fb7b142da4d5e7153b4b889be2bc2a3f6c16ed957358651736fd8d54cd3067e83858360028081111561177a57611779612ac7565b5b604051611789939291906127ec565b60405180910390a160018160060160016101000a81548160ff021916908360028111156117b9576117b8612ac7565b5b021790555060016040518060200160405280600081525093509350505061181a565b60006040518060400160405280601081526020017f416c6c2073656174732074616b656e2e000000000000000000000000000000008152509350935050505b9250929050565b600080600090505b60038160ff161015611a0957828160ff166003811061184b5761184a612af6565b5b602002015160016003811061186357611862612af6565b5b6020020151600281111561187a57611879612ac7565b5b838260ff16600381106118905761188f612af6565b5b60200201516000600381106118a8576118a7612af6565b5b602002015160028111156118bf576118be612ac7565b5b1480156119535750828160ff16600381106118dd576118dc612af6565b5b60200201516002600381106118f5576118f4612af6565b5b6020020151600281111561190c5761190b612ac7565b5b838260ff166003811061192257611921612af6565b5b602002015160016003811061193a57611939612af6565b5b6020020151600281111561195157611950612ac7565b5b145b80156119b657506000600281111561196e5761196d612ac7565b5b838260ff166003811061198457611983612af6565b5b602002015160006003811061199c5761199b612af6565b5b602002015160028111156119b3576119b2612ac7565b5b14155b156119f657828160ff16600381106119d1576119d0612af6565b5b60200201516000600381106119e9576119e8612af6565b5b6020020151915050611a0f565b8080611a0190612a6e565b915050611829565b50600090505b919050565b600080600090505b60038160ff161015611bfc5782600160038110611a3c57611a3b612af6565b5b60200201518160ff1660038110611a5657611a55612af6565b5b60200201516002811115611a6d57611a6c612ac7565b5b83600060038110611a8157611a80612af6565b5b60200201518260ff1660038110611a9b57611a9a612af6565b5b60200201516002811115611ab257611ab1612ac7565b5b148015611b46575082600260038110611ace57611acd612af6565b5b60200201518160ff1660038110611ae857611ae7612af6565b5b60200201516002811115611aff57611afe612ac7565b5b83600160038110611b1357611b12612af6565b5b60200201518260ff1660038110611b2d57611b2c612af6565b5b60200201516002811115611b4457611b43612ac7565b5b145b8015611ba9575060006002811115611b6157611b60612ac7565b5b83600060038110611b7557611b74612af6565b5b60200201518260ff1660038110611b8f57611b8e612af6565b5b60200201516002811115611ba657611ba5612ac7565b5b14155b15611be95782600060038110611bc257611bc1612af6565b5b60200201518160ff1660038110611bdc57611bdb612af6565b5b6020020151915050611c02565b8080611bf490612a6e565b915050611a1c565b50600090505b919050565b600081600160038110611c1d57611c1c612af6565b5b6020020151600160038110611c3557611c34612af6565b5b60200201516002811115611c4c57611c4b612ac7565b5b82600060038110611c6057611c5f612af6565b5b6020020151600060038110611c7857611c77612af6565b5b60200201516002811115611c8f57611c8e612ac7565b5b148015611d1f575081600260038110611cab57611caa612af6565b5b6020020151600260038110611cc357611cc2612af6565b5b60200201516002811115611cda57611cd9612ac7565b5b82600160038110611cee57611ced612af6565b5b6020020151600160038110611d0657611d05612af6565b5b60200201516002811115611d1d57611d1c612ac7565b5b145b8015611d80575060006002811115611d3a57611d39612ac7565b5b82600060038110611d4e57611d4d612af6565b5b6020020151600060038110611d6657611d65612af6565b5b60200201516002811115611d7d57611d7c612ac7565b5b14155b15611dbd5781600060038110611d9957611d98612af6565b5b6020020151600060038110611db157611db0612af6565b5b60200201519050611f76565b81600160038110611dd157611dd0612af6565b5b6020020151600160038110611de957611de8612af6565b5b60200201516002811115611e0057611dff612ac7565b5b82600060038110611e1457611e13612af6565b5b6020020151600260038110611e2c57611e2b612af6565b5b60200201516002811115611e4357611e42612ac7565b5b148015611ed3575081600260038110611e5f57611e5e612af6565b5b6020020151600060038110611e7757611e76612af6565b5b60200201516002811115611e8e57611e8d612ac7565b5b82600160038110611ea257611ea1612af6565b5b6020020151600160038110611eba57611eb9612af6565b5b60200201516002811115611ed157611ed0612ac7565b5b145b8015611f34575060006002811115611eee57611eed612ac7565b5b82600060038110611f0257611f01612af6565b5b6020020151600260038110611f1a57611f19612af6565b5b60200201516002811115611f3157611f30612ac7565b5b14155b15611f715781600060038110611f4d57611f4c612af6565b5b6020020151600260038110611f6557611f64612af6565b5b60200201519050611f76565b600090505b919050565b600080600090505b60038160ff1610156120315760005b60038160ff16101561201d5760006002811115611fb257611fb1612ac7565b5b848360ff1660038110611fc857611fc7612af6565b5b60200201518260ff1660038110611fe257611fe1612af6565b5b60200201516002811115611ff957611ff8612ac7565b5b141561200a57600092505050612037565b808061201590612a6e565b915050611f92565b50808061202990612a6e565b915050611f83565b50600190505b919050565b604051806101000160405280600081526020016000815260200161205e612117565b815260200161206b612117565b81526020016000600381111561208457612083612ac7565b5b81526020016000600281111561209d5761209c612ac7565b5b8152602001600060028111156120b6576120b5612ac7565b5b81526020016120c3612147565b81525090565b8260038101928215612106579160200282015b82811115612105578251829060036120f5929190612174565b50916020019190600101906120dc565b5b509050612113919061221d565b5090565b6040518060400160405280600073ffffffffffffffffffffffffffffffffffffffff168152602001600081525090565b60405180606001604052806003905b61215e612241565b8152602001906001900390816121565790505090565b826003601f0160209004810192821561220c5791602002820160005b838211156121dd57835183826101000a81548160ff021916908360028111156121bc576121bb612ac7565b5b02179055509260200192600101602081600001049283019260010302612190565b801561220a5782816101000a81549060ff02191690556001016020816000010492830192600103026121dd565b505b5090506122199190612263565b5090565b5b8082111561223d57600081816122349190612280565b5060010161221e565b5090565b6040518060600160405280600390602082028036833780820191505090505090565b5b8082111561227c576000816000905550600101612264565b5090565b5060009055565b60008135905061229681612bf5565b92915050565b6000602082840312156122b2576122b1612b25565b5b60006122c084828501612287565b91505092915050565b6000806000606084860312156122e2576122e1612b25565b5b60006122f086828701612287565b935050602061230186828701612287565b925050604061231286828701612287565b9150509250925092565b600061232883836123c1565b60608301905092915050565b60006123408383612427565b60208301905092915050565b6123558161292e565b82525050565b6123648161292e565b82525050565b61237381612837565b61237d8184612872565b925061238882612823565b8060005b838110156123b95781516123a0878261231c565b96506123ab83612858565b92505060018101905061238c565b505050505050565b6123ca81612842565b6123d4818461287d565b92506123df8261282d565b8060005b838110156124105781516123f78782612334565b965061240283612865565b9250506001810190506123e3565b505050505050565b61242181612940565b82525050565b612430816129bc565b82525050565b61243f816129ce565b82525050565b61244e816129e0565b82525050565b61245d816129e0565b82525050565b600061246e8261284d565b6124788185612893565b93506124888185602086016129f2565b61249181612b2a565b840191505092915050565b60006124a9601283612893565b91506124b482612b3b565b602082019050919050565b60006124cc601483612893565b91506124d782612b64565b602082019050919050565b60006124ef600083612888565b91506124fa82612b8d565b600082019050919050565b6000612512601783612893565b915061251d82612b90565b602082019050919050565b6102408201600082015161253f600085018261262a565b506020820151612552602085018261262a565b50604082015161256560408501826125cc565b50606082015161257860808501826125cc565b50608082015161258b60c0850182612445565b5060a082015161259e60e0850182612436565b5060c08201516125b2610100850182612427565b5060e08201516125c661012085018261236a565b50505050565b6040820160008201516125e2600085018261234c565b5060208201516125f5602085018261262a565b50505050565b604082016000820151612611600085018261234c565b506020820151612624602085018261262a565b50505050565b612633816129a5565b82525050565b612642816129a5565b82525050565b612651816129af565b82525050565b6000612662826124e2565b9150819050919050565b60006040820190506126816000830185612418565b81810360208301526126938184612463565b90509392505050565b600060208201905081810360008301526126b68184612463565b905092915050565b600060208201905081810360008301526126d78161249c565b9050919050565b600060208201905081810360008301526126f7816124bf565b9050919050565b6000602082019050818103600083015261271781612505565b9050919050565b6000610240820190506127346000830184612528565b92915050565b600060208201905061274f6000830184612639565b92915050565b600060408201905061276a6000830185612639565b612777602083018461235b565b9392505050565b60006040820190506127936000830185612639565b6127a06020830184612454565b9392505050565b600060a0820190506127bc6000830187612639565b6127c960208301866125fb565b6127d66060830185612639565b6127e36080830184612639565b95945050505050565b60006080820190506128016000830186612639565b61280e60208301856125fb565b61281b6060830184612648565b949350505050565b6000819050919050565b6000819050919050565b600060039050919050565b600060039050919050565b600081519050919050565b6000602082019050919050565b6000602082019050919050565b600081905092915050565b600081905092915050565b600081905092915050565b600082825260208201905092915050565b60006128af826129a5565b91506128ba836129a5565b9250827fffffffffffffffffffffffffffffffffffffffffffffffffffffffffffffffff038211156128ef576128ee612a98565b5b828201905092915050565b6000612905826129a5565b9150612910836129a5565b92508282101561292357612922612a98565b5b828203905092915050565b600061293982612985565b9050919050565b60008115159050919050565b600081905061295a82612bb9565b919050565b600081905061296d82612bcd565b919050565b600081905061298082612be1565b919050565b600073ffffffffffffffffffffffffffffffffffffffff82169050919050565b6000819050919050565b600060ff82169050919050565b60006129c78261294c565b9050919050565b60006129d98261295f565b9050919050565b60006129eb82612972565b9050919050565b60005b83811015612a105780820151818401526020810190506129f5565b83811115612a1f576000848401525b50505050565b6000612a30826129a5565b91507fffffffffffffffffffffffffffffffffffffffffffffffffffffffffffffffff821415612a6357612a62612a98565b5b600182019050919050565b6000612a79826129af565b915060ff821415612a8d57612a8c612a98565b5b600182019050919050565b7f4e487b7100000000000000000000000000000000000000000000000000000000600052601160045260246000fd5b7f4e487b7100000000000000000000000000000000000000000000000000000000600052602160045260246000fd5b7f4e487b7100000000000000000000000000000000000000000000000000000000600052603260045260246000fd5b600080fd5b6000601f19601f8301169050919050565b7f696e76616c69642062657420616d6f756e740000000000000000000000000000600082015250565b7f4661696c656420746f2073656e64204574686572000000000000000000000000600082015250565b50565b7f72657175697265645f62657420697320746f6f206c6f77000000000000000000600082015250565b60038110612bca57612bc9612ac7565b5b50565b60038110612bde57612bdd612ac7565b5b50565b60048110612bf257612bf1612ac7565b5b50565b612bfe816129a5565b8114612c0957600080fd5b5056fe546865726520697320616c72656164792061206d61726b2061742074686520676976656e20636f6f7264696e617465732e4265742073686f756c642062652067726561746572207468616e2061206665652ea26469706673582212202bd2e4ce26a384ce19b9af5dfe53685d0034d8cd6e41efe674b59b0245a947e064736f6c63430008070033",
					"opcodes": "PUSH1 0x80 PUSH1 0x40 MSTORE CALLVALUE DUP1 ISZERO PUSH2 0x10 JUMPI PUSH1 0x0 DUP1 REVERT JUMPDEST POP PUSH2 0x2C94 DUP1 PUSH2 0x20 PUSH1 0x0 CODECOPY PUSH1 0x0 RETURN INVALID PUSH1 0x80 PUSH1 0x40 MSTORE PUSH1 0x4 CALLDATASIZE LT PUSH2 0x55 JUMPI PUSH1 0x0 CALLDATALOAD PUSH1 0xE0 SHR DUP1 PUSH4 0x3F10D76B EQ PUSH2 0x5A JUMPI DUP1 PUSH4 0x47E1D550 EQ PUSH2 0x98 JUMPI DUP1 PUSH4 0xCDE9EF78 EQ PUSH2 0xD5 JUMPI DUP1 PUSH4 0xCFC2F5FF EQ PUSH2 0x112 JUMPI DUP1 PUSH4 0xEFAA55A0 EQ PUSH2 0x13B JUMPI DUP1 PUSH4 0xF6928070 EQ PUSH2 0x157 JUMPI JUMPDEST PUSH1 0x0 DUP1 REVERT JUMPDEST CALLVALUE DUP1 ISZERO PUSH2 0x66 JUMPI PUSH1 0x0 DUP1 REVERT JUMPDEST POP PUSH2 0x81 PUSH1 0x4 DUP1 CALLDATASIZE SUB DUP2 ADD SWAP1 PUSH2 0x7C SWAP2 SWAP1 PUSH2 0x22C9 JUMP JUMPDEST PUSH2 0x182 JUMP JUMPDEST PUSH1 0x40 MLOAD PUSH2 0x8F SWAP3 SWAP2 SWAP1 PUSH2 0x266C JUMP JUMPDEST PUSH1 0x40 MLOAD DUP1 SWAP2 SUB SWAP1 RETURN JUMPDEST CALLVALUE DUP1 ISZERO PUSH2 0xA4 JUMPI PUSH1 0x0 DUP1 REVERT JUMPDEST POP PUSH2 0xBF PUSH1 0x4 DUP1 CALLDATASIZE SUB DUP2 ADD SWAP1 PUSH2 0xBA SWAP2 SWAP1 PUSH2 0x229C JUMP JUMPDEST PUSH2 0x990 JUMP JUMPDEST PUSH1 0x40 MLOAD PUSH2 0xCC SWAP2 SWAP1 PUSH2 0x271E JUMP JUMPDEST PUSH1 0x40 MLOAD DUP1 SWAP2 SUB SWAP1 RETURN JUMPDEST CALLVALUE DUP1 ISZERO PUSH2 0xE1 JUMPI PUSH1 0x0 DUP1 REVERT JUMPDEST POP PUSH2 0xFC PUSH1 0x4 DUP1 CALLDATASIZE SUB DUP2 ADD SWAP1 PUSH2 0xF7 SWAP2 SWAP1 PUSH2 0x229C JUMP JUMPDEST PUSH2 0xC19 JUMP JUMPDEST PUSH1 0x40 MLOAD PUSH2 0x109 SWAP2 SWAP1 PUSH2 0x273A JUMP JUMPDEST PUSH1 0x40 MLOAD DUP1 SWAP2 SUB SWAP1 RETURN JUMPDEST CALLVALUE DUP1 ISZERO PUSH2 0x11E JUMPI PUSH1 0x0 DUP1 REVERT JUMPDEST POP PUSH2 0x139 PUSH1 0x4 DUP1 CALLDATASIZE SUB DUP2 ADD SWAP1 PUSH2 0x134 SWAP2 SWAP1 PUSH2 0x22C9 JUMP JUMPDEST PUSH2 0xEBF JUMP JUMPDEST STOP JUMPDEST PUSH2 0x155 PUSH1 0x4 DUP1 CALLDATASIZE SUB DUP2 ADD SWAP1 PUSH2 0x150 SWAP2 SWAP1 PUSH2 0x229C JUMP JUMPDEST PUSH2 0xF21 JUMP JUMPDEST STOP JUMPDEST CALLVALUE DUP1 ISZERO PUSH2 0x163 JUMPI PUSH1 0x0 DUP1 REVERT JUMPDEST POP PUSH2 0x16C PUSH2 0xF80 JUMP JUMPDEST PUSH1 0x40 MLOAD PUSH2 0x179 SWAP2 SWAP1 PUSH2 0x273A JUMP JUMPDEST PUSH1 0x40 MLOAD DUP1 SWAP2 SUB SWAP1 RETURN JUMPDEST PUSH1 0x0 PUSH1 0x60 PUSH1 0x1 SLOAD DUP6 GT ISZERO PUSH2 0x1D1 JUMPI PUSH1 0x0 PUSH1 0x40 MLOAD DUP1 PUSH1 0x40 ADD PUSH1 0x40 MSTORE DUP1 PUSH1 0x14 DUP2 MSTORE PUSH1 0x20 ADD PUSH32 0x4E6F20737563682067616D65206578697374732E000000000000000000000000 DUP2 MSTORE POP SWAP2 POP SWAP2 POP PUSH2 0x988 JUMP JUMPDEST PUSH1 0x0 DUP1 PUSH1 0x0 DUP8 DUP2 MSTORE PUSH1 0x20 ADD SWAP1 DUP2 MSTORE PUSH1 0x20 ADD PUSH1 0x0 KECCAK256 SWAP1 POP PUSH1 0x1 PUSH1 0x2 DUP2 GT ISZERO PUSH2 0x1FB JUMPI PUSH2 0x1FA PUSH2 0x2AC7 JUMP JUMPDEST JUMPDEST DUP2 PUSH1 0x6 ADD PUSH1 0x1 SWAP1 SLOAD SWAP1 PUSH2 0x100 EXP SWAP1 DIV PUSH1 0xFF AND PUSH1 0x2 DUP2 GT ISZERO PUSH2 0x21F JUMPI PUSH2 0x21E PUSH2 0x2AC7 JUMP JUMPDEST JUMPDEST EQ PUSH2 0x266 JUMPI PUSH1 0x0 PUSH1 0x40 MLOAD DUP1 PUSH1 0x40 ADD PUSH1 0x40 MSTORE DUP1 PUSH1 0x17 DUP2 MSTORE PUSH1 0x20 ADD PUSH32 0x47616D65206973206E6F7420696E2070726F6772657373000000000000000000 DUP2 MSTORE POP SWAP3 POP SWAP3 POP POP PUSH2 0x988 JUMP JUMPDEST PUSH1 0x0 PUSH2 0x271 DUP3 PUSH2 0xF86 JUMP JUMPDEST SWAP1 POP PUSH1 0x0 PUSH20 0xFFFFFFFFFFFFFFFFFFFFFFFFFFFFFFFFFFFFFFFF AND DUP2 PUSH1 0x0 ADD MLOAD PUSH20 0xFFFFFFFFFFFFFFFFFFFFFFFFFFFFFFFFFFFFFFFF AND EQ ISZERO PUSH2 0x2EF JUMPI PUSH1 0x0 PUSH1 0x40 MLOAD DUP1 PUSH1 0x40 ADD PUSH1 0x40 MSTORE DUP1 PUSH1 0x19 DUP2 MSTORE PUSH1 0x20 ADD PUSH32 0x43757272656E7420706C61796572206E6F7420666F756E642E00000000000000 DUP2 MSTORE POP SWAP4 POP SWAP4 POP POP POP PUSH2 0x988 JUMP JUMPDEST PUSH1 0x0 PUSH1 0x3 DUP2 GT ISZERO PUSH2 0x303 JUMPI PUSH2 0x302 PUSH2 0x2AC7 JUMP JUMPDEST JUMPDEST DUP3 PUSH1 0x6 ADD PUSH1 0x0 SWAP1 SLOAD SWAP1 PUSH2 0x100 EXP SWAP1 DIV PUSH1 0xFF AND PUSH1 0x3 DUP2 GT ISZERO PUSH2 0x327 JUMPI PUSH2 0x326 PUSH2 0x2AC7 JUMP JUMPDEST JUMPDEST EQ PUSH2 0x36F JUMPI PUSH1 0x0 PUSH1 0x40 MLOAD DUP1 PUSH1 0x40 ADD PUSH1 0x40 MSTORE DUP1 PUSH1 0x1B DUP2 MSTORE PUSH1 0x20 ADD PUSH32 0x5468652067616D652068617320616C726561647920656E6465642E0000000000 DUP2 MSTORE POP SWAP4 POP SWAP4 POP POP POP PUSH2 0x988 JUMP JUMPDEST DUP1 PUSH1 0x0 ADD MLOAD PUSH20 0xFFFFFFFFFFFFFFFFFFFFFFFFFFFFFFFFFFFFFFFF AND CALLER PUSH20 0xFFFFFFFFFFFFFFFFFFFFFFFFFFFFFFFFFFFFFFFF AND EQ PUSH2 0x3E9 JUMPI PUSH1 0x0 PUSH1 0x40 MLOAD DUP1 PUSH1 0x40 ADD PUSH1 0x40 MSTORE DUP1 PUSH1 0x14 DUP2 MSTORE PUSH1 0x20 ADD PUSH32 0x4974206973206E6F7420796F7572207475726E2E000000000000000000000000 DUP2 MSTORE POP SWAP4 POP SWAP4 POP POP POP PUSH2 0x988 JUMP JUMPDEST PUSH1 0x0 PUSH1 0x2 DUP2 GT ISZERO PUSH2 0x3FD JUMPI PUSH2 0x3FC PUSH2 0x2AC7 JUMP JUMPDEST JUMPDEST DUP3 PUSH1 0x7 ADD DUP8 PUSH1 0x3 DUP2 LT PUSH2 0x413 JUMPI PUSH2 0x412 PUSH2 0x2AF6 JUMP JUMPDEST JUMPDEST ADD DUP7 PUSH1 0x3 DUP2 LT PUSH2 0x426 JUMPI PUSH2 0x425 PUSH2 0x2AF6 JUMP JUMPDEST JUMPDEST PUSH1 0x20 SWAP2 DUP3 DUP3 DIV ADD SWAP2 SWAP1 MOD SWAP1 SLOAD SWAP1 PUSH2 0x100 EXP SWAP1 DIV PUSH1 0xFF AND PUSH1 0x2 DUP2 GT ISZERO PUSH2 0x44E JUMPI PUSH2 0x44D PUSH2 0x2AC7 JUMP JUMPDEST JUMPDEST EQ PUSH2 0x479 JUMPI PUSH1 0x0 PUSH1 0x40 MLOAD DUP1 PUSH1 0x60 ADD PUSH1 0x40 MSTORE DUP1 PUSH1 0x31 DUP2 MSTORE PUSH1 0x20 ADD PUSH2 0x2C0D PUSH1 0x31 SWAP2 CODECOPY SWAP4 POP SWAP4 POP POP POP PUSH2 0x988 JUMP JUMPDEST DUP2 PUSH1 0x6 ADD PUSH1 0x2 SWAP1 SLOAD SWAP1 PUSH2 0x100 EXP SWAP1 DIV PUSH1 0xFF AND DUP3 PUSH1 0x7 ADD DUP8 PUSH1 0x3 DUP2 LT PUSH2 0x4A1 JUMPI PUSH2 0x4A0 PUSH2 0x2AF6 JUMP JUMPDEST JUMPDEST ADD DUP7 PUSH1 0x3 DUP2 LT PUSH2 0x4B4 JUMPI PUSH2 0x4B3 PUSH2 0x2AF6 JUMP JUMPDEST JUMPDEST PUSH1 0x20 SWAP2 DUP3 DUP3 DIV ADD SWAP2 SWAP1 MOD PUSH2 0x100 EXP DUP2 SLOAD DUP2 PUSH1 0xFF MUL NOT AND SWAP1 DUP4 PUSH1 0x2 DUP2 GT ISZERO PUSH2 0x4DE JUMPI PUSH2 0x4DD PUSH2 0x2AC7 JUMP JUMPDEST JUMPDEST MUL OR SWAP1 SSTORE POP PUSH32 0x444B0DEB3730BDCA0248EBB6366B24E3B793732B3555A5BFAAD868ECEF34FFC1 DUP8 DUP3 DUP9 DUP9 PUSH1 0x40 MLOAD PUSH2 0x518 SWAP5 SWAP4 SWAP3 SWAP2 SWAP1 PUSH2 0x27A7 JUMP JUMPDEST PUSH1 0x40 MLOAD DUP1 SWAP2 SUB SWAP1 LOG1 PUSH1 0x0 PUSH2 0x5D4 DUP4 PUSH1 0x7 ADD PUSH1 0x3 DUP1 PUSH1 0x20 MUL PUSH1 0x40 MLOAD SWAP1 DUP2 ADD PUSH1 0x40 MSTORE DUP1 SWAP3 SWAP2 SWAP1 PUSH1 0x0 SWAP1 JUMPDEST DUP3 DUP3 LT ISZERO PUSH2 0x5CB JUMPI DUP4 DUP3 ADD PUSH1 0x3 DUP1 PUSH1 0x20 MUL PUSH1 0x40 MLOAD SWAP1 DUP2 ADD PUSH1 0x40 MSTORE DUP1 SWAP3 SWAP2 SWAP1 DUP3 PUSH1 0x3 DUP1 ISZERO PUSH2 0x5B7 JUMPI PUSH1 0x20 MUL DUP3 ADD SWAP2 PUSH1 0x0 SWAP1 JUMPDEST DUP3 DUP3 SWAP1 SLOAD SWAP1 PUSH2 0x100 EXP SWAP1 DIV PUSH1 0xFF AND PUSH1 0x2 DUP2 GT ISZERO PUSH2 0x591 JUMPI PUSH2 0x590 PUSH2 0x2AC7 JUMP JUMPDEST JUMPDEST DUP2 MSTORE PUSH1 0x20 ADD SWAP1 PUSH1 0x1 ADD SWAP1 PUSH1 0x20 DUP3 PUSH1 0x0 ADD DIV SWAP3 DUP4 ADD SWAP3 PUSH1 0x1 SUB DUP3 MUL SWAP2 POP DUP1 DUP5 GT PUSH2 0x571 JUMPI SWAP1 POP JUMPDEST POP POP POP POP POP DUP2 MSTORE PUSH1 0x20 ADD SWAP1 PUSH1 0x1 ADD SWAP1 PUSH2 0x540 JUMP JUMPDEST POP POP POP POP PUSH2 0x112A JUMP JUMPDEST SWAP1 POP PUSH1 0x0 PUSH1 0x3 DUP2 GT ISZERO PUSH2 0x5EA JUMPI PUSH2 0x5E9 PUSH2 0x2AC7 JUMP JUMPDEST JUMPDEST DUP2 PUSH1 0x3 DUP2 GT ISZERO PUSH2 0x5FD JUMPI PUSH2 0x5FC PUSH2 0x2AC7 JUMP JUMPDEST JUMPDEST EQ PUSH2 0x965 JUMPI DUP1 DUP4 PUSH1 0x6 ADD PUSH1 0x0 PUSH2 0x100 EXP DUP2 SLOAD DUP2 PUSH1 0xFF MUL NOT AND SWAP1 DUP4 PUSH1 0x3 DUP2 GT ISZERO PUSH2 0x629 JUMPI PUSH2 0x628 PUSH2 0x2AC7 JUMP JUMPDEST JUMPDEST MUL OR SWAP1 SSTORE POP PUSH1 0x2 DUP4 PUSH1 0x6 ADD PUSH1 0x1 PUSH2 0x100 EXP DUP2 SLOAD DUP2 PUSH1 0xFF MUL NOT AND SWAP1 DUP4 PUSH1 0x2 DUP2 GT ISZERO PUSH2 0x656 JUMPI PUSH2 0x655 PUSH2 0x2AC7 JUMP JUMPDEST JUMPDEST MUL OR SWAP1 SSTORE POP PUSH1 0x3 DUP1 DUP2 GT ISZERO PUSH2 0x66E JUMPI PUSH2 0x66D PUSH2 0x2AC7 JUMP JUMPDEST JUMPDEST DUP2 PUSH1 0x3 DUP2 GT ISZERO PUSH2 0x681 JUMPI PUSH2 0x680 PUSH2 0x2AC7 JUMP JUMPDEST JUMPDEST EQ ISZERO PUSH2 0x847 JUMPI PUSH1 0x0 DUP1 DUP5 PUSH1 0x2 ADD PUSH1 0x0 ADD PUSH1 0x0 SWAP1 SLOAD SWAP1 PUSH2 0x100 EXP SWAP1 DIV PUSH20 0xFFFFFFFFFFFFFFFFFFFFFFFFFFFFFFFFFFFFFFFF AND PUSH20 0xFFFFFFFFFFFFFFFFFFFFFFFFFFFFFFFFFFFFFFFF AND DUP6 PUSH1 0x2 ADD PUSH1 0x1 ADD SLOAD PUSH1 0x40 MLOAD PUSH2 0x6DC SWAP1 PUSH2 0x2657 JUMP JUMPDEST PUSH1 0x0 PUSH1 0x40 MLOAD DUP1 DUP4 SUB DUP2 DUP6 DUP8 GAS CALL SWAP3 POP POP POP RETURNDATASIZE DUP1 PUSH1 0x0 DUP2 EQ PUSH2 0x719 JUMPI PUSH1 0x40 MLOAD SWAP2 POP PUSH1 0x1F NOT PUSH1 0x3F RETURNDATASIZE ADD AND DUP3 ADD PUSH1 0x40 MSTORE RETURNDATASIZE DUP3 MSTORE RETURNDATASIZE PUSH1 0x0 PUSH1 0x20 DUP5 ADD RETURNDATACOPY PUSH2 0x71E JUMP JUMPDEST PUSH1 0x60 SWAP2 POP JUMPDEST POP SWAP2 POP SWAP2 POP DUP2 PUSH2 0x763 JUMPI PUSH1 0x40 MLOAD PUSH32 0x8C379A000000000000000000000000000000000000000000000000000000000 DUP2 MSTORE PUSH1 0x4 ADD PUSH2 0x75A SWAP1 PUSH2 0x26DE JUMP JUMPDEST PUSH1 0x40 MLOAD DUP1 SWAP2 SUB SWAP1 REVERT JUMPDEST DUP5 PUSH1 0x4 ADD PUSH1 0x0 ADD PUSH1 0x0 SWAP1 SLOAD SWAP1 PUSH2 0x100 EXP SWAP1 DIV PUSH20 0xFFFFFFFFFFFFFFFFFFFFFFFFFFFFFFFFFFFFFFFF AND PUSH20 0xFFFFFFFFFFFFFFFFFFFFFFFFFFFFFFFFFFFFFFFF AND DUP6 PUSH1 0x4 ADD PUSH1 0x1 ADD SLOAD PUSH1 0x40 MLOAD PUSH2 0x7B5 SWAP1 PUSH2 0x2657 JUMP JUMPDEST PUSH1 0x0 PUSH1 0x40 MLOAD DUP1 DUP4 SUB DUP2 DUP6 DUP8 GAS CALL SWAP3 POP POP POP RETURNDATASIZE DUP1 PUSH1 0x0 DUP2 EQ PUSH2 0x7F2 JUMPI PUSH1 0x40 MLOAD SWAP2 POP PUSH1 0x1F NOT PUSH1 0x3F RETURNDATASIZE ADD AND DUP3 ADD PUSH1 0x40 MSTORE RETURNDATASIZE DUP3 MSTORE RETURNDATASIZE PUSH1 0x0 PUSH1 0x20 DUP5 ADD RETURNDATACOPY PUSH2 0x7F7 JUMP JUMPDEST PUSH1 0x60 SWAP2 POP JUMPDEST POP DUP1 SWAP3 POP DUP2 SWAP4 POP POP POP DUP2 PUSH2 0x840 JUMPI PUSH1 0x40 MLOAD PUSH32 0x8C379A000000000000000000000000000000000000000000000000000000000 DUP2 MSTORE PUSH1 0x4 ADD PUSH2 0x837 SWAP1 PUSH2 0x26DE JUMP JUMPDEST PUSH1 0x40 MLOAD DUP1 SWAP2 SUB SWAP1 REVERT JUMPDEST POP POP PUSH2 0x90E JUMP JUMPDEST PUSH1 0x0 PUSH2 0x852 DUP5 PUSH2 0xF86 JUMP JUMPDEST SWAP1 POP PUSH1 0x0 DUP1 DUP3 PUSH1 0x0 ADD MLOAD PUSH20 0xFFFFFFFFFFFFFFFFFFFFFFFFFFFFFFFFFFFFFFFF AND DUP7 PUSH1 0x0 ADD SLOAD PUSH1 0x40 MLOAD PUSH2 0x883 SWAP1 PUSH2 0x2657 JUMP JUMPDEST PUSH1 0x0 PUSH1 0x40 MLOAD DUP1 DUP4 SUB DUP2 DUP6 DUP8 GAS CALL SWAP3 POP POP POP RETURNDATASIZE DUP1 PUSH1 0x0 DUP2 EQ PUSH2 0x8C0 JUMPI PUSH1 0x40 MLOAD SWAP2 POP PUSH1 0x1F NOT PUSH1 0x3F RETURNDATASIZE ADD AND DUP3 ADD PUSH1 0x40 MSTORE RETURNDATASIZE DUP3 MSTORE RETURNDATASIZE PUSH1 0x0 PUSH1 0x20 DUP5 ADD RETURNDATACOPY PUSH2 0x8C5 JUMP JUMPDEST PUSH1 0x60 SWAP2 POP JUMPDEST POP SWAP2 POP SWAP2 POP DUP2 PUSH2 0x90A JUMPI PUSH1 0x40 MLOAD PUSH32 0x8C379A000000000000000000000000000000000000000000000000000000000 DUP2 MSTORE PUSH1 0x4 ADD PUSH2 0x901 SWAP1 PUSH2 0x26DE JUMP JUMPDEST PUSH1 0x40 MLOAD DUP1 SWAP2 SUB SWAP1 REVERT JUMPDEST POP POP POP JUMPDEST PUSH32 0x132B564C6F96092065580FD28989D181DFBBFE4AA2FB7FB1EDA8AF68BA3073E0 DUP9 DUP3 PUSH1 0x40 MLOAD PUSH2 0x93F SWAP3 SWAP2 SWAP1 PUSH2 0x277E JUMP JUMPDEST PUSH1 0x40 MLOAD DUP1 SWAP2 SUB SWAP1 LOG1 PUSH1 0x1 PUSH1 0x40 MLOAD DUP1 PUSH1 0x20 ADD PUSH1 0x40 MSTORE DUP1 PUSH1 0x0 DUP2 MSTORE POP SWAP5 POP SWAP5 POP POP POP POP PUSH2 0x988 JUMP JUMPDEST PUSH2 0x96E DUP4 PUSH2 0x12B8 JUMP JUMPDEST PUSH1 0x1 PUSH1 0x40 MLOAD DUP1 PUSH1 0x20 ADD PUSH1 0x40 MSTORE DUP1 PUSH1 0x0 DUP2 MSTORE POP SWAP5 POP SWAP5 POP POP POP POP JUMPDEST SWAP4 POP SWAP4 SWAP2 POP POP JUMP JUMPDEST PUSH2 0x998 PUSH2 0x203C JUMP JUMPDEST PUSH1 0x0 DUP1 DUP4 DUP2 MSTORE PUSH1 0x20 ADD SWAP1 DUP2 MSTORE PUSH1 0x20 ADD PUSH1 0x0 KECCAK256 PUSH1 0x40 MLOAD DUP1 PUSH2 0x100 ADD PUSH1 0x40 MSTORE SWAP1 DUP2 PUSH1 0x0 DUP3 ADD SLOAD DUP2 MSTORE PUSH1 0x20 ADD PUSH1 0x1 DUP3 ADD SLOAD DUP2 MSTORE PUSH1 0x20 ADD PUSH1 0x2 DUP3 ADD PUSH1 0x40 MLOAD DUP1 PUSH1 0x40 ADD PUSH1 0x40 MSTORE SWAP1 DUP2 PUSH1 0x0 DUP3 ADD PUSH1 0x0 SWAP1 SLOAD SWAP1 PUSH2 0x100 EXP SWAP1 DIV PUSH20 0xFFFFFFFFFFFFFFFFFFFFFFFFFFFFFFFFFFFFFFFF AND PUSH20 0xFFFFFFFFFFFFFFFFFFFFFFFFFFFFFFFFFFFFFFFF AND PUSH20 0xFFFFFFFFFFFFFFFFFFFFFFFFFFFFFFFFFFFFFFFF AND DUP2 MSTORE PUSH1 0x20 ADD PUSH1 0x1 DUP3 ADD SLOAD DUP2 MSTORE POP POP DUP2 MSTORE PUSH1 0x20 ADD PUSH1 0x4 DUP3 ADD PUSH1 0x40 MLOAD DUP1 PUSH1 0x40 ADD PUSH1 0x40 MSTORE SWAP1 DUP2 PUSH1 0x0 DUP3 ADD PUSH1 0x0 SWAP1 SLOAD SWAP1 PUSH2 0x100 EXP SWAP1 DIV PUSH20 0xFFFFFFFFFFFFFFFFFFFFFFFFFFFFFFFFFFFFFFFF AND PUSH20 0xFFFFFFFFFFFFFFFFFFFFFFFFFFFFFFFFFFFFFFFF AND PUSH20 0xFFFFFFFFFFFFFFFFFFFFFFFFFFFFFFFFFFFFFFFF AND DUP2 MSTORE PUSH1 0x20 ADD PUSH1 0x1 DUP3 ADD SLOAD DUP2 MSTORE POP POP DUP2 MSTORE PUSH1 0x20 ADD PUSH1 0x6 DUP3 ADD PUSH1 0x0 SWAP1 SLOAD SWAP1 PUSH2 0x100 EXP SWAP1 DIV PUSH1 0xFF AND PUSH1 0x3 DUP2 GT ISZERO PUSH2 0xAD7 JUMPI PUSH2 0xAD6 PUSH2 0x2AC7 JUMP JUMPDEST JUMPDEST PUSH1 0x3 DUP2 GT ISZERO PUSH2 0xAE9 JUMPI PUSH2 0xAE8 PUSH2 0x2AC7 JUMP JUMPDEST JUMPDEST DUP2 MSTORE PUSH1 0x20 ADD PUSH1 0x6 DUP3 ADD PUSH1 0x1 SWAP1 SLOAD SWAP1 PUSH2 0x100 EXP SWAP1 DIV PUSH1 0xFF AND PUSH1 0x2 DUP2 GT ISZERO PUSH2 0xB12 JUMPI PUSH2 0xB11 PUSH2 0x2AC7 JUMP JUMPDEST JUMPDEST PUSH1 0x2 DUP2 GT ISZERO PUSH2 0xB24 JUMPI PUSH2 0xB23 PUSH2 0x2AC7 JUMP JUMPDEST JUMPDEST DUP2 MSTORE PUSH1 0x20 ADD PUSH1 0x6 DUP3 ADD PUSH1 0x2 SWAP1 SLOAD SWAP1 PUSH2 0x100 EXP SWAP1 DIV PUSH1 0xFF AND PUSH1 0x2 DUP2 GT ISZERO PUSH2 0xB4D JUMPI PUSH2 0xB4C PUSH2 0x2AC7 JUMP JUMPDEST JUMPDEST PUSH1 0x2 DUP2 GT ISZERO PUSH2 0xB5F JUMPI PUSH2 0xB5E PUSH2 0x2AC7 JUMP JUMPDEST JUMPDEST DUP2 MSTORE PUSH1 0x20 ADD PUSH1 0x7 DUP3 ADD PUSH1 0x3 DUP1 PUSH1 0x20 MUL PUSH1 0x40 MLOAD SWAP1 DUP2 ADD PUSH1 0x40 MSTORE DUP1 SWAP3 SWAP2 SWAP1 PUSH1 0x0 SWAP1 JUMPDEST DUP3 DUP3 LT ISZERO PUSH2 0xC0A JUMPI DUP4 DUP3 ADD PUSH1 0x3 DUP1 PUSH1 0x20 MUL PUSH1 0x40 MLOAD SWAP1 DUP2 ADD PUSH1 0x40 MSTORE DUP1 SWAP3 SWAP2 SWAP1 DUP3 PUSH1 0x3 DUP1 ISZERO PUSH2 0xBF6 JUMPI PUSH1 0x20 MUL DUP3 ADD SWAP2 PUSH1 0x0 SWAP1 JUMPDEST DUP3 DUP3 SWAP1 SLOAD SWAP1 PUSH2 0x100 EXP SWAP1 DIV PUSH1 0xFF AND PUSH1 0x2 DUP2 GT ISZERO PUSH2 0xBD0 JUMPI PUSH2 0xBCF PUSH2 0x2AC7 JUMP JUMPDEST JUMPDEST DUP2 MSTORE PUSH1 0x20 ADD SWAP1 PUSH1 0x1 ADD SWAP1 PUSH1 0x20 DUP3 PUSH1 0x0 ADD DIV SWAP3 DUP4 ADD SWAP3 PUSH1 0x1 SUB DUP3 MUL SWAP2 POP DUP1 DUP5 GT PUSH2 0xBB0 JUMPI SWAP1 POP JUMPDEST POP POP POP POP POP DUP2 MSTORE PUSH1 0x20 ADD SWAP1 PUSH1 0x1 ADD SWAP1 PUSH2 0xB7F JUMP JUMPDEST POP POP POP POP DUP2 MSTORE POP POP SWAP1 POP SWAP2 SWAP1 POP JUMP JUMPDEST PUSH1 0x0 PUSH4 0x3B9ACA00 DUP3 GT PUSH2 0xC61 JUMPI PUSH1 0x40 MLOAD PUSH32 0x8C379A000000000000000000000000000000000000000000000000000000000 DUP2 MSTORE PUSH1 0x4 ADD PUSH2 0xC58 SWAP1 PUSH2 0x26FE JUMP JUMPDEST PUSH1 0x40 MLOAD DUP1 SWAP2 SUB SWAP1 REVERT JUMPDEST PUSH2 0xC69 PUSH2 0x203C JUMP JUMPDEST PUSH1 0x1 DUP2 PUSH1 0xC0 ADD SWAP1 PUSH1 0x2 DUP2 GT ISZERO PUSH2 0xC82 JUMPI PUSH2 0xC81 PUSH2 0x2AC7 JUMP JUMPDEST JUMPDEST SWAP1 DUP2 PUSH1 0x2 DUP2 GT ISZERO PUSH2 0xC96 JUMPI PUSH2 0xC95 PUSH2 0x2AC7 JUMP JUMPDEST JUMPDEST DUP2 MSTORE POP POP PUSH1 0x0 DUP2 PUSH1 0xA0 ADD SWAP1 PUSH1 0x2 DUP2 GT ISZERO PUSH2 0xCB3 JUMPI PUSH2 0xCB2 PUSH2 0x2AC7 JUMP JUMPDEST JUMPDEST SWAP1 DUP2 PUSH1 0x2 DUP2 GT ISZERO PUSH2 0xCC7 JUMPI PUSH2 0xCC6 PUSH2 0x2AC7 JUMP JUMPDEST JUMPDEST DUP2 MSTORE POP POP DUP3 DUP2 PUSH1 0x20 ADD DUP2 DUP2 MSTORE POP POP PUSH1 0x1 PUSH1 0x0 DUP2 SLOAD DUP1 SWAP3 SWAP2 SWAP1 PUSH2 0xCE8 SWAP1 PUSH2 0x2A25 JUMP JUMPDEST SWAP2 SWAP1 POP SSTORE POP DUP1 PUSH1 0x0 DUP1 PUSH1 0x1 SLOAD DUP2 MSTORE PUSH1 0x20 ADD SWAP1 DUP2 MSTORE PUSH1 0x20 ADD PUSH1 0x0 KECCAK256 PUSH1 0x0 DUP3 ADD MLOAD DUP2 PUSH1 0x0 ADD SSTORE PUSH1 0x20 DUP3 ADD MLOAD DUP2 PUSH1 0x1 ADD SSTORE PUSH1 0x40 DUP3 ADD MLOAD DUP2 PUSH1 0x2 ADD PUSH1 0x0 DUP3 ADD MLOAD DUP2 PUSH1 0x0 ADD PUSH1 0x0 PUSH2 0x100 EXP DUP2 SLOAD DUP2 PUSH20 0xFFFFFFFFFFFFFFFFFFFFFFFFFFFFFFFFFFFFFFFF MUL NOT AND SWAP1 DUP4 PUSH20 0xFFFFFFFFFFFFFFFFFFFFFFFFFFFFFFFFFFFFFFFF AND MUL OR SWAP1 SSTORE POP PUSH1 0x20 DUP3 ADD MLOAD DUP2 PUSH1 0x1 ADD SSTORE POP POP PUSH1 0x60 DUP3 ADD MLOAD DUP2 PUSH1 0x4 ADD PUSH1 0x0 DUP3 ADD MLOAD DUP2 PUSH1 0x0 ADD PUSH1 0x0 PUSH2 0x100 EXP DUP2 SLOAD DUP2 PUSH20 0xFFFFFFFFFFFFFFFFFFFFFFFFFFFFFFFFFFFFFFFF MUL NOT AND SWAP1 DUP4 PUSH20 0xFFFFFFFFFFFFFFFFFFFFFFFFFFFFFFFFFFFFFFFF AND MUL OR SWAP1 SSTORE POP PUSH1 0x20 DUP3 ADD MLOAD DUP2 PUSH1 0x1 ADD SSTORE POP POP PUSH1 0x80 DUP3 ADD MLOAD DUP2 PUSH1 0x6 ADD PUSH1 0x0 PUSH2 0x100 EXP DUP2 SLOAD DUP2 PUSH1 0xFF MUL NOT AND SWAP1 DUP4 PUSH1 0x3 DUP2 GT ISZERO PUSH2 0xDF9 JUMPI PUSH2 0xDF8 PUSH2 0x2AC7 JUMP JUMPDEST JUMPDEST MUL OR SWAP1 SSTORE POP PUSH1 0xA0 DUP3 ADD MLOAD DUP2 PUSH1 0x6 ADD PUSH1 0x1 PUSH2 0x100 EXP DUP2 SLOAD DUP2 PUSH1 0xFF MUL NOT AND SWAP1 DUP4 PUSH1 0x2 DUP2 GT ISZERO PUSH2 0xE29 JUMPI PUSH2 0xE28 PUSH2 0x2AC7 JUMP JUMPDEST JUMPDEST MUL OR SWAP1 SSTORE POP PUSH1 0xC0 DUP3 ADD MLOAD DUP2 PUSH1 0x6 ADD PUSH1 0x2 PUSH2 0x100 EXP DUP2 SLOAD DUP2 PUSH1 0xFF MUL NOT AND SWAP1 DUP4 PUSH1 0x2 DUP2 GT ISZERO PUSH2 0xE59 JUMPI PUSH2 0xE58 PUSH2 0x2AC7 JUMP JUMPDEST JUMPDEST MUL OR SWAP1 SSTORE POP PUSH1 0xE0 DUP3 ADD MLOAD DUP2 PUSH1 0x7 ADD SWAP1 PUSH1 0x3 PUSH2 0xE75 SWAP3 SWAP2 SWAP1 PUSH2 0x20C9 JUMP JUMPDEST POP SWAP1 POP POP PUSH32 0xC3E0F84839DC888C892A013D10C8F9D6DC05A21A879D0CE468CA558013E9121C PUSH1 0x1 SLOAD CALLER PUSH1 0x40 MLOAD PUSH2 0xEAC SWAP3 SWAP2 SWAP1 PUSH2 0x2755 JUMP JUMPDEST PUSH1 0x40 MLOAD DUP1 SWAP2 SUB SWAP1 LOG1 PUSH1 0x1 SLOAD SWAP2 POP POP SWAP2 SWAP1 POP JUMP JUMPDEST PUSH1 0x0 PUSH1 0x60 PUSH2 0xECE DUP6 DUP6 DUP6 PUSH2 0x182 JUMP JUMPDEST DUP1 SWAP3 POP DUP2 SWAP4 POP POP POP DUP2 DUP2 SWAP1 PUSH2 0xF19 JUMPI PUSH1 0x40 MLOAD PUSH32 0x8C379A000000000000000000000000000000000000000000000000000000000 DUP2 MSTORE PUSH1 0x4 ADD PUSH2 0xF10 SWAP2 SWAP1 PUSH2 0x269C JUMP JUMPDEST PUSH1 0x40 MLOAD DUP1 SWAP2 SUB SWAP1 REVERT JUMPDEST POP POP POP POP POP POP JUMP JUMPDEST PUSH1 0x0 PUSH1 0x60 PUSH2 0xF2F CALLVALUE DUP5 PUSH2 0x1359 JUMP JUMPDEST DUP1 SWAP3 POP DUP2 SWAP4 POP POP POP DUP2 DUP2 SWAP1 PUSH2 0xF7A JUMPI PUSH1 0x40 MLOAD PUSH32 0x8C379A000000000000000000000000000000000000000000000000000000000 DUP2 MSTORE PUSH1 0x4 ADD PUSH2 0xF71 SWAP2 SWAP1 PUSH2 0x269C JUMP JUMPDEST PUSH1 0x40 MLOAD DUP1 SWAP2 SUB SWAP1 REVERT JUMPDEST POP POP POP POP JUMP JUMPDEST PUSH1 0x1 SLOAD DUP2 JUMP JUMPDEST PUSH2 0xF8E PUSH2 0x2117 JUMP JUMPDEST PUSH1 0x1 PUSH1 0x2 DUP2 GT ISZERO PUSH2 0xFA2 JUMPI PUSH2 0xFA1 PUSH2 0x2AC7 JUMP JUMPDEST JUMPDEST DUP3 PUSH1 0x6 ADD PUSH1 0x2 SWAP1 SLOAD SWAP1 PUSH2 0x100 EXP SWAP1 DIV PUSH1 0xFF AND PUSH1 0x2 DUP2 GT ISZERO PUSH2 0xFC6 JUMPI PUSH2 0xFC5 PUSH2 0x2AC7 JUMP JUMPDEST JUMPDEST EQ ISZERO PUSH2 0x1042 JUMPI DUP2 PUSH1 0x2 ADD PUSH1 0x40 MLOAD DUP1 PUSH1 0x40 ADD PUSH1 0x40 MSTORE SWAP1 DUP2 PUSH1 0x0 DUP3 ADD PUSH1 0x0 SWAP1 SLOAD SWAP1 PUSH2 0x100 EXP SWAP1 DIV PUSH20 0xFFFFFFFFFFFFFFFFFFFFFFFFFFFFFFFFFFFFFFFF AND PUSH20 0xFFFFFFFFFFFFFFFFFFFFFFFFFFFFFFFFFFFFFFFF AND PUSH20 0xFFFFFFFFFFFFFFFFFFFFFFFFFFFFFFFFFFFFFFFF AND DUP2 MSTORE PUSH1 0x20 ADD PUSH1 0x1 DUP3 ADD SLOAD DUP2 MSTORE POP POP SWAP1 POP PUSH2 0x1125 JUMP JUMPDEST PUSH1 0x2 DUP1 DUP2 GT ISZERO PUSH2 0x1055 JUMPI PUSH2 0x1054 PUSH2 0x2AC7 JUMP JUMPDEST JUMPDEST DUP3 PUSH1 0x6 ADD PUSH1 0x2 SWAP1 SLOAD SWAP1 PUSH2 0x100 EXP SWAP1 DIV PUSH1 0xFF AND PUSH1 0x2 DUP2 GT ISZERO PUSH2 0x1079 JUMPI PUSH2 0x1078 PUSH2 0x2AC7 JUMP JUMPDEST JUMPDEST EQ ISZERO PUSH2 0x10F5 JUMPI DUP2 PUSH1 0x4 ADD PUSH1 0x40 MLOAD DUP1 PUSH1 0x40 ADD PUSH1 0x40 MSTORE SWAP1 DUP2 PUSH1 0x0 DUP3 ADD PUSH1 0x0 SWAP1 SLOAD SWAP1 PUSH2 0x100 EXP SWAP1 DIV PUSH20 0xFFFFFFFFFFFFFFFFFFFFFFFFFFFFFFFFFFFFFFFF AND PUSH20 0xFFFFFFFFFFFFFFFFFFFFFFFFFFFFFFFFFFFFFFFF AND PUSH20 0xFFFFFFFFFFFFFFFFFFFFFFFFFFFFFFFFFFFFFFFF AND DUP2 MSTORE PUSH1 0x20 ADD PUSH1 0x1 DUP3 ADD SLOAD DUP2 MSTORE POP POP SWAP1 POP PUSH2 0x1125 JUMP JUMPDEST PUSH1 0x40 MLOAD DUP1 PUSH1 0x40 ADD PUSH1 0x40 MSTORE DUP1 PUSH1 0x0 PUSH20 0xFFFFFFFFFFFFFFFFFFFFFFFFFFFFFFFFFFFFFFFF AND DUP2 MSTORE PUSH1 0x20 ADD PUSH1 0x0 DUP2 MSTORE POP SWAP1 POP JUMPDEST SWAP2 SWAP1 POP JUMP JUMPDEST PUSH1 0x0 DUP1 PUSH2 0x1136 DUP4 PUSH2 0x1821 JUMP JUMPDEST SWAP1 POP PUSH1 0x1 PUSH1 0x2 DUP2 GT ISZERO PUSH2 0x114C JUMPI PUSH2 0x114B PUSH2 0x2AC7 JUMP JUMPDEST JUMPDEST DUP2 PUSH1 0x2 DUP2 GT ISZERO PUSH2 0x115F JUMPI PUSH2 0x115E PUSH2 0x2AC7 JUMP JUMPDEST JUMPDEST EQ ISZERO PUSH2 0x116F JUMPI PUSH1 0x1 SWAP2 POP POP PUSH2 0x12B3 JUMP JUMPDEST PUSH1 0x2 DUP1 DUP2 GT ISZERO PUSH2 0x1182 JUMPI PUSH2 0x1181 PUSH2 0x2AC7 JUMP JUMPDEST JUMPDEST DUP2 PUSH1 0x2 DUP2 GT ISZERO PUSH2 0x1195 JUMPI PUSH2 0x1194 PUSH2 0x2AC7 JUMP JUMPDEST JUMPDEST EQ ISZERO PUSH2 0x11A5 JUMPI PUSH1 0x2 SWAP2 POP POP PUSH2 0x12B3 JUMP JUMPDEST PUSH2 0x11AE DUP4 PUSH2 0x1A14 JUMP JUMPDEST SWAP1 POP PUSH1 0x1 PUSH1 0x2 DUP2 GT ISZERO PUSH2 0x11C4 JUMPI PUSH2 0x11C3 PUSH2 0x2AC7 JUMP JUMPDEST JUMPDEST DUP2 PUSH1 0x2 DUP2 GT ISZERO PUSH2 0x11D7 JUMPI PUSH2 0x11D6 PUSH2 0x2AC7 JUMP JUMPDEST JUMPDEST EQ ISZERO PUSH2 0x11E7 JUMPI PUSH1 0x1 SWAP2 POP POP PUSH2 0x12B3 JUMP JUMPDEST PUSH1 0x2 DUP1 DUP2 GT ISZERO PUSH2 0x11FA JUMPI PUSH2 0x11F9 PUSH2 0x2AC7 JUMP JUMPDEST JUMPDEST DUP2 PUSH1 0x2 DUP2 GT ISZERO PUSH2 0x120D JUMPI PUSH2 0x120C PUSH2 0x2AC7 JUMP JUMPDEST JUMPDEST EQ ISZERO PUSH2 0x121D JUMPI PUSH1 0x2 SWAP2 POP POP PUSH2 0x12B3 JUMP JUMPDEST PUSH2 0x1226 DUP4 PUSH2 0x1C07 JUMP JUMPDEST SWAP1 POP PUSH1 0x1 PUSH1 0x2 DUP2 GT ISZERO PUSH2 0x123C JUMPI PUSH2 0x123B PUSH2 0x2AC7 JUMP JUMPDEST JUMPDEST DUP2 PUSH1 0x2 DUP2 GT ISZERO PUSH2 0x124F JUMPI PUSH2 0x124E PUSH2 0x2AC7 JUMP JUMPDEST JUMPDEST EQ ISZERO PUSH2 0x125F JUMPI PUSH1 0x1 SWAP2 POP POP PUSH2 0x12B3 JUMP JUMPDEST PUSH1 0x2 DUP1 DUP2 GT ISZERO PUSH2 0x1272 JUMPI PUSH2 0x1271 PUSH2 0x2AC7 JUMP JUMPDEST JUMPDEST DUP2 PUSH1 0x2 DUP2 GT ISZERO PUSH2 0x1285 JUMPI PUSH2 0x1284 PUSH2 0x2AC7 JUMP JUMPDEST JUMPDEST EQ ISZERO PUSH2 0x1295 JUMPI PUSH1 0x2 SWAP2 POP POP PUSH2 0x12B3 JUMP JUMPDEST PUSH2 0x129E DUP4 PUSH2 0x1F7B JUMP JUMPDEST ISZERO PUSH2 0x12AD JUMPI PUSH1 0x3 SWAP2 POP POP PUSH2 0x12B3 JUMP JUMPDEST PUSH1 0x0 SWAP2 POP POP JUMPDEST SWAP2 SWAP1 POP JUMP JUMPDEST PUSH1 0x1 PUSH1 0x2 DUP2 GT ISZERO PUSH2 0x12CC JUMPI PUSH2 0x12CB PUSH2 0x2AC7 JUMP JUMPDEST JUMPDEST DUP2 PUSH1 0x6 ADD PUSH1 0x2 SWAP1 SLOAD SWAP1 PUSH2 0x100 EXP SWAP1 DIV PUSH1 0xFF AND PUSH1 0x2 DUP2 GT ISZERO PUSH2 0x12F0 JUMPI PUSH2 0x12EF PUSH2 0x2AC7 JUMP JUMPDEST JUMPDEST EQ ISZERO PUSH2 0x1328 JUMPI PUSH1 0x2 DUP2 PUSH1 0x6 ADD PUSH1 0x2 PUSH2 0x100 EXP DUP2 SLOAD DUP2 PUSH1 0xFF MUL NOT AND SWAP1 DUP4 PUSH1 0x2 DUP2 GT ISZERO PUSH2 0x131E JUMPI PUSH2 0x131D PUSH2 0x2AC7 JUMP JUMPDEST JUMPDEST MUL OR SWAP1 SSTORE POP PUSH2 0x1356 JUMP JUMPDEST PUSH1 0x1 DUP2 PUSH1 0x6 ADD PUSH1 0x2 PUSH2 0x100 EXP DUP2 SLOAD DUP2 PUSH1 0xFF MUL NOT AND SWAP1 DUP4 PUSH1 0x2 DUP2 GT ISZERO PUSH2 0x1350 JUMPI PUSH2 0x134F PUSH2 0x2AC7 JUMP JUMPDEST JUMPDEST MUL OR SWAP1 SSTORE POP JUMPDEST POP JUMP JUMPDEST PUSH1 0x0 PUSH1 0x60 PUSH4 0x3B9ACA00 DUP5 GT PUSH2 0x138C JUMPI PUSH1 0x0 PUSH1 0x40 MLOAD DUP1 PUSH1 0x60 ADD PUSH1 0x40 MSTORE DUP1 PUSH1 0x21 DUP2 MSTORE PUSH1 0x20 ADD PUSH2 0x2C3E PUSH1 0x21 SWAP2 CODECOPY SWAP2 POP SWAP2 POP PUSH2 0x181A JUMP JUMPDEST PUSH1 0x0 DUP5 EQ ISZERO PUSH2 0x13D6 JUMPI PUSH1 0x0 PUSH1 0x40 MLOAD DUP1 PUSH1 0x40 ADD PUSH1 0x40 MSTORE DUP1 PUSH1 0xF DUP2 MSTORE PUSH1 0x20 ADD PUSH32 0x4E6F2065746820737461636B65642E0000000000000000000000000000000000 DUP2 MSTORE POP SWAP2 POP SWAP2 POP PUSH2 0x181A JUMP JUMPDEST PUSH1 0x1 SLOAD DUP4 GT ISZERO PUSH2 0x1421 JUMPI PUSH1 0x0 PUSH1 0x40 MLOAD DUP1 PUSH1 0x40 ADD PUSH1 0x40 MSTORE DUP1 PUSH1 0x14 DUP2 MSTORE PUSH1 0x20 ADD PUSH32 0x4E6F20737563682067616D65206578697374732E000000000000000000000000 DUP2 MSTORE POP SWAP2 POP SWAP2 POP PUSH2 0x181A JUMP JUMPDEST PUSH1 0x0 PUSH1 0x40 MLOAD DUP1 PUSH1 0x40 ADD PUSH1 0x40 MSTORE DUP1 CALLER PUSH20 0xFFFFFFFFFFFFFFFFFFFFFFFFFFFFFFFFFFFFFFFF AND DUP2 MSTORE PUSH1 0x20 ADD PUSH4 0x3B9ACA00 DUP8 PUSH2 0x145A SWAP2 SWAP1 PUSH2 0x28FA JUMP JUMPDEST DUP2 MSTORE POP SWAP1 POP PUSH1 0x0 DUP1 PUSH1 0x0 DUP7 DUP2 MSTORE PUSH1 0x20 ADD SWAP1 DUP2 MSTORE PUSH1 0x20 ADD PUSH1 0x0 KECCAK256 SWAP1 POP DUP1 PUSH1 0x1 ADD SLOAD DUP7 EQ PUSH2 0x14BB JUMPI PUSH1 0x40 MLOAD PUSH32 0x8C379A000000000000000000000000000000000000000000000000000000000 DUP2 MSTORE PUSH1 0x4 ADD PUSH2 0x14B2 SWAP1 PUSH2 0x26BE JUMP JUMPDEST PUSH1 0x40 MLOAD DUP1 SWAP2 SUB SWAP1 REVERT JUMPDEST PUSH1 0x0 PUSH20 0xFFFFFFFFFFFFFFFFFFFFFFFFFFFFFFFFFFFFFFFF AND DUP2 PUSH1 0x2 ADD PUSH1 0x0 ADD PUSH1 0x0 SWAP1 SLOAD SWAP1 PUSH2 0x100 EXP SWAP1 DIV PUSH20 0xFFFFFFFFFFFFFFFFFFFFFFFFFFFFFFFFFFFFFFFF AND PUSH20 0xFFFFFFFFFFFFFFFFFFFFFFFFFFFFFFFFFFFFFFFF AND EQ ISZERO PUSH2 0x1605 JUMPI DUP2 DUP2 PUSH1 0x2 ADD PUSH1 0x0 DUP3 ADD MLOAD DUP2 PUSH1 0x0 ADD PUSH1 0x0 PUSH2 0x100 EXP DUP2 SLOAD DUP2 PUSH20 0xFFFFFFFFFFFFFFFFFFFFFFFFFFFFFFFFFFFFFFFF MUL NOT AND SWAP1 DUP4 PUSH20 0xFFFFFFFFFFFFFFFFFFFFFFFFFFFFFFFFFFFFFFFF AND MUL OR SWAP1 SSTORE POP PUSH1 0x20 DUP3 ADD MLOAD DUP2 PUSH1 0x1 ADD SSTORE SWAP1 POP POP PUSH4 0x3B9ACA00 DUP7 PUSH2 0x1580 SWAP2 SWAP1 PUSH2 0x28FA JUMP JUMPDEST DUP2 PUSH1 0x0 ADD PUSH1 0x0 DUP3 DUP3 SLOAD PUSH2 0x1593 SWAP2 SWAP1 PUSH2 0x28A4 JUMP JUMPDEST SWAP3 POP POP DUP2 SWAP1 SSTORE POP PUSH32 0xB7B142DA4D5E7153B4B889BE2BC2A3F6C16ED957358651736FD8D54CD3067E83 DUP6 DUP4 PUSH1 0x1 PUSH1 0x2 DUP2 GT ISZERO PUSH2 0x15D1 JUMPI PUSH2 0x15D0 PUSH2 0x2AC7 JUMP JUMPDEST JUMPDEST PUSH1 0x40 MLOAD PUSH2 0x15E0 SWAP4 SWAP3 SWAP2 SWAP1 PUSH2 0x27EC JUMP JUMPDEST PUSH1 0x40 MLOAD DUP1 SWAP2 SUB SWAP1 LOG1 PUSH1 0x1 PUSH1 0x40 MLOAD DUP1 PUSH1 0x20 ADD PUSH1 0x40 MSTORE DUP1 PUSH1 0x0 DUP2 MSTORE POP SWAP4 POP SWAP4 POP POP POP PUSH2 0x181A JUMP JUMPDEST PUSH1 0x0 PUSH20 0xFFFFFFFFFFFFFFFFFFFFFFFFFFFFFFFFFFFFFFFF AND DUP2 PUSH1 0x4 ADD PUSH1 0x0 ADD PUSH1 0x0 SWAP1 SLOAD SWAP1 PUSH2 0x100 EXP SWAP1 DIV PUSH20 0xFFFFFFFFFFFFFFFFFFFFFFFFFFFFFFFFFFFFFFFF AND PUSH20 0xFFFFFFFFFFFFFFFFFFFFFFFFFFFFFFFFFFFFFFFF AND EQ ISZERO PUSH2 0x17DB JUMPI CALLER PUSH20 0xFFFFFFFFFFFFFFFFFFFFFFFFFFFFFFFFFFFFFFFF AND DUP2 PUSH1 0x2 ADD PUSH1 0x0 ADD PUSH1 0x0 SWAP1 SLOAD SWAP1 PUSH2 0x100 EXP SWAP1 DIV PUSH20 0xFFFFFFFFFFFFFFFFFFFFFFFFFFFFFFFFFFFFFFFF AND PUSH20 0xFFFFFFFFFFFFFFFFFFFFFFFFFFFFFFFFFFFFFFFF AND EQ ISZERO PUSH2 0x16C1 JUMPI PUSH1 0x0 DUP1 REVERT JUMPDEST DUP2 DUP2 PUSH1 0x4 ADD PUSH1 0x0 DUP3 ADD MLOAD DUP2 PUSH1 0x0 ADD PUSH1 0x0 PUSH2 0x100 EXP DUP2 SLOAD DUP2 PUSH20 0xFFFFFFFFFFFFFFFFFFFFFFFFFFFFFFFFFFFFFFFF MUL NOT AND SWAP1 DUP4 PUSH20 0xFFFFFFFFFFFFFFFFFFFFFFFFFFFFFFFFFFFFFFFF AND MUL OR SWAP1 SSTORE POP PUSH1 0x20 DUP3 ADD MLOAD DUP2 PUSH1 0x1 ADD SSTORE SWAP1 POP POP PUSH4 0x3B9ACA00 DUP7 PUSH2 0x172A SWAP2 SWAP1 PUSH2 0x28FA JUMP JUMPDEST DUP2 PUSH1 0x0 ADD PUSH1 0x0 DUP3 DUP3 SLOAD PUSH2 0x173D SWAP2 SWAP1 PUSH2 0x28A4 JUMP JUMPDEST SWAP3 POP POP DUP2 SWAP1 SSTORE POP PUSH32 0xB7B142DA4D5E7153B4B889BE2BC2A3F6C16ED957358651736FD8D54CD3067E83 DUP6 DUP4 PUSH1 0x2 DUP1 DUP2 GT ISZERO PUSH2 0x177A JUMPI PUSH2 0x1779 PUSH2 0x2AC7 JUMP JUMPDEST JUMPDEST PUSH1 0x40 MLOAD PUSH2 0x1789 SWAP4 SWAP3 SWAP2 SWAP1 PUSH2 0x27EC JUMP JUMPDEST PUSH1 0x40 MLOAD DUP1 SWAP2 SUB SWAP1 LOG1 PUSH1 0x1 DUP2 PUSH1 0x6 ADD PUSH1 0x1 PUSH2 0x100 EXP DUP2 SLOAD DUP2 PUSH1 0xFF MUL NOT AND SWAP1 DUP4 PUSH1 0x2 DUP2 GT ISZERO PUSH2 0x17B9 JUMPI PUSH2 0x17B8 PUSH2 0x2AC7 JUMP JUMPDEST JUMPDEST MUL OR SWAP1 SSTORE POP PUSH1 0x1 PUSH1 0x40 MLOAD DUP1 PUSH1 0x20 ADD PUSH1 0x40 MSTORE DUP1 PUSH1 0x0 DUP2 MSTORE POP SWAP4 POP SWAP4 POP POP POP PUSH2 0x181A JUMP JUMPDEST PUSH1 0x0 PUSH1 0x40 MLOAD DUP1 PUSH1 0x40 ADD PUSH1 0x40 MSTORE DUP1 PUSH1 0x10 DUP2 MSTORE PUSH1 0x20 ADD PUSH32 0x416C6C2073656174732074616B656E2E00000000000000000000000000000000 DUP2 MSTORE POP SWAP4 POP SWAP4 POP POP POP JUMPDEST SWAP3 POP SWAP3 SWAP1 POP JUMP JUMPDEST PUSH1 0x0 DUP1 PUSH1 0x0 SWAP1 POP JUMPDEST PUSH1 0x3 DUP2 PUSH1 0xFF AND LT ISZERO PUSH2 0x1A09 JUMPI DUP3 DUP2 PUSH1 0xFF AND PUSH1 0x3 DUP2 LT PUSH2 0x184B JUMPI PUSH2 0x184A PUSH2 0x2AF6 JUMP JUMPDEST JUMPDEST PUSH1 0x20 MUL ADD MLOAD PUSH1 0x1 PUSH1 0x3 DUP2 LT PUSH2 0x1863 JUMPI PUSH2 0x1862 PUSH2 0x2AF6 JUMP JUMPDEST JUMPDEST PUSH1 0x20 MUL ADD MLOAD PUSH1 0x2 DUP2 GT ISZERO PUSH2 0x187A JUMPI PUSH2 0x1879 PUSH2 0x2AC7 JUMP JUMPDEST JUMPDEST DUP4 DUP3 PUSH1 0xFF AND PUSH1 0x3 DUP2 LT PUSH2 0x1890 JUMPI PUSH2 0x188F PUSH2 0x2AF6 JUMP JUMPDEST JUMPDEST PUSH1 0x20 MUL ADD MLOAD PUSH1 0x0 PUSH1 0x3 DUP2 LT PUSH2 0x18A8 JUMPI PUSH2 0x18A7 PUSH2 0x2AF6 JUMP JUMPDEST JUMPDEST PUSH1 0x20 MUL ADD MLOAD PUSH1 0x2 DUP2 GT ISZERO PUSH2 0x18BF JUMPI PUSH2 0x18BE PUSH2 0x2AC7 JUMP JUMPDEST JUMPDEST EQ DUP1 ISZERO PUSH2 0x1953 JUMPI POP DUP3 DUP2 PUSH1 0xFF AND PUSH1 0x3 DUP2 LT PUSH2 0x18DD JUMPI PUSH2 0x18DC PUSH2 0x2AF6 JUMP JUMPDEST JUMPDEST PUSH1 0x20 MUL ADD MLOAD PUSH1 0x2 PUSH1 0x3 DUP2 LT PUSH2 0x18F5 JUMPI PUSH2 0x18F4 PUSH2 0x2AF6 JUMP JUMPDEST JUMPDEST PUSH1 0x20 MUL ADD MLOAD PUSH1 0x2 DUP2 GT ISZERO PUSH2 0x190C JUMPI PUSH2 0x190B PUSH2 0x2AC7 JUMP JUMPDEST JUMPDEST DUP4 DUP3 PUSH1 0xFF AND PUSH1 0x3 DUP2 LT PUSH2 0x1922 JUMPI PUSH2 0x1921 PUSH2 0x2AF6 JUMP JUMPDEST JUMPDEST PUSH1 0x20 MUL ADD MLOAD PUSH1 0x1 PUSH1 0x3 DUP2 LT PUSH2 0x193A JUMPI PUSH2 0x1939 PUSH2 0x2AF6 JUMP JUMPDEST JUMPDEST PUSH1 0x20 MUL ADD MLOAD PUSH1 0x2 DUP2 GT ISZERO PUSH2 0x1951 JUMPI PUSH2 0x1950 PUSH2 0x2AC7 JUMP JUMPDEST JUMPDEST EQ JUMPDEST DUP1 ISZERO PUSH2 0x19B6 JUMPI POP PUSH1 0x0 PUSH1 0x2 DUP2 GT ISZERO PUSH2 0x196E JUMPI PUSH2 0x196D PUSH2 0x2AC7 JUMP JUMPDEST JUMPDEST DUP4 DUP3 PUSH1 0xFF AND PUSH1 0x3 DUP2 LT PUSH2 0x1984 JUMPI PUSH2 0x1983 PUSH2 0x2AF6 JUMP JUMPDEST JUMPDEST PUSH1 0x20 MUL ADD MLOAD PUSH1 0x0 PUSH1 0x3 DUP2 LT PUSH2 0x199C JUMPI PUSH2 0x199B PUSH2 0x2AF6 JUMP JUMPDEST JUMPDEST PUSH1 0x20 MUL ADD MLOAD PUSH1 0x2 DUP2 GT ISZERO PUSH2 0x19B3 JUMPI PUSH2 0x19B2 PUSH2 0x2AC7 JUMP JUMPDEST JUMPDEST EQ ISZERO JUMPDEST ISZERO PUSH2 0x19F6 JUMPI DUP3 DUP2 PUSH1 0xFF AND PUSH1 0x3 DUP2 LT PUSH2 0x19D1 JUMPI PUSH2 0x19D0 PUSH2 0x2AF6 JUMP JUMPDEST JUMPDEST PUSH1 0x20 MUL ADD MLOAD PUSH1 0x0 PUSH1 0x3 DUP2 LT PUSH2 0x19E9 JUMPI PUSH2 0x19E8 PUSH2 0x2AF6 JUMP JUMPDEST JUMPDEST PUSH1 0x20 MUL ADD MLOAD SWAP2 POP POP PUSH2 0x1A0F JUMP JUMPDEST DUP1 DUP1 PUSH2 0x1A01 SWAP1 PUSH2 0x2A6E JUMP JUMPDEST SWAP2 POP POP PUSH2 0x1829 JUMP JUMPDEST POP PUSH1 0x0 SWAP1 POP JUMPDEST SWAP2 SWAP1 POP JUMP JUMPDEST PUSH1 0x0 DUP1 PUSH1 0x0 SWAP1 POP JUMPDEST PUSH1 0x3 DUP2 PUSH1 0xFF AND LT ISZERO PUSH2 0x1BFC JUMPI DUP3 PUSH1 0x1 PUSH1 0x3 DUP2 LT PUSH2 0x1A3C JUMPI PUSH2 0x1A3B PUSH2 0x2AF6 JUMP JUMPDEST JUMPDEST PUSH1 0x20 MUL ADD MLOAD DUP2 PUSH1 0xFF AND PUSH1 0x3 DUP2 LT PUSH2 0x1A56 JUMPI PUSH2 0x1A55 PUSH2 0x2AF6 JUMP JUMPDEST JUMPDEST PUSH1 0x20 MUL ADD MLOAD PUSH1 0x2 DUP2 GT ISZERO PUSH2 0x1A6D JUMPI PUSH2 0x1A6C PUSH2 0x2AC7 JUMP JUMPDEST JUMPDEST DUP4 PUSH1 0x0 PUSH1 0x3 DUP2 LT PUSH2 0x1A81 JUMPI PUSH2 0x1A80 PUSH2 0x2AF6 JUMP JUMPDEST JUMPDEST PUSH1 0x20 MUL ADD MLOAD DUP3 PUSH1 0xFF AND PUSH1 0x3 DUP2 LT PUSH2 0x1A9B JUMPI PUSH2 0x1A9A PUSH2 0x2AF6 JUMP JUMPDEST JUMPDEST PUSH1 0x20 MUL ADD MLOAD PUSH1 0x2 DUP2 GT ISZERO PUSH2 0x1AB2 JUMPI PUSH2 0x1AB1 PUSH2 0x2AC7 JUMP JUMPDEST JUMPDEST EQ DUP1 ISZERO PUSH2 0x1B46 JUMPI POP DUP3 PUSH1 0x2 PUSH1 0x3 DUP2 LT PUSH2 0x1ACE JUMPI PUSH2 0x1ACD PUSH2 0x2AF6 JUMP JUMPDEST JUMPDEST PUSH1 0x20 MUL ADD MLOAD DUP2 PUSH1 0xFF AND PUSH1 0x3 DUP2 LT PUSH2 0x1AE8 JUMPI PUSH2 0x1AE7 PUSH2 0x2AF6 JUMP JUMPDEST JUMPDEST PUSH1 0x20 MUL ADD MLOAD PUSH1 0x2 DUP2 GT ISZERO PUSH2 0x1AFF JUMPI PUSH2 0x1AFE PUSH2 0x2AC7 JUMP JUMPDEST JUMPDEST DUP4 PUSH1 0x1 PUSH1 0x3 DUP2 LT PUSH2 0x1B13 JUMPI PUSH2 0x1B12 PUSH2 0x2AF6 JUMP JUMPDEST JUMPDEST PUSH1 0x20 MUL ADD MLOAD DUP3 PUSH1 0xFF AND PUSH1 0x3 DUP2 LT PUSH2 0x1B2D JUMPI PUSH2 0x1B2C PUSH2 0x2AF6 JUMP JUMPDEST JUMPDEST PUSH1 0x20 MUL ADD MLOAD PUSH1 0x2 DUP2 GT ISZERO PUSH2 0x1B44 JUMPI PUSH2 0x1B43 PUSH2 0x2AC7 JUMP JUMPDEST JUMPDEST EQ JUMPDEST DUP1 ISZERO PUSH2 0x1BA9 JUMPI POP PUSH1 0x0 PUSH1 0x2 DUP2 GT ISZERO PUSH2 0x1B61 JUMPI PUSH2 0x1B60 PUSH2 0x2AC7 JUMP JUMPDEST JUMPDEST DUP4 PUSH1 0x0 PUSH1 0x3 DUP2 LT PUSH2 0x1B75 JUMPI PUSH2 0x1B74 PUSH2 0x2AF6 JUMP JUMPDEST JUMPDEST PUSH1 0x20 MUL ADD MLOAD DUP3 PUSH1 0xFF AND PUSH1 0x3 DUP2 LT PUSH2 0x1B8F JUMPI PUSH2 0x1B8E PUSH2 0x2AF6 JUMP JUMPDEST JUMPDEST PUSH1 0x20 MUL ADD MLOAD PUSH1 0x2 DUP2 GT ISZERO PUSH2 0x1BA6 JUMPI PUSH2 0x1BA5 PUSH2 0x2AC7 JUMP JUMPDEST JUMPDEST EQ ISZERO JUMPDEST ISZERO PUSH2 0x1BE9 JUMPI DUP3 PUSH1 0x0 PUSH1 0x3 DUP2 LT PUSH2 0x1BC2 JUMPI PUSH2 0x1BC1 PUSH2 0x2AF6 JUMP JUMPDEST JUMPDEST PUSH1 0x20 MUL ADD MLOAD DUP2 PUSH1 0xFF AND PUSH1 0x3 DUP2 LT PUSH2 0x1BDC JUMPI PUSH2 0x1BDB PUSH2 0x2AF6 JUMP JUMPDEST JUMPDEST PUSH1 0x20 MUL ADD MLOAD SWAP2 POP POP PUSH2 0x1C02 JUMP JUMPDEST DUP1 DUP1 PUSH2 0x1BF4 SWAP1 PUSH2 0x2A6E JUMP JUMPDEST SWAP2 POP POP PUSH2 0x1A1C JUMP JUMPDEST POP PUSH1 0x0 SWAP1 POP JUMPDEST SWAP2 SWAP1 POP JUMP JUMPDEST PUSH1 0x0 DUP2 PUSH1 0x1 PUSH1 0x3 DUP2 LT PUSH2 0x1C1D JUMPI PUSH2 0x1C1C PUSH2 0x2AF6 JUMP JUMPDEST JUMPDEST PUSH1 0x20 MUL ADD MLOAD PUSH1 0x1 PUSH1 0x3 DUP2 LT PUSH2 0x1C35 JUMPI PUSH2 0x1C34 PUSH2 0x2AF6 JUMP JUMPDEST JUMPDEST PUSH1 0x20 MUL ADD MLOAD PUSH1 0x2 DUP2 GT ISZERO PUSH2 0x1C4C JUMPI PUSH2 0x1C4B PUSH2 0x2AC7 JUMP JUMPDEST JUMPDEST DUP3 PUSH1 0x0 PUSH1 0x3 DUP2 LT PUSH2 0x1C60 JUMPI PUSH2 0x1C5F PUSH2 0x2AF6 JUMP JUMPDEST JUMPDEST PUSH1 0x20 MUL ADD MLOAD PUSH1 0x0 PUSH1 0x3 DUP2 LT PUSH2 0x1C78 JUMPI PUSH2 0x1C77 PUSH2 0x2AF6 JUMP JUMPDEST JUMPDEST PUSH1 0x20 MUL ADD MLOAD PUSH1 0x2 DUP2 GT ISZERO PUSH2 0x1C8F JUMPI PUSH2 0x1C8E PUSH2 0x2AC7 JUMP JUMPDEST JUMPDEST EQ DUP1 ISZERO PUSH2 0x1D1F JUMPI POP DUP2 PUSH1 0x2 PUSH1 0x3 DUP2 LT PUSH2 0x1CAB JUMPI PUSH2 0x1CAA PUSH2 0x2AF6 JUMP JUMPDEST JUMPDEST PUSH1 0x20 MUL ADD MLOAD PUSH1 0x2 PUSH1 0x3 DUP2 LT PUSH2 0x1CC3 JUMPI PUSH2 0x1CC2 PUSH2 0x2AF6 JUMP JUMPDEST JUMPDEST PUSH1 0x20 MUL ADD MLOAD PUSH1 0x2 DUP2 GT ISZERO PUSH2 0x1CDA JUMPI PUSH2 0x1CD9 PUSH2 0x2AC7 JUMP JUMPDEST JUMPDEST DUP3 PUSH1 0x1 PUSH1 0x3 DUP2 LT PUSH2 0x1CEE JUMPI PUSH2 0x1CED PUSH2 0x2AF6 JUMP JUMPDEST JUMPDEST PUSH1 0x20 MUL ADD MLOAD PUSH1 0x1 PUSH1 0x3 DUP2 LT PUSH2 0x1D06 JUMPI PUSH2 0x1D05 PUSH2 0x2AF6 JUMP JUMPDEST JUMPDEST PUSH1 0x20 MUL ADD MLOAD PUSH1 0x2 DUP2 GT ISZERO PUSH2 0x1D1D JUMPI PUSH2 0x1D1C PUSH2 0x2AC7 JUMP JUMPDEST JUMPDEST EQ JUMPDEST DUP1 ISZERO PUSH2 0x1D80 JUMPI POP PUSH1 0x0 PUSH1 0x2 DUP2 GT ISZERO PUSH2 0x1D3A JUMPI PUSH2 0x1D39 PUSH2 0x2AC7 JUMP JUMPDEST JUMPDEST DUP3 PUSH1 0x0 PUSH1 0x3 DUP2 LT PUSH2 0x1D4E JUMPI PUSH2 0x1D4D PUSH2 0x2AF6 JUMP JUMPDEST JUMPDEST PUSH1 0x20 MUL ADD MLOAD PUSH1 0x0 PUSH1 0x3 DUP2 LT PUSH2 0x1D66 JUMPI PUSH2 0x1D65 PUSH2 0x2AF6 JUMP JUMPDEST JUMPDEST PUSH1 0x20 MUL ADD MLOAD PUSH1 0x2 DUP2 GT ISZERO PUSH2 0x1D7D JUMPI PUSH2 0x1D7C PUSH2 0x2AC7 JUMP JUMPDEST JUMPDEST EQ ISZERO JUMPDEST ISZERO PUSH2 0x1DBD JUMPI DUP2 PUSH1 0x0 PUSH1 0x3 DUP2 LT PUSH2 0x1D99 JUMPI PUSH2 0x1D98 PUSH2 0x2AF6 JUMP JUMPDEST JUMPDEST PUSH1 0x20 MUL ADD MLOAD PUSH1 0x0 PUSH1 0x3 DUP2 LT PUSH2 0x1DB1 JUMPI PUSH2 0x1DB0 PUSH2 0x2AF6 JUMP JUMPDEST JUMPDEST PUSH1 0x20 MUL ADD MLOAD SWAP1 POP PUSH2 0x1F76 JUMP JUMPDEST DUP2 PUSH1 0x1 PUSH1 0x3 DUP2 LT PUSH2 0x1DD1 JUMPI PUSH2 0x1DD0 PUSH2 0x2AF6 JUMP JUMPDEST JUMPDEST PUSH1 0x20 MUL ADD MLOAD PUSH1 0x1 PUSH1 0x3 DUP2 LT PUSH2 0x1DE9 JUMPI PUSH2 0x1DE8 PUSH2 0x2AF6 JUMP JUMPDEST JUMPDEST PUSH1 0x20 MUL ADD MLOAD PUSH1 0x2 DUP2 GT ISZERO PUSH2 0x1E00 JUMPI PUSH2 0x1DFF PUSH2 0x2AC7 JUMP JUMPDEST JUMPDEST DUP3 PUSH1 0x0 PUSH1 0x3 DUP2 LT PUSH2 0x1E14 JUMPI PUSH2 0x1E13 PUSH2 0x2AF6 JUMP JUMPDEST JUMPDEST PUSH1 0x20 MUL ADD MLOAD PUSH1 0x2 PUSH1 0x3 DUP2 LT PUSH2 0x1E2C JUMPI PUSH2 0x1E2B PUSH2 0x2AF6 JUMP JUMPDEST JUMPDEST PUSH1 0x20 MUL ADD MLOAD PUSH1 0x2 DUP2 GT ISZERO PUSH2 0x1E43 JUMPI PUSH2 0x1E42 PUSH2 0x2AC7 JUMP JUMPDEST JUMPDEST EQ DUP1 ISZERO PUSH2 0x1ED3 JUMPI POP DUP2 PUSH1 0x2 PUSH1 0x3 DUP2 LT PUSH2 0x1E5F JUMPI PUSH2 0x1E5E PUSH2 0x2AF6 JUMP JUMPDEST JUMPDEST PUSH1 0x20 MUL ADD MLOAD PUSH1 0x0 PUSH1 0x3 DUP2 LT PUSH2 0x1E77 JUMPI PUSH2 0x1E76 PUSH2 0x2AF6 JUMP JUMPDEST JUMPDEST PUSH1 0x20 MUL ADD MLOAD PUSH1 0x2 DUP2 GT ISZERO PUSH2 0x1E8E JUMPI PUSH2 0x1E8D PUSH2 0x2AC7 JUMP JUMPDEST JUMPDEST DUP3 PUSH1 0x1 PUSH1 0x3 DUP2 LT PUSH2 0x1EA2 JUMPI PUSH2 0x1EA1 PUSH2 0x2AF6 JUMP JUMPDEST JUMPDEST PUSH1 0x20 MUL ADD MLOAD PUSH1 0x1 PUSH1 0x3 DUP2 LT PUSH2 0x1EBA JUMPI PUSH2 0x1EB9 PUSH2 0x2AF6 JUMP JUMPDEST JUMPDEST PUSH1 0x20 MUL ADD MLOAD PUSH1 0x2 DUP2 GT ISZERO PUSH2 0x1ED1 JUMPI PUSH2 0x1ED0 PUSH2 0x2AC7 JUMP JUMPDEST JUMPDEST EQ JUMPDEST DUP1 ISZERO PUSH2 0x1F34 JUMPI POP PUSH1 0x0 PUSH1 0x2 DUP2 GT ISZERO PUSH2 0x1EEE JUMPI PUSH2 0x1EED PUSH2 0x2AC7 JUMP JUMPDEST JUMPDEST DUP3 PUSH1 0x0 PUSH1 0x3 DUP2 LT PUSH2 0x1F02 JUMPI PUSH2 0x1F01 PUSH2 0x2AF6 JUMP JUMPDEST JUMPDEST PUSH1 0x20 MUL ADD MLOAD PUSH1 0x2 PUSH1 0x3 DUP2 LT PUSH2 0x1F1A JUMPI PUSH2 0x1F19 PUSH2 0x2AF6 JUMP JUMPDEST JUMPDEST PUSH1 0x20 MUL ADD MLOAD PUSH1 0x2 DUP2 GT ISZERO PUSH2 0x1F31 JUMPI PUSH2 0x1F30 PUSH2 0x2AC7 JUMP JUMPDEST JUMPDEST EQ ISZERO JUMPDEST ISZERO PUSH2 0x1F71 JUMPI DUP2 PUSH1 0x0 PUSH1 0x3 DUP2 LT PUSH2 0x1F4D JUMPI PUSH2 0x1F4C PUSH2 0x2AF6 JUMP JUMPDEST JUMPDEST PUSH1 0x20 MUL ADD MLOAD PUSH1 0x2 PUSH1 0x3 DUP2 LT PUSH2 0x1F65 JUMPI PUSH2 0x1F64 PUSH2 0x2AF6 JUMP JUMPDEST JUMPDEST PUSH1 0x20 MUL ADD MLOAD SWAP1 POP PUSH2 0x1F76 JUMP JUMPDEST PUSH1 0x0 SWAP1 POP JUMPDEST SWAP2 SWAP1 POP JUMP JUMPDEST PUSH1 0x0 DUP1 PUSH1 0x0 SWAP1 POP JUMPDEST PUSH1 0x3 DUP2 PUSH1 0xFF AND LT ISZERO PUSH2 0x2031 JUMPI PUSH1 0x0 JUMPDEST PUSH1 0x3 DUP2 PUSH1 0xFF AND LT ISZERO PUSH2 0x201D JUMPI PUSH1 0x0 PUSH1 0x2 DUP2 GT ISZERO PUSH2 0x1FB2 JUMPI PUSH2 0x1FB1 PUSH2 0x2AC7 JUMP JUMPDEST JUMPDEST DUP5 DUP4 PUSH1 0xFF AND PUSH1 0x3 DUP2 LT PUSH2 0x1FC8 JUMPI PUSH2 0x1FC7 PUSH2 0x2AF6 JUMP JUMPDEST JUMPDEST PUSH1 0x20 MUL ADD MLOAD DUP3 PUSH1 0xFF AND PUSH1 0x3 DUP2 LT PUSH2 0x1FE2 JUMPI PUSH2 0x1FE1 PUSH2 0x2AF6 JUMP JUMPDEST JUMPDEST PUSH1 0x20 MUL ADD MLOAD PUSH1 0x2 DUP2 GT ISZERO PUSH2 0x1FF9 JUMPI PUSH2 0x1FF8 PUSH2 0x2AC7 JUMP JUMPDEST JUMPDEST EQ ISZERO PUSH2 0x200A JUMPI PUSH1 0x0 SWAP3 POP POP POP PUSH2 0x2037 JUMP JUMPDEST DUP1 DUP1 PUSH2 0x2015 SWAP1 PUSH2 0x2A6E JUMP JUMPDEST SWAP2 POP POP PUSH2 0x1F92 JUMP JUMPDEST POP DUP1 DUP1 PUSH2 0x2029 SWAP1 PUSH2 0x2A6E JUMP JUMPDEST SWAP2 POP POP PUSH2 0x1F83 JUMP JUMPDEST POP PUSH1 0x1 SWAP1 POP JUMPDEST SWAP2 SWAP1 POP JUMP JUMPDEST PUSH1 0x40 MLOAD DUP1 PUSH2 0x100 ADD PUSH1 0x40 MSTORE DUP1 PUSH1 0x0 DUP2 MSTORE PUSH1 0x20 ADD PUSH1 0x0 DUP2 MSTORE PUSH1 0x20 ADD PUSH2 0x205E PUSH2 0x2117 JUMP JUMPDEST DUP2 MSTORE PUSH1 0x20 ADD PUSH2 0x206B PUSH2 0x2117 JUMP JUMPDEST DUP2 MSTORE PUSH1 0x20 ADD PUSH1 0x0 PUSH1 0x3 DUP2 GT ISZERO PUSH2 0x2084 JUMPI PUSH2 0x2083 PUSH2 0x2AC7 JUMP JUMPDEST JUMPDEST DUP2 MSTORE PUSH1 0x20 ADD PUSH1 0x0 PUSH1 0x2 DUP2 GT ISZERO PUSH2 0x209D JUMPI PUSH2 0x209C PUSH2 0x2AC7 JUMP JUMPDEST JUMPDEST DUP2 MSTORE PUSH1 0x20 ADD PUSH1 0x0 PUSH1 0x2 DUP2 GT ISZERO PUSH2 0x20B6 JUMPI PUSH2 0x20B5 PUSH2 0x2AC7 JUMP JUMPDEST JUMPDEST DUP2 MSTORE PUSH1 0x20 ADD PUSH2 0x20C3 PUSH2 0x2147 JUMP JUMPDEST DUP2 MSTORE POP SWAP1 JUMP JUMPDEST DUP3 PUSH1 0x3 DUP2 ADD SWAP3 DUP3 ISZERO PUSH2 0x2106 JUMPI SWAP2 PUSH1 0x20 MUL DUP3 ADD JUMPDEST DUP3 DUP2 GT ISZERO PUSH2 0x2105 JUMPI DUP3 MLOAD DUP3 SWAP1 PUSH1 0x3 PUSH2 0x20F5 SWAP3 SWAP2 SWAP1 PUSH2 0x2174 JUMP JUMPDEST POP SWAP2 PUSH1 0x20 ADD SWAP2 SWAP1 PUSH1 0x1 ADD SWAP1 PUSH2 0x20DC JUMP JUMPDEST JUMPDEST POP SWAP1 POP PUSH2 0x2113 SWAP2 SWAP1 PUSH2 0x221D JUMP JUMPDEST POP SWAP1 JUMP JUMPDEST PUSH1 0x40 MLOAD DUP1 PUSH1 0x40 ADD PUSH1 0x40 MSTORE DUP1 PUSH1 0x0 PUSH20 0xFFFFFFFFFFFFFFFFFFFFFFFFFFFFFFFFFFFFFFFF AND DUP2 MSTORE PUSH1 0x20 ADD PUSH1 0x0 DUP2 MSTORE POP SWAP1 JUMP JUMPDEST PUSH1 0x40 MLOAD DUP1 PUSH1 0x60 ADD PUSH1 0x40 MSTORE DUP1 PUSH1 0x3 SWAP1 JUMPDEST PUSH2 0x215E PUSH2 0x2241 JUMP JUMPDEST DUP2 MSTORE PUSH1 0x20 ADD SWAP1 PUSH1 0x1 SWAP1 SUB SWAP1 DUP2 PUSH2 0x2156 JUMPI SWAP1 POP POP SWAP1 JUMP JUMPDEST DUP3 PUSH1 0x3 PUSH1 0x1F ADD PUSH1 0x20 SWAP1 DIV DUP2 ADD SWAP3 DUP3 ISZERO PUSH2 0x220C JUMPI SWAP2 PUSH1 0x20 MUL DUP3 ADD PUSH1 0x0 JUMPDEST DUP4 DUP3 GT ISZERO PUSH2 0x21DD JUMPI DUP4 MLOAD DUP4 DUP3 PUSH2 0x100 EXP DUP2 SLOAD DUP2 PUSH1 0xFF MUL NOT AND SWAP1 DUP4 PUSH1 0x2 DUP2 GT ISZERO PUSH2 0x21BC JUMPI PUSH2 0x21BB PUSH2 0x2AC7 JUMP JUMPDEST JUMPDEST MUL OR SWAP1 SSTORE POP SWAP3 PUSH1 0x20 ADD SWAP3 PUSH1 0x1 ADD PUSH1 0x20 DUP2 PUSH1 0x0 ADD DIV SWAP3 DUP4 ADD SWAP3 PUSH1 0x1 SUB MUL PUSH2 0x2190 JUMP JUMPDEST DUP1 ISZERO PUSH2 0x220A JUMPI DUP3 DUP2 PUSH2 0x100 EXP DUP2 SLOAD SWAP1 PUSH1 0xFF MUL NOT AND SWAP1 SSTORE PUSH1 0x1 ADD PUSH1 0x20 DUP2 PUSH1 0x0 ADD DIV SWAP3 DUP4 ADD SWAP3 PUSH1 0x1 SUB MUL PUSH2 0x21DD JUMP JUMPDEST POP JUMPDEST POP SWAP1 POP PUSH2 0x2219 SWAP2 SWAP1 PUSH2 0x2263 JUMP JUMPDEST POP SWAP1 JUMP JUMPDEST JUMPDEST DUP1 DUP3 GT ISZERO PUSH2 0x223D JUMPI PUSH1 0x0 DUP2 DUP2 PUSH2 0x2234 SWAP2 SWAP1 PUSH2 0x2280 JUMP JUMPDEST POP PUSH1 0x1 ADD PUSH2 0x221E JUMP JUMPDEST POP SWAP1 JUMP JUMPDEST PUSH1 0x40 MLOAD DUP1 PUSH1 0x60 ADD PUSH1 0x40 MSTORE DUP1 PUSH1 0x3 SWAP1 PUSH1 0x20 DUP3 MUL DUP1 CALLDATASIZE DUP4 CALLDATACOPY DUP1 DUP3 ADD SWAP2 POP POP SWAP1 POP POP SWAP1 JUMP JUMPDEST JUMPDEST DUP1 DUP3 GT ISZERO PUSH2 0x227C JUMPI PUSH1 0x0 DUP2 PUSH1 0x0 SWAP1 SSTORE POP PUSH1 0x1 ADD PUSH2 0x2264 JUMP JUMPDEST POP SWAP1 JUMP JUMPDEST POP PUSH1 0x0 SWAP1 SSTORE JUMP JUMPDEST PUSH1 0x0 DUP2 CALLDATALOAD SWAP1 POP PUSH2 0x2296 DUP2 PUSH2 0x2BF5 JUMP JUMPDEST SWAP3 SWAP2 POP POP JUMP JUMPDEST PUSH1 0x0 PUSH1 0x20 DUP3 DUP5 SUB SLT ISZERO PUSH2 0x22B2 JUMPI PUSH2 0x22B1 PUSH2 0x2B25 JUMP JUMPDEST JUMPDEST PUSH1 0x0 PUSH2 0x22C0 DUP5 DUP3 DUP6 ADD PUSH2 0x2287 JUMP JUMPDEST SWAP2 POP POP SWAP3 SWAP2 POP POP JUMP JUMPDEST PUSH1 0x0 DUP1 PUSH1 0x0 PUSH1 0x60 DUP5 DUP7 SUB SLT ISZERO PUSH2 0x22E2 JUMPI PUSH2 0x22E1 PUSH2 0x2B25 JUMP JUMPDEST JUMPDEST PUSH1 0x0 PUSH2 0x22F0 DUP7 DUP3 DUP8 ADD PUSH2 0x2287 JUMP JUMPDEST SWAP4 POP POP PUSH1 0x20 PUSH2 0x2301 DUP7 DUP3 DUP8 ADD PUSH2 0x2287 JUMP JUMPDEST SWAP3 POP POP PUSH1 0x40 PUSH2 0x2312 DUP7 DUP3 DUP8 ADD PUSH2 0x2287 JUMP JUMPDEST SWAP2 POP POP SWAP3 POP SWAP3 POP SWAP3 JUMP JUMPDEST PUSH1 0x0 PUSH2 0x2328 DUP4 DUP4 PUSH2 0x23C1 JUMP JUMPDEST PUSH1 0x60 DUP4 ADD SWAP1 POP SWAP3 SWAP2 POP POP JUMP JUMPDEST PUSH1 0x0 PUSH2 0x2340 DUP4 DUP4 PUSH2 0x2427 JUMP JUMPDEST PUSH1 0x20 DUP4 ADD SWAP1 POP SWAP3 SWAP2 POP POP JUMP JUMPDEST PUSH2 0x2355 DUP2 PUSH2 0x292E JUMP JUMPDEST DUP3 MSTORE POP POP JUMP JUMPDEST PUSH2 0x2364 DUP2 PUSH2 0x292E JUMP JUMPDEST DUP3 MSTORE POP POP JUMP JUMPDEST PUSH2 0x2373 DUP2 PUSH2 0x2837 JUMP JUMPDEST PUSH2 0x237D DUP2 DUP5 PUSH2 0x2872 JUMP JUMPDEST SWAP3 POP PUSH2 0x2388 DUP3 PUSH2 0x2823 JUMP JUMPDEST DUP1 PUSH1 0x0 JUMPDEST DUP4 DUP2 LT ISZERO PUSH2 0x23B9 JUMPI DUP2 MLOAD PUSH2 0x23A0 DUP8 DUP3 PUSH2 0x231C JUMP JUMPDEST SWAP7 POP PUSH2 0x23AB DUP4 PUSH2 0x2858 JUMP JUMPDEST SWAP3 POP POP PUSH1 0x1 DUP2 ADD SWAP1 POP PUSH2 0x238C JUMP JUMPDEST POP POP POP POP POP POP JUMP JUMPDEST PUSH2 0x23CA DUP2 PUSH2 0x2842 JUMP JUMPDEST PUSH2 0x23D4 DUP2 DUP5 PUSH2 0x287D JUMP JUMPDEST SWAP3 POP PUSH2 0x23DF DUP3 PUSH2 0x282D JUMP JUMPDEST DUP1 PUSH1 0x0 JUMPDEST DUP4 DUP2 LT ISZERO PUSH2 0x2410 JUMPI DUP2 MLOAD PUSH2 0x23F7 DUP8 DUP3 PUSH2 0x2334 JUMP JUMPDEST SWAP7 POP PUSH2 0x2402 DUP4 PUSH2 0x2865 JUMP JUMPDEST SWAP3 POP POP PUSH1 0x1 DUP2 ADD SWAP1 POP PUSH2 0x23E3 JUMP JUMPDEST POP POP POP POP POP POP JUMP JUMPDEST PUSH2 0x2421 DUP2 PUSH2 0x2940 JUMP JUMPDEST DUP3 MSTORE POP POP JUMP JUMPDEST PUSH2 0x2430 DUP2 PUSH2 0x29BC JUMP JUMPDEST DUP3 MSTORE POP POP JUMP JUMPDEST PUSH2 0x243F DUP2 PUSH2 0x29CE JUMP JUMPDEST DUP3 MSTORE POP POP JUMP JUMPDEST PUSH2 0x244E DUP2 PUSH2 0x29E0 JUMP JUMPDEST DUP3 MSTORE POP POP JUMP JUMPDEST PUSH2 0x245D DUP2 PUSH2 0x29E0 JUMP JUMPDEST DUP3 MSTORE POP POP JUMP JUMPDEST PUSH1 0x0 PUSH2 0x246E DUP3 PUSH2 0x284D JUMP JUMPDEST PUSH2 0x2478 DUP2 DUP6 PUSH2 0x2893 JUMP JUMPDEST SWAP4 POP PUSH2 0x2488 DUP2 DUP6 PUSH1 0x20 DUP7 ADD PUSH2 0x29F2 JUMP JUMPDEST PUSH2 0x2491 DUP2 PUSH2 0x2B2A JUMP JUMPDEST DUP5 ADD SWAP2 POP POP SWAP3 SWAP2 POP POP JUMP JUMPDEST PUSH1 0x0 PUSH2 0x24A9 PUSH1 0x12 DUP4 PUSH2 0x2893 JUMP JUMPDEST SWAP2 POP PUSH2 0x24B4 DUP3 PUSH2 0x2B3B JUMP JUMPDEST PUSH1 0x20 DUP3 ADD SWAP1 POP SWAP2 SWAP1 POP JUMP JUMPDEST PUSH1 0x0 PUSH2 0x24CC PUSH1 0x14 DUP4 PUSH2 0x2893 JUMP JUMPDEST SWAP2 POP PUSH2 0x24D7 DUP3 PUSH2 0x2B64 JUMP JUMPDEST PUSH1 0x20 DUP3 ADD SWAP1 POP SWAP2 SWAP1 POP JUMP JUMPDEST PUSH1 0x0 PUSH2 0x24EF PUSH1 0x0 DUP4 PUSH2 0x2888 JUMP JUMPDEST SWAP2 POP PUSH2 0x24FA DUP3 PUSH2 0x2B8D JUMP JUMPDEST PUSH1 0x0 DUP3 ADD SWAP1 POP SWAP2 SWAP1 POP JUMP JUMPDEST PUSH1 0x0 PUSH2 0x2512 PUSH1 0x17 DUP4 PUSH2 0x2893 JUMP JUMPDEST SWAP2 POP PUSH2 0x251D DUP3 PUSH2 0x2B90 JUMP JUMPDEST PUSH1 0x20 DUP3 ADD SWAP1 POP SWAP2 SWAP1 POP JUMP JUMPDEST PUSH2 0x240 DUP3 ADD PUSH1 0x0 DUP3 ADD MLOAD PUSH2 0x253F PUSH1 0x0 DUP6 ADD DUP3 PUSH2 0x262A JUMP JUMPDEST POP PUSH1 0x20 DUP3 ADD MLOAD PUSH2 0x2552 PUSH1 0x20 DUP6 ADD DUP3 PUSH2 0x262A JUMP JUMPDEST POP PUSH1 0x40 DUP3 ADD MLOAD PUSH2 0x2565 PUSH1 0x40 DUP6 ADD DUP3 PUSH2 0x25CC JUMP JUMPDEST POP PUSH1 0x60 DUP3 ADD MLOAD PUSH2 0x2578 PUSH1 0x80 DUP6 ADD DUP3 PUSH2 0x25CC JUMP JUMPDEST POP PUSH1 0x80 DUP3 ADD MLOAD PUSH2 0x258B PUSH1 0xC0 DUP6 ADD DUP3 PUSH2 0x2445 JUMP JUMPDEST POP PUSH1 0xA0 DUP3 ADD MLOAD PUSH2 0x259E PUSH1 0xE0 DUP6 ADD DUP3 PUSH2 0x2436 JUMP JUMPDEST POP PUSH1 0xC0 DUP3 ADD MLOAD PUSH2 0x25B2 PUSH2 0x100 DUP6 ADD DUP3 PUSH2 0x2427 JUMP JUMPDEST POP PUSH1 0xE0 DUP3 ADD MLOAD PUSH2 0x25C6 PUSH2 0x120 DUP6 ADD DUP3 PUSH2 0x236A JUMP JUMPDEST POP POP POP POP JUMP JUMPDEST PUSH1 0x40 DUP3 ADD PUSH1 0x0 DUP3 ADD MLOAD PUSH2 0x25E2 PUSH1 0x0 DUP6 ADD DUP3 PUSH2 0x234C JUMP JUMPDEST POP PUSH1 0x20 DUP3 ADD MLOAD PUSH2 0x25F5 PUSH1 0x20 DUP6 ADD DUP3 PUSH2 0x262A JUMP JUMPDEST POP POP POP POP JUMP JUMPDEST PUSH1 0x40 DUP3 ADD PUSH1 0x0 DUP3 ADD MLOAD PUSH2 0x2611 PUSH1 0x0 DUP6 ADD DUP3 PUSH2 0x234C JUMP JUMPDEST POP PUSH1 0x20 DUP3 ADD MLOAD PUSH2 0x2624 PUSH1 0x20 DUP6 ADD DUP3 PUSH2 0x262A JUMP JUMPDEST POP POP POP POP JUMP JUMPDEST PUSH2 0x2633 DUP2 PUSH2 0x29A5 JUMP JUMPDEST DUP3 MSTORE POP POP JUMP JUMPDEST PUSH2 0x2642 DUP2 PUSH2 0x29A5 JUMP JUMPDEST DUP3 MSTORE POP POP JUMP JUMPDEST PUSH2 0x2651 DUP2 PUSH2 0x29AF JUMP JUMPDEST DUP3 MSTORE POP POP JUMP JUMPDEST PUSH1 0x0 PUSH2 0x2662 DUP3 PUSH2 0x24E2 JUMP JUMPDEST SWAP2 POP DUP2 SWAP1 POP SWAP2 SWAP1 POP JUMP JUMPDEST PUSH1 0x0 PUSH1 0x40 DUP3 ADD SWAP1 POP PUSH2 0x2681 PUSH1 0x0 DUP4 ADD DUP6 PUSH2 0x2418 JUMP JUMPDEST DUP2 DUP2 SUB PUSH1 0x20 DUP4 ADD MSTORE PUSH2 0x2693 DUP2 DUP5 PUSH2 0x2463 JUMP JUMPDEST SWAP1 POP SWAP4 SWAP3 POP POP POP JUMP JUMPDEST PUSH1 0x0 PUSH1 0x20 DUP3 ADD SWAP1 POP DUP2 DUP2 SUB PUSH1 0x0 DUP4 ADD MSTORE PUSH2 0x26B6 DUP2 DUP5 PUSH2 0x2463 JUMP JUMPDEST SWAP1 POP SWAP3 SWAP2 POP POP JUMP JUMPDEST PUSH1 0x0 PUSH1 0x20 DUP3 ADD SWAP1 POP DUP2 DUP2 SUB PUSH1 0x0 DUP4 ADD MSTORE PUSH2 0x26D7 DUP2 PUSH2 0x249C JUMP JUMPDEST SWAP1 POP SWAP2 SWAP1 POP JUMP JUMPDEST PUSH1 0x0 PUSH1 0x20 DUP3 ADD SWAP1 POP DUP2 DUP2 SUB PUSH1 0x0 DUP4 ADD MSTORE PUSH2 0x26F7 DUP2 PUSH2 0x24BF JUMP JUMPDEST SWAP1 POP SWAP2 SWAP1 POP JUMP JUMPDEST PUSH1 0x0 PUSH1 0x20 DUP3 ADD SWAP1 POP DUP2 DUP2 SUB PUSH1 0x0 DUP4 ADD MSTORE PUSH2 0x2717 DUP2 PUSH2 0x2505 JUMP JUMPDEST SWAP1 POP SWAP2 SWAP1 POP JUMP JUMPDEST PUSH1 0x0 PUSH2 0x240 DUP3 ADD SWAP1 POP PUSH2 0x2734 PUSH1 0x0 DUP4 ADD DUP5 PUSH2 0x2528 JUMP JUMPDEST SWAP3 SWAP2 POP POP JUMP JUMPDEST PUSH1 0x0 PUSH1 0x20 DUP3 ADD SWAP1 POP PUSH2 0x274F PUSH1 0x0 DUP4 ADD DUP5 PUSH2 0x2639 JUMP JUMPDEST SWAP3 SWAP2 POP POP JUMP JUMPDEST PUSH1 0x0 PUSH1 0x40 DUP3 ADD SWAP1 POP PUSH2 0x276A PUSH1 0x0 DUP4 ADD DUP6 PUSH2 0x2639 JUMP JUMPDEST PUSH2 0x2777 PUSH1 0x20 DUP4 ADD DUP5 PUSH2 0x235B JUMP JUMPDEST SWAP4 SWAP3 POP POP POP JUMP JUMPDEST PUSH1 0x0 PUSH1 0x40 DUP3 ADD SWAP1 POP PUSH2 0x2793 PUSH1 0x0 DUP4 ADD DUP6 PUSH2 0x2639 JUMP JUMPDEST PUSH2 0x27A0 PUSH1 0x20 DUP4 ADD DUP5 PUSH2 0x2454 JUMP JUMPDEST SWAP4 SWAP3 POP POP POP JUMP JUMPDEST PUSH1 0x0 PUSH1 0xA0 DUP3 ADD SWAP1 POP PUSH2 0x27BC PUSH1 0x0 DUP4 ADD DUP8 PUSH2 0x2639 JUMP JUMPDEST PUSH2 0x27C9 PUSH1 0x20 DUP4 ADD DUP7 PUSH2 0x25FB JUMP JUMPDEST PUSH2 0x27D6 PUSH1 0x60 DUP4 ADD DUP6 PUSH2 0x2639 JUMP JUMPDEST PUSH2 0x27E3 PUSH1 0x80 DUP4 ADD DUP5 PUSH2 0x2639 JUMP JUMPDEST SWAP6 SWAP5 POP POP POP POP POP JUMP JUMPDEST PUSH1 0x0 PUSH1 0x80 DUP3 ADD SWAP1 POP PUSH2 0x2801 PUSH1 0x0 DUP4 ADD DUP7 PUSH2 0x2639 JUMP JUMPDEST PUSH2 0x280E PUSH1 0x20 DUP4 ADD DUP6 PUSH2 0x25FB JUMP JUMPDEST PUSH2 0x281B PUSH1 0x60 DUP4 ADD DUP5 PUSH2 0x2648 JUMP JUMPDEST SWAP5 SWAP4 POP POP POP POP JUMP JUMPDEST PUSH1 0x0 DUP2 SWAP1 POP SWAP2 SWAP1 POP JUMP JUMPDEST PUSH1 0x0 DUP2 SWAP1 POP SWAP2 SWAP1 POP JUMP JUMPDEST PUSH1 0x0 PUSH1 0x3 SWAP1 POP SWAP2 SWAP1 POP JUMP JUMPDEST PUSH1 0x0 PUSH1 0x3 SWAP1 POP SWAP2 SWAP1 POP JUMP JUMPDEST PUSH1 0x0 DUP2 MLOAD SWAP1 POP SWAP2 SWAP1 POP JUMP JUMPDEST PUSH1 0x0 PUSH1 0x20 DUP3 ADD SWAP1 POP SWAP2 SWAP1 POP JUMP JUMPDEST PUSH1 0x0 PUSH1 0x20 DUP3 ADD SWAP1 POP SWAP2 SWAP1 POP JUMP JUMPDEST PUSH1 0x0 DUP2 SWAP1 POP SWAP3 SWAP2 POP POP JUMP JUMPDEST PUSH1 0x0 DUP2 SWAP1 POP SWAP3 SWAP2 POP POP JUMP JUMPDEST PUSH1 0x0 DUP2 SWAP1 POP SWAP3 SWAP2 POP POP JUMP JUMPDEST PUSH1 0x0 DUP3 DUP3 MSTORE PUSH1 0x20 DUP3 ADD SWAP1 POP SWAP3 SWAP2 POP POP JUMP JUMPDEST PUSH1 0x0 PUSH2 0x28AF DUP3 PUSH2 0x29A5 JUMP JUMPDEST SWAP2 POP PUSH2 0x28BA DUP4 PUSH2 0x29A5 JUMP JUMPDEST SWAP3 POP DUP3 PUSH32 0xFFFFFFFFFFFFFFFFFFFFFFFFFFFFFFFFFFFFFFFFFFFFFFFFFFFFFFFFFFFFFFFF SUB DUP3 GT ISZERO PUSH2 0x28EF JUMPI PUSH2 0x28EE PUSH2 0x2A98 JUMP JUMPDEST JUMPDEST DUP3 DUP3 ADD SWAP1 POP SWAP3 SWAP2 POP POP JUMP JUMPDEST PUSH1 0x0 PUSH2 0x2905 DUP3 PUSH2 0x29A5 JUMP JUMPDEST SWAP2 POP PUSH2 0x2910 DUP4 PUSH2 0x29A5 JUMP JUMPDEST SWAP3 POP DUP3 DUP3 LT ISZERO PUSH2 0x2923 JUMPI PUSH2 0x2922 PUSH2 0x2A98 JUMP JUMPDEST JUMPDEST DUP3 DUP3 SUB SWAP1 POP SWAP3 SWAP2 POP POP JUMP JUMPDEST PUSH1 0x0 PUSH2 0x2939 DUP3 PUSH2 0x2985 JUMP JUMPDEST SWAP1 POP SWAP2 SWAP1 POP JUMP JUMPDEST PUSH1 0x0 DUP2 ISZERO ISZERO SWAP1 POP SWAP2 SWAP1 POP JUMP JUMPDEST PUSH1 0x0 DUP2 SWAP1 POP PUSH2 0x295A DUP3 PUSH2 0x2BB9 JUMP JUMPDEST SWAP2 SWAP1 POP JUMP JUMPDEST PUSH1 0x0 DUP2 SWAP1 POP PUSH2 0x296D DUP3 PUSH2 0x2BCD JUMP JUMPDEST SWAP2 SWAP1 POP JUMP JUMPDEST PUSH1 0x0 DUP2 SWAP1 POP PUSH2 0x2980 DUP3 PUSH2 0x2BE1 JUMP JUMPDEST SWAP2 SWAP1 POP JUMP JUMPDEST PUSH1 0x0 PUSH20 0xFFFFFFFFFFFFFFFFFFFFFFFFFFFFFFFFFFFFFFFF DUP3 AND SWAP1 POP SWAP2 SWAP1 POP JUMP JUMPDEST PUSH1 0x0 DUP2 SWAP1 POP SWAP2 SWAP1 POP JUMP JUMPDEST PUSH1 0x0 PUSH1 0xFF DUP3 AND SWAP1 POP SWAP2 SWAP1 POP JUMP JUMPDEST PUSH1 0x0 PUSH2 0x29C7 DUP3 PUSH2 0x294C JUMP JUMPDEST SWAP1 POP SWAP2 SWAP1 POP JUMP JUMPDEST PUSH1 0x0 PUSH2 0x29D9 DUP3 PUSH2 0x295F JUMP JUMPDEST SWAP1 POP SWAP2 SWAP1 POP JUMP JUMPDEST PUSH1 0x0 PUSH2 0x29EB DUP3 PUSH2 0x2972 JUMP JUMPDEST SWAP1 POP SWAP2 SWAP1 POP JUMP JUMPDEST PUSH1 0x0 JUMPDEST DUP4 DUP2 LT ISZERO PUSH2 0x2A10 JUMPI DUP1 DUP3 ADD MLOAD DUP2 DUP5 ADD MSTORE PUSH1 0x20 DUP2 ADD SWAP1 POP PUSH2 0x29F5 JUMP JUMPDEST DUP4 DUP2 GT ISZERO PUSH2 0x2A1F JUMPI PUSH1 0x0 DUP5 DUP5 ADD MSTORE JUMPDEST POP POP POP POP JUMP JUMPDEST PUSH1 0x0 PUSH2 0x2A30 DUP3 PUSH2 0x29A5 JUMP JUMPDEST SWAP2 POP PUSH32 0xFFFFFFFFFFFFFFFFFFFFFFFFFFFFFFFFFFFFFFFFFFFFFFFFFFFFFFFFFFFFFFFF DUP3 EQ ISZERO PUSH2 0x2A63 JUMPI PUSH2 0x2A62 PUSH2 0x2A98 JUMP JUMPDEST JUMPDEST PUSH1 0x1 DUP3 ADD SWAP1 POP SWAP2 SWAP1 POP JUMP JUMPDEST PUSH1 0x0 PUSH2 0x2A79 DUP3 PUSH2 0x29AF JUMP JUMPDEST SWAP2 POP PUSH1 0xFF DUP3 EQ ISZERO PUSH2 0x2A8D JUMPI PUSH2 0x2A8C PUSH2 0x2A98 JUMP JUMPDEST JUMPDEST PUSH1 0x1 DUP3 ADD SWAP1 POP SWAP2 SWAP1 POP JUMP JUMPDEST PUSH32 0x4E487B7100000000000000000000000000000000000000000000000000000000 PUSH1 0x0 MSTORE PUSH1 0x11 PUSH1 0x4 MSTORE PUSH1 0x24 PUSH1 0x0 REVERT JUMPDEST PUSH32 0x4E487B7100000000000000000000000000000000000000000000000000000000 PUSH1 0x0 MSTORE PUSH1 0x21 PUSH1 0x4 MSTORE PUSH1 0x24 PUSH1 0x0 REVERT JUMPDEST PUSH32 0x4E487B7100000000000000000000000000000000000000000000000000000000 PUSH1 0x0 MSTORE PUSH1 0x32 PUSH1 0x4 MSTORE PUSH1 0x24 PUSH1 0x0 REVERT JUMPDEST PUSH1 0x0 DUP1 REVERT JUMPDEST PUSH1 0x0 PUSH1 0x1F NOT PUSH1 0x1F DUP4 ADD AND SWAP1 POP SWAP2 SWAP1 POP JUMP JUMPDEST PUSH32 0x696E76616C69642062657420616D6F756E740000000000000000000000000000 PUSH1 0x0 DUP3 ADD MSTORE POP JUMP JUMPDEST PUSH32 0x4661696C656420746F2073656E64204574686572000000000000000000000000 PUSH1 0x0 DUP3 ADD MSTORE POP JUMP JUMPDEST POP JUMP JUMPDEST PUSH32 0x72657175697265645F62657420697320746F6F206C6F77000000000000000000 PUSH1 0x0 DUP3 ADD MSTORE POP JUMP JUMPDEST PUSH1 0x3 DUP2 LT PUSH2 0x2BCA JUMPI PUSH2 0x2BC9 PUSH2 0x2AC7 JUMP JUMPDEST JUMPDEST POP JUMP JUMPDEST PUSH1 0x3 DUP2 LT PUSH2 0x2BDE JUMPI PUSH2 0x2BDD PUSH2 0x2AC7 JUMP JUMPDEST JUMPDEST POP JUMP JUMPDEST PUSH1 0x4 DUP2 LT PUSH2 0x2BF2 JUMPI PUSH2 0x2BF1 PUSH2 0x2AC7 JUMP JUMPDEST JUMPDEST POP JUMP JUMPDEST PUSH2 0x2BFE DUP2 PUSH2 0x29A5 JUMP JUMPDEST DUP2 EQ PUSH2 0x2C09 JUMPI PUSH1 0x0 DUP1 REVERT JUMPDEST POP JUMP INVALID SLOAD PUSH9 0x65726520697320616C PUSH19 0x656164792061206D61726B2061742074686520 PUSH8 0x6976656E20636F6F PUSH19 0x64696E617465732E4265742073686F756C6420 PUSH3 0x652067 PUSH19 0x6561746572207468616E2061206665652EA264 PUSH10 0x706673582212202BD2E4 0xCE 0x26 LOG3 DUP5 0xCE NOT 0xB9 0xAF 0x5D INVALID MSTORE8 PUSH9 0x5D0034D8CD6E41EFE6 PUSH21 0xB59B0245A947E064736F6C63430008070033000000 "
				},
				"gasEstimates": {
					"creation": {
						"codeDepositCost": "2282400",
						"executionCost": "2441",
						"totalCost": "2284841"
					},
					"external": {
						"_makeMove(uint256,uint256,uint256)": "infinite",
						"getGameInfo(uint256)": "infinite",
						"joinGame(uint256)": "infinite",
						"makeMove(uint256,uint256,uint256)": "infinite",
						"newGame(uint256)": "infinite",
						"numberOfGames()": "2517"
					},
					"internal": {
						"_joinGame(uint256,uint256)": "infinite",
						"calculateWinner(enum TicTacToe.PlayerTypes[3] memory[3] memory)": "infinite",
						"getCurrentPlayer(struct TicTacToe.Game storage pointer)": "infinite",
						"isBoardFull(enum TicTacToe.PlayerTypes[3] memory[3] memory)": "infinite",
						"nextPlayer(struct TicTacToe.Game storage pointer)": "26635",
						"winnerInColumn(enum TicTacToe.PlayerTypes[3] memory[3] memory)": "infinite",
						"winnerInDiagonal(enum TicTacToe.PlayerTypes[3] memory[3] memory)": "infinite",
						"winnerInRow(enum TicTacToe.PlayerTypes[3] memory[3] memory)": "infinite"
					}
				},
				"methodIdentifiers": {
					"_makeMove(uint256,uint256,uint256)": "3f10d76b",
					"getGameInfo(uint256)": "47e1d550",
					"joinGame(uint256)": "efaa55a0",
					"makeMove(uint256,uint256,uint256)": "cfc2f5ff",
					"newGame(uint256)": "cde9ef78",
					"numberOfGames()": "f6928070"
				}
			},
			"storageLayout": {
				"storage": [
					{
						"astId": 54,
						"contract": "solidity/contracts/TicTacToe.sol:TicTacToe",
						"label": "games",
						"offset": 0,
						"slot": "0",
						"type": "t_mapping(t_uint256,t_struct(Game)49_storage)"
					},
					{
						"astId": 56,
						"contract": "solidity/contracts/TicTacToe.sol:TicTacToe",
						"label": "numberOfGames",
						"offset": 0,
						"slot": "1",
						"type": "t_uint256"
					}
				],
				"types": {
					"t_address": {
						"encoding": "inplace",
						"label": "address",
						"numberOfBytes": "20"
					},
					"t_array(t_array(t_enum(PlayerTypes)8)3_storage)3_storage": {
						"base": "t_array(t_enum(PlayerTypes)8)3_storage",
						"encoding": "inplace",
						"label": "enum TicTacToe.PlayerTypes[3][3]",
						"numberOfBytes": "96"
					},
					"t_array(t_enum(PlayerTypes)8)3_storage": {
						"base": "t_enum(PlayerTypes)8",
						"encoding": "inplace",
						"label": "enum TicTacToe.PlayerTypes[3]",
						"numberOfBytes": "32"
					},
					"t_enum(PlayerTypes)8": {
						"encoding": "inplace",
						"label": "enum TicTacToe.PlayerTypes",
						"numberOfBytes": "1"
					},
					"t_enum(Status)17": {
						"encoding": "inplace",
						"label": "enum TicTacToe.Status",
						"numberOfBytes": "1"
					},
					"t_enum(Winners)13": {
						"encoding": "inplace",
						"label": "enum TicTacToe.Winners",
						"numberOfBytes": "1"
					},
					"t_mapping(t_uint256,t_struct(Game)49_storage)": {
						"encoding": "mapping",
						"key": "t_uint256",
						"label": "mapping(uint256 => struct TicTacToe.Game)",
						"numberOfBytes": "32",
						"value": "t_struct(Game)49_storage"
					},
					"t_struct(Game)49_storage": {
						"encoding": "inplace",
						"label": "struct TicTacToe.Game",
						"members": [
							{
								"astId": 24,
								"contract": "solidity/contracts/TicTacToe.sol:TicTacToe",
								"label": "totalBet",
								"offset": 0,
								"slot": "0",
								"type": "t_uint256"
							},
							{
								"astId": 26,
								"contract": "solidity/contracts/TicTacToe.sol:TicTacToe",
								"label": "required_bet",
								"offset": 0,
								"slot": "1",
								"type": "t_uint256"
							},
							{
								"astId": 29,
								"contract": "solidity/contracts/TicTacToe.sol:TicTacToe",
								"label": "playerOne",
								"offset": 0,
								"slot": "2",
								"type": "t_struct(Player)22_storage"
							},
							{
								"astId": 32,
								"contract": "solidity/contracts/TicTacToe.sol:TicTacToe",
								"label": "playerTwo",
								"offset": 0,
								"slot": "4",
								"type": "t_struct(Player)22_storage"
							},
							{
								"astId": 35,
								"contract": "solidity/contracts/TicTacToe.sol:TicTacToe",
								"label": "winner",
								"offset": 0,
								"slot": "6",
								"type": "t_enum(Winners)13"
							},
							{
								"astId": 38,
								"contract": "solidity/contracts/TicTacToe.sol:TicTacToe",
								"label": "status",
								"offset": 1,
								"slot": "6",
								"type": "t_enum(Status)17"
							},
							{
								"astId": 41,
								"contract": "solidity/contracts/TicTacToe.sol:TicTacToe",
								"label": "playerTurn",
								"offset": 2,
								"slot": "6",
								"type": "t_enum(PlayerTypes)8"
							},
							{
								"astId": 48,
								"contract": "solidity/contracts/TicTacToe.sol:TicTacToe",
								"label": "board",
								"offset": 0,
								"slot": "7",
								"type": "t_array(t_array(t_enum(PlayerTypes)8)3_storage)3_storage"
							}
						],
						"numberOfBytes": "320"
					},
					"t_struct(Player)22_storage": {
						"encoding": "inplace",
						"label": "struct TicTacToe.Player",
						"members": [
							{
								"astId": 19,
								"contract": "solidity/contracts/TicTacToe.sol:TicTacToe",
								"label": "addr",
								"offset": 0,
								"slot": "0",
								"type": "t_address"
							},
							{
								"astId": 21,
								"contract": "solidity/contracts/TicTacToe.sol:TicTacToe",
								"label": "bet",
								"offset": 0,
								"slot": "1",
								"type": "t_uint256"
							}
						],
						"numberOfBytes": "64"
					},
					"t_uint256": {
						"encoding": "inplace",
						"label": "uint256",
						"numberOfBytes": "32"
					}
				}
			},
			"userdoc": {
				"kind": "user",
				"methods": {},
				"version": 1
			}
		}
	}
}