{
	"data": {
		"bytecode": {
			"linkReferences": {},
			"object": "608060405234801561001057600080fd5b50612c94806100206000396000f3fe6080604052600436106100555760003560e01c80633f10d76b1461005a57806347e1d55014610098578063cde9ef78146100d5578063cfc2f5ff14610112578063efaa55a01461013b578063f692807014610157575b600080fd5b34801561006657600080fd5b50610081600480360381019061007c91906122c9565b610182565b60405161008f92919061266c565b60405180910390f35b3480156100a457600080fd5b506100bf60048036038101906100ba919061229c565b610990565b6040516100cc919061271e565b60405180910390f35b3480156100e157600080fd5b506100fc60048036038101906100f7919061229c565b610c19565b604051610109919061273a565b60405180910390f35b34801561011e57600080fd5b50610139600480360381019061013491906122c9565b610ebf565b005b6101556004803603810190610150919061229c565b610f21565b005b34801561016357600080fd5b5061016c610f80565b604051610179919061273a565b60405180910390f35b600060606001548511156101d15760006040518060400160405280601481526020017f4e6f20737563682067616d65206578697374732e00000000000000000000000081525091509150610988565b60008060008781526020019081526020016000209050600160028111156101fb576101fa612ac7565b5b8160060160019054906101000a900460ff16600281111561021f5761021e612ac7565b5b146102665760006040518060400160405280601781526020017f47616d65206973206e6f7420696e2070726f67726573730000000000000000008152509250925050610988565b600061027182610f86565b9050600073ffffffffffffffffffffffffffffffffffffffff16816000015173ffffffffffffffffffffffffffffffffffffffff1614156102ef5760006040518060400160405280601981526020017f43757272656e7420706c61796572206e6f7420666f756e642e00000000000000815250935093505050610988565b6000600381111561030357610302612ac7565b5b8260060160009054906101000a900460ff16600381111561032757610326612ac7565b5b1461036f5760006040518060400160405280601b81526020017f5468652067616d652068617320616c726561647920656e6465642e0000000000815250935093505050610988565b806000015173ffffffffffffffffffffffffffffffffffffffff163373ffffffffffffffffffffffffffffffffffffffff16146103e95760006040518060400160405280601481526020017f4974206973206e6f7420796f7572207475726e2e000000000000000000000000815250935093505050610988565b600060028111156103fd576103fc612ac7565b5b82600701876003811061041357610412612af6565b5b01866003811061042657610425612af6565b5b602091828204019190069054906101000a900460ff16600281111561044e5761044d612ac7565b5b14610479576000604051806060016040528060318152602001612c0d60319139935093505050610988565b8160060160029054906101000a900460ff168260070187600381106104a1576104a0612af6565b5b0186600381106104b4576104b3612af6565b5b602091828204019190066101000a81548160ff021916908360028111156104de576104dd612ac7565b5b02179055507f444b0deb3730bdca0248ebb6366b24e3b793732b3555a5bfaad868ecef34ffc18782888860405161051894939291906127a7565b60405180910390a160006105d483600701600380602002604051908101604052809291906000905b828210156105cb578382016003806020026040519081016040528092919082600380156105b7576020028201916000905b82829054906101000a900460ff16600281111561059157610590612ac7565b5b815260200190600101906020826000010492830192600103820291508084116105715790505b505050505081526020019060010190610540565b5050505061112a565b9050600060038111156105ea576105e9612ac7565b5b8160038111156105fd576105fc612ac7565b5b1461096557808360060160006101000a81548160ff0219169083600381111561062957610628612ac7565b5b021790555060028360060160016101000a81548160ff0219169083600281111561065657610655612ac7565b5b021790555060038081111561066e5761066d612ac7565b5b81600381111561068157610680612ac7565b5b1415610847576000808460020160000160009054906101000a900473ffffffffffffffffffffffffffffffffffffffff1673ffffffffffffffffffffffffffffffffffffffff1685600201600101546040516106dc90612657565b60006040518083038185875af1925050503d8060008114610719576040519150601f19603f3d011682016040523d82523d6000602084013e61071e565b606091505b509150915081610763576040517f08c379a000000000000000000000000000000000000000000000000000000000815260040161075a906126de565b60405180910390fd5b8460040160000160009054906101000a900473ffffffffffffffffffffffffffffffffffffffff1673ffffffffffffffffffffffffffffffffffffffff1685600401600101546040516107b590612657565b60006040518083038185875af1925050503d80600081146107f2576040519150601f19603f3d011682016040523d82523d6000602084013e6107f7565b606091505b50809250819350505081610840576040517f08c379a0000000000000000000000000000000000000000000000000000000008152600401610837906126de565b60405180910390fd5b505061090e565b600061085284610f86565b9050600080826000015173ffffffffffffffffffffffffffffffffffffffff16866000015460405161088390612657565b60006040518083038185875af1925050503d80600081146108c0576040519150601f19603f3d011682016040523d82523d6000602084013e6108c5565b606091505b50915091508161090a576040517f08c379a0000000000000000000000000000000000000000000000000000000008152600401610901906126de565b60405180910390fd5b5050505b7f132b564c6f96092065580fd28989d181dfbbfe4aa2fb7fb1eda8af68ba3073e0888260405161093f92919061277e565b60405180910390a160016040518060200160405280600081525094509450505050610988565b61096e836112b8565b600160405180602001604052806000815250945094505050505b935093915050565b61099861203c565b600080838152602001908152602001600020604051806101000160405290816000820154815260200160018201548152602001600282016040518060400160405290816000820160009054906101000a900473ffffffffffffffffffffffffffffffffffffffff1673ffffffffffffffffffffffffffffffffffffffff1673ffffffffffffffffffffffffffffffffffffffff1681526020016001820154815250508152602001600482016040518060400160405290816000820160009054906101000a900473ffffffffffffffffffffffffffffffffffffffff1673ffffffffffffffffffffffffffffffffffffffff1673ffffffffffffffffffffffffffffffffffffffff16815260200160018201548152505081526020016006820160009054906101000a900460ff166003811115610ad757610ad6612ac7565b5b6003811115610ae957610ae8612ac7565b5b81526020016006820160019054906101000a900460ff166002811115610b1257610b11612ac7565b5b6002811115610b2457610b23612ac7565b5b81526020016006820160029054906101000a900460ff166002811115610b4d57610b4c612ac7565b5b6002811115610b5f57610b5e612ac7565b5b815260200160078201600380602002604051908101604052809291906000905b82821015610c0a57838201600380602002604051908101604052809291908260038015610bf6576020028201916000905b82829054906101000a900460ff166002811115610bd057610bcf612ac7565b5b81526020019060010190602082600001049283019260010382029150808411610bb05790505b505050505081526020019060010190610b7f565b50505050815250509050919050565b6000633b9aca008211610c61576040517f08c379a0000000000000000000000000000000000000000000000000000000008152600401610c58906126fe565b60405180910390fd5b610c6961203c565b60018160c001906002811115610c8257610c81612ac7565b5b90816002811115610c9657610c95612ac7565b5b8152505060008160a001906002811115610cb357610cb2612ac7565b5b90816002811115610cc757610cc6612ac7565b5b815250508281602001818152505060016000815480929190610ce890612a25565b9190505550806000806001548152602001908152602001600020600082015181600001556020820151816001015560408201518160020160008201518160000160006101000a81548173ffffffffffffffffffffffffffffffffffffffff021916908373ffffffffffffffffffffffffffffffffffffffff16021790555060208201518160010155505060608201518160040160008201518160000160006101000a81548173ffffffffffffffffffffffffffffffffffffffff021916908373ffffffffffffffffffffffffffffffffffffffff16021790555060208201518160010155505060808201518160060160006101000a81548160ff02191690836003811115610df957610df8612ac7565b5b021790555060a08201518160060160016101000a81548160ff02191690836002811115610e2957610e28612ac7565b5b021790555060c08201518160060160026101000a81548160ff02191690836002811115610e5957610e58612ac7565b5b021790555060e082015181600701906003610e759291906120c9565b509050507fc3e0f84839dc888c892a013d10c8f9d6dc05a21a879d0ce468ca558013e9121c60015433604051610eac929190612755565b60405180910390a1600154915050919050565b60006060610ece858585610182565b8092508193505050818190610f19576040517f08c379a0000000000000000000000000000000000000000000000000000000008152600401610f10919061269c565b60405180910390fd5b505050505050565b60006060610f2f3484611359565b8092508193505050818190610f7a576040517f08c379a0000000000000000000000000000000000000000000000000000000008152600401610f71919061269c565b60405180910390fd5b50505050565b60015481565b610f8e612117565b60016002811115610fa257610fa1612ac7565b5b8260060160029054906101000a900460ff166002811115610fc657610fc5612ac7565b5b141561104257816002016040518060400160405290816000820160009054906101000a900473ffffffffffffffffffffffffffffffffffffffff1673ffffffffffffffffffffffffffffffffffffffff1673ffffffffffffffffffffffffffffffffffffffff1681526020016001820154815250509050611125565b60028081111561105557611054612ac7565b5b8260060160029054906101000a900460ff16600281111561107957611078612ac7565b5b14156110f557816004016040518060400160405290816000820160009054906101000a900473ffffffffffffffffffffffffffffffffffffffff1673ffffffffffffffffffffffffffffffffffffffff1673ffffffffffffffffffffffffffffffffffffffff1681526020016001820154815250509050611125565b6040518060400160405280600073ffffffffffffffffffffffffffffffffffffffff168152602001600081525090505b919050565b60008061113683611821565b90506001600281111561114c5761114b612ac7565b5b81600281111561115f5761115e612ac7565b5b141561116f5760019150506112b3565b60028081111561118257611181612ac7565b5b81600281111561119557611194612ac7565b5b14156111a55760029150506112b3565b6111ae83611a14565b9050600160028111156111c4576111c3612ac7565b5b8160028111156111d7576111d6612ac7565b5b14156111e75760019150506112b3565b6002808111156111fa576111f9612ac7565b5b81600281111561120d5761120c612ac7565b5b141561121d5760029150506112b3565b61122683611c07565b90506001600281111561123c5761123b612ac7565b5b81600281111561124f5761124e612ac7565b5b141561125f5760019150506112b3565b60028081111561127257611271612ac7565b5b81600281111561128557611284612ac7565b5b14156112955760029150506112b3565b61129e83611f7b565b156112ad5760039150506112b3565b60009150505b919050565b600160028111156112cc576112cb612ac7565b5b8160060160029054906101000a900460ff1660028111156112f0576112ef612ac7565b5b14156113285760028160060160026101000a81548160ff0219169083600281111561131e5761131d612ac7565b5b0217905550611356565b60018160060160026101000a81548160ff021916908360028111156113505761134f612ac7565b5b02179055505b50565b60006060633b9aca00841161138c576000604051806060016040528060218152602001612c3e602191399150915061181a565b60008414156113d65760006040518060400160405280600f81526020017f4e6f2065746820737461636b65642e00000000000000000000000000000000008152509150915061181a565b6001548311156114215760006040518060400160405280601481526020017f4e6f20737563682067616d65206578697374732e0000000000000000000000008152509150915061181a565b600060405180604001604052803373ffffffffffffffffffffffffffffffffffffffff168152602001633b9aca008761145a91906128fa565b815250905060008060008681526020019081526020016000209050806001015486146114bb576040517f08c379a00000000000000000000000000000000000000000000000000000000081526004016114b2906126be565b60405180910390fd5b600073ffffffffffffffffffffffffffffffffffffffff168160020160000160009054906101000a900473ffffffffffffffffffffffffffffffffffffffff1673ffffffffffffffffffffffffffffffffffffffff16141561160557818160020160008201518160000160006101000a81548173ffffffffffffffffffffffffffffffffffffffff021916908373ffffffffffffffffffffffffffffffffffffffff16021790555060208201518160010155905050633b9aca008661158091906128fa565b81600001600082825461159391906128a4565b925050819055507fb7b142da4d5e7153b4b889be2bc2a3f6c16ed957358651736fd8d54cd3067e838583600160028111156115d1576115d0612ac7565b5b6040516115e0939291906127ec565b60405180910390a160016040518060200160405280600081525093509350505061181a565b600073ffffffffffffffffffffffffffffffffffffffff168160040160000160009054906101000a900473ffffffffffffffffffffffffffffffffffffffff1673ffffffffffffffffffffffffffffffffffffffff1614156117db573373ffffffffffffffffffffffffffffffffffffffff168160020160000160009054906101000a900473ffffffffffffffffffffffffffffffffffffffff1673ffffffffffffffffffffffffffffffffffffffff1614156116c157600080fd5b818160040160008201518160000160006101000a81548173ffffffffffffffffffffffffffffffffffffffff021916908373ffffffffffffffffffffffffffffffffffffffff16021790555060208201518160010155905050633b9aca008661172a91906128fa565b81600001600082825461173d91906128a4565b925050819055507fb7b142da4d5e7153b4b889be2bc2a3f6c16ed957358651736fd8d54cd3067e83858360028081111561177a57611779612ac7565b5b604051611789939291906127ec565b60405180910390a160018160060160016101000a81548160ff021916908360028111156117b9576117b8612ac7565b5b021790555060016040518060200160405280600081525093509350505061181a565b60006040518060400160405280601081526020017f416c6c2073656174732074616b656e2e000000000000000000000000000000008152509350935050505b9250929050565b600080600090505b60038160ff161015611a0957828160ff166003811061184b5761184a612af6565b5b602002015160016003811061186357611862612af6565b5b6020020151600281111561187a57611879612ac7565b5b838260ff16600381106118905761188f612af6565b5b60200201516000600381106118a8576118a7612af6565b5b602002015160028111156118bf576118be612ac7565b5b1480156119535750828160ff16600381106118dd576118dc612af6565b5b60200201516002600381106118f5576118f4612af6565b5b6020020151600281111561190c5761190b612ac7565b5b838260ff166003811061192257611921612af6565b5b602002015160016003811061193a57611939612af6565b5b6020020151600281111561195157611950612ac7565b5b145b80156119b657506000600281111561196e5761196d612ac7565b5b838260ff166003811061198457611983612af6565b5b602002015160006003811061199c5761199b612af6565b5b602002015160028111156119b3576119b2612ac7565b5b14155b156119f657828160ff16600381106119d1576119d0612af6565b5b60200201516000600381106119e9576119e8612af6565b5b6020020151915050611a0f565b8080611a0190612a6e565b915050611829565b50600090505b919050565b600080600090505b60038160ff161015611bfc5782600160038110611a3c57611a3b612af6565b5b60200201518160ff1660038110611a5657611a55612af6565b5b60200201516002811115611a6d57611a6c612ac7565b5b83600060038110611a8157611a80612af6565b5b60200201518260ff1660038110611a9b57611a9a612af6565b5b60200201516002811115611ab257611ab1612ac7565b5b148015611b46575082600260038110611ace57611acd612af6565b5b60200201518160ff1660038110611ae857611ae7612af6565b5b60200201516002811115611aff57611afe612ac7565b5b83600160038110611b1357611b12612af6565b5b60200201518260ff1660038110611b2d57611b2c612af6565b5b60200201516002811115611b4457611b43612ac7565b5b145b8015611ba9575060006002811115611b6157611b60612ac7565b5b83600060038110611b7557611b74612af6565b5b60200201518260ff1660038110611b8f57611b8e612af6565b5b60200201516002811115611ba657611ba5612ac7565b5b14155b15611be95782600060038110611bc257611bc1612af6565b5b60200201518160ff1660038110611bdc57611bdb612af6565b5b6020020151915050611c02565b8080611bf490612a6e565b915050611a1c565b50600090505b919050565b600081600160038110611c1d57611c1c612af6565b5b6020020151600160038110611c3557611c34612af6565b5b60200201516002811115611c4c57611c4b612ac7565b5b82600060038110611c6057611c5f612af6565b5b6020020151600060038110611c7857611c77612af6565b5b60200201516002811115611c8f57611c8e612ac7565b5b148015611d1f575081600260038110611cab57611caa612af6565b5b6020020151600260038110611cc357611cc2612af6565b5b60200201516002811115611cda57611cd9612ac7565b5b82600160038110611cee57611ced612af6565b5b6020020151600160038110611d0657611d05612af6565b5b60200201516002811115611d1d57611d1c612ac7565b5b145b8015611d80575060006002811115611d3a57611d39612ac7565b5b82600060038110611d4e57611d4d612af6565b5b6020020151600060038110611d6657611d65612af6565b5b60200201516002811115611d7d57611d7c612ac7565b5b14155b15611dbd5781600060038110611d9957611d98612af6565b5b6020020151600060038110611db157611db0612af6565b5b60200201519050611f76565b81600160038110611dd157611dd0612af6565b5b6020020151600160038110611de957611de8612af6565b5b60200201516002811115611e0057611dff612ac7565b5b82600060038110611e1457611e13612af6565b5b6020020151600260038110611e2c57611e2b612af6565b5b60200201516002811115611e4357611e42612ac7565b5b148015611ed3575081600260038110611e5f57611e5e612af6565b5b6020020151600060038110611e7757611e76612af6565b5b60200201516002811115611e8e57611e8d612ac7565b5b82600160038110611ea257611ea1612af6565b5b6020020151600160038110611eba57611eb9612af6565b5b60200201516002811115611ed157611ed0612ac7565b5b145b8015611f34575060006002811115611eee57611eed612ac7565b5b82600060038110611f0257611f01612af6565b5b6020020151600260038110611f1a57611f19612af6565b5b60200201516002811115611f3157611f30612ac7565b5b14155b15611f715781600060038110611f4d57611f4c612af6565b5b6020020151600260038110611f6557611f64612af6565b5b60200201519050611f76565b600090505b919050565b600080600090505b60038160ff1610156120315760005b60038160ff16101561201d5760006002811115611fb257611fb1612ac7565b5b848360ff1660038110611fc857611fc7612af6565b5b60200201518260ff1660038110611fe257611fe1612af6565b5b60200201516002811115611ff957611ff8612ac7565b5b141561200a57600092505050612037565b808061201590612a6e565b915050611f92565b50808061202990612a6e565b915050611f83565b50600190505b919050565b604051806101000160405280600081526020016000815260200161205e612117565b815260200161206b612117565b81526020016000600381111561208457612083612ac7565b5b81526020016000600281111561209d5761209c612ac7565b5b8152602001600060028111156120b6576120b5612ac7565b5b81526020016120c3612147565b81525090565b8260038101928215612106579160200282015b82811115612105578251829060036120f5929190612174565b50916020019190600101906120dc565b5b509050612113919061221d565b5090565b6040518060400160405280600073ffffffffffffffffffffffffffffffffffffffff168152602001600081525090565b60405180606001604052806003905b61215e612241565b8152602001906001900390816121565790505090565b826003601f0160209004810192821561220c5791602002820160005b838211156121dd57835183826101000a81548160ff021916908360028111156121bc576121bb612ac7565b5b02179055509260200192600101602081600001049283019260010302612190565b801561220a5782816101000a81549060ff02191690556001016020816000010492830192600103026121dd565b505b5090506122199190612263565b5090565b5b8082111561223d57600081816122349190612280565b5060010161221e565b5090565b6040518060600160405280600390602082028036833780820191505090505090565b5b8082111561227c576000816000905550600101612264565b5090565b5060009055565b60008135905061229681612bf5565b92915050565b6000602082840312156122b2576122b1612b25565b5b60006122c084828501612287565b91505092915050565b6000806000606084860312156122e2576122e1612b25565b5b60006122f086828701612287565b935050602061230186828701612287565b925050604061231286828701612287565b9150509250925092565b600061232883836123c1565b60608301905092915050565b60006123408383612427565b60208301905092915050565b6123558161292e565b82525050565b6123648161292e565b82525050565b61237381612837565b61237d8184612872565b925061238882612823565b8060005b838110156123b95781516123a0878261231c565b96506123ab83612858565b92505060018101905061238c565b505050505050565b6123ca81612842565b6123d4818461287d565b92506123df8261282d565b8060005b838110156124105781516123f78782612334565b965061240283612865565b9250506001810190506123e3565b505050505050565b61242181612940565b82525050565b612430816129bc565b82525050565b61243f816129ce565b82525050565b61244e816129e0565b82525050565b61245d816129e0565b82525050565b600061246e8261284d565b6124788185612893565b93506124888185602086016129f2565b61249181612b2a565b840191505092915050565b60006124a9601283612893565b91506124b482612b3b565b602082019050919050565b60006124cc601483612893565b91506124d782612b64565b602082019050919050565b60006124ef600083612888565b91506124fa82612b8d565b600082019050919050565b6000612512601783612893565b915061251d82612b90565b602082019050919050565b6102408201600082015161253f600085018261262a565b506020820151612552602085018261262a565b50604082015161256560408501826125cc565b50606082015161257860808501826125cc565b50608082015161258b60c0850182612445565b5060a082015161259e60e0850182612436565b5060c08201516125b2610100850182612427565b5060e08201516125c661012085018261236a565b50505050565b6040820160008201516125e2600085018261234c565b5060208201516125f5602085018261262a565b50505050565b604082016000820151612611600085018261234c565b506020820151612624602085018261262a565b50505050565b612633816129a5565b82525050565b612642816129a5565b82525050565b612651816129af565b82525050565b6000612662826124e2565b9150819050919050565b60006040820190506126816000830185612418565b81810360208301526126938184612463565b90509392505050565b600060208201905081810360008301526126b68184612463565b905092915050565b600060208201905081810360008301526126d78161249c565b9050919050565b600060208201905081810360008301526126f7816124bf565b9050919050565b6000602082019050818103600083015261271781612505565b9050919050565b6000610240820190506127346000830184612528565b92915050565b600060208201905061274f6000830184612639565b92915050565b600060408201905061276a6000830185612639565b612777602083018461235b565b9392505050565b60006040820190506127936000830185612639565b6127a06020830184612454565b9392505050565b600060a0820190506127bc6000830187612639565b6127c960208301866125fb565b6127d66060830185612639565b6127e36080830184612639565b95945050505050565b60006080820190506128016000830186612639565b61280e60208301856125fb565b61281b6060830184612648565b949350505050565b6000819050919050565b6000819050919050565b600060039050919050565b600060039050919050565b600081519050919050565b6000602082019050919050565b6000602082019050919050565b600081905092915050565b600081905092915050565b600081905092915050565b600082825260208201905092915050565b60006128af826129a5565b91506128ba836129a5565b9250827fffffffffffffffffffffffffffffffffffffffffffffffffffffffffffffffff038211156128ef576128ee612a98565b5b828201905092915050565b6000612905826129a5565b9150612910836129a5565b92508282101561292357612922612a98565b5b828203905092915050565b600061293982612985565b9050919050565b60008115159050919050565b600081905061295a82612bb9565b919050565b600081905061296d82612bcd565b919050565b600081905061298082612be1565b919050565b600073ffffffffffffffffffffffffffffffffffffffff82169050919050565b6000819050919050565b600060ff82169050919050565b60006129c78261294c565b9050919050565b60006129d98261295f565b9050919050565b60006129eb82612972565b9050919050565b60005b83811015612a105780820151818401526020810190506129f5565b83811115612a1f576000848401525b50505050565b6000612a30826129a5565b91507fffffffffffffffffffffffffffffffffffffffffffffffffffffffffffffffff821415612a6357612a62612a98565b5b600182019050919050565b6000612a79826129af565b915060ff821415612a8d57612a8c612a98565b5b600182019050919050565b7f4e487b7100000000000000000000000000000000000000000000000000000000600052601160045260246000fd5b7f4e487b7100000000000000000000000000000000000000000000000000000000600052602160045260246000fd5b7f4e487b7100000000000000000000000000000000000000000000000000000000600052603260045260246000fd5b600080fd5b6000601f19601f8301169050919050565b7f696e76616c69642062657420616d6f756e740000000000000000000000000000600082015250565b7f4661696c656420746f2073656e64204574686572000000000000000000000000600082015250565b50565b7f72657175697265645f62657420697320746f6f206c6f77000000000000000000600082015250565b60038110612bca57612bc9612ac7565b5b50565b60038110612bde57612bdd612ac7565b5b50565b60048110612bf257612bf1612ac7565b5b50565b612bfe816129a5565b8114612c0957600080fd5b5056fe546865726520697320616c72656164792061206d61726b2061742074686520676976656e20636f6f7264696e617465732e4265742073686f756c642062652067726561746572207468616e2061206665652ea26469706673582212202bd2e4ce26a384ce19b9af5dfe53685d0034d8cd6e41efe674b59b0245a947e064736f6c63430008070033",
			"opcodes": "PUSH1 0x80 PUSH1 0x40 MSTORE CALLVALUE DUP1 ISZERO PUSH2 0x10 JUMPI PUSH1 0x0 DUP1 REVERT JUMPDEST POP PUSH2 0x2C94 DUP1 PUSH2 0x20 PUSH1 0x0 CODECOPY PUSH1 0x0 RETURN INVALID PUSH1 0x80 PUSH1 0x40 MSTORE PUSH1 0x4 CALLDATASIZE LT PUSH2 0x55 JUMPI PUSH1 0x0 CALLDATALOAD PUSH1 0xE0 SHR DUP1 PUSH4 0x3F10D76B EQ PUSH2 0x5A JUMPI DUP1 PUSH4 0x47E1D550 EQ PUSH2 0x98 JUMPI DUP1 PUSH4 0xCDE9EF78 EQ PUSH2 0xD5 JUMPI DUP1 PUSH4 0xCFC2F5FF EQ PUSH2 0x112 JUMPI DUP1 PUSH4 0xEFAA55A0 EQ PUSH2 0x13B JUMPI DUP1 PUSH4 0xF6928070 EQ PUSH2 0x157 JUMPI JUMPDEST PUSH1 0x0 DUP1 REVERT JUMPDEST CALLVALUE DUP1 ISZERO PUSH2 0x66 JUMPI PUSH1 0x0 DUP1 REVERT JUMPDEST POP PUSH2 0x81 PUSH1 0x4 DUP1 CALLDATASIZE SUB DUP2 ADD SWAP1 PUSH2 0x7C SWAP2 SWAP1 PUSH2 0x22C9 JUMP JUMPDEST PUSH2 0x182 JUMP JUMPDEST PUSH1 0x40 MLOAD PUSH2 0x8F SWAP3 SWAP2 SWAP1 PUSH2 0x266C JUMP JUMPDEST PUSH1 0x40 MLOAD DUP1 SWAP2 SUB SWAP1 RETURN JUMPDEST CALLVALUE DUP1 ISZERO PUSH2 0xA4 JUMPI PUSH1 0x0 DUP1 REVERT JUMPDEST POP PUSH2 0xBF PUSH1 0x4 DUP1 CALLDATASIZE SUB DUP2 ADD SWAP1 PUSH2 0xBA SWAP2 SWAP1 PUSH2 0x229C JUMP JUMPDEST PUSH2 0x990 JUMP JUMPDEST PUSH1 0x40 MLOAD PUSH2 0xCC SWAP2 SWAP1 PUSH2 0x271E JUMP JUMPDEST PUSH1 0x40 MLOAD DUP1 SWAP2 SUB SWAP1 RETURN JUMPDEST CALLVALUE DUP1 ISZERO PUSH2 0xE1 JUMPI PUSH1 0x0 DUP1 REVERT JUMPDEST POP PUSH2 0xFC PUSH1 0x4 DUP1 CALLDATASIZE SUB DUP2 ADD SWAP1 PUSH2 0xF7 SWAP2 SWAP1 PUSH2 0x229C JUMP JUMPDEST PUSH2 0xC19 JUMP JUMPDEST PUSH1 0x40 MLOAD PUSH2 0x109 SWAP2 SWAP1 PUSH2 0x273A JUMP JUMPDEST PUSH1 0x40 MLOAD DUP1 SWAP2 SUB SWAP1 RETURN JUMPDEST CALLVALUE DUP1 ISZERO PUSH2 0x11E JUMPI PUSH1 0x0 DUP1 REVERT JUMPDEST POP PUSH2 0x139 PUSH1 0x4 DUP1 CALLDATASIZE SUB DUP2 ADD SWAP1 PUSH2 0x134 SWAP2 SWAP1 PUSH2 0x22C9 JUMP JUMPDEST PUSH2 0xEBF JUMP JUMPDEST STOP JUMPDEST PUSH2 0x155 PUSH1 0x4 DUP1 CALLDATASIZE SUB DUP2 ADD SWAP1 PUSH2 0x150 SWAP2 SWAP1 PUSH2 0x229C JUMP JUMPDEST PUSH2 0xF21 JUMP JUMPDEST STOP JUMPDEST CALLVALUE DUP1 ISZERO PUSH2 0x163 JUMPI PUSH1 0x0 DUP1 REVERT JUMPDEST POP PUSH2 0x16C PUSH2 0xF80 JUMP JUMPDEST PUSH1 0x40 MLOAD PUSH2 0x179 SWAP2 SWAP1 PUSH2 0x273A JUMP JUMPDEST PUSH1 0x40 MLOAD DUP1 SWAP2 SUB SWAP1 RETURN JUMPDEST PUSH1 0x0 PUSH1 0x60 PUSH1 0x1 SLOAD DUP6 GT ISZERO PUSH2 0x1D1 JUMPI PUSH1 0x0 PUSH1 0x40 MLOAD DUP1 PUSH1 0x40 ADD PUSH1 0x40 MSTORE DUP1 PUSH1 0x14 DUP2 MSTORE PUSH1 0x20 ADD PUSH32 0x4E6F20737563682067616D65206578697374732E000000000000000000000000 DUP2 MSTORE POP SWAP2 POP SWAP2 POP PUSH2 0x988 JUMP JUMPDEST PUSH1 0x0 DUP1 PUSH1 0x0 DUP8 DUP2 MSTORE PUSH1 0x20 ADD SWAP1 DUP2 MSTORE PUSH1 0x20 ADD PUSH1 0x0 KECCAK256 SWAP1 POP PUSH1 0x1 PUSH1 0x2 DUP2 GT ISZERO PUSH2 0x1FB JUMPI PUSH2 0x1FA PUSH2 0x2AC7 JUMP JUMPDEST JUMPDEST DUP2 PUSH1 0x6 ADD PUSH1 0x1 SWAP1 SLOAD SWAP1 PUSH2 0x100 EXP SWAP1 DIV PUSH1 0xFF AND PUSH1 0x2 DUP2 GT ISZERO PUSH2 0x21F JUMPI PUSH2 0x21E PUSH2 0x2AC7 JUMP JUMPDEST JUMPDEST EQ PUSH2 0x266 JUMPI PUSH1 0x0 PUSH1 0x40 MLOAD DUP1 PUSH1 0x40 ADD PUSH1 0x40 MSTORE DUP1 PUSH1 0x17 DUP2 MSTORE PUSH1 0x20 ADD PUSH32 0x47616D65206973206E6F7420696E2070726F6772657373000000000000000000 DUP2 MSTORE POP SWAP3 POP SWAP3 POP POP PUSH2 0x988 JUMP JUMPDEST PUSH1 0x0 PUSH2 0x271 DUP3 PUSH2 0xF86 JUMP JUMPDEST SWAP1 POP PUSH1 0x0 PUSH20 0xFFFFFFFFFFFFFFFFFFFFFFFFFFFFFFFFFFFFFFFF AND DUP2 PUSH1 0x0 ADD MLOAD PUSH20 0xFFFFFFFFFFFFFFFFFFFFFFFFFFFFFFFFFFFFFFFF AND EQ ISZERO PUSH2 0x2EF JUMPI PUSH1 0x0 PUSH1 0x40 MLOAD DUP1 PUSH1 0x40 ADD PUSH1 0x40 MSTORE DUP1 PUSH1 0x19 DUP2 MSTORE PUSH1 0x20 ADD PUSH32 0x43757272656E7420706C61796572206E6F7420666F756E642E00000000000000 DUP2 MSTORE POP SWAP4 POP SWAP4 POP POP POP PUSH2 0x988 JUMP JUMPDEST PUSH1 0x0 PUSH1 0x3 DUP2 GT ISZERO PUSH2 0x303 JUMPI PUSH2 0x302 PUSH2 0x2AC7 JUMP JUMPDEST JUMPDEST DUP3 PUSH1 0x6 ADD PUSH1 0x0 SWAP1 SLOAD SWAP1 PUSH2 0x100 EXP SWAP1 DIV PUSH1 0xFF AND PUSH1 0x3 DUP2 GT ISZERO PUSH2 0x327 JUMPI PUSH2 0x326 PUSH2 0x2AC7 JUMP JUMPDEST JUMPDEST EQ PUSH2 0x36F JUMPI PUSH1 0x0 PUSH1 0x40 MLOAD DUP1 PUSH1 0x40 ADD PUSH1 0x40 MSTORE DUP1 PUSH1 0x1B DUP2 MSTORE PUSH1 0x20 ADD PUSH32 0x5468652067616D652068617320616C726561647920656E6465642E0000000000 DUP2 MSTORE POP SWAP4 POP SWAP4 POP POP POP PUSH2 0x988 JUMP JUMPDEST DUP1 PUSH1 0x0 ADD MLOAD PUSH20 0xFFFFFFFFFFFFFFFFFFFFFFFFFFFFFFFFFFFFFFFF AND CALLER PUSH20 0xFFFFFFFFFFFFFFFFFFFFFFFFFFFFFFFFFFFFFFFF AND EQ PUSH2 0x3E9 JUMPI PUSH1 0x0 PUSH1 0x40 MLOAD DUP1 PUSH1 0x40 ADD PUSH1 0x40 MSTORE DUP1 PUSH1 0x14 DUP2 MSTORE PUSH1 0x20 ADD PUSH32 0x4974206973206E6F7420796F7572207475726E2E000000000000000000000000 DUP2 MSTORE POP SWAP4 POP SWAP4 POP POP POP PUSH2 0x988 JUMP JUMPDEST PUSH1 0x0 PUSH1 0x2 DUP2 GT ISZERO PUSH2 0x3FD JUMPI PUSH2 0x3FC PUSH2 0x2AC7 JUMP JUMPDEST JUMPDEST DUP3 PUSH1 0x7 ADD DUP8 PUSH1 0x3 DUP2 LT PUSH2 0x413 JUMPI PUSH2 0x412 PUSH2 0x2AF6 JUMP JUMPDEST JUMPDEST ADD DUP7 PUSH1 0x3 DUP2 LT PUSH2 0x426 JUMPI PUSH2 0x425 PUSH2 0x2AF6 JUMP JUMPDEST JUMPDEST PUSH1 0x20 SWAP2 DUP3 DUP3 DIV ADD SWAP2 SWAP1 MOD SWAP1 SLOAD SWAP1 PUSH2 0x100 EXP SWAP1 DIV PUSH1 0xFF AND PUSH1 0x2 DUP2 GT ISZERO PUSH2 0x44E JUMPI PUSH2 0x44D PUSH2 0x2AC7 JUMP JUMPDEST JUMPDEST EQ PUSH2 0x479 JUMPI PUSH1 0x0 PUSH1 0x40 MLOAD DUP1 PUSH1 0x60 ADD PUSH1 0x40 MSTORE DUP1 PUSH1 0x31 DUP2 MSTORE PUSH1 0x20 ADD PUSH2 0x2C0D PUSH1 0x31 SWAP2 CODECOPY SWAP4 POP SWAP4 POP POP POP PUSH2 0x988 JUMP JUMPDEST DUP2 PUSH1 0x6 ADD PUSH1 0x2 SWAP1 SLOAD SWAP1 PUSH2 0x100 EXP SWAP1 DIV PUSH1 0xFF AND DUP3 PUSH1 0x7 ADD DUP8 PUSH1 0x3 DUP2 LT PUSH2 0x4A1 JUMPI PUSH2 0x4A0 PUSH2 0x2AF6 JUMP JUMPDEST JUMPDEST ADD DUP7 PUSH1 0x3 DUP2 LT PUSH2 0x4B4 JUMPI PUSH2 0x4B3 PUSH2 0x2AF6 JUMP JUMPDEST JUMPDEST PUSH1 0x20 SWAP2 DUP3 DUP3 DIV ADD SWAP2 SWAP1 MOD PUSH2 0x100 EXP DUP2 SLOAD DUP2 PUSH1 0xFF MUL NOT AND SWAP1 DUP4 PUSH1 0x2 DUP2 GT ISZERO PUSH2 0x4DE JUMPI PUSH2 0x4DD PUSH2 0x2AC7 JUMP JUMPDEST JUMPDEST MUL OR SWAP1 SSTORE POP PUSH32 0x444B0DEB3730BDCA0248EBB6366B24E3B793732B3555A5BFAAD868ECEF34FFC1 DUP8 DUP3 DUP9 DUP9 PUSH1 0x40 MLOAD PUSH2 0x518 SWAP5 SWAP4 SWAP3 SWAP2 SWAP1 PUSH2 0x27A7 JUMP JUMPDEST PUSH1 0x40 MLOAD DUP1 SWAP2 SUB SWAP1 LOG1 PUSH1 0x0 PUSH2 0x5D4 DUP4 PUSH1 0x7 ADD PUSH1 0x3 DUP1 PUSH1 0x20 MUL PUSH1 0x40 MLOAD SWAP1 DUP2 ADD PUSH1 0x40 MSTORE DUP1 SWAP3 SWAP2 SWAP1 PUSH1 0x0 SWAP1 JUMPDEST DUP3 DUP3 LT ISZERO PUSH2 0x5CB JUMPI DUP4 DUP3 ADD PUSH1 0x3 DUP1 PUSH1 0x20 MUL PUSH1 0x40 MLOAD SWAP1 DUP2 ADD PUSH1 0x40 MSTORE DUP1 SWAP3 SWAP2 SWAP1 DUP3 PUSH1 0x3 DUP1 ISZERO PUSH2 0x5B7 JUMPI PUSH1 0x20 MUL DUP3 ADD SWAP2 PUSH1 0x0 SWAP1 JUMPDEST DUP3 DUP3 SWAP1 SLOAD SWAP1 PUSH2 0x100 EXP SWAP1 DIV PUSH1 0xFF AND PUSH1 0x2 DUP2 GT ISZERO PUSH2 0x591 JUMPI PUSH2 0x590 PUSH2 0x2AC7 JUMP JUMPDEST JUMPDEST DUP2 MSTORE PUSH1 0x20 ADD SWAP1 PUSH1 0x1 ADD SWAP1 PUSH1 0x20 DUP3 PUSH1 0x0 ADD DIV SWAP3 DUP4 ADD SWAP3 PUSH1 0x1 SUB DUP3 MUL SWAP2 POP DUP1 DUP5 GT PUSH2 0x571 JUMPI SWAP1 POP JUMPDEST POP POP POP POP POP DUP2 MSTORE PUSH1 0x20 ADD SWAP1 PUSH1 0x1 ADD SWAP1 PUSH2 0x540 JUMP JUMPDEST POP POP POP POP PUSH2 0x112A JUMP JUMPDEST SWAP1 POP PUSH1 0x0 PUSH1 0x3 DUP2 GT ISZERO PUSH2 0x5EA JUMPI PUSH2 0x5E9 PUSH2 0x2AC7 JUMP JUMPDEST JUMPDEST DUP2 PUSH1 0x3 DUP2 GT ISZERO PUSH2 0x5FD JUMPI PUSH2 0x5FC PUSH2 0x2AC7 JUMP JUMPDEST JUMPDEST EQ PUSH2 0x965 JUMPI DUP1 DUP4 PUSH1 0x6 ADD PUSH1 0x0 PUSH2 0x100 EXP DUP2 SLOAD DUP2 PUSH1 0xFF MUL NOT AND SWAP1 DUP4 PUSH1 0x3 DUP2 GT ISZERO PUSH2 0x629 JUMPI PUSH2 0x628 PUSH2 0x2AC7 JUMP JUMPDEST JUMPDEST MUL OR SWAP1 SSTORE POP PUSH1 0x2 DUP4 PUSH1 0x6 ADD PUSH1 0x1 PUSH2 0x100 EXP DUP2 SLOAD DUP2 PUSH1 0xFF MUL NOT AND SWAP1 DUP4 PUSH1 0x2 DUP2 GT ISZERO PUSH2 0x656 JUMPI PUSH2 0x655 PUSH2 0x2AC7 JUMP JUMPDEST JUMPDEST MUL OR SWAP1 SSTORE POP PUSH1 0x3 DUP1 DUP2 GT ISZERO PUSH2 0x66E JUMPI PUSH2 0x66D PUSH2 0x2AC7 JUMP JUMPDEST JUMPDEST DUP2 PUSH1 0x3 DUP2 GT ISZERO PUSH2 0x681 JUMPI PUSH2 0x680 PUSH2 0x2AC7 JUMP JUMPDEST JUMPDEST EQ ISZERO PUSH2 0x847 JUMPI PUSH1 0x0 DUP1 DUP5 PUSH1 0x2 ADD PUSH1 0x0 ADD PUSH1 0x0 SWAP1 SLOAD SWAP1 PUSH2 0x100 EXP SWAP1 DIV PUSH20 0xFFFFFFFFFFFFFFFFFFFFFFFFFFFFFFFFFFFFFFFF AND PUSH20 0xFFFFFFFFFFFFFFFFFFFFFFFFFFFFFFFFFFFFFFFF AND DUP6 PUSH1 0x2 ADD PUSH1 0x1 ADD SLOAD PUSH1 0x40 MLOAD PUSH2 0x6DC SWAP1 PUSH2 0x2657 JUMP JUMPDEST PUSH1 0x0 PUSH1 0x40 MLOAD DUP1 DUP4 SUB DUP2 DUP6 DUP8 GAS CALL SWAP3 POP POP POP RETURNDATASIZE DUP1 PUSH1 0x0 DUP2 EQ PUSH2 0x719 JUMPI PUSH1 0x40 MLOAD SWAP2 POP PUSH1 0x1F NOT PUSH1 0x3F RETURNDATASIZE ADD AND DUP3 ADD PUSH1 0x40 MSTORE RETURNDATASIZE DUP3 MSTORE RETURNDATASIZE PUSH1 0x0 PUSH1 0x20 DUP5 ADD RETURNDATACOPY PUSH2 0x71E JUMP JUMPDEST PUSH1 0x60 SWAP2 POP JUMPDEST POP SWAP2 POP SWAP2 POP DUP2 PUSH2 0x763 JUMPI PUSH1 0x40 MLOAD PUSH32 0x8C379A000000000000000000000000000000000000000000000000000000000 DUP2 MSTORE PUSH1 0x4 ADD PUSH2 0x75A SWAP1 PUSH2 0x26DE JUMP JUMPDEST PUSH1 0x40 MLOAD DUP1 SWAP2 SUB SWAP1 REVERT JUMPDEST DUP5 PUSH1 0x4 ADD PUSH1 0x0 ADD PUSH1 0x0 SWAP1 SLOAD SWAP1 PUSH2 0x100 EXP SWAP1 DIV PUSH20 0xFFFFFFFFFFFFFFFFFFFFFFFFFFFFFFFFFFFFFFFF AND PUSH20 0xFFFFFFFFFFFFFFFFFFFFFFFFFFFFFFFFFFFFFFFF AND DUP6 PUSH1 0x4 ADD PUSH1 0x1 ADD SLOAD PUSH1 0x40 MLOAD PUSH2 0x7B5 SWAP1 PUSH2 0x2657 JUMP JUMPDEST PUSH1 0x0 PUSH1 0x40 MLOAD DUP1 DUP4 SUB DUP2 DUP6 DUP8 GAS CALL SWAP3 POP POP POP RETURNDATASIZE DUP1 PUSH1 0x0 DUP2 EQ PUSH2 0x7F2 JUMPI PUSH1 0x40 MLOAD SWAP2 POP PUSH1 0x1F NOT PUSH1 0x3F RETURNDATASIZE ADD AND DUP3 ADD PUSH1 0x40 MSTORE RETURNDATASIZE DUP3 MSTORE RETURNDATASIZE PUSH1 0x0 PUSH1 0x20 DUP5 ADD RETURNDATACOPY PUSH2 0x7F7 JUMP JUMPDEST PUSH1 0x60 SWAP2 POP JUMPDEST POP DUP1 SWAP3 POP DUP2 SWAP4 POP POP POP DUP2 PUSH2 0x840 JUMPI PUSH1 0x40 MLOAD PUSH32 0x8C379A000000000000000000000000000000000000000000000000000000000 DUP2 MSTORE PUSH1 0x4 ADD PUSH2 0x837 SWAP1 PUSH2 0x26DE JUMP JUMPDEST PUSH1 0x40 MLOAD DUP1 SWAP2 SUB SWAP1 REVERT JUMPDEST POP POP PUSH2 0x90E JUMP JUMPDEST PUSH1 0x0 PUSH2 0x852 DUP5 PUSH2 0xF86 JUMP JUMPDEST SWAP1 POP PUSH1 0x0 DUP1 DUP3 PUSH1 0x0 ADD MLOAD PUSH20 0xFFFFFFFFFFFFFFFFFFFFFFFFFFFFFFFFFFFFFFFF AND DUP7 PUSH1 0x0 ADD SLOAD PUSH1 0x40 MLOAD PUSH2 0x883 SWAP1 PUSH2 0x2657 JUMP JUMPDEST PUSH1 0x0 PUSH1 0x40 MLOAD DUP1 DUP4 SUB DUP2 DUP6 DUP8 GAS CALL SWAP3 POP POP POP RETURNDATASIZE DUP1 PUSH1 0x0 DUP2 EQ PUSH2 0x8C0 JUMPI PUSH1 0x40 MLOAD SWAP2 POP PUSH1 0x1F NOT PUSH1 0x3F RETURNDATASIZE ADD AND DUP3 ADD PUSH1 0x40 MSTORE RETURNDATASIZE DUP3 MSTORE RETURNDATASIZE PUSH1 0x0 PUSH1 0x20 DUP5 ADD RETURNDATACOPY PUSH2 0x8C5 JUMP JUMPDEST PUSH1 0x60 SWAP2 POP JUMPDEST POP SWAP2 POP SWAP2 POP DUP2 PUSH2 0x90A JUMPI PUSH1 0x40 MLOAD PUSH32 0x8C379A000000000000000000000000000000000000000000000000000000000 DUP2 MSTORE PUSH1 0x4 ADD PUSH2 0x901 SWAP1 PUSH2 0x26DE JUMP JUMPDEST PUSH1 0x40 MLOAD DUP1 SWAP2 SUB SWAP1 REVERT JUMPDEST POP POP POP JUMPDEST PUSH32 0x132B564C6F96092065580FD28989D181DFBBFE4AA2FB7FB1EDA8AF68BA3073E0 DUP9 DUP3 PUSH1 0x40 MLOAD PUSH2 0x93F SWAP3 SWAP2 SWAP1 PUSH2 0x277E JUMP JUMPDEST PUSH1 0x40 MLOAD DUP1 SWAP2 SUB SWAP1 LOG1 PUSH1 0x1 PUSH1 0x40 MLOAD DUP1 PUSH1 0x20 ADD PUSH1 0x40 MSTORE DUP1 PUSH1 0x0 DUP2 MSTORE POP SWAP5 POP SWAP5 POP POP POP POP PUSH2 0x988 JUMP JUMPDEST PUSH2 0x96E DUP4 PUSH2 0x12B8 JUMP JUMPDEST PUSH1 0x1 PUSH1 0x40 MLOAD DUP1 PUSH1 0x20 ADD PUSH1 0x40 MSTORE DUP1 PUSH1 0x0 DUP2 MSTORE POP SWAP5 POP SWAP5 POP POP POP POP JUMPDEST SWAP4 POP SWAP4 SWAP2 POP POP JUMP JUMPDEST PUSH2 0x998 PUSH2 0x203C JUMP JUMPDEST PUSH1 0x0 DUP1 DUP4 DUP2 MSTORE PUSH1 0x20 ADD SWAP1 DUP2 MSTORE PUSH1 0x20 ADD PUSH1 0x0 KECCAK256 PUSH1 0x40 MLOAD DUP1 PUSH2 0x100 ADD PUSH1 0x40 MSTORE SWAP1 DUP2 PUSH1 0x0 DUP3 ADD SLOAD DUP2 MSTORE PUSH1 0x20 ADD PUSH1 0x1 DUP3 ADD SLOAD DUP2 MSTORE PUSH1 0x20 ADD PUSH1 0x2 DUP3 ADD PUSH1 0x40 MLOAD DUP1 PUSH1 0x40 ADD PUSH1 0x40 MSTORE SWAP1 DUP2 PUSH1 0x0 DUP3 ADD PUSH1 0x0 SWAP1 SLOAD SWAP1 PUSH2 0x100 EXP SWAP1 DIV PUSH20 0xFFFFFFFFFFFFFFFFFFFFFFFFFFFFFFFFFFFFFFFF AND PUSH20 0xFFFFFFFFFFFFFFFFFFFFFFFFFFFFFFFFFFFFFFFF AND PUSH20 0xFFFFFFFFFFFFFFFFFFFFFFFFFFFFFFFFFFFFFFFF AND DUP2 MSTORE PUSH1 0x20 ADD PUSH1 0x1 DUP3 ADD SLOAD DUP2 MSTORE POP POP DUP2 MSTORE PUSH1 0x20 ADD PUSH1 0x4 DUP3 ADD PUSH1 0x40 MLOAD DUP1 PUSH1 0x40 ADD PUSH1 0x40 MSTORE SWAP1 DUP2 PUSH1 0x0 DUP3 ADD PUSH1 0x0 SWAP1 SLOAD SWAP1 PUSH2 0x100 EXP SWAP1 DIV PUSH20 0xFFFFFFFFFFFFFFFFFFFFFFFFFFFFFFFFFFFFFFFF AND PUSH20 0xFFFFFFFFFFFFFFFFFFFFFFFFFFFFFFFFFFFFFFFF AND PUSH20 0xFFFFFFFFFFFFFFFFFFFFFFFFFFFFFFFFFFFFFFFF AND DUP2 MSTORE PUSH1 0x20 ADD PUSH1 0x1 DUP3 ADD SLOAD DUP2 MSTORE POP POP DUP2 MSTORE PUSH1 0x20 ADD PUSH1 0x6 DUP3 ADD PUSH1 0x0 SWAP1 SLOAD SWAP1 PUSH2 0x100 EXP SWAP1 DIV PUSH1 0xFF AND PUSH1 0x3 DUP2 GT ISZERO PUSH2 0xAD7 JUMPI PUSH2 0xAD6 PUSH2 0x2AC7 JUMP JUMPDEST JUMPDEST PUSH1 0x3 DUP2 GT ISZERO PUSH2 0xAE9 JUMPI PUSH2 0xAE8 PUSH2 0x2AC7 JUMP JUMPDEST JUMPDEST DUP2 MSTORE PUSH1 0x20 ADD PUSH1 0x6 DUP3 ADD PUSH1 0x1 SWAP1 SLOAD SWAP1 PUSH2 0x100 EXP SWAP1 DIV PUSH1 0xFF AND PUSH1 0x2 DUP2 GT ISZERO PUSH2 0xB12 JUMPI PUSH2 0xB11 PUSH2 0x2AC7 JUMP JUMPDEST JUMPDEST PUSH1 0x2 DUP2 GT ISZERO PUSH2 0xB24 JUMPI PUSH2 0xB23 PUSH2 0x2AC7 JUMP JUMPDEST JUMPDEST DUP2 MSTORE PUSH1 0x20 ADD PUSH1 0x6 DUP3 ADD PUSH1 0x2 SWAP1 SLOAD SWAP1 PUSH2 0x100 EXP SWAP1 DIV PUSH1 0xFF AND PUSH1 0x2 DUP2 GT ISZERO PUSH2 0xB4D JUMPI PUSH2 0xB4C PUSH2 0x2AC7 JUMP JUMPDEST JUMPDEST PUSH1 0x2 DUP2 GT ISZERO PUSH2 0xB5F JUMPI PUSH2 0xB5E PUSH2 0x2AC7 JUMP JUMPDEST JUMPDEST DUP2 MSTORE PUSH1 0x20 ADD PUSH1 0x7 DUP3 ADD PUSH1 0x3 DUP1 PUSH1 0x20 MUL PUSH1 0x40 MLOAD SWAP1 DUP2 ADD PUSH1 0x40 MSTORE DUP1 SWAP3 SWAP2 SWAP1 PUSH1 0x0 SWAP1 JUMPDEST DUP3 DUP3 LT ISZERO PUSH2 0xC0A JUMPI DUP4 DUP3 ADD PUSH1 0x3 DUP1 PUSH1 0x20 MUL PUSH1 0x40 MLOAD SWAP1 DUP2 ADD PUSH1 0x40 MSTORE DUP1 SWAP3 SWAP2 SWAP1 DUP3 PUSH1 0x3 DUP1 ISZERO PUSH2 0xBF6 JUMPI PUSH1 0x20 MUL DUP3 ADD SWAP2 PUSH1 0x0 SWAP1 JUMPDEST DUP3 DUP3 SWAP1 SLOAD SWAP1 PUSH2 0x100 EXP SWAP1 DIV PUSH1 0xFF AND PUSH1 0x2 DUP2 GT ISZERO PUSH2 0xBD0 JUMPI PUSH2 0xBCF PUSH2 0x2AC7 JUMP JUMPDEST JUMPDEST DUP2 MSTORE PUSH1 0x20 ADD SWAP1 PUSH1 0x1 ADD SWAP1 PUSH1 0x20 DUP3 PUSH1 0x0 ADD DIV SWAP3 DUP4 ADD SWAP3 PUSH1 0x1 SUB DUP3 MUL SWAP2 POP DUP1 DUP5 GT PUSH2 0xBB0 JUMPI SWAP1 POP JUMPDEST POP POP POP POP POP DUP2 MSTORE PUSH1 0x20 ADD SWAP1 PUSH1 0x1 ADD SWAP1 PUSH2 0xB7F JUMP JUMPDEST POP POP POP POP DUP2 MSTORE POP POP SWAP1 POP SWAP2 SWAP1 POP JUMP JUMPDEST PUSH1 0x0 PUSH4 0x3B9ACA00 DUP3 GT PUSH2 0xC61 JUMPI PUSH1 0x40 MLOAD PUSH32 0x8C379A000000000000000000000000000000000000000000000000000000000 DUP2 MSTORE PUSH1 0x4 ADD PUSH2 0xC58 SWAP1 PUSH2 0x26FE JUMP JUMPDEST PUSH1 0x40 MLOAD DUP1 SWAP2 SUB SWAP1 REVERT JUMPDEST PUSH2 0xC69 PUSH2 0x203C JUMP JUMPDEST PUSH1 0x1 DUP2 PUSH1 0xC0 ADD SWAP1 PUSH1 0x2 DUP2 GT ISZERO PUSH2 0xC82 JUMPI PUSH2 0xC81 PUSH2 0x2AC7 JUMP JUMPDEST JUMPDEST SWAP1 DUP2 PUSH1 0x2 DUP2 GT ISZERO PUSH2 0xC96 JUMPI PUSH2 0xC95 PUSH2 0x2AC7 JUMP JUMPDEST JUMPDEST DUP2 MSTORE POP POP PUSH1 0x0 DUP2 PUSH1 0xA0 ADD SWAP1 PUSH1 0x2 DUP2 GT ISZERO PUSH2 0xCB3 JUMPI PUSH2 0xCB2 PUSH2 0x2AC7 JUMP JUMPDEST JUMPDEST SWAP1 DUP2 PUSH1 0x2 DUP2 GT ISZERO PUSH2 0xCC7 JUMPI PUSH2 0xCC6 PUSH2 0x2AC7 JUMP JUMPDEST JUMPDEST DUP2 MSTORE POP POP DUP3 DUP2 PUSH1 0x20 ADD DUP2 DUP2 MSTORE POP POP PUSH1 0x1 PUSH1 0x0 DUP2 SLOAD DUP1 SWAP3 SWAP2 SWAP1 PUSH2 0xCE8 SWAP1 PUSH2 0x2A25 JUMP JUMPDEST SWAP2 SWAP1 POP SSTORE POP DUP1 PUSH1 0x0 DUP1 PUSH1 0x1 SLOAD DUP2 MSTORE PUSH1 0x20 ADD SWAP1 DUP2 MSTORE PUSH1 0x20 ADD PUSH1 0x0 KECCAK256 PUSH1 0x0 DUP3 ADD MLOAD DUP2 PUSH1 0x0 ADD SSTORE PUSH1 0x20 DUP3 ADD MLOAD DUP2 PUSH1 0x1 ADD SSTORE PUSH1 0x40 DUP3 ADD MLOAD DUP2 PUSH1 0x2 ADD PUSH1 0x0 DUP3 ADD MLOAD DUP2 PUSH1 0x0 ADD PUSH1 0x0 PUSH2 0x100 EXP DUP2 SLOAD DUP2 PUSH20 0xFFFFFFFFFFFFFFFFFFFFFFFFFFFFFFFFFFFFFFFF MUL NOT AND SWAP1 DUP4 PUSH20 0xFFFFFFFFFFFFFFFFFFFFFFFFFFFFFFFFFFFFFFFF AND MUL OR SWAP1 SSTORE POP PUSH1 0x20 DUP3 ADD MLOAD DUP2 PUSH1 0x1 ADD SSTORE POP POP PUSH1 0x60 DUP3 ADD MLOAD DUP2 PUSH1 0x4 ADD PUSH1 0x0 DUP3 ADD MLOAD DUP2 PUSH1 0x0 ADD PUSH1 0x0 PUSH2 0x100 EXP DUP2 SLOAD DUP2 PUSH20 0xFFFFFFFFFFFFFFFFFFFFFFFFFFFFFFFFFFFFFFFF MUL NOT AND SWAP1 DUP4 PUSH20 0xFFFFFFFFFFFFFFFFFFFFFFFFFFFFFFFFFFFFFFFF AND MUL OR SWAP1 SSTORE POP PUSH1 0x20 DUP3 ADD MLOAD DUP2 PUSH1 0x1 ADD SSTORE POP POP PUSH1 0x80 DUP3 ADD MLOAD DUP2 PUSH1 0x6 ADD PUSH1 0x0 PUSH2 0x100 EXP DUP2 SLOAD DUP2 PUSH1 0xFF MUL NOT AND SWAP1 DUP4 PUSH1 0x3 DUP2 GT ISZERO PUSH2 0xDF9 JUMPI PUSH2 0xDF8 PUSH2 0x2AC7 JUMP JUMPDEST JUMPDEST MUL OR SWAP1 SSTORE POP PUSH1 0xA0 DUP3 ADD MLOAD DUP2 PUSH1 0x6 ADD PUSH1 0x1 PUSH2 0x100 EXP DUP2 SLOAD DUP2 PUSH1 0xFF MUL NOT AND SWAP1 DUP4 PUSH1 0x2 DUP2 GT ISZERO PUSH2 0xE29 JUMPI PUSH2 0xE28 PUSH2 0x2AC7 JUMP JUMPDEST JUMPDEST MUL OR SWAP1 SSTORE POP PUSH1 0xC0 DUP3 ADD MLOAD DUP2 PUSH1 0x6 ADD PUSH1 0x2 PUSH2 0x100 EXP DUP2 SLOAD DUP2 PUSH1 0xFF MUL NOT AND SWAP1 DUP4 PUSH1 0x2 DUP2 GT ISZERO PUSH2 0xE59 JUMPI PUSH2 0xE58 PUSH2 0x2AC7 JUMP JUMPDEST JUMPDEST MUL OR SWAP1 SSTORE POP PUSH1 0xE0 DUP3 ADD MLOAD DUP2 PUSH1 0x7 ADD SWAP1 PUSH1 0x3 PUSH2 0xE75 SWAP3 SWAP2 SWAP1 PUSH2 0x20C9 JUMP JUMPDEST POP SWAP1 POP POP PUSH32 0xC3E0F84839DC888C892A013D10C8F9D6DC05A21A879D0CE468CA558013E9121C PUSH1 0x1 SLOAD CALLER PUSH1 0x40 MLOAD PUSH2 0xEAC SWAP3 SWAP2 SWAP1 PUSH2 0x2755 JUMP JUMPDEST PUSH1 0x40 MLOAD DUP1 SWAP2 SUB SWAP1 LOG1 PUSH1 0x1 SLOAD SWAP2 POP POP SWAP2 SWAP1 POP JUMP JUMPDEST PUSH1 0x0 PUSH1 0x60 PUSH2 0xECE DUP6 DUP6 DUP6 PUSH2 0x182 JUMP JUMPDEST DUP1 SWAP3 POP DUP2 SWAP4 POP POP POP DUP2 DUP2 SWAP1 PUSH2 0xF19 JUMPI PUSH1 0x40 MLOAD PUSH32 0x8C379A000000000000000000000000000000000000000000000000000000000 DUP2 MSTORE PUSH1 0x4 ADD PUSH2 0xF10 SWAP2 SWAP1 PUSH2 0x269C JUMP JUMPDEST PUSH1 0x40 MLOAD DUP1 SWAP2 SUB SWAP1 REVERT JUMPDEST POP POP POP POP POP POP JUMP JUMPDEST PUSH1 0x0 PUSH1 0x60 PUSH2 0xF2F CALLVALUE DUP5 PUSH2 0x1359 JUMP JUMPDEST DUP1 SWAP3 POP DUP2 SWAP4 POP POP POP DUP2 DUP2 SWAP1 PUSH2 0xF7A JUMPI PUSH1 0x40 MLOAD PUSH32 0x8C379A000000000000000000000000000000000000000000000000000000000 DUP2 MSTORE PUSH1 0x4 ADD PUSH2 0xF71 SWAP2 SWAP1 PUSH2 0x269C JUMP JUMPDEST PUSH1 0x40 MLOAD DUP1 SWAP2 SUB SWAP1 REVERT JUMPDEST POP POP POP POP JUMP JUMPDEST PUSH1 0x1 SLOAD DUP2 JUMP JUMPDEST PUSH2 0xF8E PUSH2 0x2117 JUMP JUMPDEST PUSH1 0x1 PUSH1 0x2 DUP2 GT ISZERO PUSH2 0xFA2 JUMPI PUSH2 0xFA1 PUSH2 0x2AC7 JUMP JUMPDEST JUMPDEST DUP3 PUSH1 0x6 ADD PUSH1 0x2 SWAP1 SLOAD SWAP1 PUSH2 0x100 EXP SWAP1 DIV PUSH1 0xFF AND PUSH1 0x2 DUP2 GT ISZERO PUSH2 0xFC6 JUMPI PUSH2 0xFC5 PUSH2 0x2AC7 JUMP JUMPDEST JUMPDEST EQ ISZERO PUSH2 0x1042 JUMPI DUP2 PUSH1 0x2 ADD PUSH1 0x40 MLOAD DUP1 PUSH1 0x40 ADD PUSH1 0x40 MSTORE SWAP1 DUP2 PUSH1 0x0 DUP3 ADD PUSH1 0x0 SWAP1 SLOAD SWAP1 PUSH2 0x100 EXP SWAP1 DIV PUSH20 0xFFFFFFFFFFFFFFFFFFFFFFFFFFFFFFFFFFFFFFFF AND PUSH20 0xFFFFFFFFFFFFFFFFFFFFFFFFFFFFFFFFFFFFFFFF AND PUSH20 0xFFFFFFFFFFFFFFFFFFFFFFFFFFFFFFFFFFFFFFFF AND DUP2 MSTORE PUSH1 0x20 ADD PUSH1 0x1 DUP3 ADD SLOAD DUP2 MSTORE POP POP SWAP1 POP PUSH2 0x1125 JUMP JUMPDEST PUSH1 0x2 DUP1 DUP2 GT ISZERO PUSH2 0x1055 JUMPI PUSH2 0x1054 PUSH2 0x2AC7 JUMP JUMPDEST JUMPDEST DUP3 PUSH1 0x6 ADD PUSH1 0x2 SWAP1 SLOAD SWAP1 PUSH2 0x100 EXP SWAP1 DIV PUSH1 0xFF AND PUSH1 0x2 DUP2 GT ISZERO PUSH2 0x1079 JUMPI PUSH2 0x1078 PUSH2 0x2AC7 JUMP JUMPDEST JUMPDEST EQ ISZERO PUSH2 0x10F5 JUMPI DUP2 PUSH1 0x4 ADD PUSH1 0x40 MLOAD DUP1 PUSH1 0x40 ADD PUSH1 0x40 MSTORE SWAP1 DUP2 PUSH1 0x0 DUP3 ADD PUSH1 0x0 SWAP1 SLOAD SWAP1 PUSH2 0x100 EXP SWAP1 DIV PUSH20 0xFFFFFFFFFFFFFFFFFFFFFFFFFFFFFFFFFFFFFFFF AND PUSH20 0xFFFFFFFFFFFFFFFFFFFFFFFFFFFFFFFFFFFFFFFF AND PUSH20 0xFFFFFFFFFFFFFFFFFFFFFFFFFFFFFFFFFFFFFFFF AND DUP2 MSTORE PUSH1 0x20 ADD PUSH1 0x1 DUP3 ADD SLOAD DUP2 MSTORE POP POP SWAP1 POP PUSH2 0x1125 JUMP JUMPDEST PUSH1 0x40 MLOAD DUP1 PUSH1 0x40 ADD PUSH1 0x40 MSTORE DUP1 PUSH1 0x0 PUSH20 0xFFFFFFFFFFFFFFFFFFFFFFFFFFFFFFFFFFFFFFFF AND DUP2 MSTORE PUSH1 0x20 ADD PUSH1 0x0 DUP2 MSTORE POP SWAP1 POP JUMPDEST SWAP2 SWAP1 POP JUMP JUMPDEST PUSH1 0x0 DUP1 PUSH2 0x1136 DUP4 PUSH2 0x1821 JUMP JUMPDEST SWAP1 POP PUSH1 0x1 PUSH1 0x2 DUP2 GT ISZERO PUSH2 0x114C JUMPI PUSH2 0x114B PUSH2 0x2AC7 JUMP JUMPDEST JUMPDEST DUP2 PUSH1 0x2 DUP2 GT ISZERO PUSH2 0x115F JUMPI PUSH2 0x115E PUSH2 0x2AC7 JUMP JUMPDEST JUMPDEST EQ ISZERO PUSH2 0x116F JUMPI PUSH1 0x1 SWAP2 POP POP PUSH2 0x12B3 JUMP JUMPDEST PUSH1 0x2 DUP1 DUP2 GT ISZERO PUSH2 0x1182 JUMPI PUSH2 0x1181 PUSH2 0x2AC7 JUMP JUMPDEST JUMPDEST DUP2 PUSH1 0x2 DUP2 GT ISZERO PUSH2 0x1195 JUMPI PUSH2 0x1194 PUSH2 0x2AC7 JUMP JUMPDEST JUMPDEST EQ ISZERO PUSH2 0x11A5 JUMPI PUSH1 0x2 SWAP2 POP POP PUSH2 0x12B3 JUMP JUMPDEST PUSH2 0x11AE DUP4 PUSH2 0x1A14 JUMP JUMPDEST SWAP1 POP PUSH1 0x1 PUSH1 0x2 DUP2 GT ISZERO PUSH2 0x11C4 JUMPI PUSH2 0x11C3 PUSH2 0x2AC7 JUMP JUMPDEST JUMPDEST DUP2 PUSH1 0x2 DUP2 GT ISZERO PUSH2 0x11D7 JUMPI PUSH2 0x11D6 PUSH2 0x2AC7 JUMP JUMPDEST JUMPDEST EQ ISZERO PUSH2 0x11E7 JUMPI PUSH1 0x1 SWAP2 POP POP PUSH2 0x12B3 JUMP JUMPDEST PUSH1 0x2 DUP1 DUP2 GT ISZERO PUSH2 0x11FA JUMPI PUSH2 0x11F9 PUSH2 0x2AC7 JUMP JUMPDEST JUMPDEST DUP2 PUSH1 0x2 DUP2 GT ISZERO PUSH2 0x120D JUMPI PUSH2 0x120C PUSH2 0x2AC7 JUMP JUMPDEST JUMPDEST EQ ISZERO PUSH2 0x121D JUMPI PUSH1 0x2 SWAP2 POP POP PUSH2 0x12B3 JUMP JUMPDEST PUSH2 0x1226 DUP4 PUSH2 0x1C07 JUMP JUMPDEST SWAP1 POP PUSH1 0x1 PUSH1 0x2 DUP2 GT ISZERO PUSH2 0x123C JUMPI PUSH2 0x123B PUSH2 0x2AC7 JUMP JUMPDEST JUMPDEST DUP2 PUSH1 0x2 DUP2 GT ISZERO PUSH2 0x124F JUMPI PUSH2 0x124E PUSH2 0x2AC7 JUMP JUMPDEST JUMPDEST EQ ISZERO PUSH2 0x125F JUMPI PUSH1 0x1 SWAP2 POP POP PUSH2 0x12B3 JUMP JUMPDEST PUSH1 0x2 DUP1 DUP2 GT ISZERO PUSH2 0x1272 JUMPI PUSH2 0x1271 PUSH2 0x2AC7 JUMP JUMPDEST JUMPDEST DUP2 PUSH1 0x2 DUP2 GT ISZERO PUSH2 0x1285 JUMPI PUSH2 0x1284 PUSH2 0x2AC7 JUMP JUMPDEST JUMPDEST EQ ISZERO PUSH2 0x1295 JUMPI PUSH1 0x2 SWAP2 POP POP PUSH2 0x12B3 JUMP JUMPDEST PUSH2 0x129E DUP4 PUSH2 0x1F7B JUMP JUMPDEST ISZERO PUSH2 0x12AD JUMPI PUSH1 0x3 SWAP2 POP POP PUSH2 0x12B3 JUMP JUMPDEST PUSH1 0x0 SWAP2 POP POP JUMPDEST SWAP2 SWAP1 POP JUMP JUMPDEST PUSH1 0x1 PUSH1 0x2 DUP2 GT ISZERO PUSH2 0x12CC JUMPI PUSH2 0x12CB PUSH2 0x2AC7 JUMP JUMPDEST JUMPDEST DUP2 PUSH1 0x6 ADD PUSH1 0x2 SWAP1 SLOAD SWAP1 PUSH2 0x100 EXP SWAP1 DIV PUSH1 0xFF AND PUSH1 0x2 DUP2 GT ISZERO PUSH2 0x12F0 JUMPI PUSH2 0x12EF PUSH2 0x2AC7 JUMP JUMPDEST JUMPDEST EQ ISZERO PUSH2 0x1328 JUMPI PUSH1 0x2 DUP2 PUSH1 0x6 ADD PUSH1 0x2 PUSH2 0x100 EXP DUP2 SLOAD DUP2 PUSH1 0xFF MUL NOT AND SWAP1 DUP4 PUSH1 0x2 DUP2 GT ISZERO PUSH2 0x131E JUMPI PUSH2 0x131D PUSH2 0x2AC7 JUMP JUMPDEST JUMPDEST MUL OR SWAP1 SSTORE POP PUSH2 0x1356 JUMP JUMPDEST PUSH1 0x1 DUP2 PUSH1 0x6 ADD PUSH1 0x2 PUSH2 0x100 EXP DUP2 SLOAD DUP2 PUSH1 0xFF MUL NOT AND SWAP1 DUP4 PUSH1 0x2 DUP2 GT ISZERO PUSH2 0x1350 JUMPI PUSH2 0x134F PUSH2 0x2AC7 JUMP JUMPDEST JUMPDEST MUL OR SWAP1 SSTORE POP JUMPDEST POP JUMP JUMPDEST PUSH1 0x0 PUSH1 0x60 PUSH4 0x3B9ACA00 DUP5 GT PUSH2 0x138C JUMPI PUSH1 0x0 PUSH1 0x40 MLOAD DUP1 PUSH1 0x60 ADD PUSH1 0x40 MSTORE DUP1 PUSH1 0x21 DUP2 MSTORE PUSH1 0x20 ADD PUSH2 0x2C3E PUSH1 0x21 SWAP2 CODECOPY SWAP2 POP SWAP2 POP PUSH2 0x181A JUMP JUMPDEST PUSH1 0x0 DUP5 EQ ISZERO PUSH2 0x13D6 JUMPI PUSH1 0x0 PUSH1 0x40 MLOAD DUP1 PUSH1 0x40 ADD PUSH1 0x40 MSTORE DUP1 PUSH1 0xF DUP2 MSTORE PUSH1 0x20 ADD PUSH32 0x4E6F2065746820737461636B65642E0000000000000000000000000000000000 DUP2 MSTORE POP SWAP2 POP SWAP2 POP PUSH2 0x181A JUMP JUMPDEST PUSH1 0x1 SLOAD DUP4 GT ISZERO PUSH2 0x1421 JUMPI PUSH1 0x0 PUSH1 0x40 MLOAD DUP1 PUSH1 0x40 ADD PUSH1 0x40 MSTORE DUP1 PUSH1 0x14 DUP2 MSTORE PUSH1 0x20 ADD PUSH32 0x4E6F20737563682067616D65206578697374732E000000000000000000000000 DUP2 MSTORE POP SWAP2 POP SWAP2 POP PUSH2 0x181A JUMP JUMPDEST PUSH1 0x0 PUSH1 0x40 MLOAD DUP1 PUSH1 0x40 ADD PUSH1 0x40 MSTORE DUP1 CALLER PUSH20 0xFFFFFFFFFFFFFFFFFFFFFFFFFFFFFFFFFFFFFFFF AND DUP2 MSTORE PUSH1 0x20 ADD PUSH4 0x3B9ACA00 DUP8 PUSH2 0x145A SWAP2 SWAP1 PUSH2 0x28FA JUMP JUMPDEST DUP2 MSTORE POP SWAP1 POP PUSH1 0x0 DUP1 PUSH1 0x0 DUP7 DUP2 MSTORE PUSH1 0x20 ADD SWAP1 DUP2 MSTORE PUSH1 0x20 ADD PUSH1 0x0 KECCAK256 SWAP1 POP DUP1 PUSH1 0x1 ADD SLOAD DUP7 EQ PUSH2 0x14BB JUMPI PUSH1 0x40 MLOAD PUSH32 0x8C379A000000000000000000000000000000000000000000000000000000000 DUP2 MSTORE PUSH1 0x4 ADD PUSH2 0x14B2 SWAP1 PUSH2 0x26BE JUMP JUMPDEST PUSH1 0x40 MLOAD DUP1 SWAP2 SUB SWAP1 REVERT JUMPDEST PUSH1 0x0 PUSH20 0xFFFFFFFFFFFFFFFFFFFFFFFFFFFFFFFFFFFFFFFF AND DUP2 PUSH1 0x2 ADD PUSH1 0x0 ADD PUSH1 0x0 SWAP1 SLOAD SWAP1 PUSH2 0x100 EXP SWAP1 DIV PUSH20 0xFFFFFFFFFFFFFFFFFFFFFFFFFFFFFFFFFFFFFFFF AND PUSH20 0xFFFFFFFFFFFFFFFFFFFFFFFFFFFFFFFFFFFFFFFF AND EQ ISZERO PUSH2 0x1605 JUMPI DUP2 DUP2 PUSH1 0x2 ADD PUSH1 0x0 DUP3 ADD MLOAD DUP2 PUSH1 0x0 ADD PUSH1 0x0 PUSH2 0x100 EXP DUP2 SLOAD DUP2 PUSH20 0xFFFFFFFFFFFFFFFFFFFFFFFFFFFFFFFFFFFFFFFF MUL NOT AND SWAP1 DUP4 PUSH20 0xFFFFFFFFFFFFFFFFFFFFFFFFFFFFFFFFFFFFFFFF AND MUL OR SWAP1 SSTORE POP PUSH1 0x20 DUP3 ADD MLOAD DUP2 PUSH1 0x1 ADD SSTORE SWAP1 POP POP PUSH4 0x3B9ACA00 DUP7 PUSH2 0x1580 SWAP2 SWAP1 PUSH2 0x28FA JUMP JUMPDEST DUP2 PUSH1 0x0 ADD PUSH1 0x0 DUP3 DUP3 SLOAD PUSH2 0x1593 SWAP2 SWAP1 PUSH2 0x28A4 JUMP JUMPDEST SWAP3 POP POP DUP2 SWAP1 SSTORE POP PUSH32 0xB7B142DA4D5E7153B4B889BE2BC2A3F6C16ED957358651736FD8D54CD3067E83 DUP6 DUP4 PUSH1 0x1 PUSH1 0x2 DUP2 GT ISZERO PUSH2 0x15D1 JUMPI PUSH2 0x15D0 PUSH2 0x2AC7 JUMP JUMPDEST JUMPDEST PUSH1 0x40 MLOAD PUSH2 0x15E0 SWAP4 SWAP3 SWAP2 SWAP1 PUSH2 0x27EC JUMP JUMPDEST PUSH1 0x40 MLOAD DUP1 SWAP2 SUB SWAP1 LOG1 PUSH1 0x1 PUSH1 0x40 MLOAD DUP1 PUSH1 0x20 ADD PUSH1 0x40 MSTORE DUP1 PUSH1 0x0 DUP2 MSTORE POP SWAP4 POP SWAP4 POP POP POP PUSH2 0x181A JUMP JUMPDEST PUSH1 0x0 PUSH20 0xFFFFFFFFFFFFFFFFFFFFFFFFFFFFFFFFFFFFFFFF AND DUP2 PUSH1 0x4 ADD PUSH1 0x0 ADD PUSH1 0x0 SWAP1 SLOAD SWAP1 PUSH2 0x100 EXP SWAP1 DIV PUSH20 0xFFFFFFFFFFFFFFFFFFFFFFFFFFFFFFFFFFFFFFFF AND PUSH20 0xFFFFFFFFFFFFFFFFFFFFFFFFFFFFFFFFFFFFFFFF AND EQ ISZERO PUSH2 0x17DB JUMPI CALLER PUSH20 0xFFFFFFFFFFFFFFFFFFFFFFFFFFFFFFFFFFFFFFFF AND DUP2 PUSH1 0x2 ADD PUSH1 0x0 ADD PUSH1 0x0 SWAP1 SLOAD SWAP1 PUSH2 0x100 EXP SWAP1 DIV PUSH20 0xFFFFFFFFFFFFFFFFFFFFFFFFFFFFFFFFFFFFFFFF AND PUSH20 0xFFFFFFFFFFFFFFFFFFFFFFFFFFFFFFFFFFFFFFFF AND EQ ISZERO PUSH2 0x16C1 JUMPI PUSH1 0x0 DUP1 REVERT JUMPDEST DUP2 DUP2 PUSH1 0x4 ADD PUSH1 0x0 DUP3 ADD MLOAD DUP2 PUSH1 0x0 ADD PUSH1 0x0 PUSH2 0x100 EXP DUP2 SLOAD DUP2 PUSH20 0xFFFFFFFFFFFFFFFFFFFFFFFFFFFFFFFFFFFFFFFF MUL NOT AND SWAP1 DUP4 PUSH20 0xFFFFFFFFFFFFFFFFFFFFFFFFFFFFFFFFFFFFFFFF AND MUL OR SWAP1 SSTORE POP PUSH1 0x20 DUP3 ADD MLOAD DUP2 PUSH1 0x1 ADD SSTORE SWAP1 POP POP PUSH4 0x3B9ACA00 DUP7 PUSH2 0x172A SWAP2 SWAP1 PUSH2 0x28FA JUMP JUMPDEST DUP2 PUSH1 0x0 ADD PUSH1 0x0 DUP3 DUP3 SLOAD PUSH2 0x173D SWAP2 SWAP1 PUSH2 0x28A4 JUMP JUMPDEST SWAP3 POP POP DUP2 SWAP1 SSTORE POP PUSH32 0xB7B142DA4D5E7153B4B889BE2BC2A3F6C16ED957358651736FD8D54CD3067E83 DUP6 DUP4 PUSH1 0x2 DUP1 DUP2 GT ISZERO PUSH2 0x177A JUMPI PUSH2 0x1779 PUSH2 0x2AC7 JUMP JUMPDEST JUMPDEST PUSH1 0x40 MLOAD PUSH2 0x1789 SWAP4 SWAP3 SWAP2 SWAP1 PUSH2 0x27EC JUMP JUMPDEST PUSH1 0x40 MLOAD DUP1 SWAP2 SUB SWAP1 LOG1 PUSH1 0x1 DUP2 PUSH1 0x6 ADD PUSH1 0x1 PUSH2 0x100 EXP DUP2 SLOAD DUP2 PUSH1 0xFF MUL NOT AND SWAP1 DUP4 PUSH1 0x2 DUP2 GT ISZERO PUSH2 0x17B9 JUMPI PUSH2 0x17B8 PUSH2 0x2AC7 JUMP JUMPDEST JUMPDEST MUL OR SWAP1 SSTORE POP PUSH1 0x1 PUSH1 0x40 MLOAD DUP1 PUSH1 0x20 ADD PUSH1 0x40 MSTORE DUP1 PUSH1 0x0 DUP2 MSTORE POP SWAP4 POP SWAP4 POP POP POP PUSH2 0x181A JUMP JUMPDEST PUSH1 0x0 PUSH1 0x40 MLOAD DUP1 PUSH1 0x40 ADD PUSH1 0x40 MSTORE DUP1 PUSH1 0x10 DUP2 MSTORE PUSH1 0x20 ADD PUSH32 0x416C6C2073656174732074616B656E2E00000000000000000000000000000000 DUP2 MSTORE POP SWAP4 POP SWAP4 POP POP POP JUMPDEST SWAP3 POP SWAP3 SWAP1 POP JUMP JUMPDEST PUSH1 0x0 DUP1 PUSH1 0x0 SWAP1 POP JUMPDEST PUSH1 0x3 DUP2 PUSH1 0xFF AND LT ISZERO PUSH2 0x1A09 JUMPI DUP3 DUP2 PUSH1 0xFF AND PUSH1 0x3 DUP2 LT PUSH2 0x184B JUMPI PUSH2 0x184A PUSH2 0x2AF6 JUMP JUMPDEST JUMPDEST PUSH1 0x20 MUL ADD MLOAD PUSH1 0x1 PUSH1 0x3 DUP2 LT PUSH2 0x1863 JUMPI PUSH2 0x1862 PUSH2 0x2AF6 JUMP JUMPDEST JUMPDEST PUSH1 0x20 MUL ADD MLOAD PUSH1 0x2 DUP2 GT ISZERO PUSH2 0x187A JUMPI PUSH2 0x1879 PUSH2 0x2AC7 JUMP JUMPDEST JUMPDEST DUP4 DUP3 PUSH1 0xFF AND PUSH1 0x3 DUP2 LT PUSH2 0x1890 JUMPI PUSH2 0x188F PUSH2 0x2AF6 JUMP JUMPDEST JUMPDEST PUSH1 0x20 MUL ADD MLOAD PUSH1 0x0 PUSH1 0x3 DUP2 LT PUSH2 0x18A8 JUMPI PUSH2 0x18A7 PUSH2 0x2AF6 JUMP JUMPDEST JUMPDEST PUSH1 0x20 MUL ADD MLOAD PUSH1 0x2 DUP2 GT ISZERO PUSH2 0x18BF JUMPI PUSH2 0x18BE PUSH2 0x2AC7 JUMP JUMPDEST JUMPDEST EQ DUP1 ISZERO PUSH2 0x1953 JUMPI POP DUP3 DUP2 PUSH1 0xFF AND PUSH1 0x3 DUP2 LT PUSH2 0x18DD JUMPI PUSH2 0x18DC PUSH2 0x2AF6 JUMP JUMPDEST JUMPDEST PUSH1 0x20 MUL ADD MLOAD PUSH1 0x2 PUSH1 0x3 DUP2 LT PUSH2 0x18F5 JUMPI PUSH2 0x18F4 PUSH2 0x2AF6 JUMP JUMPDEST JUMPDEST PUSH1 0x20 MUL ADD MLOAD PUSH1 0x2 DUP2 GT ISZERO PUSH2 0x190C JUMPI PUSH2 0x190B PUSH2 0x2AC7 JUMP JUMPDEST JUMPDEST DUP4 DUP3 PUSH1 0xFF AND PUSH1 0x3 DUP2 LT PUSH2 0x1922 JUMPI PUSH2 0x1921 PUSH2 0x2AF6 JUMP JUMPDEST JUMPDEST PUSH1 0x20 MUL ADD MLOAD PUSH1 0x1 PUSH1 0x3 DUP2 LT PUSH2 0x193A JUMPI PUSH2 0x1939 PUSH2 0x2AF6 JUMP JUMPDEST JUMPDEST PUSH1 0x20 MUL ADD MLOAD PUSH1 0x2 DUP2 GT ISZERO PUSH2 0x1951 JUMPI PUSH2 0x1950 PUSH2 0x2AC7 JUMP JUMPDEST JUMPDEST EQ JUMPDEST DUP1 ISZERO PUSH2 0x19B6 JUMPI POP PUSH1 0x0 PUSH1 0x2 DUP2 GT ISZERO PUSH2 0x196E JUMPI PUSH2 0x196D PUSH2 0x2AC7 JUMP JUMPDEST JUMPDEST DUP4 DUP3 PUSH1 0xFF AND PUSH1 0x3 DUP2 LT PUSH2 0x1984 JUMPI PUSH2 0x1983 PUSH2 0x2AF6 JUMP JUMPDEST JUMPDEST PUSH1 0x20 MUL ADD MLOAD PUSH1 0x0 PUSH1 0x3 DUP2 LT PUSH2 0x199C JUMPI PUSH2 0x199B PUSH2 0x2AF6 JUMP JUMPDEST JUMPDEST PUSH1 0x20 MUL ADD MLOAD PUSH1 0x2 DUP2 GT ISZERO PUSH2 0x19B3 JUMPI PUSH2 0x19B2 PUSH2 0x2AC7 JUMP JUMPDEST JUMPDEST EQ ISZERO JUMPDEST ISZERO PUSH2 0x19F6 JUMPI DUP3 DUP2 PUSH1 0xFF AND PUSH1 0x3 DUP2 LT PUSH2 0x19D1 JUMPI PUSH2 0x19D0 PUSH2 0x2AF6 JUMP JUMPDEST JUMPDEST PUSH1 0x20 MUL ADD MLOAD PUSH1 0x0 PUSH1 0x3 DUP2 LT PUSH2 0x19E9 JUMPI PUSH2 0x19E8 PUSH2 0x2AF6 JUMP JUMPDEST JUMPDEST PUSH1 0x20 MUL ADD MLOAD SWAP2 POP POP PUSH2 0x1A0F JUMP JUMPDEST DUP1 DUP1 PUSH2 0x1A01 SWAP1 PUSH2 0x2A6E JUMP JUMPDEST SWAP2 POP POP PUSH2 0x1829 JUMP JUMPDEST POP PUSH1 0x0 SWAP1 POP JUMPDEST SWAP2 SWAP1 POP JUMP JUMPDEST PUSH1 0x0 DUP1 PUSH1 0x0 SWAP1 POP JUMPDEST PUSH1 0x3 DUP2 PUSH1 0xFF AND LT ISZERO PUSH2 0x1BFC JUMPI DUP3 PUSH1 0x1 PUSH1 0x3 DUP2 LT PUSH2 0x1A3C JUMPI PUSH2 0x1A3B PUSH2 0x2AF6 JUMP JUMPDEST JUMPDEST PUSH1 0x20 MUL ADD MLOAD DUP2 PUSH1 0xFF AND PUSH1 0x3 DUP2 LT PUSH2 0x1A56 JUMPI PUSH2 0x1A55 PUSH2 0x2AF6 JUMP JUMPDEST JUMPDEST PUSH1 0x20 MUL ADD MLOAD PUSH1 0x2 DUP2 GT ISZERO PUSH2 0x1A6D JUMPI PUSH2 0x1A6C PUSH2 0x2AC7 JUMP JUMPDEST JUMPDEST DUP4 PUSH1 0x0 PUSH1 0x3 DUP2 LT PUSH2 0x1A81 JUMPI PUSH2 0x1A80 PUSH2 0x2AF6 JUMP JUMPDEST JUMPDEST PUSH1 0x20 MUL ADD MLOAD DUP3 PUSH1 0xFF AND PUSH1 0x3 DUP2 LT PUSH2 0x1A9B JUMPI PUSH2 0x1A9A PUSH2 0x2AF6 JUMP JUMPDEST JUMPDEST PUSH1 0x20 MUL ADD MLOAD PUSH1 0x2 DUP2 GT ISZERO PUSH2 0x1AB2 JUMPI PUSH2 0x1AB1 PUSH2 0x2AC7 JUMP JUMPDEST JUMPDEST EQ DUP1 ISZERO PUSH2 0x1B46 JUMPI POP DUP3 PUSH1 0x2 PUSH1 0x3 DUP2 LT PUSH2 0x1ACE JUMPI PUSH2 0x1ACD PUSH2 0x2AF6 JUMP JUMPDEST JUMPDEST PUSH1 0x20 MUL ADD MLOAD DUP2 PUSH1 0xFF AND PUSH1 0x3 DUP2 LT PUSH2 0x1AE8 JUMPI PUSH2 0x1AE7 PUSH2 0x2AF6 JUMP JUMPDEST JUMPDEST PUSH1 0x20 MUL ADD MLOAD PUSH1 0x2 DUP2 GT ISZERO PUSH2 0x1AFF JUMPI PUSH2 0x1AFE PUSH2 0x2AC7 JUMP JUMPDEST JUMPDEST DUP4 PUSH1 0x1 PUSH1 0x3 DUP2 LT PUSH2 0x1B13 JUMPI PUSH2 0x1B12 PUSH2 0x2AF6 JUMP JUMPDEST JUMPDEST PUSH1 0x20 MUL ADD MLOAD DUP3 PUSH1 0xFF AND PUSH1 0x3 DUP2 LT PUSH2 0x1B2D JUMPI PUSH2 0x1B2C PUSH2 0x2AF6 JUMP JUMPDEST JUMPDEST PUSH1 0x20 MUL ADD MLOAD PUSH1 0x2 DUP2 GT ISZERO PUSH2 0x1B44 JUMPI PUSH2 0x1B43 PUSH2 0x2AC7 JUMP JUMPDEST JUMPDEST EQ JUMPDEST DUP1 ISZERO PUSH2 0x1BA9 JUMPI POP PUSH1 0x0 PUSH1 0x2 DUP2 GT ISZERO PUSH2 0x1B61 JUMPI PUSH2 0x1B60 PUSH2 0x2AC7 JUMP JUMPDEST JUMPDEST DUP4 PUSH1 0x0 PUSH1 0x3 DUP2 LT PUSH2 0x1B75 JUMPI PUSH2 0x1B74 PUSH2 0x2AF6 JUMP JUMPDEST JUMPDEST PUSH1 0x20 MUL ADD MLOAD DUP3 PUSH1 0xFF AND PUSH1 0x3 DUP2 LT PUSH2 0x1B8F JUMPI PUSH2 0x1B8E PUSH2 0x2AF6 JUMP JUMPDEST JUMPDEST PUSH1 0x20 MUL ADD MLOAD PUSH1 0x2 DUP2 GT ISZERO PUSH2 0x1BA6 JUMPI PUSH2 0x1BA5 PUSH2 0x2AC7 JUMP JUMPDEST JUMPDEST EQ ISZERO JUMPDEST ISZERO PUSH2 0x1BE9 JUMPI DUP3 PUSH1 0x0 PUSH1 0x3 DUP2 LT PUSH2 0x1BC2 JUMPI PUSH2 0x1BC1 PUSH2 0x2AF6 JUMP JUMPDEST JUMPDEST PUSH1 0x20 MUL ADD MLOAD DUP2 PUSH1 0xFF AND PUSH1 0x3 DUP2 LT PUSH2 0x1BDC JUMPI PUSH2 0x1BDB PUSH2 0x2AF6 JUMP JUMPDEST JUMPDEST PUSH1 0x20 MUL ADD MLOAD SWAP2 POP POP PUSH2 0x1C02 JUMP JUMPDEST DUP1 DUP1 PUSH2 0x1BF4 SWAP1 PUSH2 0x2A6E JUMP JUMPDEST SWAP2 POP POP PUSH2 0x1A1C JUMP JUMPDEST POP PUSH1 0x0 SWAP1 POP JUMPDEST SWAP2 SWAP1 POP JUMP JUMPDEST PUSH1 0x0 DUP2 PUSH1 0x1 PUSH1 0x3 DUP2 LT PUSH2 0x1C1D JUMPI PUSH2 0x1C1C PUSH2 0x2AF6 JUMP JUMPDEST JUMPDEST PUSH1 0x20 MUL ADD MLOAD PUSH1 0x1 PUSH1 0x3 DUP2 LT PUSH2 0x1C35 JUMPI PUSH2 0x1C34 PUSH2 0x2AF6 JUMP JUMPDEST JUMPDEST PUSH1 0x20 MUL ADD MLOAD PUSH1 0x2 DUP2 GT ISZERO PUSH2 0x1C4C JUMPI PUSH2 0x1C4B PUSH2 0x2AC7 JUMP JUMPDEST JUMPDEST DUP3 PUSH1 0x0 PUSH1 0x3 DUP2 LT PUSH2 0x1C60 JUMPI PUSH2 0x1C5F PUSH2 0x2AF6 JUMP JUMPDEST JUMPDEST PUSH1 0x20 MUL ADD MLOAD PUSH1 0x0 PUSH1 0x3 DUP2 LT PUSH2 0x1C78 JUMPI PUSH2 0x1C77 PUSH2 0x2AF6 JUMP JUMPDEST JUMPDEST PUSH1 0x20 MUL ADD MLOAD PUSH1 0x2 DUP2 GT ISZERO PUSH2 0x1C8F JUMPI PUSH2 0x1C8E PUSH2 0x2AC7 JUMP JUMPDEST JUMPDEST EQ DUP1 ISZERO PUSH2 0x1D1F JUMPI POP DUP2 PUSH1 0x2 PUSH1 0x3 DUP2 LT PUSH2 0x1CAB JUMPI PUSH2 0x1CAA PUSH2 0x2AF6 JUMP JUMPDEST JUMPDEST PUSH1 0x20 MUL ADD MLOAD PUSH1 0x2 PUSH1 0x3 DUP2 LT PUSH2 0x1CC3 JUMPI PUSH2 0x1CC2 PUSH2 0x2AF6 JUMP JUMPDEST JUMPDEST PUSH1 0x20 MUL ADD MLOAD PUSH1 0x2 DUP2 GT ISZERO PUSH2 0x1CDA JUMPI PUSH2 0x1CD9 PUSH2 0x2AC7 JUMP JUMPDEST JUMPDEST DUP3 PUSH1 0x1 PUSH1 0x3 DUP2 LT PUSH2 0x1CEE JUMPI PUSH2 0x1CED PUSH2 0x2AF6 JUMP JUMPDEST JUMPDEST PUSH1 0x20 MUL ADD MLOAD PUSH1 0x1 PUSH1 0x3 DUP2 LT PUSH2 0x1D06 JUMPI PUSH2 0x1D05 PUSH2 0x2AF6 JUMP JUMPDEST JUMPDEST PUSH1 0x20 MUL ADD MLOAD PUSH1 0x2 DUP2 GT ISZERO PUSH2 0x1D1D JUMPI PUSH2 0x1D1C PUSH2 0x2AC7 JUMP JUMPDEST JUMPDEST EQ JUMPDEST DUP1 ISZERO PUSH2 0x1D80 JUMPI POP PUSH1 0x0 PUSH1 0x2 DUP2 GT ISZERO PUSH2 0x1D3A JUMPI PUSH2 0x1D39 PUSH2 0x2AC7 JUMP JUMPDEST JUMPDEST DUP3 PUSH1 0x0 PUSH1 0x3 DUP2 LT PUSH2 0x1D4E JUMPI PUSH2 0x1D4D PUSH2 0x2AF6 JUMP JUMPDEST JUMPDEST PUSH1 0x20 MUL ADD MLOAD PUSH1 0x0 PUSH1 0x3 DUP2 LT PUSH2 0x1D66 JUMPI PUSH2 0x1D65 PUSH2 0x2AF6 JUMP JUMPDEST JUMPDEST PUSH1 0x20 MUL ADD MLOAD PUSH1 0x2 DUP2 GT ISZERO PUSH2 0x1D7D JUMPI PUSH2 0x1D7C PUSH2 0x2AC7 JUMP JUMPDEST JUMPDEST EQ ISZERO JUMPDEST ISZERO PUSH2 0x1DBD JUMPI DUP2 PUSH1 0x0 PUSH1 0x3 DUP2 LT PUSH2 0x1D99 JUMPI PUSH2 0x1D98 PUSH2 0x2AF6 JUMP JUMPDEST JUMPDEST PUSH1 0x20 MUL ADD MLOAD PUSH1 0x0 PUSH1 0x3 DUP2 LT PUSH2 0x1DB1 JUMPI PUSH2 0x1DB0 PUSH2 0x2AF6 JUMP JUMPDEST JUMPDEST PUSH1 0x20 MUL ADD MLOAD SWAP1 POP PUSH2 0x1F76 JUMP JUMPDEST DUP2 PUSH1 0x1 PUSH1 0x3 DUP2 LT PUSH2 0x1DD1 JUMPI PUSH2 0x1DD0 PUSH2 0x2AF6 JUMP JUMPDEST JUMPDEST PUSH1 0x20 MUL ADD MLOAD PUSH1 0x1 PUSH1 0x3 DUP2 LT PUSH2 0x1DE9 JUMPI PUSH2 0x1DE8 PUSH2 0x2AF6 JUMP JUMPDEST JUMPDEST PUSH1 0x20 MUL ADD MLOAD PUSH1 0x2 DUP2 GT ISZERO PUSH2 0x1E00 JUMPI PUSH2 0x1DFF PUSH2 0x2AC7 JUMP JUMPDEST JUMPDEST DUP3 PUSH1 0x0 PUSH1 0x3 DUP2 LT PUSH2 0x1E14 JUMPI PUSH2 0x1E13 PUSH2 0x2AF6 JUMP JUMPDEST JUMPDEST PUSH1 0x20 MUL ADD MLOAD PUSH1 0x2 PUSH1 0x3 DUP2 LT PUSH2 0x1E2C JUMPI PUSH2 0x1E2B PUSH2 0x2AF6 JUMP JUMPDEST JUMPDEST PUSH1 0x20 MUL ADD MLOAD PUSH1 0x2 DUP2 GT ISZERO PUSH2 0x1E43 JUMPI PUSH2 0x1E42 PUSH2 0x2AC7 JUMP JUMPDEST JUMPDEST EQ DUP1 ISZERO PUSH2 0x1ED3 JUMPI POP DUP2 PUSH1 0x2 PUSH1 0x3 DUP2 LT PUSH2 0x1E5F JUMPI PUSH2 0x1E5E PUSH2 0x2AF6 JUMP JUMPDEST JUMPDEST PUSH1 0x20 MUL ADD MLOAD PUSH1 0x0 PUSH1 0x3 DUP2 LT PUSH2 0x1E77 JUMPI PUSH2 0x1E76 PUSH2 0x2AF6 JUMP JUMPDEST JUMPDEST PUSH1 0x20 MUL ADD MLOAD PUSH1 0x2 DUP2 GT ISZERO PUSH2 0x1E8E JUMPI PUSH2 0x1E8D PUSH2 0x2AC7 JUMP JUMPDEST JUMPDEST DUP3 PUSH1 0x1 PUSH1 0x3 DUP2 LT PUSH2 0x1EA2 JUMPI PUSH2 0x1EA1 PUSH2 0x2AF6 JUMP JUMPDEST JUMPDEST PUSH1 0x20 MUL ADD MLOAD PUSH1 0x1 PUSH1 0x3 DUP2 LT PUSH2 0x1EBA JUMPI PUSH2 0x1EB9 PUSH2 0x2AF6 JUMP JUMPDEST JUMPDEST PUSH1 0x20 MUL ADD MLOAD PUSH1 0x2 DUP2 GT ISZERO PUSH2 0x1ED1 JUMPI PUSH2 0x1ED0 PUSH2 0x2AC7 JUMP JUMPDEST JUMPDEST EQ JUMPDEST DUP1 ISZERO PUSH2 0x1F34 JUMPI POP PUSH1 0x0 PUSH1 0x2 DUP2 GT ISZERO PUSH2 0x1EEE JUMPI PUSH2 0x1EED PUSH2 0x2AC7 JUMP JUMPDEST JUMPDEST DUP3 PUSH1 0x0 PUSH1 0x3 DUP2 LT PUSH2 0x1F02 JUMPI PUSH2 0x1F01 PUSH2 0x2AF6 JUMP JUMPDEST JUMPDEST PUSH1 0x20 MUL ADD MLOAD PUSH1 0x2 PUSH1 0x3 DUP2 LT PUSH2 0x1F1A JUMPI PUSH2 0x1F19 PUSH2 0x2AF6 JUMP JUMPDEST JUMPDEST PUSH1 0x20 MUL ADD MLOAD PUSH1 0x2 DUP2 GT ISZERO PUSH2 0x1F31 JUMPI PUSH2 0x1F30 PUSH2 0x2AC7 JUMP JUMPDEST JUMPDEST EQ ISZERO JUMPDEST ISZERO PUSH2 0x1F71 JUMPI DUP2 PUSH1 0x0 PUSH1 0x3 DUP2 LT PUSH2 0x1F4D JUMPI PUSH2 0x1F4C PUSH2 0x2AF6 JUMP JUMPDEST JUMPDEST PUSH1 0x20 MUL ADD MLOAD PUSH1 0x2 PUSH1 0x3 DUP2 LT PUSH2 0x1F65 JUMPI PUSH2 0x1F64 PUSH2 0x2AF6 JUMP JUMPDEST JUMPDEST PUSH1 0x20 MUL ADD MLOAD SWAP1 POP PUSH2 0x1F76 JUMP JUMPDEST PUSH1 0x0 SWAP1 POP JUMPDEST SWAP2 SWAP1 POP JUMP JUMPDEST PUSH1 0x0 DUP1 PUSH1 0x0 SWAP1 POP JUMPDEST PUSH1 0x3 DUP2 PUSH1 0xFF AND LT ISZERO PUSH2 0x2031 JUMPI PUSH1 0x0 JUMPDEST PUSH1 0x3 DUP2 PUSH1 0xFF AND LT ISZERO PUSH2 0x201D JUMPI PUSH1 0x0 PUSH1 0x2 DUP2 GT ISZERO PUSH2 0x1FB2 JUMPI PUSH2 0x1FB1 PUSH2 0x2AC7 JUMP JUMPDEST JUMPDEST DUP5 DUP4 PUSH1 0xFF AND PUSH1 0x3 DUP2 LT PUSH2 0x1FC8 JUMPI PUSH2 0x1FC7 PUSH2 0x2AF6 JUMP JUMPDEST JUMPDEST PUSH1 0x20 MUL ADD MLOAD DUP3 PUSH1 0xFF AND PUSH1 0x3 DUP2 LT PUSH2 0x1FE2 JUMPI PUSH2 0x1FE1 PUSH2 0x2AF6 JUMP JUMPDEST JUMPDEST PUSH1 0x20 MUL ADD MLOAD PUSH1 0x2 DUP2 GT ISZERO PUSH2 0x1FF9 JUMPI PUSH2 0x1FF8 PUSH2 0x2AC7 JUMP JUMPDEST JUMPDEST EQ ISZERO PUSH2 0x200A JUMPI PUSH1 0x0 SWAP3 POP POP POP PUSH2 0x2037 JUMP JUMPDEST DUP1 DUP1 PUSH2 0x2015 SWAP1 PUSH2 0x2A6E JUMP JUMPDEST SWAP2 POP POP PUSH2 0x1F92 JUMP JUMPDEST POP DUP1 DUP1 PUSH2 0x2029 SWAP1 PUSH2 0x2A6E JUMP JUMPDEST SWAP2 POP POP PUSH2 0x1F83 JUMP JUMPDEST POP PUSH1 0x1 SWAP1 POP JUMPDEST SWAP2 SWAP1 POP JUMP JUMPDEST PUSH1 0x40 MLOAD DUP1 PUSH2 0x100 ADD PUSH1 0x40 MSTORE DUP1 PUSH1 0x0 DUP2 MSTORE PUSH1 0x20 ADD PUSH1 0x0 DUP2 MSTORE PUSH1 0x20 ADD PUSH2 0x205E PUSH2 0x2117 JUMP JUMPDEST DUP2 MSTORE PUSH1 0x20 ADD PUSH2 0x206B PUSH2 0x2117 JUMP JUMPDEST DUP2 MSTORE PUSH1 0x20 ADD PUSH1 0x0 PUSH1 0x3 DUP2 GT ISZERO PUSH2 0x2084 JUMPI PUSH2 0x2083 PUSH2 0x2AC7 JUMP JUMPDEST JUMPDEST DUP2 MSTORE PUSH1 0x20 ADD PUSH1 0x0 PUSH1 0x2 DUP2 GT ISZERO PUSH2 0x209D JUMPI PUSH2 0x209C PUSH2 0x2AC7 JUMP JUMPDEST JUMPDEST DUP2 MSTORE PUSH1 0x20 ADD PUSH1 0x0 PUSH1 0x2 DUP2 GT ISZERO PUSH2 0x20B6 JUMPI PUSH2 0x20B5 PUSH2 0x2AC7 JUMP JUMPDEST JUMPDEST DUP2 MSTORE PUSH1 0x20 ADD PUSH2 0x20C3 PUSH2 0x2147 JUMP JUMPDEST DUP2 MSTORE POP SWAP1 JUMP JUMPDEST DUP3 PUSH1 0x3 DUP2 ADD SWAP3 DUP3 ISZERO PUSH2 0x2106 JUMPI SWAP2 PUSH1 0x20 MUL DUP3 ADD JUMPDEST DUP3 DUP2 GT ISZERO PUSH2 0x2105 JUMPI DUP3 MLOAD DUP3 SWAP1 PUSH1 0x3 PUSH2 0x20F5 SWAP3 SWAP2 SWAP1 PUSH2 0x2174 JUMP JUMPDEST POP SWAP2 PUSH1 0x20 ADD SWAP2 SWAP1 PUSH1 0x1 ADD SWAP1 PUSH2 0x20DC JUMP JUMPDEST JUMPDEST POP SWAP1 POP PUSH2 0x2113 SWAP2 SWAP1 PUSH2 0x221D JUMP JUMPDEST POP SWAP1 JUMP JUMPDEST PUSH1 0x40 MLOAD DUP1 PUSH1 0x40 ADD PUSH1 0x40 MSTORE DUP1 PUSH1 0x0 PUSH20 0xFFFFFFFFFFFFFFFFFFFFFFFFFFFFFFFFFFFFFFFF AND DUP2 MSTORE PUSH1 0x20 ADD PUSH1 0x0 DUP2 MSTORE POP SWAP1 JUMP JUMPDEST PUSH1 0x40 MLOAD DUP1 PUSH1 0x60 ADD PUSH1 0x40 MSTORE DUP1 PUSH1 0x3 SWAP1 JUMPDEST PUSH2 0x215E PUSH2 0x2241 JUMP JUMPDEST DUP2 MSTORE PUSH1 0x20 ADD SWAP1 PUSH1 0x1 SWAP1 SUB SWAP1 DUP2 PUSH2 0x2156 JUMPI SWAP1 POP POP SWAP1 JUMP JUMPDEST DUP3 PUSH1 0x3 PUSH1 0x1F ADD PUSH1 0x20 SWAP1 DIV DUP2 ADD SWAP3 DUP3 ISZERO PUSH2 0x220C JUMPI SWAP2 PUSH1 0x20 MUL DUP3 ADD PUSH1 0x0 JUMPDEST DUP4 DUP3 GT ISZERO PUSH2 0x21DD JUMPI DUP4 MLOAD DUP4 DUP3 PUSH2 0x100 EXP DUP2 SLOAD DUP2 PUSH1 0xFF MUL NOT AND SWAP1 DUP4 PUSH1 0x2 DUP2 GT ISZERO PUSH2 0x21BC JUMPI PUSH2 0x21BB PUSH2 0x2AC7 JUMP JUMPDEST JUMPDEST MUL OR SWAP1 SSTORE POP SWAP3 PUSH1 0x20 ADD SWAP3 PUSH1 0x1 ADD PUSH1 0x20 DUP2 PUSH1 0x0 ADD DIV SWAP3 DUP4 ADD SWAP3 PUSH1 0x1 SUB MUL PUSH2 0x2190 JUMP JUMPDEST DUP1 ISZERO PUSH2 0x220A JUMPI DUP3 DUP2 PUSH2 0x100 EXP DUP2 SLOAD SWAP1 PUSH1 0xFF MUL NOT AND SWAP1 SSTORE PUSH1 0x1 ADD PUSH1 0x20 DUP2 PUSH1 0x0 ADD DIV SWAP3 DUP4 ADD SWAP3 PUSH1 0x1 SUB MUL PUSH2 0x21DD JUMP JUMPDEST POP JUMPDEST POP SWAP1 POP PUSH2 0x2219 SWAP2 SWAP1 PUSH2 0x2263 JUMP JUMPDEST POP SWAP1 JUMP JUMPDEST JUMPDEST DUP1 DUP3 GT ISZERO PUSH2 0x223D JUMPI PUSH1 0x0 DUP2 DUP2 PUSH2 0x2234 SWAP2 SWAP1 PUSH2 0x2280 JUMP JUMPDEST POP PUSH1 0x1 ADD PUSH2 0x221E JUMP JUMPDEST POP SWAP1 JUMP JUMPDEST PUSH1 0x40 MLOAD DUP1 PUSH1 0x60 ADD PUSH1 0x40 MSTORE DUP1 PUSH1 0x3 SWAP1 PUSH1 0x20 DUP3 MUL DUP1 CALLDATASIZE DUP4 CALLDATACOPY DUP1 DUP3 ADD SWAP2 POP POP SWAP1 POP POP SWAP1 JUMP JUMPDEST JUMPDEST DUP1 DUP3 GT ISZERO PUSH2 0x227C JUMPI PUSH1 0x0 DUP2 PUSH1 0x0 SWAP1 SSTORE POP PUSH1 0x1 ADD PUSH2 0x2264 JUMP JUMPDEST POP SWAP1 JUMP JUMPDEST POP PUSH1 0x0 SWAP1 SSTORE JUMP JUMPDEST PUSH1 0x0 DUP2 CALLDATALOAD SWAP1 POP PUSH2 0x2296 DUP2 PUSH2 0x2BF5 JUMP JUMPDEST SWAP3 SWAP2 POP POP JUMP JUMPDEST PUSH1 0x0 PUSH1 0x20 DUP3 DUP5 SUB SLT ISZERO PUSH2 0x22B2 JUMPI PUSH2 0x22B1 PUSH2 0x2B25 JUMP JUMPDEST JUMPDEST PUSH1 0x0 PUSH2 0x22C0 DUP5 DUP3 DUP6 ADD PUSH2 0x2287 JUMP JUMPDEST SWAP2 POP POP SWAP3 SWAP2 POP POP JUMP JUMPDEST PUSH1 0x0 DUP1 PUSH1 0x0 PUSH1 0x60 DUP5 DUP7 SUB SLT ISZERO PUSH2 0x22E2 JUMPI PUSH2 0x22E1 PUSH2 0x2B25 JUMP JUMPDEST JUMPDEST PUSH1 0x0 PUSH2 0x22F0 DUP7 DUP3 DUP8 ADD PUSH2 0x2287 JUMP JUMPDEST SWAP4 POP POP PUSH1 0x20 PUSH2 0x2301 DUP7 DUP3 DUP8 ADD PUSH2 0x2287 JUMP JUMPDEST SWAP3 POP POP PUSH1 0x40 PUSH2 0x2312 DUP7 DUP3 DUP8 ADD PUSH2 0x2287 JUMP JUMPDEST SWAP2 POP POP SWAP3 POP SWAP3 POP SWAP3 JUMP JUMPDEST PUSH1 0x0 PUSH2 0x2328 DUP4 DUP4 PUSH2 0x23C1 JUMP JUMPDEST PUSH1 0x60 DUP4 ADD SWAP1 POP SWAP3 SWAP2 POP POP JUMP JUMPDEST PUSH1 0x0 PUSH2 0x2340 DUP4 DUP4 PUSH2 0x2427 JUMP JUMPDEST PUSH1 0x20 DUP4 ADD SWAP1 POP SWAP3 SWAP2 POP POP JUMP JUMPDEST PUSH2 0x2355 DUP2 PUSH2 0x292E JUMP JUMPDEST DUP3 MSTORE POP POP JUMP JUMPDEST PUSH2 0x2364 DUP2 PUSH2 0x292E JUMP JUMPDEST DUP3 MSTORE POP POP JUMP JUMPDEST PUSH2 0x2373 DUP2 PUSH2 0x2837 JUMP JUMPDEST PUSH2 0x237D DUP2 DUP5 PUSH2 0x2872 JUMP JUMPDEST SWAP3 POP PUSH2 0x2388 DUP3 PUSH2 0x2823 JUMP JUMPDEST DUP1 PUSH1 0x0 JUMPDEST DUP4 DUP2 LT ISZERO PUSH2 0x23B9 JUMPI DUP2 MLOAD PUSH2 0x23A0 DUP8 DUP3 PUSH2 0x231C JUMP JUMPDEST SWAP7 POP PUSH2 0x23AB DUP4 PUSH2 0x2858 JUMP JUMPDEST SWAP3 POP POP PUSH1 0x1 DUP2 ADD SWAP1 POP PUSH2 0x238C JUMP JUMPDEST POP POP POP POP POP POP JUMP JUMPDEST PUSH2 0x23CA DUP2 PUSH2 0x2842 JUMP JUMPDEST PUSH2 0x23D4 DUP2 DUP5 PUSH2 0x287D JUMP JUMPDEST SWAP3 POP PUSH2 0x23DF DUP3 PUSH2 0x282D JUMP JUMPDEST DUP1 PUSH1 0x0 JUMPDEST DUP4 DUP2 LT ISZERO PUSH2 0x2410 JUMPI DUP2 MLOAD PUSH2 0x23F7 DUP8 DUP3 PUSH2 0x2334 JUMP JUMPDEST SWAP7 POP PUSH2 0x2402 DUP4 PUSH2 0x2865 JUMP JUMPDEST SWAP3 POP POP PUSH1 0x1 DUP2 ADD SWAP1 POP PUSH2 0x23E3 JUMP JUMPDEST POP POP POP POP POP POP JUMP JUMPDEST PUSH2 0x2421 DUP2 PUSH2 0x2940 JUMP JUMPDEST DUP3 MSTORE POP POP JUMP JUMPDEST PUSH2 0x2430 DUP2 PUSH2 0x29BC JUMP JUMPDEST DUP3 MSTORE POP POP JUMP JUMPDEST PUSH2 0x243F DUP2 PUSH2 0x29CE JUMP JUMPDEST DUP3 MSTORE POP POP JUMP JUMPDEST PUSH2 0x244E DUP2 PUSH2 0x29E0 JUMP JUMPDEST DUP3 MSTORE POP POP JUMP JUMPDEST PUSH2 0x245D DUP2 PUSH2 0x29E0 JUMP JUMPDEST DUP3 MSTORE POP POP JUMP JUMPDEST PUSH1 0x0 PUSH2 0x246E DUP3 PUSH2 0x284D JUMP JUMPDEST PUSH2 0x2478 DUP2 DUP6 PUSH2 0x2893 JUMP JUMPDEST SWAP4 POP PUSH2 0x2488 DUP2 DUP6 PUSH1 0x20 DUP7 ADD PUSH2 0x29F2 JUMP JUMPDEST PUSH2 0x2491 DUP2 PUSH2 0x2B2A JUMP JUMPDEST DUP5 ADD SWAP2 POP POP SWAP3 SWAP2 POP POP JUMP JUMPDEST PUSH1 0x0 PUSH2 0x24A9 PUSH1 0x12 DUP4 PUSH2 0x2893 JUMP JUMPDEST SWAP2 POP PUSH2 0x24B4 DUP3 PUSH2 0x2B3B JUMP JUMPDEST PUSH1 0x20 DUP3 ADD SWAP1 POP SWAP2 SWAP1 POP JUMP JUMPDEST PUSH1 0x0 PUSH2 0x24CC PUSH1 0x14 DUP4 PUSH2 0x2893 JUMP JUMPDEST SWAP2 POP PUSH2 0x24D7 DUP3 PUSH2 0x2B64 JUMP JUMPDEST PUSH1 0x20 DUP3 ADD SWAP1 POP SWAP2 SWAP1 POP JUMP JUMPDEST PUSH1 0x0 PUSH2 0x24EF PUSH1 0x0 DUP4 PUSH2 0x2888 JUMP JUMPDEST SWAP2 POP PUSH2 0x24FA DUP3 PUSH2 0x2B8D JUMP JUMPDEST PUSH1 0x0 DUP3 ADD SWAP1 POP SWAP2 SWAP1 POP JUMP JUMPDEST PUSH1 0x0 PUSH2 0x2512 PUSH1 0x17 DUP4 PUSH2 0x2893 JUMP JUMPDEST SWAP2 POP PUSH2 0x251D DUP3 PUSH2 0x2B90 JUMP JUMPDEST PUSH1 0x20 DUP3 ADD SWAP1 POP SWAP2 SWAP1 POP JUMP JUMPDEST PUSH2 0x240 DUP3 ADD PUSH1 0x0 DUP3 ADD MLOAD PUSH2 0x253F PUSH1 0x0 DUP6 ADD DUP3 PUSH2 0x262A JUMP JUMPDEST POP PUSH1 0x20 DUP3 ADD MLOAD PUSH2 0x2552 PUSH1 0x20 DUP6 ADD DUP3 PUSH2 0x262A JUMP JUMPDEST POP PUSH1 0x40 DUP3 ADD MLOAD PUSH2 0x2565 PUSH1 0x40 DUP6 ADD DUP3 PUSH2 0x25CC JUMP JUMPDEST POP PUSH1 0x60 DUP3 ADD MLOAD PUSH2 0x2578 PUSH1 0x80 DUP6 ADD DUP3 PUSH2 0x25CC JUMP JUMPDEST POP PUSH1 0x80 DUP3 ADD MLOAD PUSH2 0x258B PUSH1 0xC0 DUP6 ADD DUP3 PUSH2 0x2445 JUMP JUMPDEST POP PUSH1 0xA0 DUP3 ADD MLOAD PUSH2 0x259E PUSH1 0xE0 DUP6 ADD DUP3 PUSH2 0x2436 JUMP JUMPDEST POP PUSH1 0xC0 DUP3 ADD MLOAD PUSH2 0x25B2 PUSH2 0x100 DUP6 ADD DUP3 PUSH2 0x2427 JUMP JUMPDEST POP PUSH1 0xE0 DUP3 ADD MLOAD PUSH2 0x25C6 PUSH2 0x120 DUP6 ADD DUP3 PUSH2 0x236A JUMP JUMPDEST POP POP POP POP JUMP JUMPDEST PUSH1 0x40 DUP3 ADD PUSH1 0x0 DUP3 ADD MLOAD PUSH2 0x25E2 PUSH1 0x0 DUP6 ADD DUP3 PUSH2 0x234C JUMP JUMPDEST POP PUSH1 0x20 DUP3 ADD MLOAD PUSH2 0x25F5 PUSH1 0x20 DUP6 ADD DUP3 PUSH2 0x262A JUMP JUMPDEST POP POP POP POP JUMP JUMPDEST PUSH1 0x40 DUP3 ADD PUSH1 0x0 DUP3 ADD MLOAD PUSH2 0x2611 PUSH1 0x0 DUP6 ADD DUP3 PUSH2 0x234C JUMP JUMPDEST POP PUSH1 0x20 DUP3 ADD MLOAD PUSH2 0x2624 PUSH1 0x20 DUP6 ADD DUP3 PUSH2 0x262A JUMP JUMPDEST POP POP POP POP JUMP JUMPDEST PUSH2 0x2633 DUP2 PUSH2 0x29A5 JUMP JUMPDEST DUP3 MSTORE POP POP JUMP JUMPDEST PUSH2 0x2642 DUP2 PUSH2 0x29A5 JUMP JUMPDEST DUP3 MSTORE POP POP JUMP JUMPDEST PUSH2 0x2651 DUP2 PUSH2 0x29AF JUMP JUMPDEST DUP3 MSTORE POP POP JUMP JUMPDEST PUSH1 0x0 PUSH2 0x2662 DUP3 PUSH2 0x24E2 JUMP JUMPDEST SWAP2 POP DUP2 SWAP1 POP SWAP2 SWAP1 POP JUMP JUMPDEST PUSH1 0x0 PUSH1 0x40 DUP3 ADD SWAP1 POP PUSH2 0x2681 PUSH1 0x0 DUP4 ADD DUP6 PUSH2 0x2418 JUMP JUMPDEST DUP2 DUP2 SUB PUSH1 0x20 DUP4 ADD MSTORE PUSH2 0x2693 DUP2 DUP5 PUSH2 0x2463 JUMP JUMPDEST SWAP1 POP SWAP4 SWAP3 POP POP POP JUMP JUMPDEST PUSH1 0x0 PUSH1 0x20 DUP3 ADD SWAP1 POP DUP2 DUP2 SUB PUSH1 0x0 DUP4 ADD MSTORE PUSH2 0x26B6 DUP2 DUP5 PUSH2 0x2463 JUMP JUMPDEST SWAP1 POP SWAP3 SWAP2 POP POP JUMP JUMPDEST PUSH1 0x0 PUSH1 0x20 DUP3 ADD SWAP1 POP DUP2 DUP2 SUB PUSH1 0x0 DUP4 ADD MSTORE PUSH2 0x26D7 DUP2 PUSH2 0x249C JUMP JUMPDEST SWAP1 POP SWAP2 SWAP1 POP JUMP JUMPDEST PUSH1 0x0 PUSH1 0x20 DUP3 ADD SWAP1 POP DUP2 DUP2 SUB PUSH1 0x0 DUP4 ADD MSTORE PUSH2 0x26F7 DUP2 PUSH2 0x24BF JUMP JUMPDEST SWAP1 POP SWAP2 SWAP1 POP JUMP JUMPDEST PUSH1 0x0 PUSH1 0x20 DUP3 ADD SWAP1 POP DUP2 DUP2 SUB PUSH1 0x0 DUP4 ADD MSTORE PUSH2 0x2717 DUP2 PUSH2 0x2505 JUMP JUMPDEST SWAP1 POP SWAP2 SWAP1 POP JUMP JUMPDEST PUSH1 0x0 PUSH2 0x240 DUP3 ADD SWAP1 POP PUSH2 0x2734 PUSH1 0x0 DUP4 ADD DUP5 PUSH2 0x2528 JUMP JUMPDEST SWAP3 SWAP2 POP POP JUMP JUMPDEST PUSH1 0x0 PUSH1 0x20 DUP3 ADD SWAP1 POP PUSH2 0x274F PUSH1 0x0 DUP4 ADD DUP5 PUSH2 0x2639 JUMP JUMPDEST SWAP3 SWAP2 POP POP JUMP JUMPDEST PUSH1 0x0 PUSH1 0x40 DUP3 ADD SWAP1 POP PUSH2 0x276A PUSH1 0x0 DUP4 ADD DUP6 PUSH2 0x2639 JUMP JUMPDEST PUSH2 0x2777 PUSH1 0x20 DUP4 ADD DUP5 PUSH2 0x235B JUMP JUMPDEST SWAP4 SWAP3 POP POP POP JUMP JUMPDEST PUSH1 0x0 PUSH1 0x40 DUP3 ADD SWAP1 POP PUSH2 0x2793 PUSH1 0x0 DUP4 ADD DUP6 PUSH2 0x2639 JUMP JUMPDEST PUSH2 0x27A0 PUSH1 0x20 DUP4 ADD DUP5 PUSH2 0x2454 JUMP JUMPDEST SWAP4 SWAP3 POP POP POP JUMP JUMPDEST PUSH1 0x0 PUSH1 0xA0 DUP3 ADD SWAP1 POP PUSH2 0x27BC PUSH1 0x0 DUP4 ADD DUP8 PUSH2 0x2639 JUMP JUMPDEST PUSH2 0x27C9 PUSH1 0x20 DUP4 ADD DUP7 PUSH2 0x25FB JUMP JUMPDEST PUSH2 0x27D6 PUSH1 0x60 DUP4 ADD DUP6 PUSH2 0x2639 JUMP JUMPDEST PUSH2 0x27E3 PUSH1 0x80 DUP4 ADD DUP5 PUSH2 0x2639 JUMP JUMPDEST SWAP6 SWAP5 POP POP POP POP POP JUMP JUMPDEST PUSH1 0x0 PUSH1 0x80 DUP3 ADD SWAP1 POP PUSH2 0x2801 PUSH1 0x0 DUP4 ADD DUP7 PUSH2 0x2639 JUMP JUMPDEST PUSH2 0x280E PUSH1 0x20 DUP4 ADD DUP6 PUSH2 0x25FB JUMP JUMPDEST PUSH2 0x281B PUSH1 0x60 DUP4 ADD DUP5 PUSH2 0x2648 JUMP JUMPDEST SWAP5 SWAP4 POP POP POP POP JUMP JUMPDEST PUSH1 0x0 DUP2 SWAP1 POP SWAP2 SWAP1 POP JUMP JUMPDEST PUSH1 0x0 DUP2 SWAP1 POP SWAP2 SWAP1 POP JUMP JUMPDEST PUSH1 0x0 PUSH1 0x3 SWAP1 POP SWAP2 SWAP1 POP JUMP JUMPDEST PUSH1 0x0 PUSH1 0x3 SWAP1 POP SWAP2 SWAP1 POP JUMP JUMPDEST PUSH1 0x0 DUP2 MLOAD SWAP1 POP SWAP2 SWAP1 POP JUMP JUMPDEST PUSH1 0x0 PUSH1 0x20 DUP3 ADD SWAP1 POP SWAP2 SWAP1 POP JUMP JUMPDEST PUSH1 0x0 PUSH1 0x20 DUP3 ADD SWAP1 POP SWAP2 SWAP1 POP JUMP JUMPDEST PUSH1 0x0 DUP2 SWAP1 POP SWAP3 SWAP2 POP POP JUMP JUMPDEST PUSH1 0x0 DUP2 SWAP1 POP SWAP3 SWAP2 POP POP JUMP JUMPDEST PUSH1 0x0 DUP2 SWAP1 POP SWAP3 SWAP2 POP POP JUMP JUMPDEST PUSH1 0x0 DUP3 DUP3 MSTORE PUSH1 0x20 DUP3 ADD SWAP1 POP SWAP3 SWAP2 POP POP JUMP JUMPDEST PUSH1 0x0 PUSH2 0x28AF DUP3 PUSH2 0x29A5 JUMP JUMPDEST SWAP2 POP PUSH2 0x28BA DUP4 PUSH2 0x29A5 JUMP JUMPDEST SWAP3 POP DUP3 PUSH32 0xFFFFFFFFFFFFFFFFFFFFFFFFFFFFFFFFFFFFFFFFFFFFFFFFFFFFFFFFFFFFFFFF SUB DUP3 GT ISZERO PUSH2 0x28EF JUMPI PUSH2 0x28EE PUSH2 0x2A98 JUMP JUMPDEST JUMPDEST DUP3 DUP3 ADD SWAP1 POP SWAP3 SWAP2 POP POP JUMP JUMPDEST PUSH1 0x0 PUSH2 0x2905 DUP3 PUSH2 0x29A5 JUMP JUMPDEST SWAP2 POP PUSH2 0x2910 DUP4 PUSH2 0x29A5 JUMP JUMPDEST SWAP3 POP DUP3 DUP3 LT ISZERO PUSH2 0x2923 JUMPI PUSH2 0x2922 PUSH2 0x2A98 JUMP JUMPDEST JUMPDEST DUP3 DUP3 SUB SWAP1 POP SWAP3 SWAP2 POP POP JUMP JUMPDEST PUSH1 0x0 PUSH2 0x2939 DUP3 PUSH2 0x2985 JUMP JUMPDEST SWAP1 POP SWAP2 SWAP1 POP JUMP JUMPDEST PUSH1 0x0 DUP2 ISZERO ISZERO SWAP1 POP SWAP2 SWAP1 POP JUMP JUMPDEST PUSH1 0x0 DUP2 SWAP1 POP PUSH2 0x295A DUP3 PUSH2 0x2BB9 JUMP JUMPDEST SWAP2 SWAP1 POP JUMP JUMPDEST PUSH1 0x0 DUP2 SWAP1 POP PUSH2 0x296D DUP3 PUSH2 0x2BCD JUMP JUMPDEST SWAP2 SWAP1 POP JUMP JUMPDEST PUSH1 0x0 DUP2 SWAP1 POP PUSH2 0x2980 DUP3 PUSH2 0x2BE1 JUMP JUMPDEST SWAP2 SWAP1 POP JUMP JUMPDEST PUSH1 0x0 PUSH20 0xFFFFFFFFFFFFFFFFFFFFFFFFFFFFFFFFFFFFFFFF DUP3 AND SWAP1 POP SWAP2 SWAP1 POP JUMP JUMPDEST PUSH1 0x0 DUP2 SWAP1 POP SWAP2 SWAP1 POP JUMP JUMPDEST PUSH1 0x0 PUSH1 0xFF DUP3 AND SWAP1 POP SWAP2 SWAP1 POP JUMP JUMPDEST PUSH1 0x0 PUSH2 0x29C7 DUP3 PUSH2 0x294C JUMP JUMPDEST SWAP1 POP SWAP2 SWAP1 POP JUMP JUMPDEST PUSH1 0x0 PUSH2 0x29D9 DUP3 PUSH2 0x295F JUMP JUMPDEST SWAP1 POP SWAP2 SWAP1 POP JUMP JUMPDEST PUSH1 0x0 PUSH2 0x29EB DUP3 PUSH2 0x2972 JUMP JUMPDEST SWAP1 POP SWAP2 SWAP1 POP JUMP JUMPDEST PUSH1 0x0 JUMPDEST DUP4 DUP2 LT ISZERO PUSH2 0x2A10 JUMPI DUP1 DUP3 ADD MLOAD DUP2 DUP5 ADD MSTORE PUSH1 0x20 DUP2 ADD SWAP1 POP PUSH2 0x29F5 JUMP JUMPDEST DUP4 DUP2 GT ISZERO PUSH2 0x2A1F JUMPI PUSH1 0x0 DUP5 DUP5 ADD MSTORE JUMPDEST POP POP POP POP JUMP JUMPDEST PUSH1 0x0 PUSH2 0x2A30 DUP3 PUSH2 0x29A5 JUMP JUMPDEST SWAP2 POP PUSH32 0xFFFFFFFFFFFFFFFFFFFFFFFFFFFFFFFFFFFFFFFFFFFFFFFFFFFFFFFFFFFFFFFF DUP3 EQ ISZERO PUSH2 0x2A63 JUMPI PUSH2 0x2A62 PUSH2 0x2A98 JUMP JUMPDEST JUMPDEST PUSH1 0x1 DUP3 ADD SWAP1 POP SWAP2 SWAP1 POP JUMP JUMPDEST PUSH1 0x0 PUSH2 0x2A79 DUP3 PUSH2 0x29AF JUMP JUMPDEST SWAP2 POP PUSH1 0xFF DUP3 EQ ISZERO PUSH2 0x2A8D JUMPI PUSH2 0x2A8C PUSH2 0x2A98 JUMP JUMPDEST JUMPDEST PUSH1 0x1 DUP3 ADD SWAP1 POP SWAP2 SWAP1 POP JUMP JUMPDEST PUSH32 0x4E487B7100000000000000000000000000000000000000000000000000000000 PUSH1 0x0 MSTORE PUSH1 0x11 PUSH1 0x4 MSTORE PUSH1 0x24 PUSH1 0x0 REVERT JUMPDEST PUSH32 0x4E487B7100000000000000000000000000000000000000000000000000000000 PUSH1 0x0 MSTORE PUSH1 0x21 PUSH1 0x4 MSTORE PUSH1 0x24 PUSH1 0x0 REVERT JUMPDEST PUSH32 0x4E487B7100000000000000000000000000000000000000000000000000000000 PUSH1 0x0 MSTORE PUSH1 0x32 PUSH1 0x4 MSTORE PUSH1 0x24 PUSH1 0x0 REVERT JUMPDEST PUSH1 0x0 DUP1 REVERT JUMPDEST PUSH1 0x0 PUSH1 0x1F NOT PUSH1 0x1F DUP4 ADD AND SWAP1 POP SWAP2 SWAP1 POP JUMP JUMPDEST PUSH32 0x696E76616C69642062657420616D6F756E740000000000000000000000000000 PUSH1 0x0 DUP3 ADD MSTORE POP JUMP JUMPDEST PUSH32 0x4661696C656420746F2073656E64204574686572000000000000000000000000 PUSH1 0x0 DUP3 ADD MSTORE POP JUMP JUMPDEST POP JUMP JUMPDEST PUSH32 0x72657175697265645F62657420697320746F6F206C6F77000000000000000000 PUSH1 0x0 DUP3 ADD MSTORE POP JUMP JUMPDEST PUSH1 0x3 DUP2 LT PUSH2 0x2BCA JUMPI PUSH2 0x2BC9 PUSH2 0x2AC7 JUMP JUMPDEST JUMPDEST POP JUMP JUMPDEST PUSH1 0x3 DUP2 LT PUSH2 0x2BDE JUMPI PUSH2 0x2BDD PUSH2 0x2AC7 JUMP JUMPDEST JUMPDEST POP JUMP JUMPDEST PUSH1 0x4 DUP2 LT PUSH2 0x2BF2 JUMPI PUSH2 0x2BF1 PUSH2 0x2AC7 JUMP JUMPDEST JUMPDEST POP JUMP JUMPDEST PUSH2 0x2BFE DUP2 PUSH2 0x29A5 JUMP JUMPDEST DUP2 EQ PUSH2 0x2C09 JUMPI PUSH1 0x0 DUP1 REVERT JUMPDEST POP JUMP INVALID SLOAD PUSH9 0x65726520697320616C PUSH19 0x656164792061206D61726B2061742074686520 PUSH8 0x6976656E20636F6F PUSH19 0x64696E617465732E4265742073686F756C6420 PUSH3 0x652067 PUSH19 0x6561746572207468616E2061206665652EA264 PUSH10 0x706673582212202BD2E4 0xCE 0x26 LOG3 DUP5 0xCE NOT 0xB9 0xAF 0x5D INVALID MSTORE8 PUSH9 0x5D0034D8CD6E41EFE6 PUSH21 0xB59B0245A947E064736F6C63430008070033000000 "
		},
		"gasEstimates": {
			"creation": {
				"codeDepositCost": "2282400",
				"executionCost": "2441",
				"totalCost": "2284841"
			},
			"external": {
				"_makeMove(uint256,uint256,uint256)": "infinite",
				"getGameInfo(uint256)": "infinite",
				"joinGame(uint256)": "infinite",
				"makeMove(uint256,uint256,uint256)": "infinite",
				"newGame(uint256)": "infinite",
				"numberOfGames()": "2517"
			},
			"internal": {
				"_joinGame(uint256,uint256)": "infinite",
				"calculateWinner(enum TicTacToe.PlayerTypes[3] memory[3] memory)": "infinite",
				"getCurrentPlayer(struct TicTacToe.Game storage pointer)": "infinite",
				"isBoardFull(enum TicTacToe.PlayerTypes[3] memory[3] memory)": "infinite",
				"nextPlayer(struct TicTacToe.Game storage pointer)": "26635",
				"winnerInColumn(enum TicTacToe.PlayerTypes[3] memory[3] memory)": "infinite",
				"winnerInDiagonal(enum TicTacToe.PlayerTypes[3] memory[3] memory)": "infinite",
				"winnerInRow(enum TicTacToe.PlayerTypes[3] memory[3] memory)": "infinite"
			}
		},
		"methodIdentifiers": {
			"_makeMove(uint256,uint256,uint256)": "3f10d76b",
			"getGameInfo(uint256)": "47e1d550",
			"joinGame(uint256)": "efaa55a0",
			"makeMove(uint256,uint256,uint256)": "cfc2f5ff",
			"newGame(uint256)": "cde9ef78",
			"numberOfGames()": "f6928070"
		}
	},
	"abi": [
		{
			"anonymous": false,
			"inputs": [
				{
					"indexed": false,
					"internalType": "uint256",
					"name": "gameId",
					"type": "uint256"
				},
				{
					"indexed": false,
					"internalType": "address",
					"name": "creator",
					"type": "address"
				}
			],
			"name": "GameCreated",
			"type": "event"
		},
		{
			"anonymous": false,
			"inputs": [
				{
					"indexed": false,
					"internalType": "uint256",
					"name": "gameId",
					"type": "uint256"
				},
				{
					"indexed": false,
					"internalType": "enum TicTacToe.Winners",
					"name": "winner",
					"type": "uint8"
				}
			],
			"name": "GameOver",
			"type": "event"
		},
		{
			"anonymous": false,
			"inputs": [
				{
					"indexed": false,
					"internalType": "uint256",
					"name": "gameId",
					"type": "uint256"
				},
				{
					"components": [
						{
							"internalType": "address",
							"name": "addr",
							"type": "address"
						},
						{
							"internalType": "uint256",
							"name": "bet",
							"type": "uint256"
						}
					],
					"indexed": false,
					"internalType": "struct TicTacToe.Player",
					"name": "player",
					"type": "tuple"
				},
				{
					"indexed": false,
					"internalType": "uint8",
					"name": "playerNumber",
					"type": "uint8"
				}
			],
			"name": "PlayerJoinedGame",
			"type": "event"
		},
		{
			"anonymous": false,
			"inputs": [
				{
					"indexed": false,
					"internalType": "uint256",
					"name": "gameId",
					"type": "uint256"
				},
				{
					"components": [
						{
							"internalType": "address",
							"name": "addr",
							"type": "address"
						},
						{
							"internalType": "uint256",
							"name": "bet",
							"type": "uint256"
						}
					],
					"indexed": false,
					"internalType": "struct TicTacToe.Player",
					"name": "player",
					"type": "tuple"
				},
				{
					"indexed": false,
					"internalType": "uint256",
					"name": "xCoordinate",
					"type": "uint256"
				},
				{
					"indexed": false,
					"internalType": "uint256",
					"name": "yCoordinate",
					"type": "uint256"
				}
			],
			"name": "PlayerMadeMove",
			"type": "event"
		},
		{
			"inputs": [
				{
					"internalType": "uint256",
					"name": "_gameId",
					"type": "uint256"
				},
				{
					"internalType": "uint256",
					"name": "_xCoordinate",
					"type": "uint256"
				},
				{
					"internalType": "uint256",
					"name": "_yCoordinate",
					"type": "uint256"
				}
			],
			"name": "_makeMove",
			"outputs": [
				{
					"internalType": "bool",
					"name": "success",
					"type": "bool"
				},
				{
					"internalType": "string",
					"name": "reason",
					"type": "string"
				}
			],
			"stateMutability": "nonpayable",
			"type": "function"
		},
		{
			"inputs": [
				{
					"internalType": "uint256",
					"name": "_gameId",
					"type": "uint256"
				}
			],
			"name": "getGameInfo",
			"outputs": [
				{
					"components": [
						{
							"internalType": "uint256",
							"name": "totalBet",
							"type": "uint256"
						},
						{
							"internalType": "uint256",
							"name": "required_bet",
							"type": "uint256"
						},
						{
							"components": [
								{
									"internalType": "address",
									"name": "addr",
									"type": "address"
								},
								{
									"internalType": "uint256",
									"name": "bet",
									"type": "uint256"
								}
							],
							"internalType": "struct TicTacToe.Player",
							"name": "playerOne",
							"type": "tuple"
						},
						{
							"components": [
								{
									"internalType": "address",
									"name": "addr",
									"type": "address"
								},
								{
									"internalType": "uint256",
									"name": "bet",
									"type": "uint256"
								}
							],
							"internalType": "struct TicTacToe.Player",
							"name": "playerTwo",
							"type": "tuple"
						},
						{
							"internalType": "enum TicTacToe.Winners",
							"name": "winner",
							"type": "uint8"
						},
						{
							"internalType": "enum TicTacToe.Status",
							"name": "status",
							"type": "uint8"
						},
						{
							"internalType": "enum TicTacToe.PlayerTypes",
							"name": "playerTurn",
							"type": "uint8"
						},
						{
							"internalType": "enum TicTacToe.PlayerTypes[3][3]",
							"name": "board",
							"type": "uint8[3][3]"
						}
					],
					"internalType": "struct TicTacToe.Game",
					"name": "game",
					"type": "tuple"
				}
			],
			"stateMutability": "view",
			"type": "function"
		},
		{
			"inputs": [
				{
					"internalType": "uint256",
					"name": "_gameId",
					"type": "uint256"
				}
			],
			"name": "joinGame",
			"outputs": [],
			"stateMutability": "payable",
			"type": "function"
		},
		{
			"inputs": [
				{
					"internalType": "uint256",
					"name": "_gameId",
					"type": "uint256"
				},
				{
					"internalType": "uint256",
					"name": "_xCoordinate",
					"type": "uint256"
				},
				{
					"internalType": "uint256",
					"name": "_yCoordinate",
					"type": "uint256"
				}
			],
			"name": "makeMove",
			"outputs": [],
			"stateMutability": "nonpayable",
			"type": "function"
		},
		{
			"inputs": [
				{
					"internalType": "uint256",
					"name": "_required_bet",
					"type": "uint256"
				}
			],
			"name": "newGame",
			"outputs": [
				{
					"internalType": "uint256",
					"name": "gameId",
					"type": "uint256"
				}
			],
			"stateMutability": "nonpayable",
			"type": "function"
		},
		{
			"inputs": [],
			"name": "numberOfGames",
			"outputs": [
				{
					"internalType": "uint256",
					"name": "",
					"type": "uint256"
				}
			],
			"stateMutability": "view",
			"type": "function"
		}
	]
}